:020000040001F9
:1060000020380020CD620100E762010073760100B4
:106010000000000000000000000000000000000080
:10602000000000000000000000000000EB62010022
:106030000000000000000000ED620100EF620100BE
:10604000F1620100F162010095EC010075E30100CD
:10605000F162010000000000CDAF0100F16201001B
:10606000F1620100F1620100F1620100F1620100E0
:10607000F1620100F1620100F1620100F1620100D0
:10608000F162010091A70100F1620100F1620100DB
:10609000B3A70100F162010025AC0100F16201002B
:1060A000F1620100F1620100000000000000000048
:1060B00000000000000000000000000000000000E0
:1060C00000F002F800F056F80CA030C80838241888
:1060D0002D18A246671EAB4654465D46AC4201D120
:1060E00000F048F87E460F3E0FCCB64601263342FC
:1060F00000D0FB1AA246AB4633431847A0C40000A9
:10610000C0C400000023002400250026103A01D35B
:1061100078C1FBD8520700D330C100D50B6070475F
:1061200010B5662902D10CF005F910BD642902D121
:1061300009F0B4F810BD782902D109F0E5F810BDD6
:10614000632902D10AF0A9FB10BD732902D10AF01C
:10615000ACFB10BD002010BD1FB5C046C0460AF004
:1061600079FC0400002000210BF00CFFE0601FBD53
:1061700010B510BD0BF07EF81146FFF7EDFF01F0F2
:10618000A6FF0BF096F803B4FFF7F2FF03BC0BF089
:106190000BF90000401E00BF00BF00BF00BF00BFE2
:1061A00000BF00BF00BF00BF00BF00BF00BFF1D1F4
:1061B00070470000401E00BF00BF00BF00BF00BF0F
:1061C00000BF00BF00BF00BF00BF00BF00BFF1D1D4
:1061D00070470000401E00BF00BF00BF00BF00BFEF
:1061E00000BF00BF00BF00BF00BF00BF00BFF1D1B4
:1061F00070470000401E00BF00BF00BF00BF00BFCF
:1062000000BF00BF00BF00BF00BF00BF00BFF1D193
:1062100070470000401E00BF00BF00BF00BF00BFAE
:1062200000BF00BF00BF00BF00BF00BF00BFF1D173
:1062300070470000401E00BF00BF00BF00BF00BF8E
:1062400000BF00BF00BF00BF00BF00BF00BFF1D153
:1062500070470000401E00BF00BF00BF00BF00BF6E
:1062600000BF00BF00BF00BF00BF00BF00BFF1D133
:1062700070470000401E00BF00BF00BF00BF00BF4E
:1062800000BF00BF00BF00BF00BF00BF00BFF1D113
:106290007047000070B505460C46164602E00FCC6C
:1062A0000FC5103E102EFAD2082E02D303CC03C520
:1062B000083E042E07D301CC01C5361F03E0217828
:1062C0002970641C6D1C761EF9D270BD03210C4828
:1062D00002680A4302600B4802680A4302600A48E7
:1062E00080470A480047FEE7FEE7FEE7FEE7FEE7D5
:1062F000FEE7000006480749054A074B70470000C3
:106300002405004054050040B3630100C160010052
:10631000202C002020380020202C00202E482F493F
:10632000086070472E48008CC0B2012810D12C485C
:10633000808C0007000F0BD12948806AF0210840AB
:10634000402805D12648C06A084201D10120704783
:106350000020FCE72248008CC0B2012827D1204849
:10636000808C0007000F22D11D48806AF02108426E
:1063700005D11B48C06A084201D101207047184866
:10638000806AF0210840102805D11548C06A0842EB
:1063900001D10120F2E71248806AF021084030283C
:1063A00005D10F48C06A084201D10120E6E700206C
:1063B000E4E710B5FFF7CEFF002805D009480A49E9
:1063C0004860C81309498861FFF7ACFF002802D074
:1063D00001200749886010BD0024F400002000203F
:1063E000C00F00F0DFFF07C000050040006C004058
:1063F0000006004001F0FCFE04460D462A462146F8
:10640000FE48FFF7F7FF044600BFFDA26D212046BE
:10641000FFF7F0FF1FB5002000900190029003905D
:10642000FA48007869460870F9480078002804D0D6
:1064300008781021084369460870F64801786846D4
:106440004170F4480088011268468170F248017872
:106450006846C170F04800880004010E684601716A
:10646000ED4800680002010E68464171EA48006884
:10647000010E68468171E94801786846C171E748B4
:1064800000880004010E68460172E44800680002BA
:10649000010E68464172DD480078042815D1E048B5
:1064A000017868468172DE4800880004010E684663
:1064B000C172DB4800680002010E68460173D848CB
:1064C0000068010E6846417362E0D04800780728F2
:1064D00020D1D448017868468172D24800880004EF
:1064E000010E6846C172CF4800680002010E68467E
:1064F0000173CC480068010E68464173CA480068C1
:10650000C8490968441A684684732004010E684625
:10651000C1733DE0BD48007805281ED1C34801780D
:1065200068468172C14800880004010E6846C17245
:10653000BE4800680002010E68460173BB4800684F
:10654000010E68464173BA48017868468173B848BD
:10655000008801126846C1731AE0B648017868469F
:106560008172B44800880004010E6846C172B248C6
:10657000017868460173B148017868464173AF48B5
:106580000088011268468173AD4801786846C1737E
:106590006946A04806F0DDFC1FBD1FB50020009035
:1065A000019002900390694608709948007800288D
:1065B00004D008781021084369460870954801788E
:1065C000684641709348008801126846817092487D
:1065D00001786846C170904800880004010E684642
:1065E00001718D4800680002010E684641718A48B9
:1065F0000068010E68468171884801786846C1715B
:10660000864800880004010E6846017283480068CD
:106610000002010E68464172864801786846817220
:10662000844800880004010E6846C17282480178DF
:106630006846017381480178684641737F48008845
:106640000112684681737E4801786846C1736946C5
:106650007C4802F0DFF91FBD10B5012005F05AFAA1
:1066600005F01CFC012005F0BBFA10BD30B5A3B04D
:10667000062100914C2168460182172181827249CE
:106680000691382115A808F0BFFF002110A88175D8
:10669000012101836946179104A82090382107A899
:1066A00008F0B2FF6949684681800121018168498B
:1066B00003910221017701A81390012110A8017410
:1066C00007A915A803F00DFB044600BF2546002DC1
:1066D00005D000BF4AA25F492846FFF78BFE00BFE6
:1066E00023B030BD10B55C480078002800D010BD44
:1066F00048480088401C47490880002043490870EA
:10670000FFF788FE43480088544988421ADB00207E
:106710004049088052480078C007C00F06D1504851
:10672000007840084000401C4D4908704C480078F3
:106730008007C00F06D14A48007802218843801C98
:10674000474908704248007840084000401C4049D2
:106750000870FFF78BFF05F0A1FB00BFC7E710B57E
:106760003D480078002800D010BD29480078002856
:1067700004D0FFF77BFFFFF76FFF3AE02548008862
:10678000401C24490880042020490870012005F09D
:10679000C1F9FFF73FFE012005F022FA1D480088ED
:1067A0002E4988421ADB00201A4908802C480078BC
:1067B000C007C00F06D12A48007840084000401C9E
:1067C00027490870264800788007C00F06D1244862
:1067D000007802218843801C214908701C480078F9
:1067E00040084000401C1A490870FFF73FFFFFF7C0
:1067F00033FF00201B4908701B4837E0EFBEADDEB9
:106800002E2E5C6D61696E2E630000001B2000203F
:106810003A2000206C2100207021002078210020E7
:106820007C210020482000204C200020C421002092
:10683000A62100207C2000207E2000208020002037
:10684000442000208827002004200020839E000090
:106850006C2000204302000025200020A0FE000044
:1068600085210020272000204620002000882021AC
:106870008843FE49088000BF76E710B5FC480088D1
:10688000401CFB4908800520FA490870012005F0EA
:1068900041F9FFF7BFFD012005F0A2F9F448008897
:1068A000F54988421ADB0020F1490880F348007856
:1068B000C007C00F06D1F148007840084000401CD6
:1068C000EE490870ED4800788007C00F06D1EB480C
:1068D000007802218843801CE8490870E848007865
:1068E00002218843801CE649087008460078400869
:1068F0004000401C0870FFF7B9FEFFF7ADFE10BD69
:1069000010B5E0480078002800D010BDD8480088B5
:10691000401CD7490880DC480068DC490860072033
:10692000D4490870012005F0F5F8FFF773FD012048
:1069300005F056F9CE480088CF4988421ADB00207E
:10694000CB490880CD480078C007C00F06D1CB489E
:10695000007840084000401CC8490870C7480078CB
:106960008007C00F06D1C548007802218843801CEB
:10697000C2490870C248007804218843001DC049FC
:106980000870FFF773FEFFF767FE0020C04908702C
:1069900000BFBAE70120BF490860BF49086000BFD7
:1069A000BE4800680028FBD00020BC490860B948F8
:1069B0008068BB4908800120B74948600020B5497C
:1069C0000860B7480088B7490870704710B51820AC
:1069D00001F017FC182001F01DFC10BD10B5044695
:1069E000A9480068401CA84908600120AE49087009
:1069F000AE480078002815D0AD48407C002811D161
:106A00001820012383401946AA4B5B68C340DA076C
:106A1000D20F002A02D1A74B996001E0A54BD960A3
:106A200000BF00BFA2482030407A002803D0A04811
:106A3000407C01280ED14B21C9009348006808F022
:106A4000E5FD002906D19C480078002802D10120EC
:106A50009949087099480078002829D0984800780A
:106A6000002825D096480078401E954908700846B1
:106A7000007800281CD1032001F0D6FB002814D197
:106A80008B482030407A00280FD1012188482030DF
:106A90004172012005F03EF805F000FA05F052FBC6
:106AA000012005F09DF801F0A3FB00208349087048
:106AB00010BD84490978002908D10121814A11704B
:106AC0006A49098808221143684A1180704701F019
:106AD0008FFBF8B500BF7C487C4B09220821009051
:106AE000002003F06AFE054600BF2E46002E06D0A9
:106AF00000BF774AFF21EC313046FFF77BFC00BF37
:106B000000BF744A0121744803F0D3FE044600BF5D
:106B10002546002D06D000BF6D4AFF21EF312846E3
:106B2000FFF768FC00BF6D4A01216D4803F0C1FE0C
:106B3000044600BF2546002D06D000BF644AFF2151
:106B4000F2312846FFF756FC00BF664A012166482D
:106B500003F0AFFE044600BF2546002D06D000BF5F
:106B60005B4AFF21F5312846FFF744FC00BFF8BD22
:106B70003EB500BF6846007801090901491C009133
:106B800068460078F02188431030009000BF122240
:106B90004749123168467CDF044600BF2546002D78
:106BA00005D000BF4A4A51492846FFF723FC00BFE1
:106BB0000120400278DF044600BF2546002D06D0A4
:106BC00000BF434A4949091D2846FFF713FC00BF8F
:106BD0000020019002900C21684681802021C18014
:106BE000002101812821418101A87ADF044600BFEC
:106BF0002546002D06D000BF354A3C490E312846B7
:106C0000FFF7F8FB00BF042077DF044600BF2546EE
:106C1000002D06D000BF2E4A4321C9002846FFF7A9
:106C2000E9FB00BF3EBD30B589B0202101A808F0C6
:106C3000EBFC14212E4808F0E7FC14212D4808F045
:106C4000E3FC14222A4905A801F033FF1422294944
:106C500007A801F02EFF0020019004902648029022
:106C600001A9264801F08EFE044649E04620002096
:106C70006C2100201B200020A0FE000085210020A8
:106C80006C20002025200020702100204C200020B6
:106C90002F2000200075004000700040007100406F
:106CA00086200020442000203020002020200020CA
:106CB000F82A0020000500503C2000203920002048
:106CC000502000202320002037820100F0210020E6
:106CD00000680100DD69010070200020B36A010036
:106CE00074200020CF6A01007820002007020000F5
:106CF00060270020742700200764010088270020F7
:106D000000BF2546002D05D000BFF94AF9492846A5
:106D1000FFF770FB00BF09B030BD10B5FFF783FF70
:106D200010BD1E20F44908800846807840084000C5
:106D3000401C88700846807802218843EE4988709C
:106D4000084680781C2188430C30EB49887008463F
:106D5000807820218843E84988700720C870102077
:106D60000871704770B505462878002810D13B217E
:106D7000E248008876DF044600BF2646002E06D093
:106D800000BFDB4ADB492A313046FFF733FB00BF47
:106D900070BD044600BFD64AD64935312046FFF7BC
:106DA00029FB30B587B01C21684608F02DFC002077
:106DB00000900520C00301900290032168460173F2
:106DC0000021C1810174CE480590CE4806906846E6
:106DD00008F083F8044600BF2546002D06D000BF0A
:106DE000C34AC4494C312846FFF704FB00BF07B033
:106DF00030BD30B585B0C448407A002801D105B017
:106E000030BD1421684608F0FFFB00216846017080
:106E10000020019068460172BC48018868460182E2
:106E20000021418273DF044600BF2546002D06D0B5
:106E300000BFAF4A352109012846FFF7DBFA00BF42
:106E4000B3480078002802D10120B149087000BF82
:106E5000D5E710B5AE480078002805D1AD480078D8
:106E6000002801D1FFF7C5FF10BD70B5A848007814
:106E7000002811D074DF044600BF2546002D06D03F
:106E800000BF9B4A9B4961312846FFF7B3FA00BF18
:106E900000209F49087008E09E480078002804D030
:106EA00008F03FF900209B49087070BD70B59A4802
:106EB0000078002813D09948006803F072FD04465A
:106EC00000BF2546002D06D000BF894AB3218900A6
:106ED0002846FFF78FFA00BF00208F49087007F09F
:106EE000D7FB04F046FC07F031FC70BD70B58C4850
:106EF0000078002813D08B48006803F052FD044648
:106F000000BF2546002D06D000BF794A794984315B
:106F10002846FFF76FFA00BF00208149087070BD56
:106F200070B57F480078002816D100220121C903DE
:106F30007C48006803F004FD044600BF2546002D90
:106F400006D000BF6A4A6B4992312846FFF752FAD1
:106F500000BF01207249087070BD70B56E4800789E
:106F6000002816D10022FF2149316C48006803F047
:106F7000E7FC044600BF2546002D06D000BF5C4A52
:106F80005F21C9002846FFF735FA00BF012062499A
:106F9000087007F07DFB04F0C7FB07F0D7FB70BD5E
:106FA00010B56148007800280FD160490860604939
:106FB000086060490860604908606049088060496D
:106FC000087060490870FFF7C8FF10BD70B55E48D3
:106FD0000078002816D100224B2189045B48006804
:106FE00003F0AEFC044600BF2546002D06D000BFCE
:106FF0003F4A4049BD312846FFF7FCF900BF012058
:107000005149087070BD70B54F480078002813D002
:107010004E48006803F0C5FC044600BF2546002D1D
:1070200006D000BF324A3349CA312846FFF7E2F999
:1070300000BF00204449087070BD10B532482038A8
:107040000488142C00D814244148844200D30446F8
:1070500020010A2108F0DAFA2C49088010BD10B589
:10706000172001F0E1F801280AD13A4800781021F0
:10707000884310303749087001203749087008E00C
:107080003448007810218843324908700020324982
:10709000087010BD7CB50020009001906946087012
:1070A000062219494C3900A8013008F045FA694612
:1070B000002070DF044600BF2546002D05D000BF2C
:1070C0000B4A26492846FFF795F900BF7CBD70B5ED
:1070D00003F0B7FE044600BF2546002D06D000BFD2
:1070E000034A1E4915392846FFF784F900BF70BDD1
:1070F0000068010059020000882000205220002072
:10710000656D0100936D0100182B00208420002084
:107110001F200020202000201C20002074200020A0
:107120001D20002070200020342000204421002059
:10713000402100203021002038210020342100206F
:107140002C2100202D2100201E200020782000204E
:10715000102700006C2000203A2000200B050000C2
:1071600070B503F07AFE044600BF2546002D05D019
:1071700000BFFE4AFE492846FFF73CF900BF70BD3C
:10718000F8B50546288814287ED006DC10280BD0D8
:10719000112825D0132878D154E017287CD019283D
:1071A00075D05228F7D15FE0A888F24908801420F2
:1071B000F14908700020F1490870FFF7D1FFFFF78F
:1071C00005FFEF480078002802D00020EC49087045
:1071D000EC480078002802D10120EA4908708EE0CE
:1071E0000020C043E3490880E6480078002802D028
:1071F0000020E4490870182001F011F80020DE4951
:107200000870DE490870DC494870FFF7FCFEFFF7A4
:107210005EFFFFF712FFFFF7ABFCFFF73BFFFFF747
:107220001EFFFFF723FAD8480078002809D0D74876
:107230000078002805D1D6480078002801D1FFF752
:10724000D8FD5CE0D34A0021CA4800887FDF0446AD
:1072500000BF2746002F05D000BFC44ACE4938469C
:10726000FFF7C8F800BF4AE000221146C148008875
:10727000A9DF044600BF2746002F0BD000BFBB4A42
:10728000C549491D384603E00CE037E004E034E02E
:10729000FFF7B0F800BF32E03222A91DBF4808F066
:1072A0004BF92CE0BD4EB61D3188E889814211D1E1
:1072B00000223146AF48008881DF044600BF2746E0
:1072C000002F06D000BFA94AB34911313846FFF755
:1072D00091F811E000221146A648008881DF04469B
:1072E00000BF2746002F06D000BFA04AED2189002D
:1072F0003846FFF77FF800BF01E000E000BF00BFA5
:10730000F8BD10B504462046FFF73AFF204607F0C7
:10731000BEFE2146A24801F04AFA10BD10B504464F
:10732000204601F064FE10BDF8B500BF00235022D6
:107330009C49082003F02FFC054600BF2E46002E76
:1073400006D000BF894A7D21C9003046FFF752F8B8
:1073500000BF00BF002000900090684660DF044638
:1073600000BF2546002D06D000BF804A8A49523111
:107370002846FFF73FF800BF8B4803F041FC044666
:1073800000BF2546002D06D000BF784A82495631FD
:107390002846FFF72FF800BF844803F03AFC044664
:1073A00000BF2546002D06D000BF704A7A495A31E9
:1073B0002846FFF71FF800BFF8BD70B500BF7C4A34
:1073C0000A21082002F0D6FC044600BF2546002D05
:1073D00006D000BF654A704962312846FFF70AF8B7
:1073E00000BF00BF70BD70B504460D46012D32D1FF
:1073F000032C1DD0062C02D0172C24D103E0012031
:107400006C49087026E000206B49087001206B4928
:1074100008706B4800882021084369490880694842
:1074200000781021884367490870FFF71FF911E0C1
:1074300065480078002805D10120634908700220C2
:107440006249087006E000BF484A53498F31204620
:10745000FEF7D0FF2EE0002D2CD1032C21D0062CDE
:1074600002D0172C1ED103E000205249087020E002
:107470000120514908705149087051480088202165
:1074800008434F4908804F48007810218843103046
:107490004C4908704E4800684E490860FFF7E6F80E
:1074A00007E006E000BF314A3149AF392046FEF718
:1074B000A1FF00BF70BD70B500BF4749012003F0B8
:1074C00002FE044600BF2546002D06D000BF274A15
:1074D000274997392846FEF78DFF00BF00BF70BDD2
:1074E00070B500BF3D4B3E4A03213E4803F067FCA8
:1074F000044600BF2546002D06D000BF1B4A8F2141
:10750000C9002846FEF776FF00BF00BF70BD70B50A
:1075100040DF044600BF2546002D06D000BF134AB9
:1075200013497D392846FEF765FF00BF70BD10B5D1
:10753000162000F066FE082000F063FE122000F026
:1075400060FE022000F05DFE082000F063FE264889
:10755000FEF720FE082000F062FE162000F05AFE22
:107560002148FEF717FE162040E0000000680100E9
:10757000FE0400005220002092210020CC21002097
:107580001F20002020200020342000202520002063
:1075900024200020882000209D03000018260020C1
:1075A000882700204C260020037301001D73010072
:1075B0009C2600202E2000203A200020272000209A
:1075C000462000206C200020392000205020002080
:1075D000702100207C2100204C2700204D820100DA
:1075E0006606000054200020A086010000F017FE6F
:1075F000022000F014FE10BD08B50020034613223F
:1076000001210090142007F008FB08BD08B5FE48D2
:1076100000680090684607F03FF808BD1CB5FA49BD
:10762000091D03C9019100906946012004F07BFA0D
:107630001CBD0021C943F54AD161002009E00221A7
:107640000522120707231B02D2188300D150411CC8
:10765000C8B22028F3DB70471820ED4948600020AD
:10766000EC490860704710B503F070FF04F081F832
:1076700010BD00F0BDFD704710B500240DE01820CE
:1076800000F0C8FDE448FEF785FD182000F0C7FDB6
:10769000E148FEF77FFD601CC4B2032CEFDB10BD98
:1076A000F0B587B0DD480078002805D1DC480078C7
:1076B000002801D107B0F0BDDA480078002845D095
:1076C000FFF784FC06F0E4FF7D20C000FEF762FDBA
:1076D00003F013FF0020D4490870487003F0E7FE60
:1076E00000BFD24800780028FBD0D148007800289D
:1076F00015D00020CF490880CB484078CA49097886
:1077000009020843CB49088009887D225143084675
:10771000C917090C09180914891FC64A11800020CD
:10772000C14908704870BF490870C3480088FF21EC
:1077300001318843C04908800120C0490870BE4813
:10774000008880210843BC490880A2E0BB4800783B
:10775000002855D0002006907D20C000FEF71AFDBD
:1077600003F024FEB2480078002833D00020B4494A
:107770000880AD484078AC4909780902084301B255
:10778000AF48018001460020085E08F003FE01902A
:1077900008F072FD0446AB4AAB4B08F041FC0646CC
:1077A0000022AA4B08F0C6F9A94AAA4B03910290FD
:1077B00008F09EF90591049007F0D8FF0690A649BD
:1077C00006980AF0CBFC0690069808F081FD00B2FE
:1077D0009B490880002094490870487097490870B8
:1077E00095480088802188439349088001209B495F
:1077F000087091480088402108438F49088048E07C
:1078000096480078002844D09548FEF7C3FC03F062
:107810005FFE87480078002815D000209149088035
:107820008148407800028049097808438D490880E2
:1078300009887D22D20051430846C917090C09184E
:107840000914884A11800020844908707A48008809
:10785000402188437849088003F064FE6F4800782F
:10786000002807D0FFF796F8FEF797FE00206B4937
:1078700008700CE0012004F04DF9FEF733FF012001
:1078800004F0AEF9FFF7BFFB00206549087006F071
:107890005DFF00BF0EE710B507F06EF91E207249BC
:1078A000887010BD10B5FFF701FBFFF7DEFA01206D
:1078B0006E4908706E480078002809D0FFF7EBFF8A
:1078C00004F097F9022000F0A5FC00206849087038
:1078D0001420684908701E20634988706648007843
:1078E000002805D06548FEF755FC012006F052FF40
:1078F00010BD10B562480078002813D061480078A8
:10790000002803D000F0E2FD00F072FC05F0BFFF9C
:1079100000205B49087048480088400840004649FC
:1079200008806AE05848007800280FD05748407C0B
:10793000002801D1FFF7B6FF0020534908703E48E8
:107940000088042188433C49088056E0504800786C
:10795000002814D04D48407C002806D1172000F0A4
:1079600063FC012801D103F06AFF00204849087038
:1079700031480088082188432F4908803DE0454868
:10798000007800280FD01E2037498870424806F042
:1079900043FF00203F4908702748008802218843A0
:1079A0002549088029E03D48007800280BD0374859
:1079B000407C002821D135482030407A01281CD154
:1079C000FEF7CDFE19E036480078002815D00120DA
:1079D0001449087018480088FF21013108431649EE
:1079E000088000202E490870134800881021884321
:1079F000114908800120094908702A4800780028A8
:107A00007CD12948007851E0442302000005005051
:107A1000007500400071004020A1070037200020C1
:107A20003B2000202B20002055210020B8210020E1
:107A3000B92100207E20002046200020292000209F
:107A40007C200020D7A3703D0AF765400000F0407D
:107A50003333333333534840000020412A20002081
:107A600060AE0A0080200020922100202520002006
:107A700036200020BE210020BD210020204E000025
:107A80008A2100209021002022200020F82A0020B6
:107A90002320002026200020402B0020272000202B
:107AA000282000203120002024200020002825D17B
:107AB000FE480078002821D1FD48007800281DD11B
:107AC000FC480078002803D0FB480078002815D037
:107AD000FA48407C002807D1F8482030407A012835
:107AE00002D1FFF7DDFD09E00020F5490870F548F7
:107AF0000088FF2101318843F249088010BD10B58C
:107B0000FFF7D4F9E9480078002815D1EE4908704C
:107B1000EE490870EE490870022000F080FBED4845
:107B20000078002802D0ECA006F0F6FF07F004F879
:107B3000FFF774FDFFF78DF910BD10B5E948007827
:107B4000002800D010BDE8480078002800D0F9E7F0
:107B5000E64800780007C00F00D1F3E7D748407C23
:107B6000012800D1EEE7172000F05EFB01282ED19E
:107B7000DF48007800282AD1CC480078002826D198
:107B8000DA480078C006C00F38D0D74800780028FF
:107B900034D1D8480078002830D1FFF766F90A20A0
:107BA000D54908700020D5490860D54908600120F2
:107BB000CF4908700020C3490880FFF76CFE04F02D
:107BC00018F8022000F026FBFFF7C7F916E017208F
:107BD00000F02AFB002811D1C548007800280DD0FC
:107BE0000020C3490870C4490870BA4800780028CA
:107BF00002D0C4A006F090FFFFF781FF00BFA1E70D
:107C000010B5B8480078002800D010BDAB48407CC3
:107C1000012800D1F9E7A9482030407A002800D196
:107C2000F3E7BB48007800281ED00120B94908704E
:107C3000B948007800280BD10120B7490870AB483B
:107C40000078402188434030A8490870FEF70EFDB7
:107C5000B248007800282CD1B1480068B1490860CA
:107C60000120AE49087024E0AA480078012820D1FC
:107C7000062000F0D9FA01281BD10020A549087080
:107C80009B480078002805D188480078002801D159
:107C9000FEF736FEA048007800280AD000209E4952
:107CA0000870924800784021884390490870FEF798
:107CB000DDFC00BFA9E770B59B480078002811D013
:107CC00074DF044600BF2546002D05D000BF974A4B
:107CD00097492846FEF78EFB00BF002092490870A6
:107CE0009449087070BD10B58F48007800281AD1EB
:107CF00070480078002816D1FFF79FF9FEF738FF8B
:107D0000FFF7C8F9FFF7ABF9FEF7B0FC8A48007837
:107D1000002808D076480078002804D1FFF769F8D9
:107D200001208449087010BD70B500258348007893
:107D300000287DD082480078002808D05D4800786F
:107D4000002804D1FEF788FC00207D4908703C2102
:107D50007348006807F05AFC00291ED157482038A4
:107D6000057D3C214D4329466D48006807F04EFCD7
:107D7000002912D17348007800280ED1FEF70AFEC0
:107D800001204F4908704F480088FF210131084306
:107D90004C49088001206B4908706B480078002826
:107DA0000CD044480078002808D1FFF7D9F903F037
:107DB00079FCFFF78CF9002063490870634800786C
:107DC000002811D0FFF751F8FFF765FD022000F001
:107DD00021FA03F00EFF14205D49087000205B4972
:107DE00008700120324908705A480078002811D0E4
:107DF00058490878C10F091849104900411A02D1A1
:107E000000F0F8FA01E000F000FB52480078401E54
:107E1000504908703848007800280FD0364800785C
:107E2000401E0006000E3449087007D11F4800E0CC
:107E300011E10078002801D1FFF761FE4448007885
:107E400000282FD042480078401E0006000E40490E
:107E5000087027D11F480078002802D03EA006F005
:107E60005BFE06F069FEFEF7F4FF1048007800287C
:107E700004D000200D490870FFF7D0FB0C480078B3
:107E8000002804D000200A490870FFF7C7FB002033
:107E90000F490870022000F0C2F906F075FF0020BB
:107EA0003249087032480078002863E0252000201D
:107EB000352000202020002037200020F82A002034
:107EC0002B200020462000202120002022200020FE
:107ED000BD210020CA21002053544D206F66660A40
:107EE0000000000090210020272000206C200020AE
:107EF000242000208A210020452000204421002049
:107F000040210020446F6F7220436C6F73650A003C
:107F10002E20002043200020312000202F20002090
:107F200070210020482000201F2000200068010050
:107F3000E2070000382000203420002030200020FC
:107F40003C2000203B2000208D210020BC2100206F
:107F5000BE2100209121002055617274207374614C
:107F600074652072657365740A000000BF210020EB
:107F7000C921002011D0D4480078401E0006000E10
:107F8000D149087009D1D1480078002805D0D048DF
:107F90000078002801D106F0F7FECE48407A01288B
:107FA00005D1CD480078002801D1FFF79CFEC948D3
:107FB000407A002805D1C8480078002801D0FFF792
:107FC0007AFE002442E0002C04D0012C19D0022CAF
:107FD00039D129E0C1480078002811D0BF48007885
:107FE000401E0006000EBD49087009D1BC4800784B
:107FF000002805D1BB480078002801D007F091F88F
:1080000021E0B648407800280DD0B4484078401EA2
:108010000006000EB149487005D1B248007800282A
:1080200001D007F07EF80EE0AC488078002809D037
:10803000AA488078401E0006000EA849887001D129
:1080400006F07AFD00BF00BF601CC4B2032CBADB8F
:108050000020A549087070BD10B5A448007800281C
:1080600030D003F091FC0020A0490870A04800889F
:10807000082188439E4908809E480078002825D022
:10808000FEF714FF002099490870994800880821DC
:1080900088439749088001218E482038017496480A
:1080A00000688C496039886494480068C86401207D
:1080B00003F030FD04F046F8012003F091FDFEF7D7
:1080C00098FE03E001F017FFFFF721FA10BDFFF75C
:1080D000B0FAFEF77BFCFFF7CEFAFFF728FAFFF7BE
:1080E000BBFAFEF7F6FCFFF7E6F9FFF7F9F9FFF741
:1080F0001BF9FFF762F9FFF77FFAFFF787FAFFF73F
:108100008DFA04F0A9FB7E48FEF744F8FFF7ABFABE
:1081100006F01CFB012003F063FD06F00DFDFEF7E9
:1081200027FDFEF7FAFDFEF7B5FFFEF798FFFEF715
:108130009DFAFEF736FEFEF7F4FDFEF7C8FFFEF7E8
:108140007CFF6448407A012807D163480078002802
:1081500009D101206049087005E05E48407A002896
:1081600001D1FFF789FA5B482038007C012803D150
:1081700060490870FEF73DFEFEF7D2FEFEF710FFE5
:10818000182000F04CF800BF5A480078002802D1AF
:10819000FFF762FFF8E7574800780028F4D0594805
:1081A000007800280AD0FEF760FE002051490870D0
:1081B000FEF7F6FE002053490870E5E7FFF7B4FD2F
:1081C000FFF71EFDFFF7B9FC01F095FE4848008857
:1081D000002804D001F08FFEFFF78BFBD4E7444862
:1081E00000880028D0D101F086FEFFF790F9CBE798
:1081F000BFF34F8F44484549C860BFF34F8F00BF5E
:10820000FEE703210522120707231B02D218830071
:10821000D1507047012181403D4A91607047012152
:1082200081403B4AD1607047014639480069C840E7
:10823000C007C00F70477CB504460D4600940195F9
:10824000344A0821684601F0B5FD7CBD7CB5044682
:108250000D46164600946846057146712E4A08215F
:1082600001F0A8FD7CBDF8B504460D46264600BFCA
:10827000082D01D1012000E000200746002F05D184
:1082800000BF26A2FF211B31FEF7B4F800BF316802
:1082900070688847F8BDF8B505460E462C4600BF05
:1082A000082E01D1012000E000200746002F04D154
:1082B00000BF26A2A821FEF79DF800BF61792079B2
:1082C00022689047F8BD0000C9210020C821002085
:1082D00026200020182B002038200020922100208A
:1082E000CC2100202020002030200020232000204E
:1082F000462000203420002030210020382100209A
:10830000102700008C2100200400FA0500ED00E099
:108310000005005067820100978201002E2E5C2E1E
:108320002E5C2E2E5C2E2E5C2E2E5C496E636C75A0
:1083300064655C6170705F636F6D6D6F6E5C6170C2
:10834000705F74696D65722E680000002E2E5C2EC1
:108350002E5C2E2E5C2E2E5C2E2E5C496E636C7570
:1083600064655C6170705F636F6D6D6F6E5C617092
:10837000705F627574746F6E2E680000002046494D
:10838000486088600720086101204449C8600F20C8
:10839000414940310860012041490860704770B58B
:1083A000404A3F49C039022047DF044600BF254606
:1083B000002D06D000BF3CA253212846FEF71AF834
:1083C00000BF00BF042045DF044600BF2546002D46
:1083D00006D000BF34A257212846FEF70BF800BF95
:1083E00000BF70BD10B5002303221921022000F048
:1083F0001DF810BD10B5FFF7D2FFFFF7BFFFFFF765
:10840000F1FF01202549086010BD002025490839E9
:1084100051221201891888600120204948601920E2
:1084200001218140234AD16000BF704770B5002B05
:108430000CD101248C401F4DEC601F4C194D083DA0
:1084400051263601AD198600AC510BE001248C4059
:10845000184DAC60194C134D083D51263601AD192D
:108460008600AC5100BF00BF00BF012485000D4E47
:10847000083EAD192C600C0203252C4315042C4337
:108480001D052C43354651263601AD198600AC51E9
:1084900000BF00BF00BF70BD00A5004000A00040AD
:1084A00000A20040086000402E2E5C62757A7A655A
:1084B000722E630000050050031F0200031F01001D
:1084C0008A8802827047FE490870704710B5002004
:1084D000FFF7F9FF0020FB490870FB4800780028EF
:1084E00006D003F0DBFC04F043FC0020F6490870E2
:1084F000012003F075FB10BD70B504460D46F14830
:10850000007800280CD0FFF7E1FF00BFBFF34F8FCA
:10851000EE48EF49C860BFF34F8F00BF00BFFEE7D2
:108520000020C043208270BD33B58BB004463C2090
:10853000E8494870142102A807F066F802A90CA8BF
:1085400004F092FC142101910020079008900990FA
:108550000A90E148018868468183012181770021E2
:10856000018401A8099002A80A90208A07A9A6DF21
:108570000546002D08D1D2480078012804D1D748FB
:108580000088401CD549088028460DB030BD70B524
:1085900005463FE0D2480088002802D1FFF796FF49
:1085A0003CE0D04801882846FFF7BEFF0446002C77
:1085B00001D0204670BD002C05D0082C1BD0CA4825
:1085C00020181CD116E0BE480078012811D1C548FA
:1085D0000088401CC349088008460088C349884277
:1085E00002DD0120BF490880BD480088401EBC490B
:1085F00008800EE00DE0FFF769FF2046DAE7A86883
:10860000002802D02046A9688847FFF75FFF204670
:10861000D0E700BFAA4800780128BBD000BF0020E7
:10862000C8E770B505462BE0AC480088B04909881A
:10863000884202DDFFF74AFF22E0A8480188284669
:10864000FFF772FF0446002C01D0204670BD002CBD
:1086500005D0082C05D0A448201806D100E00EE073
:108660000DE0FFF733FF2046F0E7A868002802D0AE
:108670002046A9688847FFF729FF2046E6E700BFA4
:108680008F4800780128CFD00020DFE733B58BB0CA
:108690000446142102A806F0B7FF3C208D4948701B
:1086A00002A90CA804F02BFC1421019100200790D2
:1086B000089009900A9088480188684681830121C2
:1086C00081770021018401A8099002A80A90208ADC
:1086D00007A9A6DF0546002D08D1794800780128B2
:1086E00004D17E480088401C7C49088028460DB093
:1086F00030BD70B5054636E0784800887D49098868
:1087000088420DDD55217C48007802017B4881506C
:1087100001206D49087004F0BDFEFFF7D7FE26E08A
:108720006E4801882846FFF7B1FF0446002C01D0AF
:10873000204670BD002C05D0082C05D06A482018B2
:1087400006D100E00EE00DE0FFF7C0FE2046F0E7A6
:10875000A868002802D02046A9688847FFF7B6FE1F
:108760002046E6E700BF564800780128C4D000BF85
:108770000020DEE770B504460D4652480078802898
:108780000AD08C2804D092280AD095280DD108E070
:108790002046FFF7AEFF08E02046FFF742FF04E067
:1087A00000BF2046FFF7F3FE00BF00BF70BD70B5ED
:1087B00005460C462088012811D0102804D0112825
:1087C00007D0502810D109E021462846FFF778FE4F
:1087D0000BE021462846FFF78FFE06E005E0214624
:1087E0002846FFF7C7FF00E000BF00BF70BDF0B52F
:1087F0008FB006460C4617461D4600BF002F01D01D
:10880000012000E0002000900098002805D100BF62
:108810003BA29721FDF7EEFD00BF00BF00BF002D7A
:1088200001DD012000E0002000900098002805D123
:1088300000BF33A29821FDF7DDFD00BF00BF1C2162
:1088400007A806F0E1FE3248844207D16946087F56
:108850000821884308306946087710E02C48801EBC
:1088600084420CD16846007F02218843811C6846FF
:108870000177007F10218843103069460877002077
:1088800008900A900B900C900D90317808A8817692
:10889000684604870020019000BF684600790109FE
:1088A0000901491C684601710079F02188431030A4
:1088B0006946087100BF00BF68464079010929E098
:1088C000A0200020902100208E2000200400FA0526
:1088D00000ED00E09221002090200020A220002046
:1088E0009E21002098210020FCCFFFFFA0FE000069
:1088F00096210020A4210020A8210020542A002035
:108900002E2E5C626C655F7376732E630000000030
:1089100003C200000901491C684641714079F021F9
:10892000884310306946487100BF68468079062147
:108930008843811C684681718079082188430146FB
:1089400068468171807910218843014668468171AB
:1089500080794108490068468171142102A806F017
:1089600053FE0EA8029001A80390684605820021DC
:10897000418285820697F08902AA07A9149BA2DF8B
:108980000FB0F0BD70B586B005460C46304B0FCB2E
:1089900001AE0FC6206868600020C04328822946C7
:1089A00001A863DF0646002E02D0304606B070BD37
:1089B000297868468175274981822A460E3205A9A1
:1089C0000120A0DF0646002E01D03046EEE7208AC7
:1089D00000280CDD20480090238A2049284662693F
:1089E000FFF705FF0646002E01D03046DEE7208B5C
:1089F00000280DDD1A480090238B1849891E28464F
:108A0000E269FFF7F4FE0646002E01D03046CDE7BE
:108A10000020CBE770B586B004460D4614210191C5
:108A2000002002900390049005900D48018868464C
:108A30000181012181720021818101A804900595A5
:108A4000208A02A9A6DF0646304606B070BD0000A7
:108A500050230200839E00009820002003C20000E3
:108A600090200020F8B505460E46002432782146B5
:108A7000641C6A5472782146641C6A5400BF022C3C
:108A800001D1012000E000200746002F05D100BFE2
:108A900009A22021FDF7AEFC00BF00BF2046F8BDB3
:108AA00070B504460D46284606F024FD208065601A
:108AB00070BD0280416070472E2E5C626C655F73F2
:108AC00072765F636F6D6D6F6E2E630000231421ED
:108AD0004143F94A53541421414389184B800223DE
:108AE0001421414389188B600023142141438918C4
:108AF000CB601421414389180B611421414389182B
:108B00008B80704710B50020EC490880EC49087054
:108B1000E949091F087048708870002403E0204666
:108B2000FFF7D4FF641C1E2CF9D310BDFFB583B032
:108B300004460F4615460326E148007800280BD16D
:108B4000002D06D10698002803D10220DC490870C8
:108B500002E00120DA490870D9480078030008F0E3
:108B60006DFC07FC05304D82B7D4FC00D548406948
:108B7000401C08D001221207126991B2D14A5069F3
:108B800006F044FD02E0012000074069401E01217B
:108B90000907096989B2484302900120000700696A
:108BA0000004820C01200007006980B2784301466E
:108BB000029821DF0646002E02D10220C04908702B
:108BC000CCE0384620DF0646002E16D1002D11D10C
:108BD000069800280AD12078042803D10720B84934
:108BE00008700AE00520B649087006E00420B44980
:108BF000087002E00320B2490870AFE0B148406954
:108C0000401C08D001221207126991B2AD4A506986
:108C100006F0FCFC02E0012000074069401E012133
:108C20000907096989B248430121090702900969C6
:108C300089B2794308462A46029921DF0646002E6A
:108C400010D1069800280AD12078042803D10620E4
:108C50009B49087006E005209949087002E004204D
:108C6000974908707AE097484069401C08D0012273
:108C70001207126991B2934A506906F0C7FC02E0EC
:108C8000012000074069401E01210907096989B2D6
:108C90004843A90040186188401801210907029043
:108CA000096989B27943AA00891862888818069AE6
:108CB000029921DF0646002E09D12078042803D12D
:108CC00006207F49087002E005207D49087045E0D4
:108CD00001200007006980B27843AB00C018029001
:108CE000608882082169029821DF0646002E0BD198
:108CF000002D06D10698002803D10720704908707E
:108D000002E006206E49087028E06E484069401C69
:108D100008D001221207126991B26A4A506906F01E
:108D200075FC02E0012000074069401E012109078F
:108D3000096989B24843019001200007006981B2A6
:108D4000019806F063FC029020DF0646002E02D157
:108D500007205B49087001E0FFE700BF00BF304615
:108D600007B0F0BDF0B585B00F275348001F00785D
:108D70001421484350494418E5682078022804D05B
:108D8000042823D005286FD16FE0206903904B4859
:108D9000008886026088801B0490039880190390E5
:108DA000A08880194519012189020498884206D2B9
:108DB000049882082846039921DF074605E0FF2230
:108DC00001322846039921DF074680E0A0680001B0
:108DD0003D49401800890490A0680001401840896E
:108DE0000390A06800014018406802900298A842D1
:108DF00005D10399049848436188884202D0A0684D
:108E000003280DD101200007006981B2284606F031
:108E1000FDFB2A4909884618304620DF074622E034
:108E200001200007006981B2284606F0EFFB0646E4
:108E300001200007006980B27043281A8008019061
:108E400001200007006980B2711C484361884919FC
:108E5000401A8008009031462046009B019AFFF797
:108E600065FE074600BF32E030E0012000070069E0
:108E700081B2284606F0CAFB0646A08841190120A7
:108E80000007006980B27043081A80080490A08827
:108E900040196188421801200007006980B2711CE6
:108EA0004843801A8008039031462046039B049A69
:108EB000FFF73CFE07460AE0A0270020AC20002078
:108EC000AE20002000100010F829002000BF00BFD5
:108ED000002F02D10120F7498870384605B0F0BD57
:108EE000FFB581B0064617460024F24840781E2898
:108EF00037D0F0480078EF4949784018C4B21E2CAA
:108F000002DB20461E38C4B214206043E949091D23
:108F10000E54142060434018076114206043411828
:108F2000029805C8CA60886014206043E14A121D97
:108F30008018049941801420604380180A99818028
:108F40000025101F8078002805D1FFF70BFF05468C
:108F5000112D00D10025D7484078401CD5494870D4
:108F600000E00425284605B0F0BD10B50024D14826
:108F70004078002807DDFFF7F5FE0446002C02D0FC
:108F8000112C00D10024204610BDF8B50446C94874
:108F9000007814214843C749091D0E5C081F00785A
:108FA00014214843C349091D401880680001C24983
:108FB0000D58C048007814214843BE49091D401887
:108FC0004088091F0090097814225143B94A121DA4
:108FD00089180B69111F097814225143B54A121DD3
:108FE00089180846083022463146A847F8BDFEB524
:108FF00005460026AF48807801287DD10020AD4984
:109000008870AE480078082811D1022D03D10020C5
:10901000AA49087002E00020A9490870FFF7A5FFDF
:109020000646002E02D03046FFF7AFFFFEBD022DF0
:1090300002D0032D79D174E09E4800781421484372
:109040009C49091D44189F480088401C9D49088080
:109050002078022807D1084600888002618888426B
:1090600001DB012000E0002007462078052805D11B
:1090700092480078072801D1012000E000200290EA
:109080002078042805D18D480078072801D10120D7
:1090900000E000200190207804280BD18948008846
:1090A00080026188884205DB84480078002801D16D
:1090B000012000E0002000900298002807D10198CC
:1090C000002804D10098002801D1002F1FD00020D3
:1090D0007A4908703046FFF758FF76490878FFF75D
:1090E000F5FC00207749088072484078401E71499D
:1090F00048700846007800E01AE0401C08700846F6
:1091000000781E2803DB084600781E380870FFF739
:109110002CFF0646002E02D03046FFF736FF05E052
:1091200003E00D20FFF731FF00E000BF00BF00BFEC
:1091300000BF7BE770B5FFF7E5FC002062490880BF
:1091400062484069401C08D001221207126991B29E
:109150005E4A506906F05AFA02E0012000074069B1
:10916000C01E01210907096989B2484358490860AE
:1091700000205449088000BF0DE0002102014E4B41
:1091800099500201D21811810201D2189181020175
:10919000D2185181401C0228EFD30820474908709B
:1091A0004A484069401C08D001221207126991B256
:1091B000464A506906F02AFA02E001200007406999
:1091C000401E01210907096989B24843064601206A
:1091D0000007006981B2304606F018FA054620DF24
:1091E0000446002C04D101203249887034490870AB
:1091F000204670BDF8B504460D4600BF30480078E3
:10920000002801D10820F8BD00BF002C01D10E209C
:10921000F9E7002D01D10E20F5E72068002801D1E3
:109220000E20F0E7A08801210907096989B2884268
:1092300002DCA088102801DA0720E4E7E088002893
:109240002FD022484069401C08D001221207126921
:1092500091B21E4A506906F0D9F902E001200007D8
:109260004069401E01210907096989B24843E18824
:10927000A2885143164A12688918884211D3E0889F
:10928000A188484301210907096989B288420ADD9A
:10929000A18801221207126990B206F0C1F90029D3
:1092A00001D00720AFE720798007800F12D0072078
:1092B000A9E700009C270020F8290020AE2000200C
:1092C000A4200020AC200020A620002000100010C8
:1092D000A8200020FE480088022801D1042092E73F
:1092E000FB4800882860FB4800686860F8490988E6
:1092F0000901F94A891868684860F549098809012F
:1093000020685050A088F24909880901891808810D
:10931000E088EF4909880901891848810027A68853
:10932000E1884E4300BF781C87B201200007006926
:1093300080B2B04205D201200007006980B2361A1F
:1093400000E0002601200007006980B2E1490968B9
:109350004018E049086001200007006980B2B0426F
:10936000E1D9DB4800880001DB4940188781D848F3
:109370000088401CD6490880002044E73CB50346DD
:1093800000BFD6480078002801D108203CBD00BFAE
:10939000002B01D10E20F9E7002A01D10E20F5E7BC
:1093A0001868022805D218680001CB4C2058002804
:1093B00001D10720EAE75C68186801940090019CDD
:1093C00018680001C44D40190089484320180190D5
:1093D000009800012C4600194089009C2401641962
:1093E00024896043009C2401641964680019019C6D
:1093F000A04201D80720C9E7019C00985460106082
:109400000020C3E7F8B504460E4615461F4600BFC8
:10941000B2480078002801D10820F8BD00BF002E16
:1094200001D10E20F9E7002C01D10E20F5E72068CC
:10943000022805D220680001A7490858002801D158
:109440000720EAE720680001A34940184089216805
:109450000901A14A89180989484321680901891825
:10946000496840186168884201D80720D5E7002D77
:1094700006D020680001984940180089A84201DA06
:109480000720CAE7E81921680901934A8918098960
:10949000884201DD0720C0E7304600F05CF9002873
:1094A00004D0384600F057F9002801D11020B4E765
:1094B000606800F050F9002801D11020ADE72B467C
:1094C0003246214602200097FFF70AFDA5E7F8B5CE
:1094D00004460E4615461F4600BF80480078002807
:1094E00001D10820F8BD00BF002E01D10E20F9E700
:1094F000002C01D10E20F5E72068022805D2206853
:10950000000175490858002801D10720EAE72068C2
:109510000001714940184089216809016E4A891883
:109520000989484321680901891849684018616818
:10953000884201D80720D5E7002D06D02068000119
:10954000654940180089A84201DA0720CAE7E819EE
:1095500021680901604A89180989884201DD0720CC
:10956000C0E7304600F0F7F8002804D0384600F095
:10957000F2F8002801D11020B4E7606800F0EBF8A1
:10958000002801D11020ADE72B46324621460520A8
:109590000097FFF7A5FCA5E7FFB581B00C4615467F
:1095A0001E4600BF4D480078002802D1082005B0B3
:1095B000F0BD00BF002C01D10E20F8E70198002873
:1095C00001D10E20F3E72068022805D220680001AF
:1095D00041490858002801D10720E8E72068000128
:1095E0003D4940184089216809013B4A8918098989
:1095F0004843216809018918496840186168884210
:1096000001D80720D3E7002D06D020680001324999
:1096100040180089A84201DA0720C8E7A819216884
:1096200009012D4A89180989884201DD0720BEE712
:10963000019800F090F8002804D0304600F08BF834
:10964000002801D11020B2E7606800F084F80028FB
:1096500001D11020ABE7606881192A46019805F016
:109660006BFF0095206800011B490F580022032161
:109670002046019BB847002099E7F8B504460D46FF
:1096800000BF16480078002801D10820F8BD00BFAF
:10969000002C01D10E20F9E72068022805D22068AD
:1096A00000010D490858002801D10720EEE7206885
:1096B000000109494018408921680901064A8918B2
:1096C000098948432168090189184968401807E059
:1096D000A6200020A8200020F8290020A420002097
:1096E0006168884201D80720D0E7606800F033F84D
:1096F000002801D11020C9E723681B011A4FDB198C
:1097000062685B68D01A226812013B46D218118940
:1097100005F07CFF002901D00720B7E700202B4689
:109720000246214600900420FFF7DAFB0646304649
:10973000ACE7014600BF0D480078002801D10820A1
:10974000704700BF002901D10E20F9E70848407892
:1097500008600020F4E701468807800F01D101204E
:1097600070470020FCE70000F8290020A42000201A
:109770009C270020F7B584B004460F46069806786B
:10978000B01C1F2803DC6078801C1F2802DD0C2021
:1097900007B0F0BD1F20801B801E85B20295B11C52
:1097A000781802A97DDF03900398002801D0039860
:1097B000EEE72078022808D168460089A84204DC38
:1097C00009200190684605890BE008200190607827
:1097D000002804D06078A84201DC657801E0684682
:1097E0000589681CC2B23046711CCEB23A5430466C
:1097F000721CD6B20199395406980178A81C081831
:10980000C1B2069801700020C2E7F8B505460C46C3
:109810002078001D1F2801DD0C20F8BD684679DF87
:109820000646002E01D03046F7E703212278501C6F
:109830002070A95419212278501C2070A954207836
:1098400041196846008800F089FA21784018207094
:109850000020E2E7F8B505460F4616461C46686844
:10986000002801D10720F8BD2078801C29884018E5
:109870001F2801DD0C20F6E72878401CC1B22278B1
:10988000501C2070B1542178481C207077542A88CD
:1098900023789819696805F04FFE207829784018D8
:1098A00020700020DFE730B503461078C01C1F2869
:1098B00001DD0C2030BD02241578681C10704C5559
:1098C0000A241578681C10704C551578681C1070A7
:1098D0004B550020EEE7FFB587B006461D46109CAD
:1098E0000020069020780590002747E0B9007068B6
:1098F00041180A886846028149884181002203A9EB
:1099000002A865DF04900498002802D004980BB0E8
:10991000F0BD6846017B099881422ED10698002847
:1099200001D0002000E00220019020786946097BE8
:109930004118019808181F2801DD0C20E7E7069858
:10994000002809D12078401C20702278511C0898EA
:109950002170A854012006902078421903A902A87A
:1099600065DF04900498002801D00498CFE72078A0
:109970006946097B4018207000BF7F1C3088B842C0
:10998000B4DC0698002806D021780598401C081AF7
:10999000C1B2059829540020B9E7FFB581B0074648
:1099A00015460A9E009602223846049B0299FFF74C
:1099B00092FF0446002C02D0204605B0F0BD009670
:1099C000102229463846049BFFF785FF0446002CE9
:1099D00001D02046F1E70020EFE70146088806287D
:1099E00008DB08881922D201904205DD0888E04A88
:1099F000904201D0072070474888062808DB488835
:109A00001922D201904205DD4888D94A904201D0FE
:109A10000720F0E70888D64A904208D0488890424C
:109A200005D008884A88904201DD0720E3E700203E
:109A3000E1E7F8B506460D4614462078801D1F283C
:109A400001D90C20F8BD3046FFF7C7FF0746002FAD
:109A500001D03846F6E705212278501C2070A95421
:109A600012212278501C2070A95422785119308874
:109A700000F074F92178401820702278511970880C
:109A800000F06CF92178401820700020DAE7F8B572
:109A900005460E4614462879801CC7B22078801CE3
:109AA000C0191F2801DD0C20F8BD781CC1B2227836
:109AB000501C2070B154FF212278501C2070B154EA
:109AC00022789119288800F049F9217840182070EF
:109AD000A88800280EDDA868002801D10720E3E748
:109AE000AA8823789819A96805F026FD2078297995
:109AF000401820700020D7E7FEB507460E461446F2
:109B0000386B002801D10720FEBD0020019032E013
:109B1000396B0C22019850430D182879801CC0B273
:109B200000900098401CC1B22278501C2070B154A3
:109B300016212278501C2070B1542278911928885F
:109B400000F00CF9217840182070A88800280EDD5C
:109B5000A868002801D10720D6E7AA882378981999
:109B6000A96805F0E9FC207829794018207001984F
:109B7000401CC0B201903420C15D01988142C7DC15
:109B80000020C1E7F8B504460F4616460025002020
:109B900030702078002809D0324639462046FFF739
:109BA000E9FD0546002D01D02846F8BDA078002823
:109BB00008D031463846FFF728FE0546002D01D073
:109BC0002846F2E7A08800280ADD33463A460121FC
:109BD000201DFFF73FFE0546002D01D02846E4E793
:109BE000E06800280BD00020E1680856324639466C
:109BF000FFF759FE0546002D01D02846D5E7208AFB
:109C000000280CDD3B46062202212046103000963B
:109C1000FFF7C3FE0546002D01D02846C5E7208B7F
:109C200000280CDD3B460722032120461830009611
:109C3000FFF7B3FE0546002D01D02846B5E7208C7E
:109C400000280CDD3B4615221421204620300096CA
:109C5000FFF7A3FE0546002D01D02846A5E7A06A20
:109C6000002809D032463946A06AFFF7E2FE0546D1
:109C7000002D01D0284698E7E06A002809D0324636
:109C80003946E06AFFF703FF0546002D01D028465C
:109C90008BE73420005D002809DD32463946204636
:109CA000FFF72AFF0546002D01D028467DE728460C
:109CB0007BE701468888002807D08868002804D000
:109CC000886800780422104201D1072070470020E4
:109CD000FCE701468888002801DD07207047002046
:109CE000FCE7F3B593B00D46002112911191139842
:109CF000002814D01398FFF7DCFF0446002C02D094
:109D0000204615B0F0BD12AA09A91398FFF73AFF33
:109D10000446002C01D02046F3E709AE00E00026FF
:109D2000002D13D02846FFF7D4FF0446002C01D0A5
:109D30002046E6E711AA01A92846FFF723FF0446BB
:109D4000002C01D02046DCE701AF00E0002710A87E
:109D500003793A46017A304672DFD2E702460A704A
:109D6000FF200002104000124870022070470000DF
:109D7000FFFF000030B50346481CC004040C104629
:109D80008507AD0F01D1012500E00025002D01D18F
:109D9000072030BD794802601019794D28600020F5
:109DA000784D2870784D2870784803807848018075
:109DB0000020EEE7F7B584B00C4674480088844272
:109DC0006BDC744D0020039000F0A4F80290029820
:109DD000012814D003A82EDF0746022F01D172B646
:109DE0000CE000BF0197019F002F06D000BF6AA2C0
:109DF00059210198FCF7FEFA00BF00BF00BF61487F
:109E0000007800F0B1F860490978884206D05D48D2
:109E10000578007800F0A8F85A49087002980128DF
:109E200014D062B66846007B2FDF0746022F0CD0A5
:109E300000BF0197019F002F06D000BF56A26121ED
:109E40000198FCF7D7FA00BF00BF00BF5148854218
:109E500021D0E900494A0698126850500498002819
:109E600011D0002C0FDD494909886943444A126822
:109E700088182246049905F05FFBE8003F4909680D
:109E80004018848005E00020E9003C4A12688918E7
:109E90008880002600E0042600E00926304607B04E
:109EA000F0BDF8B505460E4617460520009035482A
:109EB00000783549097888421BD033480478007807
:109EC00000F052F8304908703048008860432C494F
:109ED000096840182860E00028490968401880880F
:109EE0003080E0002549096808583860002000905B
:109EF00000BF0098F8BD0EB504E068468188009A5E
:109F0000029890476A4601A902A8FFF7CAFF0028F5
:109F1000F3D00EBD10B52D484068C105C90D00290C
:109F200020D00A46103A50B200280DDA274B1C33D5
:109F30000407240F083CA408A4001B598407E40E5E
:109F4000E3401B069B0F0BE0214B032424021B194B
:109F50008408A4001B598407E40EE3401B069B0FF2
:109F6000D8B210BD0420FCE70146094800888142B0
:109F700001DA481C00E00020C0B27047B020002089
:109F8000B4200020B9200020B8200020BA200020F2
:109F9000BC200020FFFF00002E2E5C2E2E5C2E2EFB
:109FA0005C2E2E5C2E2E5C536F757263655C617047
:109FB000705F636F6D6D6F6E5C6170705F7363680F
:109FC0006564756C65722E630000000000ED00E0B2
:109FD00000E100E010B5002819DAF74A03071B0F6B
:109FE000083B9B089B00D2588307DC0EFF23A3404D
:109FF0009A438B071B0E8407E40EA3401A43EE4BD3
:10A000000407240F083CA408A4001A5118E0EB4AE6
:10A0100003231B02D21883089B00D2588307DC0E4F
:10A02000FF23A3409A438B071B0E8407E40EA34033
:10A030001A43E24B032424021B198408A4001A517A
:10A0400010BD10B50446DE48846003211120FFF7DF
:10A05000C1FF10BD10B501200004DA494860D9499C
:10A0600040394860112000F0E7FC112000F0D6FCD8
:10A070000120D54908602F20FCF79CF80120D34926
:10A08000087010BD10B5112001218140CB4A8032EB
:10A09000116000BF01200004CA498860C9494039E5
:10A0A00088600120C84948602F20FCF783F8012010
:10A0B000C54988600020C64908602F20FCF77AF85F
:10A0C0000020C249087010BDF0B50246242050435C
:10A0D000C04B1B68C118C0480068401C02D1BE4874
:10A0E000026057E0BC484B68006824246043B94CC8
:10A0F000246800194068834217D8B74800682423B1
:10A100005843B44B1B68C01840684B68C31AB24828
:10A11000006824246043AF4C246800194360AE48B3
:10A1200000680862AC48026034E04B68AA4D2C68B5
:10A1300028680DE024254543A64E3668AD196D68A4
:10A140005B1B044624254543A24E3668AD19286A98
:10A15000451C07D0242545439E4E3668AD196D68D1
:10A160009D42E7D3451C0CD024254543994E3668C3
:10A17000AD196D68EE1A24254543964F3F68ED19D9
:10A180006E604B60086224256543924E3668AD19B7
:10A190002A6200BFF0BDF8B506468F4805682C4618
:10A1A00009E0B44200D108E02546242060438949F3
:10A1B00009684018046A601CF3D100BF601C00D11C
:10A1C000F8BDA5420FD18448006824214843814945
:10A1D00009684018006A8049086008460068401C09
:10A1E00001D1FFF74FFF242060437A4909684018E6
:10A1F000476824206043774909684018016A242091
:10A200006843744A126880180162242068437149C7
:10A2100009684018046A601C0CD0242060436D4912
:10A22000096840184068C11924206043694A1268CF
:10A230008018416000BFC3E710B5112000F0F5FBA6
:10A2400010BD10B5142000F0F0FB10BD70B5044631
:10A2500062480068002813D0604AE169A06912686A
:10A260009047054600BF2E46002E07D000BF5CA2D7
:10A27000FF2164313046FCF7BDF800BF00BF02E0AB
:10A28000A169E069884770BDF8B553480068401C73
:10A2900039D0002700F002FC04464D4801682046F2
:10A2A00000F0FFFB06464C48056811E02420684397
:10A2B0004849096844186068B04200D90AE06068FB
:10A2C000361A6068C719256A2046FFF7BFFF00BF2E
:10A2D000681CEBD100BF4E4800784E49097888428F
:10A2E00009D14C480078401CC0B24A490870022885
:10A2F00001D10020087047480078800046490F507F
:10A30000FFF79FFF00BFF8BD014641480078414A72
:10A31000127890421DD03E480078401C3C4A107094
:10A3200010460078022801D10020107038480078CB
:10A330008000394A10580860254A08681268801859
:10A34000234A1060104600680002000A10600120D5
:10A3500070470020086000BFFAE7FEB51E4800689D
:10A3600001902E480078009076E00098C0002C49BB
:10A370000968441825786BE01820684361680F1855
:10A38000681CC5B2A078A84200D100253878022800
:10A3900002D0032859D145E02421786848430D496B
:10A3A00009684618307D002804D07868FFF7F3FE6E
:10A3B000002030754AE000001CED00E000E100E004
:10A3C000001501404013014000100140E42000202E
:10A3D000D0200020C0200020CC200020E020002041
:10A3E0002E2E5C2E2E5C2E2E5C2E2E5C2E2E5C5382
:10A3F0006F757263655C6170705F636F6D6D6F6EBA
:10A400005C6170705F74696D65722E63000000009E
:10A41000DC200020DD200020D4200020C5200020EA
:10A42000C82000200CE0FE49096824225143FD4A5F
:10A430001268881800210175F94A016A116000BF8D
:10A44000F7480068401CEED100E000BF00BF00BF2D
:10A450006078A84290D100BF0098411EC9B2009117
:10A46000002882D1EE4801680198814201D0012084
:10A47000FEBD0020FCE7F0B50346002426E0E84ED0
:10A48000366824277E43E74F3F68F01946689E42AE
:10A4900003D94668F61A46601CE046689B1B46686E
:10A4A0003419002646600675DD4E3568DC4F066AB5
:10A4B0003E600669002E08D00E193602360A866004
:10A4C0000669C66016680662156000BFD448006859
:10A4D000401CD4D100BFF0BDFEB50746D04800688F
:10A4E0000290D1480078019069E00198C000CF49FE
:10A4F000096845185CE0781C07D03E46242070436C
:10A50000C84909684418276A23E029781823594361
:10A510006A6850182978491C29702978AA789142CC
:10A5200001D100212970466824217143BD4A126877
:10A530008C180178012902D1217D002900D037E053
:10A540008168A160C168E160016921614169E161DF
:10A5500000BFB749A0680968401A0002000AB5495F
:10A56000884208D2B249A068096800F09AFAE16806
:10A570004018606011E0AE48A168006800F091FAF0
:10A580000090E1680098814204D9E1680098081AB7
:10A59000606001E00020606000BF0020A060E0601B
:10A5A00001202075801E20623046FFF78DFD00BF20
:10A5B000781CA0D12878697888429CD100BF019886
:10A5C000411EC9B2019100288FD1954801680298B7
:10A5D000814201D00120FEBD0020FCE7FEB590487D
:10A5E0000068401C34D08E480068242148438D49BF
:10A5F00009684018456800F051FA01908C480468D9
:10A600002146019800F04DFAC61C8B4800780028BE
:10A6100001D1FFF71FFDAE4201D2284600E03046CF
:10A6200004192402240A20468449086000BF00F06F
:10A6300035FA00900199009800F033FAC71C2046C3
:10A64000019900F02EFA874201D9FFF7F5FD01E0EC
:10A65000FFF718FDFEBDFEB50020C0430190744811
:10A6600004686F4807686846FFF74EFE0546FFF727
:10A6700074FE0646002D05D001AA21460098FFF77A
:10A68000FAFE01260198FFF727FF002800D00126D7
:10A69000002E02D03846FFF7A1FFFEBD4170704783
:10A6A00070B502460B465078411C9078884200D124
:10A6B00000211078884201D1002070BD19605078C7
:10A6C0001826704355682C182046F6E7FFB581B070
:10A6D00005460E461746E900544A1268881869462E
:10A6E000FFF7DEFF0446002C02D1042005B0F0BDC8
:10A6F00001202070666000F0D1F9A060E760049846
:10A7000020610A986061E900484A12688818009937
:10A71000FFF7C4FFFFF795FD0020E7E7F8B5044613
:10A720000E46E100414A126888186946FFF7B8FFF3
:10A730000546002D01D10420F8BD022028706E606E
:10A74000E1003A4A126888180099FFF7A7FFFFF75F
:10A7500078FD0020F0E738B50446E100334A12687E
:10A7600088186946FFF79CFF0546002D01D104209B
:10A7700038BD03202870001F6860E1002B4A126872
:10A7800088180099FFF78AFFFFF75BFD0020EFE7CD
:10A7900010B500202A4908600021294841608160E5
:10A7A000C16000202649403908604860FFF76CFD11
:10A7B00010BD10B5FFF74FFF10BDFFB581B00E46BD
:10A7C00017461C4620468107890F01D1012100E070
:10A7D0000021002902D1072005B0F0BD002C01D1D5
:10A7E0000720F9E7FFF74EFC16490A98086016485B
:10A7F00006700C48046000250CE00021242068430A
:10A80000084A1268115424206843064A12688018C6
:10A8100001756D1CB542F0DB24207043041915E06E
:10A82000CC200020C0200020C5200020C82000200F
:10A83000D0200020FFFF7F00E420002040150140D1
:10A8400040110140E0200020C4200020032097494F
:10A85000087097480460183400250CE0E900944A19
:10A8600012688818002101704170877044601821B7
:10A8700079430C196D1C032DF0DB0020C0438D497A
:10A88000086000208C4908708C490870142000F082
:10A89000D3F803211420FFF79DFB142000F0BEF82D
:10A8A0000198FFF7CEFB00F0F9F885490860002019
:10A8B00092E770B503460C4682480068002801D133
:10A8C000082070BD002A01D10720FAE7002B01D132
:10A8D0000720F6E700211CE024204843794D2D682D
:10A8E000285C002814D1012524204843754E366881
:10A8F000355424204843734D2D684019447024205A
:10A900004843704D2D684019826119600020D8E7D6
:10A91000491C6D4800788142DEDB0420D1E710B588
:10A9200000F092F8012802D0032804D101E00024AD
:10A9300003E0012401E0022400BF00BF204610BD57
:10A94000FEB504460D4616465E480068002801D153
:10A950000820FEBD5C480078844201D2052D01D25A
:10A960000720F6E72420604356490968085C01285F
:10A9700001D00820EDE724206043524909684018BF
:10A980004078012801D1284600E000200746FFF763
:10A99000C6FF3B462A46214600960190FFF796FEE9
:10A9A000D7E770B5044647480068002801D1082061
:10A9B00070BD45480078844201D30720F8E7242081
:10A9C000604340490968085C012801D00820EFE78E
:10A9D000FFF7A5FF05462146FFF7A0FEE8E710B503
:10A9E00038480068002801D1082010BDFFF797FF04
:10A9F0000446FFF7B0FEF8E710B5044600F04EF845
:10AA00002060002010BD70B505460E461446314644
:10AA1000284600F046F82060002070BDC206D20E25
:10AA200001219140294A11607047C206D20E0121CE
:10AA30009140274A11607047C206D20E0121914011
:10AA4000234A80321160704710B522484068C10522
:10AA5000C90D002920D00A46103A50B200280DDA5C
:10AA60001C4B1C330407240F083CA408A4001B59EA
:10AA70008407E40EE3401B069B0F0BE0134B0324FB
:10AA800024021B198408A4001B598407E40EE34028
:10AA90001B069B0FD8B210BD0420FCE70E4840688F
:10AAA00070470246501A0002000A7047C520002075
:10AAB000C8200020CC200020DC200020DD20002049
:10AAC000D0200020C0200020C420002000E100E0B1
:10AAD00000E200E000ED00E00015014070B5064620
:10AAE0000C46154629462046FBF786FC70BDF8B596
:10AAF00059480078002800D1F8BD5848006800285F
:10AB000001D1012000E000200546554800680028DA
:10AB100001D1012000E00020064600BF002D14D125
:10AB2000684651DF0446052C01D101250CE0002CBC
:10AB300006D000BF4BA269212046FBF75BFC03E077
:10AB4000464900980968884700BF002E1AD153482B
:10AB50000088009069465248006861DF0446052C71
:10AB600001D101260DE0002C06D000BF3DA28021BE
:10AB70002046FBF73FFC04E0494800683849096873
:10AB8000884700BF002D02D0002E00D000E0C5E7AE
:10AB900000BF00BFB0E7FFB581B00C4616461F46A8
:10ABA000002C02D1072005B0F0BD20468107890F97
:10ABB00001D1012100E00021002901D10720F2E7A5
:10ABC00037480460354806803648076036490198A2
:10ABD00010DF0546002D01D02846E4E701201E497C
:10ABE0000870162026DFDEE710B511DF0446002CC2
:10ABF00001D0012000E0002017490870204610BD58
:10AC00000146002901D10E2070471548016000203F
:10AC1000FAE70146002901D10E2070470F48016074
:10AC20000020FAE770B51F480068002811D01D48C1
:10AC300000688047044600BF2546002D07D000BFAE
:10AC400008A2FF2133312846FBF7D4FB00BF00BF29
:10AC500001E0FFF74CFF70BDE8200020FC20002041
:10AC6000F82000202E2E5C2E2E5C2E2E5C2E2E5CCC
:10AC70002E2E5C536F757263655C73645F636F6DDA
:10AC80006D6F6E5C736F66746465766963655F682B
:10AC9000616E646C65722E6300000000F420002079
:10ACA000F0200020EC200020DDAA0100F8B50446C9
:10ACB0000D4692480068002813D0EAB221788F4BE5
:10ACC00060681B689847064600BF3746002F06D0CD
:10ACD00000BF8BA228213846FBF78CFB00BF00BFCA
:10ACE0000CE0012D04D1207801216268904705E035
:10ACF000002D03D12078002162689047F8BDF8B597
:10AD0000074669468A48007800F0EBFA0646002EAE
:10AD100000D0F8BD002532E0E800864909684418F3
:10AD20008548006822780121914008420FD0606870
:10AD300000280CD06078012804D100212046FFF7BC
:10AD4000B5FF1AE001212046FFF7B0FF15E07A4871
:10AD5000406822780121914008420ED060680028A6
:10AD60000BD06078012804D101212046FFF79EFF17
:10AD700003E000212046FFF799FF681CC5B26F4829
:10AD800000788542C8DB00BFC3E770B504460D46B6
:10AD90006B480068FFF705FE0646002E00D070BD28
:10ADA00065484460056020462843024665480168BE
:10ADB00063480068FFF7C4FD064600BFEFE7FFB534
:10ADC00083B006460C461746052F02D2072007B06F
:10ADD000F0BD58480660594804705A480760474912
:10ADE00006980860002515E0E100881902780092B5
:10ADF00081780191019989000522120707231B021E
:10AE0000D318009A9200995000BF02780121914016
:10AE10000D4300BF2046611ECCB20028E4D14A4B4E
:10AE20002A462946424800F087F9029002980028F5
:10AE300001D00298CBE7454A00214148FFF739FD90
:10AE4000C5E710B53B480068002801D1082010BDB7
:10AE50003748007800F0B5F9F9E710B535480068D3
:10AE6000002801D1082010BD3148007800F018FA00
:10AE70000446002C01D02046F5E731480068FFF772
:10AE800090FDF0E7F8B506460C462C48007886425F
:10AE900001DD0720F8BDF00026490968451825485E
:10AEA0000068002801D10820F4E7694620480078AE
:10AEB00000F017FA0746002F01D03846EAE7687815
:10AEC00000280BD129780098C840C007C00F02D0D5
:10AED0000020207010E0012020700DE0687801282B
:10AEE0000AD129780098C840C007C00F02D00120BD
:10AEF000207001E0002020700020CBE70C21002012
:10AF00002E2E5C2E2E5C2E2E5C2E2E5C2E2E5C5356
:10AF10006F757263655C6170705F636F6D6D6F6E8E
:10AF20005C6170705F627574746F6E2E63000000F8
:10AF300010210020002100201821002004210020E1
:10AF400014210020082100208BAD0100FFAC01007E
:10AF5000F0B502460C46002035E001238340194637
:10AF600023460B422ED0D5680D4205D101235B0448
:10AF7000D5680D43D56004E003231B04D5688D43D9
:10AF8000D56005252D0707263602AD198600AD5977
:10AF900003263604B5430526360707273F02F61970
:10AFA0008700F55105252D0707263602AD198600C5
:10AFB000AD591D430526360707273F02F6198700BE
:10AFC000F55100BF401C2028C7D3F0BDF0B585B0B7
:10AFD000EC4805690020EC49C86300263DE01420D8
:10AFE0007043EA49096844180120B040E8490968FB
:10AFF000084230D0E068C0436840216808400746F6
:10B0000039462046FFF7A4FFDE48006968400390F8
:10B01000039800280ED003980543E068C0436840B9
:10B0200021680840009020460099FFF791FF0098A2
:10B03000074300BFA068A8433840019060682840DB
:10B040003840029001990298084303D0226901997F
:10B050000298904700BF701CC6B2CE480078864266
:10B06000BDDB05B0F0BD10B50146002028E014227C
:10B070004A43C64B1B689A58012383401A421ED08C
:10B080000522120707231B02D2188300D25803237C
:10B090001B049A4305231B07072424021B19840061
:10B0A0001A510522120707231B02D2188300D25817
:10B0B00005231B07072424021B1984001A51401C76
:10B0C0002028D4D310BD70B505460C46002C01D104
:10B0D000072070BD20468107890F01D1012100E0C2
:10B0E0000021002901D10720F3E7A8480460AA48FD
:10B0F00005700020A7490870A5490860A648007897
:10B10000142250430146A148006804F07DFA002053
:10B11000C043A2498860062001218140A04A1160F5
:10B1200000BF012100F0F7F80620012181409D4A6F
:10B13000116000BF0020CCE7F8B504460D46164666
:10B140001F4692480068002801D10820F8BD002F52
:10B1500001D10720FAE78F4800788F4909788842A3
:10B1600001DB0420F2E7284630438A49097814229B
:10B170005143864A1268505086480078142148434B
:10B180008249096840184560824800781421484384
:10B190007E490968401886607E480078142148433B
:10B1A0007A490968401807617A4800782070794820
:10B1B0000078401C774908702078FFF754FF002082
:10B1C000C4E7F0B5024671480068002801D10820A4
:10B1D000F0BD70480078824201DB0720F8E70020CC
:10B1E000694BD8636748046969480068002802D140
:10B1F00058066A4B586001209040654B1B68184305
:10B20000634B1860002314205043604D2D68401993
:10B21000C360002140E001238B40184614235343B0
:10B220005A4D2D68EB58034235D02546054202D0D1
:10B2300003231B040EE001235B0414255543534EE6
:10B240003668AD19ED680543142656434F4F3F68E5
:10B25000F619F56005252D0707263602AD198E0073
:10B26000AD5903263604B5430526360707273F02A6
:10B27000F6198F00F55105252D0707263602AD1961
:10B280008E00AD591D430526360707273F02F619E4
:10B290008F00F55100BF491C2029BCD3002097E73F
:10B2A00010B5044639480068002801D1082010BDB7
:10B2B00038480078844201DB0720F8E72046FFF792
:10B2C000D2FE0120A0403249096881433048016024
:10B2D0000068002803D10120C007304988600020A1
:10B2E000E5E710B5024629480068002801D108208A
:10B2F00010BD28480078824201DB0720F8E71420BF
:10B300005043224C246803191E4800691C682040E1
:10B3100008600020ECE710B5002819DA224A03077C
:10B320001B0F083B9B089B00D2588307DC0EFF23B2
:10B33000A3409A438B071B0E8407E40EA3401A43D5
:10B34000194B0407240F083CA408A4001A5118E064
:10B35000144A03231B02D21883089B00D258830788
:10B36000DC0EFF23A3409A438B071B0E8407E40ED9
:10B37000A3401A430B4B032424021B198408A40086
:10B380001A5110BD000500504061004020210020EE
:10B3900024210020292100202821002000630040D2
:10B3A00080E200E000E100E01CED00E008B5402094
:10B3B000F9490870E020F94908700220F649009028
:10B3C0000878F74B0122F54903F078F800BFF548FB
:10B3D00000780028FBD008BD10B54820EE49087061
:10B3E0000020EE490870EC4908780122EB4903F08F
:10B3F00029F800BFEB4800780028FBD04820E64938
:10B40000087008780222E64903F0ABF800BFE5486F
:10B4100000780028FBD010BD08B54420DE49087034
:10B420000020DE4908700120DB4900900878DC4BE1
:10B430000122DA4903F042F800BFDA480078002818
:10B44000FBD008BD10B54820D34908700120D3496E
:10B450000870D14908780122D04902F0F3FF00BFFB
:10B46000D04800780028FBD04820CB4908700878E5
:10B470000222CB4903F075F800BFCA4800780028C3
:10B48000FBD04820C44908700120C4490870A0209E
:10B490008870E1204870C04908780322BF4902F053
:10B4A000D1FF00BFBF4800780028FBD010BD08B511
:10B4B0004020B9490870E520B84908700220B64913
:10B4C00000900878B64B0122B44902F0F7FF08BD9E
:10B4D00008B54420B04908700220B0490870AE4950
:10B4E00000900878AE4B0122AC4902F0E7FF00BFA4
:10B4F000AC4800780028FBD008BD10B54420A64910
:10B5000008700020A5490870A0204870A24908785A
:10B510000222A24902F096FF00BFA248007800284C
:10B52000FBD010BD10B544209B49087000209B49FA
:10B5300008704870984908780222984902F082FF02
:10B5400000BF984800780028FBD010BD00B589B036
:10B5500095A00068089095A00068079094A00068E6
:10B56000069094A00068059093A00068049093A0B2
:10B570000068039092A00068029092A00068019079
:10B5800091488078012807DB8F4880787F2803DC8A
:10B590008D488078694648728B48C078012807DB5F
:10B5A0008948C0787F2803DC8748C078694648719D
:10B5B00086A0006800901820774908700878022259
:10B5C00008A902F03FFF00BF764800780028FBD0B2
:10B5D0001820714908700878022207A902F032FF8A
:10B5E00000BF704800780028FBD018206A49087016
:10B5F0000878022206A902F025FF00BF69480078FA
:10B600000028FBD01820644908700878022205A998
:10B6100002F018FF00BF634800780028FBD0182014
:10B620005D4908700878022204A902F00BFF00BFF0
:10B630005C4800780028FBD018205749087008782B
:10B64000022203A902F0FEFE00BF5648007800283F
:10B65000FBD01820504908700878022202A902F095
:10B66000F1FE00BF4F4800780028FBD018204A495F
:10B6700008700878022201A902F0E4FE00BF4948E0
:10B6800000780028FBD0182043490870087802226F
:10B69000694602F0D7FE00BF424800780028FBD080
:10B6A00009B000BD1CB502F0F3FFFBF78FFC44A00E
:10B6B0000068019043A0006800904348807801280A
:10B6C00007DB414880787F2803DC3F488078694663
:10B6D00048713D48C078012807DB3B48C0787F2887
:10B6E00003DC3948C0786946487018202A49087038
:10B6F0000878022201A902F0A5FE00BF29480078BF
:10B700000028FBD0182024490870087802226946D6
:10B7100002F098FE00BF234800780028FBD0FBF71A
:10B7200072FC03F013F81CBD1CB529A00068019041
:10B7300028A0006800906A20174908700878022243
:10B74000694602F07FFE00BF164800780028FBD053
:10B750006A20114908700878022201A902F072FEDD
:10B7600000BF104800780028FBD01B48FAF732FDD4
:10B770001CBD08B519A0006800906A200649087031
:10B7800008780222694602F05DFE00BF0548007895
:10B790000028FBD008BD00005A21002050210020C5
:10B7A00055210020B8210020204F00002109000071
:10B7B00022400000230000002400000025000000BB
:10B7C0003207000033700000F82A00203015000016
:10B7D000200F000023800000102700002000000040
:10B7E0001CB502F055FF0020A8490880AA2001904E
:10B7F000002000906A20A64908700878012201A95B
:10B8000002F020FE00BFA34800780028FBD06A2089
:10B810009F49087008780222694602F0A2FE00BF24
:10B820009C4800780028FBD06946487800020978D7
:10B83000084300B29549088002F088FF1CBDF8B5A6
:10B84000FFF7CEFF9448806C90490988081A00B22F
:10B850008E4908800020085E04F09CFD009004F0F2
:10B860000BFD06468D4A8E4B04F0DAFB044603F0CE
:10B870007DFF8C4908600846006804F0FDFC064620
:10B88000894A8A4B04F0CCFB044603F06FFF8549DC
:10B8900008608149C86C04F0EFFC04460D468148FD
:10B8A000006804F0E9FC49004908064622462B4698
:10B8B00006F07EFB02D200207A49086079480168D0
:10B8C0007B48006806F0DAFB7949086008460068A2
:10B8D000784908600846006804F0CEFC4900490831
:10B8E000044603F043FF734908600846006804F00B
:10B8F00015FD7149088071480088401C6F49088017
:10B900006F48007800283ED16E480078002815D195
:10B9100061494031487904F045FD044665480168B5
:10B92000204606F0F1FB09D20120664908706648FE
:10B930000078002802D065A003F0EEF86148007896
:10B94000002820D0544940314A798979501A04F0AE
:10B9500021FD044657480168204606F057FC12D2E4
:10B960000020584908700120554908705C4800883B
:10B97000042108435A49088053480078002802D01F
:10B9800058A003F0C9F8F8BDF8B5FFF729FF5A48E9
:10B990000078002822D1594800683C4900228A5E7C
:10B9A000801856490860564801880088401C544A4F
:10B9B0001080FF20F530814210DB01464F480068BF
:10B9C00003F02EFE4D49086001204B49087000200D
:10B9D0004C4908604C49086049490880464800784D
:10B9E000002851D04948007800284DD1274A115EDF
:10B9F000424A1268881A04F0CDFC434908600846A0
:10BA0000006804F039FC49004908044603F0AEFE22
:10BA10003D4908603B4801683B48006806F0F6FB7A
:10BA200003D83948006837490860354801880088DC
:10BA3000401C334A1080FF20F530814224DB31481E
:10BA4000006804F019FC0646144A154B04F0E8FAA5
:10BA5000044603F08BFE2B4908600846006804F09A
:10BA60000BFC0446104A114B04F0DAFA064603F0C8
:10BA70007DFE2449086001202449087000202049E7
:10BA80000880012022490870F8BD00004E210020E6
:10BA90005A210020B8210020B82A0020EC51B81EFD
:10BAA00085EB813F3C2100207B14AE47E17A843F47
:10BAB0004021002044210020A62100204C2100200C
:10BAC0002220002021200020CA210020416E676C26
:10BAD000652D312063726F737365640A0000000086
