:020000040001F9
:10D000003048002021D301003BD30100D1E90100C9
:10D010000000000000000000000000000000000010
:10D020000000000000000000000000003FD30100ED
:10D03000000000000000000041D3010043D30100C4
:10D0400045D3010045D301000D05020045D3010081
:10D05000194B0200000000000509020045D3010041
:10D0600045D3010045D3010045D3010045D301005C
:10D0700045D3010045D3010045D3010045D301004C
:10D0800045D30100A114020045D3010045D301009E
:10D09000C314020045D301003519020045D3010035
:10D0A00045D3010045D3010000000000000000004E
:10D0B0000000000000000000000000000000000070
:10D0C00000F002F800F0B1F80CA030C808382418BD
:10D0D0002D18A246671EAB4654465D46AC4201D1B0
:10D0E00000F0A3F87E460F3E0FCCB6460126334231
:10D0F00000D0FB1AA246AB463343184780C200005B
:10D10000A0C200000023002400250026103A01D30D
:10D1100078C1FBD8520700D330C100D50B607047EF
:10D1200010B56E2902D109F0D8FA10BD702902D1CC
:10D1300008F025FA10BD662902D10BF059FC10BD8C
:10D14000652902D10BF054FC10BD672902D10BF008
:10D150004FFC10BD612902D10BF052FC10BD0368D9
:10D160001B0A01D380231943692902D108F092F9DF
:10D1700010BD642902D108F08DF910BD752902D1C6
:10D1800008F088F910BD6F2902D109F0BBFB10BD72
:10D19000782902D108F0E0F910BDE92902D109F09F
:10D1A00057FB10BDE42902D109F052FB10BDF5294F
:10D1B00002D109F04DFB10BDEF2902D109F0AEFB01
:10D1C00010BDF82902D108F0D5F910BD0368DB09BC
:10D1D00001D380231943632902D109F0BBFA10BDA2
:10D1E000732902D109F0BEFA10BDE32902D10AF079
:10D1F0000EF810BDF32902D10AF011F810BD00207D
:10D2000010BD1FB5C046C0460AF0C8F80400002093
:10D2100000210BF019FB401C6060002000210BF086
:10D22000FDFAE0601FBD10B510BD0AF097F8114679
:10D23000FFF7E7FF02F094F90AF02AFE03B4FFF7C4
:10D24000F2FF03BC0AF086FE401E00BF00BF00BF15
:10D2500000BF00BF00BF00BF00BF00BF00BF00BFD6
:10D2600000BFF1D170470000401E00BF00BF00BFEB
:10D2700000BF00BF00BF00BF00BF00BF00BF00BFB6
:10D2800000BFF1D170470000401E00BF00BF00BFCB
:10D2900000BF00BF00BF00BF00BF00BF00BF00BF96
:10D2A00000BFF1D170470000401E00BF00BF00BFAB
:10D2B00000BF00BF00BF00BF00BF00BF00BF00BF76
:10D2C00000BFF1D170470000401E00BF00BF00BF8B
:10D2D00000BF00BF00BF00BF00BF00BF00BF00BF56
:10D2E00000BFF1D17047000070B505460C461646E8
:10D2F00002E00FCC0FC5103E102EFAD2082E02D33A
:10D3000003CC03C5083E042E07D301CC01C5361F4C
:10D3100003E021782970641C6D1C761EF9D270BD63
:10D3200003210C4802680A4302600B4802680A4362
:10D3300002600A4880470A480047FEE7FEE7FEE72A
:10D34000FEE7FEE7FEE7000006480749054A074BEF
:10D3500070470000240500405405004007D4010038
:10D36000C1D00100303C002030480020303C00207B
:10D370002E482F49086070472E48008CC0B2012803
:10D3800010D12C48808C0007000F0BD12948806AEF
:10D39000F0210840402805D12648C06A084201D142
:10D3A000012070470020FCE72248008CC0B2012811
:10D3B00027D12048808C0007000F22D11D48806AA9
:10D3C000F021084205D11B48C06A084201D1012062
:10D3D00070471848806AF0210840102805D1154888
:10D3E000C06A084201D10120F2E71248806AF021A8
:10D3F0000840302805D10F48C06A084201D10120F9
:10D40000E6E70020E4E710B5FFF7CEFF002805D0DF
:10D4100009480A494860C81309498861FFF7ACFF09
:10D42000002802D001200749886010BD0024F400C4
:10D4300000280020C00F00F0DFFF07C000050040FB
:10D44000006C004000060040EC480168ECA007F0CA
:10D45000ADFFEA480068F64908622422F54804F066
:10D46000D1FB00BFBFF34F8FF348F449C860BFF34F
:10D470004F8F00BF00BFFEE704460D461646F04B37
:10D4800006220721022003F013F823462A463146DC
:10D49000ECA007F08BFFFFF7D7FF04460D462A46A6
:10D4A0002146F248FFF7E8FFF0B505460B4600219C
:10D4B0001C680EE0665C481C275CAF4206D1881CE5
:10D4C00020181060701E90800020F0BD701C09189C
:10D4D00000BF98888842EDD80520F6E7F0B585B002
:10D4E00005460E461421684608F0FCF90027E0487E
:10D4F0000089DF494989884217DAAE4215DA2C469D
:10D500000FE06946204604F073FE611B0901D94A09
:10D5100088181022694608F07DF9781CC7B2601C93
:10D5200084B2D5488442ECDB01252C460EE06946E6
:10D53000204604F05DFE611BC9190901CD4A881817
:10D540001022694608F066F9601C84B2B442EEDB32
:10D5500005B0F0BD10B587DF0446002C03D021468E
:10D56000C6A007F023FFCF480078002809D000208C
:10D57000CC490870BE48007B0201CB49CB4804F07F
:10D5800000FF10BD10B5CA48007800282AD0B8485E
:10D590004089B749098988420AD0C6A007F006FF2A
:10D5A000FFF7D8FF0120D1490870D149087016E073
:10D5B000D0480078002812D105F034F9002807D0AF
:10D5C000FFF7C8FF0120CC490870C949087006E080
:10D5D000FFF7C0FF0120C9490870C5490870002045
:10D5E000B349087010BD10B5C5480078002814D0A4
:10D5F000C4A007F0DBFEBF480078002805D1C7486B
:10D600000078002801D1FFF7A5FF06F0C7FB7820BE
:10D61000C34908700020BA49087010BD08B5944885
:10D620000089C04908808248103008F079F80090DD
:10D630000A20BD4908700846BA490A7842704978FC
:10D64000817004226D49C01C08F0E4F80322694689
:10D65000B548C01D08F0DEF8B348B4490A788272B4
:10D660004978C172B1488078AF4908730020487387
:10D670008873C8730120AE490870714B06220721D8
:10D68000022002F015FF1021A74802F0C9FD6C4BE3
:10D6900006220721022002F00BFFA5480178A5A071
:10D6A00007F084FE0120A949087008BD10B5A848FC
:10D6B000007800280BD0A7A007F078FEFFF74AFFFC
:10D6C00007F038FDFFF7AAFF0020A149087010BD40
:10D6D00010B50446012C04D0022C08D0032C12D122
:10D6E0000BE0FFF7E3FF0220A44908700BE0FFF70F
:10D6F0007AFF0320A149087005E0FFF743FF0120EE
:10D700009E49087000BF00BF10BD10B50446022C32
:10D7100005D1FFF768FF02209949087000BF00BFDC
:10D7200010BD10B57F48008851490881102241483A
:10D73000343804F067FA10BD10B57A4800884C49B7
:10D74000088110223B48343804F05CFA10BD70B5F3
:10D750008C480078002803D18B48007800284CD0F2
:10D7600043480489214689A007F020FE651C4248F1
:10D77000854224D984420CD0001BC2B26A4920469B
:10D7800004F049FF3C48001B664909884018654978
:10D7900008800120634908803748281AC2B23648F9
:10D7A000001B0001604BC118012004F034FF324817
:10D7B000281A5C49098840185A49088009E0012262
:10D7C0005949204604F027FF56480088401C554917
:10D7D00008806C480078002805D0FFF7ADFF0020D6
:10D7E0006849087008E068480078002804D0FFF70E
:10D7F00098FF00206449087000BF70BD30280020E9
:10D800000A536D617274204875622052544320742B
:10D81000696D6520647572696E6720536F66742048
:10D820005265736574203D202564200A00000000C5
:10D830006033002034EC0F000400FA0500ED00E036
:10D8400000E0D7015B4150504C5D3A2041535345B5
:10D8500052543A2025732C2025642C206572726F57
:10D8600072203078253038780D0A0000EFBEADDE2A
:10D870002C330020D0370020E8FD00005B415050E1
:10D880004C5D3A205363616E2073746F7020666143
:10D89000696C65642C20726561736F6E2025640A63
:10D8A00000000000492800208433002000EE0F0013
:10D8B0003F2800204E6577204576656E74204176BE
:10D8C00061696C61626C6520616E642047505253DF
:10D8D00020446174612053656E642054696D652035
:10D8E000457870697265642E2E0A000008280020B1
:10D8F0004029002045280020092800200A2800206F
:10D90000402800202D2D2D2D2D4750532045766584
:10D910006E742D2D2D2D2D0A000000000D280020E5
:10D92000AA290020A2280020AE2F00209A2900203A
:10D930009528002053485F4576656E745F706B7460
:10D940005F636E743A2025640A00000036280020C8
:10D950003E2800202B2B2B2B2B536D6172742048FB
:10D960007562204576656E7428456E7669726F6EB5
:10D970006D656E74292B2B2B2B2B0A004E28002053
:10D980004F280020392800203A2800200A53482038
:10D99000487562204576656E74206964203D2025B7
:10D9A000640A0000FD480078002804D1E120C0008E
:10D9B000FB49088017E0FB48007800280FD00020C2
:10D9C000F8490870F8480078002803D08220F4490C
:10D9D000088008E0E1200001F149088003E0E1202F
:10D9E0000001EF490880704770B5F04800780028C2
:10D9F00003D00A20EE49087070BDEE480078002878
:10DA000013D00120EC490870FFF7CCFFE348007801
:10DA1000002803D00120E949087005E00220E84908
:10DA200008700120E7490870E6E70020E649087021
:10DA3000E6490870E6490870E6490870DD49087053
:10DA4000DA490870D5480078002821D00120DB4948
:10DA50000870E1480078002819D0E0480089E049C2
:10DA600008801022DF49E04807F0D4FEDE48DB4999
:10DA70000A7A4270497A81700020D74908700120E3
:10DA8000DA490870FFF763FE0F20C5490880B3E745
:10DA90000020CA490870D0480078002816D0CF4826
:10DAA0000089CF4908801022CE49CF4807F0B2FE46
:10DAB000CD48CA490A7A4270497A81700020C64925
:10DAC00008700120C9490870FFF741FE02F0AFFC61
:10DAD00005F055FF002801D004F095FEC4480078F9
:10DAE00040084000401CC2490870084600780221E6
:10DAF0008843BF4908705020088148204881002091
:10DB000048608881084686DF044600BF2546002D10
:10DB100005D000BFB7A2BA492846FFF7ADFC00BF49
:10DB2000B8A007F043FC00BF66E738B5BB480178F2
:10DB300068468170BA4901806A460121B948008867
:10DB400090DF044600BF2546002D06D000BFA9A2E5
:10DB5000AB4934312846FFF78FFC00BF38BDF0B524
:10DB60008BB0044600200A9009900890271D208859
:10DB7000302879D008DC102877D0112876D01B28DF
:10DB80000BD01D2873D184E1322871D0332870D096
:10DB900037286FD03828F5D1FAE138460B30049099
:10DBA000B87AC00869468882A07BC007C00F72D0CF
:10DBB00002AA04A90920FFF777FC0646002E11D11E
:10DBC000062299A0029907F0D6FD002801D1012074
:10DBD0000A90062296A0029907F0CDFD002801D1F7
:10DBE000012009900A98002802D1099800287DD0C8
:10DBF00091A0029907F0DAFB0D21615692A007F07F
:10DC0000D5FB02AA04A91620FFF74EFC0646002EFB
:10DC100005D168468089401E0299085C089000255D
:10DC200007E00520411BF81C405C06A94855681C0C
:10DC3000C5B2062DF5DB002530E02901864A88189B
:10DC4000062206A907F097FD002825D10120834967
:10DC500008708348007800280DD0824800682901A8
:10DC60007D4A891888600CE074E124E136E197E18F
:10DC700074E177E17AE10020C0432901764A8918EE
:10DC80008860607B2901744A891888712901891884
:10DC90000898C87104E0EBE0681CC5B2202DCCDB0D
:10DCA00000BF6E480078002849D14C48007B2028EE
:10DCB00045DA607B4949097B0901674A89188871FF
:10DCC0004648007B000111464018C068401C14D132
:10DCD00063480078002810D0624800683F49097BFB
:10DCE00009018918C8605F48006800E0CDE03B4941
:10DCF000097B0901891888600CE00020C04337497E
:10DD0000097B0901544A8918C8603449097B090113
:10DD1000891888603149097B09014F4A8818062211
:10DD200006A9FFF7E1FA2D49097B09014A4A89183A
:10DD30000898C8712948007B401C284908730D21A8
:10DD400061566320C043814226DB052108980842C2
:10DD500005D0FFF7FFFB01201B49087008E00221F6
:10DD60000898084204D0FFF7F5FB01201749087016
:10DD700015480078002803D11448007800287CD08A
:10DD80003C2039490870394A1949B81C88DF0646D1
:10DD9000002E7DD031466CE073E06EE04528002017
:10DDA0002028002013280020122800200E28002000
:10DDB000482900200D280020402800204628002067
:10DDC0004E28002044280020082800200928002090
:10DDD0000A2800200B2800203B2800202C3300209C
:10DDE000A2280020582D0020AE2F00203928002026
:10DDF000782D00202E2E5C6D61696E2E6300000070
:10DE00000D0300005B4150504C5D3A205363616E3E
:10DE100020537461727465640A0000007828002041
:10DE2000839E0000502800205342422D535400008E
:10DE30005342422D5356000053522023203D2025AB
:10DE400073202C200000000052535349203D202510
:10DE500064202C200D0A0000843300204C28002070
:10DE60000F2800203028002018280020588A02009F
:10DE70000EE0F5A007F09AFA0AE00120FE490870CA
:10DE800006E00120FC49087002E00120FA49087010
:10DE900087E03888B91C75DF064600BF0196019EF1
:10DEA000002E06D000BFF54AFF21BC310198FFF7D4
:10DEB000E3FA00BF75E0A088F1490880F149F24813
:10DEC00007F00EFDEF49F14807F00AFDFFF72DFEC0
:10DED0000020EF490870EF49087062E00020C0435D
:10DEE000E74908800020EC490880EC490870EC49BB
:10DEF0000870E7490870EB490870EB490870EBA01F
:10DF000007F054FAA179F2A007F050FAA0793E2860
:10DF100005D10020F5490870FFF766FD19E0A079EA
:10DF2000132814D1F2480078052805DAF048007863
:10DF3000401CEF49087004E0EEA007F037FAFFF745
:10DF400083FA0020E9490870FFF74EFD01E0FFF772
:10DF50004BFD26E0204601F0B5FB22E0204601F013
:10DF6000FCFB1EE0204601F08AFC1AE0E088002855
:10DF70000DD000BFE08801900198002806D000BFB6
:10DF8000BE4AFF21FC310198FFF776FA00BF08E096
:10DF900007F0A7F9204601F0AAFC07F08DF900E090
:10DFA00000BF00BF0BB0F0BD022802D0032802D191
:10DFB00000E000BF00E000BF00BF704710B504469E
:10DFC0002046FFF7CCFD10BD10B504462046FFF7F4
:10DFD000EBFF10BDF8B500BF00234822D14908204F
:10DFE00003F061FC054600BF2E46002E06D000BFA0
:10DFF000A24AA4496B313046FFF73EFA00BF00BF8A
:10E0000000200090022069460870684660DF0446E0
:10E0100000BF2546002D06D000BF984A99497031AF
:10E020002846FFF729FA00BFBF4803F071FC0446F9
:10E0300000BF2546002D06D000BF904A914974319B
:10E040002846FFF719FA00BFB84803F06AFC0446F7
:10E0500000BF2546002D06D000BF884A8949783187
:10E060002846FFF709FA00BFF8BD7FB5B04B0FCBCC
:10E070006C460FC4AF49684663DF044600BF2546BF
:10E08000002D05D000BF7D4AAB492846FFF7F4F9C3
:10E0900000BF7FBD70B5A9480078002816D10022C6
:10E0A000FF214931A648006803F0D2FA044600BFB8
:10E0B0002546002D06D000BF704A9F4928312846CA
:10E0C000FFF7DAF900BF01209C49087070BD70B5F8
:10E0D00000220121C9039B48006803F0B9FA0446F5
:10E0E00000BF2546002D06D000BF644AD321890019
:10E0F0002846FFF7C1F900BFFFF7CCFF70BD70B530
:10E100008E480078002813D08D48006803F0D1FABB
:10E11000044600BF2546002D06D000BF574A864959
:10E1200038312846FFF7A8F900BF0020834908705E
:10E1300070BD10B50120564908705A480078002873
:10E1400021D081480078002819DD4E4A4E494F48B9
:10E1500007F060FB7C4800787C49087000207A4911
:10E1600008704849484807F0BBFB7848017878A018
:10E1700007F01CF901207E4908707E4908707EA0D6
:10E1800007F014F92AE048480078002826D0804893
:10E1900000880121490288421ADC7D4800887D49B7
:10E1A0000860084638490268384807F033FB3549AB
:10E1B000354807F095FB7848018878A007F0F6F815
:10E1C00000207549088001207B4908707B49087050
:10E1D0007BA007F0EBF800202F49088010BD10B598
:10E1E000044601207D4908707D480078002804D04D
:10E1F0007C480078401C7B4908707B480068401CC4
:10E20000794908603C217848006807F06DFB0029D7
:10E2100018D124480078002814D123480078002819
:10E2200010D17248007800280CD17148007800287D
:10E2300008D170480078002804D16F480078002881
:10E2400000D1DBE0E8E000005B4150504C5D3A203B
:10E25000436F6E6E656374696F6E2052657175658C
:10E260007374204661696C65642C20726561736FFC
:10E270006E2025640A00000044280020F4DD01001F
:10E280005028002026020000882D0020AE2F0020FC
:10E290009128002018280020B228002019280020EA
:10E2A000962800200828002009280020446973636C
:10E2B0006F6E6E65637465642066726F6D20736D3A
:10E2C000617274207461672F766973696F6E0A00DA
:10E2D000446973636F6E6E656374696F6E207265F7
:10E2E00061736F6E3D25640A000000004029002024
:10E2F000172800200A20424C455F4843495F524599
:10E300004D4F54455F555345525F5445524D494E0C
:10E31000415445445F434F4E4E454354494F4E0A86
:10E3200000000000EC290020BDDF0100C9DF010072
:10E33000608A0200782800203303000010280020A3
:10E34000802800207C280020942800209528002088
:10E350004576656E745F706B745F72637664287463
:10E36000696D655F6F7574293A2025640A000000A5
:10E3700035280020432800204576656E742072659C
:10E3800061642054696D656F7574283273290A00C1
:10E390009A280020A4280020B4280020496D675F37
:10E3A000706B745F726376642874696D655F6F75F6
:10E3B00074293A2025640A003D2800208F28002077
:10E3C000496D61676520726561642054696D656F90
:10E3D0007574283130306D73290A0000342800200C
:10E3E000E9290020E8290020302800200D280020FD
:10E3F0000E2800200A2800200B280020F948007869
:10E40000022809D1F84B0622072102F051F8F748FB
:10E410000168F7A006F0CAFFFA480078401CF949E5
:10E420000870084600783C2818DB00200870F64881
:10E430000088002812D0F548007800280ED1F24854
:10E440000088401EF049088008460088002805D151
:10E450000120EE4908700A20EB490880EC4800785A
:10E4600000280AD0EA480078401EE94908700846AA
:10E470000078002801D1FEF7E7FFE6480078002881
:10E480000BD0E4480078401EE24908700846007846
:10E49000002802D10120E0490870E04800780028F7
:10E4A0000BD0DE480078401EDC4908700846007832
:10E4B000002802D10120DA490870DA4800780028E3
:10E4C0000CD0D8480078401ED6490870084600781D
:10E4D000002803D1D449087001F0E1F9D34800784D
:10E4E000002804D0D2480078401CD1490870D14897
:10E4F000007800280CD0CF480078401ECD49087025
:10E5000008460078002803D1C7490870FFF76CFA65
:10E51000C948007800280AD0C7480078401EC6497C
:10E52000087008460078002801D1FFF702FEC348B2
:10E530000088002813D0C248007800280FD1BF48B7
:10E540000088401EBD49088008460088002806D182
:10E550000120BB490870E120C000B8490880B948D3
:10E560000088002811D0B848007800280DD1B5489F
:10E570000088401EB349088008460088002804D15E
:10E580000120B1490870FFF70DFA10BDAF490978B5
:10E5900000290DD0AD490978491E0906090EAB4A7C
:10E5A000117005D10121AA4A11700022A9494A76A9
:10E5B0007047F8B500BF0020A74B06220421009049
:10E5C00002F083FF054600BF2E46002E06D000BF96
:10E5D000A24A8D21C9003046FEF74EFF00BF00BFA2
:10E5E0009F4A01219F4802F0ECFF044600BF2546E8
:10E5F000002D05D000BF994A9B492846FEF73CFFF5
:10E6000000BF9A4A01219A4802F0DBFF044600BF8E
:10E610002546002D06D000BF904A47210901284613
:10E62000FEF72AFF00BFF8BD1CB5924903C901914E
:10E6300000906946002003F0CAF91CBD7CB500209B
:10E64000009001906946087006228B4900A80130AD
:10E6500007F0E0F86946002070DF044600BF254659
:10E66000002D06D000BF7D4A7F4922312846FEF7A3
:10E6700003FF00BF7CBDFEB50446204671DF0546A2
:10E6800000BF2E46002E06D000BF744A76492A31BC
:10E690003046FEF7F1FE00BFA07961792279009241
:10E6A00001910290E378A278617874A006F07EFE72
:10E6B000A0797149087621796F484176A1788176F1
:10E6C0006179C176E178017761784177FEBD70B5F7
:10E6D00000BF784A0521082006F0EEF8044600BF86
:10E6E0002546002D06D000BF5C4A5F493A312846D6
:10E6F000FEF7C2FE00BF00BF70BD012044DF7047BF
:10E7000070B56D480078002800D070BD01206A49BE
:10E71000087002F030F8044600BF2546002D06D0F0
:10E7200000BF4E4A50494D312846FEF7A5FE00BFB6
:10E7300000BFEAE770B560480078002800D170BDDE
:10E7400000205D49087002F022F8044600BF25460B
:10E75000002D06D000BF414A43495B312846FEF7F1
:10E760008BFE00BF00BFEAE770B504460D46012DE1
:10E7700035D1022C0AD00D2C17D0162C30D1012007
:10E780002A49087000202A490870AAE04B480078FE
:10E79000002809D101204A490870144800684949F5
:10E7A00008600120454908709BE044480078002833
:10E7B00014D045480078002810D101204249087043
:10E7C0000A4800684149086041480078002805D19E
:10E7D00082201C49088001203D49087081E081E0C9
:10E7E00078E00000C028002000E0D7013028002099
:10E7F0000A5254432074696D65203D202564200A27
:10E80000000000001A2800201E2800203F280020B9
:10E810004D2800204629002005280020AA29002094
:10E820000628002096280020112800200C2800200F
:10E830001628002018280020192800201C28002055
:10E840003E2800202028002040280020C128002049
:10E85000C3280020C8320020342A0020F4DD010043
:10E86000DFE101007C2800206C0400008DE5010040
:10E8700080280020708A0200603300200D0A424C7C
:10E88000455F4D41432041444452455353203A2073
:10E89000253032583A253032583A253032583A2508
:10E8A0003032583A253032583A25303258200D0A45
:10E8B00000000000E42C002048280020452800200B
:10E8C000412800202C280020122800202428002085
:10E8D0001328002000BFF94A9F21C9002046FEF7F7
:10E8E000CBFD48E0002D46D1022C2FD00D2C02D0BC
:10E8F000162C39D10EE0F2480078002809D0F148F2
:10E900000078002805D00020EE4908700120EE496B
:10E9100008702FE0ED480078002816D0EC48007809
:10E92000022807DBEA480078052803DAFFF7E5FE4E
:10E93000FEF78AFDE6480078052803DB03F016FCA5
:10E94000FEF782FD0020E149087013E0DC48007802
:10E95000012808D1DF490870DF480068DF490860F6
:10E960000020D749087005E000BFD44ADC492046A2
:10E97000FEF782FD00BF70BD70B500BFD949012010
:10E9800002F03DF8044600BF2546002D06D000BF2A
:10E99000CA4AD3490A312846FEF76EFD00BF00BFC0
:10E9A00070BD70B500BFD04BD04A0321D04801F0F4
:10E9B0009FFE044600BF2546002D06D000BFBF4A7B
:10E9C000C7491C312846FEF757FD00BF00BF70BD88
:10E9D000C84B06220721022001F06AFDC6A006F0FE
:10E9E000E5FCFEF731FD10B50A20C949087005F0B5
:10E9F0008EF80020C6490870642005F039F810BD73
:10EA000010B5C4A006F0D2FCCD480088CD490881DD
:10EA10001022CD4803F0F6F8FEF7E6FF10BD10B562
:10EA2000B44B06220721022001F042FDC7A006F0E8
:10EA3000BDFCC3480088C34908811022C24803F0C6
:10EA4000E1F89F480078002803D1CC4800780028DE
:10EA500008D00120CA490870CA4908700020C74977
:10EA6000087001E0FEF7C0FF10BD1CB5C64806F0F7
:10EA700057FE009098480068C4490860084600881E
:10EA8000C3490988401A80B201908D480078002857
:10EA900003D00B20BF49087002E02B20BD4908704D
:10EAA0000422BA49BB48C01C06F0B4FE03226946E2
:10EAB000B848C01D06F0AEFEB648B5490A88428186
:10EAC0004988818169468988C1810120B2490870DD
:10EAD0001CBD08B5AC4806F023FE009078480078CD
:10EAE000002803D00C20AD49087002E02C20AB496F
:10EAF000087004227949A948C01C06F08BFE032245
:10EB00006946A648C01D06F085FE0621A3480A30C6
:10EB100006F0E6FE0120A249087008BD08B5894844
:10EB2000008987490880984806F0FAFD0090062081
:10EB30009C490870084682490A7842704978817079
:10EB400004226549C01C06F065FE0322694695480B
:10EB5000C01D06F05FFE9448007A92498872042234
:10EB600091490C318F480B3006F054FE8E48007CE2
:10EB70000006800F80018C49097C8906890E0843B4
:10EB80008849C8731620087408466D490A7842748B
:10EB90004978817404225049133006F03BFE032269
:10EBA00069468048173006F035FE7F48007E7D4973
:10EBB000887604227C491C317A481B3006F02AFEF4
:10EBC0007948008C0006800F80017749098C8906FE
:10EBD000890E08437349C877022074490870454B71
:10EBE0000622072101F064FC20216E4801F018FB89
:10EBF000404B06220721022001F05AFC6B480178A5
:10EC00006BA006F0D3FB01206F49087008BD10B55A
:10EC10006348007800281BD04A480089484908808A
:10EC20005E480078102108435C49087010225D4856
:10EC300006F0F0FD5B4843490A7A4270497A8170D8
:10EC4000002057490870012060490870FEF77FFDD9
:10EC500010BD10B5022000F0B2FC002807D1012041
:10EC600017490870E12000015949088007E0022097
:10EC700000F0A5FC012802D100201149087042488B
:10EC80001038006A15490860FFF723FFFFF7BFFF40
:10EC900000203D491039086224222B48343002F00C
:10ECA000B1FF10BD10B5022000F089FC002803D18F
:10ECB00001200349087095E08CE00000F4DD0100BC
:10ECC0004528002012280020422800200C2800207F
:10ECD0001628002041280020302800202C28002061
:10ECE0002A050000442D0020CDF501006606000035
:10ECF0005428002000E0D7010A2048617264466170
:10ED0000756C745F48616E646C65720A0000000087
:10ED10004D2800204576656E742053746F7265200F
:10ED2000696E6465782055706461746520696E2031
:10ED3000666C617368206D656D6F72790A00000002
:10ED4000A22800202C33002000EC0F004750532055
:10ED50004576656E742053746F726520696E6465C4
:10ED6000782055706461746520696E20666C6173EB
:10ED700068206D656D6F72790A0000000D28002013
:10ED80000828002040290020703300202828002077
:10ED900024280020682D00203C280020582D002029
:10EDA0003B280020AE2F0020AC3700209528002003
:10EDB0004750535F4576656E745F706B745F636E2A
:10EDC000743A2025640A00003728002039280020E2
:10EDD00020280020022000F0F2FB012802D10020B0
:10EDE000FD490870FC480078002805D1FB48006800
:10EDF000FB490860FFF76DFE10BD10B50D2000F057
:10EE0000DEFB002815D1F7480078002820D101202A
:10EE1000F4490870F1480068F3490860F348007845
:10EE2000002815D18220F24908800120EF4908709E
:10EE30000EE00D2000F0C3FB012809D1E94800785D
:10EE4000002805D00020E74908700120E949087032
:10EE500010BD70B5E8480078002853D005F0EDFDEE
:10EE6000E648007800280AD0E4480078401EE349CC
:10EE7000087008460078002801D103F0F7FCE0484C
:10EE8000008800280ED0DE480088401EDC4908803B
:10EE900008460088002805D14B20C00008800120CA
:10EEA000D8490870D8480078002826D011200123BE
:10EEB00083401946D54B5B68C340DA07D20F002A5E
:10EEC00002D1D24B996001E0D04BD96000BFCE484F
:10EED0000078401ECC4908700846007800280ED102
:10EEE0000120CB490870CB4B06220721022001F0FC
:10EEF000DFFAC9A006F05AFA01E006F0F9F900209D
:10EF0000BD490870D248007800280BD1D14800785C
:10EF1000002807D1D0480078002803D1CF480078D6
:10EF200000287DD0CE4804882146CEA006F03EFAC7
:10EF3000D24800782518D248854250D9844222D040
:10EF4000001BC2B2CF49204603F065FBC0480078E1
:10EF5000002811D0CA48001BCB4909884018CA496B
:10EF6000088008460088C649B831884204DDC64892
:10EF70000088401AC4490880C148001BB849098864
:10EF80004018B74908800120B5490880BC48281AB4
:10EF9000C2B2BB48001B0001BA4BC118012003F0EC
:10EFA0003AFBAB480078002811D0B548281AB6497A
:10EFB00009884018B449088008460088B049B8312B
:10EFC000884204DDB0480088401AAF490880AC4848
:10EFD000281AA34909884018A149088024E0A748B5
:10EFE0000278A849204603F016FB994800780028CB
:10EFF00011D0A5480088A14909784018A249088085
:10F00000084600889E49B831884204DD9E48008841
:10F01000401A9D490880924800889849097800E084
:10F0200036E040188E4908800020944908708848CE
:10F030000078002810D00020854908709348007897
:10F04000002824D001209249087088209149087036
:10F0500000208E4908701AE07E480078002805D00C
:10F06000FFF7CEFC00207B49087010E07A4800785A
:10F07000002805D0FFF7D3FC00207749087006E090
:10F0800076480078002802D000207449087060E0BB
:10F090008148007800285CD08048016880A006F094
:10F0A00085F9642004F0E4FC8048008882B2754948
:10F0B0007A48006803F087FA784800687B49096855
:10F0C0004018764908607A48007800283DD0084604
:10F0D000016873A006F06AF9764840881421484315
:10F0E00004460120000524187348007880040419A0
:10F0F0006A480068A0421DD110226E496F4802F094
:10F1000081FD01216C480078C2006B48001D8154CC
:10F11000001F0078401C68490870084600780428E1
:10F1200001DB00200870242263496448103002F09B
:10F1300069FD05E062A006F039F900206649087013
:10F1400000F0ADFB00205A490870002052490870B9
:10F1500000BF70BD10B54E48007800280ED04D4855
:10F16000007800280AD006F0BCF84A48007800F081
:10F17000BCFE06F0A1F800204549087010BD10B58E
:10F1800056480078002804D0FFF7A3FC002053491C
:10F1900008705348007800281DD052480078002895
:10F1A00019D151480078002815D1424800892C49CE
:10F1B000088010224D49334806F02CFB31483D4968
:10F1C0000A7A4270497A817000204549087001200E
:10F1D000474908708EE08FE0452800203028002045
:10F1E0002C2800201228002024280020132800208A
:10F1F0002028002042280020342800204A2800200F
:10F20000222800204928002048290020000500501D
:10F210004029002000E0D7010A5765206861766523
:10F22000206E6F742076616C6964204D41432E2EF0
:10F230002E2E2E54727920746F2067657474696E57
:10F24000672076616C6964204D41430A000000002C
:10F2500035280020362800203728002038280020B4
:10F26000A22800200A534420487562204576656E26
:10F2700074206964203D2025640A00009528002040
:10F28000E8FD0000AE2F0020A02800204328002029
:10F290008D280020932800203D280020A828002049
:10F2A000416464203D20253038580A00A4280020FD
:10F2B0008F2800202C3300203C33002000EC0F006E
:10F2C000416C6C20696D616765206E6F742072659A
:10F2D0006365697665640A001128002041280020D2
:10F2E0003C280020432900209F290020682D002071
:10F2F0003A280020FEF72BFAC7480078002804D0EF
:10F30000FFF7B3FB0020C4490870C4480078002808
:10F310003FD0C3480078002804D0C2480078FEF7E8
:10F32000F4F936E0C0480078002832D1BF480078B0
:10F3300000282ED1BE48007800282AD1BD48007888
:10F34000002826D1BC480078002822D1BB4800788C
:10F3500000281ED1BA48007800281AD1B948007890
:10F36000002816D104F0FAFC0020B749087003F019
:10F370004AFA0020B2490870A8490870B3480078DA
:10F38000002804D00020B1490870FFF76EFBFEF79B
:10F390002BFBAF480078002815D0A1480078002842
:10F3A0000AD00020AA490870FEF7D4F8642004F0BF
:10F3B0005FFBFEF719FB10BD0020A5490870A548AA
:10F3C0000078FEF785F900BFF5E710B5A248007890
:10F3D000002809D0A1480078012805D0A04B0C22B4
:10F3E0000B21012001F064F89E48007800280AD023
:10F3F0009A480078012806D19B4801789B4804F080
:10F400001DFD01F078F890480078002806D004F03F
:10F41000A5FCFFF783FB00208B4908709448007817
:10F42000002804D004F0B0FC00209149087010BD01
:10F4300010B58C480078002812D088480078002841
:10F440000ED189480178894803F0E5FC00208649FF
:10F450000870FA21854806F043FA002081490870B7
:10F4600077480078002804D000207549087003F020
:10F47000ECFF80480078002804D004F030FA002027
:10F480007C4908707C480078002804D004F053FAC6
:10F4900000207949087010BD0021C943774AD16125
:10F4A000002009E002210522120707231B02D218BF
:10F4B0008300D150411CC8B22028F3DB704710B53F
:10F4C000022000218A0005231B07072424021B19A0
:10F4D00084001A5100BF0A2004F0CAFA10BD10B50A
:10F4E000FFF7DAFF00F08CFEFFF7E9FF05F0CDFE35
:10F4F00005F02FFF05F0E7FEFFF75BF8FFF73CFA9A
:10F50000FFF74FFA03F03FF904F005FC04F0BEFAF0
:10F510000A2004F0ADFAFFF787F810BD10B5FEF72A
:10F5200059FDFEF7A2FD5648FFF7A5F8FFF786F84C
:10F53000042077DF10BD01203E4908704049087063
:10F54000704770B548DF044600BF2546002D05D042
:10F5500000BF4C4A4C492846FDF78EFF00BF70BDE6
:10F56000FFF7BDFFFFF7B3F802F0CDFDFFF771FB2A
:10F57000FFF7D4FFFEF7ABFDFFF7C2F8FFF7DBFFA5
:10F5800005F0D0FD41480078002804D101203F4912
:10F590000870FFF728FA00BFFFF75BFCFFF7DAFD02
:10F5A000FFF746FFFFF711FFFFF7E9FD05F045FA0A
:10F5B0001B4800780028EFD0FFF7C3FFECE70146B7
:10F5C0002E480069C840C007C00F70477CB504468C
:10F5D0000D46164600946846057146712C4A08216E
:10F5E00005F08AF97CBDF8B505460E462C4600BFED
:10F5F000082E01D1012000E000200746002F04D191
:10F6000000BF24A2A821FDF737FF00BF6179207950
:10F6100022689047F8BD00004228002046280020BC
:10F62000452800204F280020082800200928002015
:10F630000D2800200E2800200A2800200B2800207A
:10F6400040290020372800209E2900201228002071
:10F65000442800204E2800209F290020C028002098
:10F6600000509D00C3280020C2280020E83100205F
:10F670000628002005280020412900200005005010
:10F6800084280020F4DD0100D9080000472800206C
:10F69000E7F501002E2E5C2E2E5C2E2E5C2E2E5CAD
:10F6A0002E2E5C496E636C7564655C6170705F637F
:10F6B0006F6D6D6F6E5C6170705F627574746F6E8C
:10F6C0002E680000FEB505462F460C373888002806
:10F6D0001FDD082229460E31684606F09BF8684671
:10F6E0000188F4A005F062FE0020F849087001A925
:10F6F000F748008892DF044600BF2646002E06D059
:10F7000000BFF4A251213046FDF7B6FE00BF00BF96
:10F7100000BFFEBD38B5F348008800281CD0F14872
:10F720000088401C81B268460180EE480088401C79
:10F7300081B2684641806946E548008893DF044607
:10F7400000BF2546002D06D000BFE2A2A221284618
:10F75000FDF792FE00BF00BF38BDFEB5044620464F
:10F760000C300290002636E00A20314641430298D0
:10F77000801C0F183988DCA005F018FE3888E04995
:10F78000401802D002281FD111E0DE480078401C4A
:10F79000DC490870E18ADCA005F008FEE08AD14966
:10F7A0000880A07CC006C00FE049087010E0D54872
:10F7B0000078401CD3490870E18ADDA005F0F6FD11
:10F7C000E08AE249088003E0E1A005F0EFFD00BF18
:10F7D00000BF701CC6B202980088B042C4DCC948A1
:10F7E0000078022808D10020C64908700120B749D6
:10F7F0000870FFF78FFF18E0E08A401C6946888098
:10F800000021C9436846C18001A9B148008892DF40
:10F81000054600BF2E46002E06D000BFADA29121A6
:10F820003046FDF729FE00BF00BFFEBD7FB50121B8
:10F83000009168460171CC4801886846C1800390F8
:10F84000022141810021018101A9A148008897DF9F
:10F85000044600BF2546002D06D000BF9DA2CB2147
:10F860002846FDF709FE00BF00BFC0A005F09EFDC1
:10F870000120C44908708A20C34908707FBD10B5B3
:10F880000446E189C1A005F091FDE089B6490880F0
:10F89000A6480078002801D0FFF7C8FF10BD70B55A
:10F8A0000126C448007800280DD0C34800780028FD
:10F8B00006D000260120B34908700320B249087021
:10F8C0000020BC490870002E10D013218048008809
:10F8D00076DF044600BF2546002D06D000BF7DA27E
:10F8E000B6492846FDF7C8FD00BF00BF70BDF8B59A
:10F8F00005462C460C340020B1490870208879490F
:10F90000098888427ED1A04800788A280ED006DC7B
:10F91000032878D0862877D0882876D1BCE08C2838
:10F9200074D092281ED09328F7D1A2E0A188A01D00
:10F9300000F076FCA079012811D192490870A14805
:10F940000078002803D092208F49087009E09E4873
:10F950000078002805D08C208B49087001E0FFF763
:10F960009EFF9EE299480078002800D099E2A07995
:10F97000012834D196480088002830D1207A00022E
:10F98000E179084392490880207B0002E17A08432C
:10F990000346A07A0002617A084302468C48018837
:10F9A0008CA005F003FD8A480088002805D10120BD
:10F9B00080490870FFF773FF5AE0A07A0002617A6D
:10F9C00008438F49088008460088401E08800020B0
:10F9D0008C4908708C4800898C49088048E07C4834
:10F9E000008800283CD002208949087085490978A0
:10F9F0000901884A88181022A11D05F00BFF8148D3
:10FA0000007804E04EE26AE134E149E27AE1401C28
:10FA10007C49087008460078202814DB674A443A7D
:10FA20007C497D4805F0F6FE764800787B490870F1
:10FA30000020744908707948017879A005F0B6FC77
:10FA400001207D49087062480088401E6049088096
:10FA50000846008800280BD178A005F0A7FC07E035
:10FA6000A079002804D1012052490870FFF717FF40
:10FA700017E2A188A01D00F0D3FBA079012805D1D1
:10FA80004049087086204049087004E00120494937
:10FA90000870FFF704FF04E2A188A01D00F0C0FB7E
:10FAA000A079012805D137490870862036490870A9
:10FAB000DFE0D9E073657276696365205555494486
:10FAC000203A203078253034580D0A008C28002048
:10FAD000502800202E2E5C626C655F7376735F6326
:10FAE0002E630000AC2800200A436861722055553F
:10FAF0004944203A203078253034580D0A0000005F
:10FB0000FF3DFFFF92280020424C455F5555494478
:10FB10005F4E4F544946595F444154412030782547
:10FB20003034582028522C4E290000009028002004
:10FB3000424C455F555549445F5752495445203022
:10FB4000782530345820285729000000AE2800209E
:10FB5000466F756E6420736F6D657468696E67209B
:10FB6000656C73650A000000B0280020456E616274
:10FB70006C6564206E6F74696669636174696F6E29
:10FB8000730D0A008D2800209328002044697363B8
:10FB9000726970746F7227732068616E646C65207F
:10FBA00076616C7565203A203078253034580D0A1E
:10FBB00000000000112800200F2800206A02000029
:10FBC00096280020082800200928002091280020DD
:10FBD00098280020556E7265616420457674203D3A
:10FBE0002025642C205374745F496478203D2025BF
:10FBF000642C20456E645F4964783D25640A0000EA
:10FC0000A0280020942800202C330020A2280020C7
:10FC100019280020882D0020AE2F002095280020D4
:10FC20004576656E745F706B745F72637664203DB9
:10FC30002025640A0000000035280020416C6C205B
:10FC40004576656E7420706B7473207263766420E1
:10FC500066726F6D20536D6172745461672F5669BF
:10FC600073696F6E0A0000000120DE490870FFF71B
:10FC700016FE16E1A188A01D00F0D2FAA079012895
:10FC800027D1207A0002E17908430746A07A0002D2
:10FC9000617A0843064632463946D3A005F086FB12
:10FCA000DC480088B0420BD1DBA005F07FFBE648C2
:10FCB0000088E64908811022E54801F0A3FF02E030
:10FCC000E4A005F073FB0120C6490870FFF7E7FDCB
:10FCD00004E00120C3490870FFF7E1FDE1E0A188DD
:10FCE000A01D00F09DFAA079012805D10020BD4992
:10FCF0000870FFF7D4FD04E00020BA490870FFF750
:10FD0000CEFDCEE0DD480078002800D0C9E0A07923
:10FD100001284DD1DA480088002849D1E079000255
:10FD2000217A0843D649088008460188D5480078DA
:10FD3000C200D448001D10184180D2480078C1008C
:10FD4000D048001D08184088C04948800020CE498E
:10FD50000880CE490870A188A01D00F061FAC8484B
:10FD60000088142148430246C5480188C8A005F010
:10FD70001DFBC44800788004012109054018CE49C4
:10FD8000086008460168BF480078C200BD48001DF1
:10FD900010184160BB480078C100BA48001D08181F
:10FDA0004068AA494860B7480078B649487076E08C
:10FDB000B348008800286AD00220C0490870B248C1
:10FDC000008801214902884251DCBD49AE4A1288AF
:10FDD00088181422A11D05F01DFDAB4800881430C1
:10FDE000A9490880B7480088401CB6490880A64841
:10FDF000008801214902884239DBA3490888C117DC
:10FE0000C90D091849124902411AAF4A11809E488A
:10FE1000008811460988401AAC4908800120400238
:10FE2000AB4908600846A6490268AA4805F0F2FCFA
:10FE3000A5480088002802D1934908800CE0A24818
:10FE40000088914908809E48A04A128881189E48DF
:10FE500002889B4805F0DEFC9A4801889EA005F0C8
:10FE6000A5FA0020974908800120A049087084481D
:10FE70000088401E824908800846008800280ED16C
:10FE80009BA005F093FA01205649087007E0A0797D
:10FE9000002804D1012053490870FFF700FD00E05D
:10FEA00000BF00BFF8BD3EB59C4801886846418050
:10FEB00000218180022101701421C18098480290A4
:10FEC00069469848008897DF044600BF2546002D04
:10FED00006D000BF944A95492846FDF7CDFA00BFE9
:10FEE00000BF1420924908703EBD10B5044614218D
:10FEF0008B4805F0F5FC8A2C0ED006DC032C20D0B4
:10FF0000862C55D0882C5FD14CE08C2C56D0922C6E
:10FF100025D0932C58D128E086A005F047FA002080
:10FF2000874908707E4804700820102801D91020E5
:10FF300000E00820024683A17948401C05F06AFCD5
:10FF400043E083A005F032FA00207D490870744830
:10FF5000047004228449401C05F05CFC35E083A059
:10FF600005F024FA6E4804702FE088A005F01EFA10
:10FF7000284801888BA005F019FA694804702549C2
:10FF80000888C117090E091809120902411A644AA2
:10FF9000517020490888C117090E09180904090E73
:10FFA000917012E085A005F001FA5D4804700CE044
:10FFB00088A005F0FBF95A48047006E08AA005F015
:10FFC000F5F95748047000E000BF00BF1421544801
:10FFD00000F026F989480078002801D0FFF763FF78
:10FFE00010BD0000112800200A6476635F72756EF0
:10FFF0005F696478203D2025642C206476635F6C03
:020000040002F8
:10000000617374726561645F696478203D20256462
:100010000A000000A0280020557064617465642007
:10002000696E206465766963652C207772697465F2
:1000300020696E64657820696E2068756227732078
:100040006D656D6F72790A00A22800202C330020A4
:1000500000EC0F004576656E74206D6973746D61F8
:100060007463682066726F6D2067657420657665BD
:100070006E7420636F756E740A0000009128002072
:10008000B22800203C3300209A2800208F2800202E
:1000900074746C5F696D675F706B745F23203D20C3
:1000A00025642C202862797465735F23203D2030FD
:1000B0007825303858290A00A8280020192800205F
:1000C000882D0020B42800209C2800209E28002095
:1000D000A4280020AE2F0020706B745F72637664DA
:1000E000203D202564203A20000000003D2800200B
:1000F000416C6C20496D61676520706B7473207270
:100100006376642066726F6D20536D617274546102
:10011000672F566973696F6E0A000000AE280020D1
:10012000D431002050280020D4FA010051020000F0
:100130009628002050415353574F52440A00000064
:1001400017280020696E7321676D403F0000000092
:100150005345545F5245414C5F54494D455F434CB4
:100160004F434B0A00000000302800205245414414
:100170005F415641494C41424C455F554E524541C5
:10018000445F4556454E540A000000004D4F444917
:1001900046595F4C4153545F524541445F45564573
:1001A0004E540A000A206C617374207265616420E9
:1001B0006576656E74203D2025640A0045524153E2
:1001C000455F414C4C5F4556454E545F4441544158
:1001D0000A0000004745545F4556454E545F434F63
:1001E000554E540A00000000524541445F494D41BC
:1001F00047455F444154410A000000008C2800201C
:1002000010B50F4B06220721022000F051F910BD56
:1002100070B504460D46E0B200F07CF8204670BD93
:1002200070B505460E46002404E0295D05A005F0E2
:10023000BDF8641CB442F8D304A005F0B7F870BD53
:1002400000E0D70130782530325820000D0A000038
:1002500010B5002819DAD44A03071B0F083B9B0886
:100260009B00D2588307DC0EFF23A3409A438B07E1
:100270001B0E8407E40EA3401A43CB4B0407240F44
:10028000083CA408A4001A5118E0C84A03231B0222
:10029000D21883089B00D2588307DC0EFF23A340AB
:1002A0009A438B071B0E8407E40EA3401A43BF4BEF
:1002B000032424021B198408A4001A5110BD00BF96
:1002C000BB4880680128FBD10020B9498860B94843
:1002D0008069C0B2704770B504460D4601260AE039
:1002E0002046641E002804DB7D20C000FCF7ACFF24
:1002F00001E0002603E0AE4880680128F0D100BF8D
:10030000002C05DB0020AA498860AA488069287073
:10031000304670BDA749C86100BFA549C969012918
:10032000FBD10021A24AD161704730B503460025B8
:1003300028466D1C1C5C05E02046FFF7EBFF2846B5
:100340006D1C1C5C002CF7D130BD70B503460C460B
:10035000002528466D1C1E5C07E0601E84B23046F6
:10036000FFF7D8FF28466D1C1E5C002CF5D170BD30
:10037000F8B507460C4615461E46204600F001F922
:100380000021304600F006F98A48C46046610698AC
:1003900000280DD0384600F0F4F80021284600F07F
:1003A000F9F8844805618760012082494031C862BC
:1003B0008148804948620420086001207F498860A4
:1003C000086000207A498860401E7D49886081204D
:1003D00080004860022000F0CDF801210220FFF7E4
:1003E00037FF022000F0B7F8F8BD10B501207349BF
:1003F000086000206E498860401E71498860812035
:1004000080004860022000F0B5F801210220FFF7CB
:100410001FFF022000F09FF810BD10B504206549B1
:100420000860012065498860FFF7DFFF10BD10B547
:10043000FDF765FE01206149486000205C49886045
:10044000401E5F498860022000F094F8022000F00E
:1004500089F810BD10B5022000F084F800210A20B0
:1004600000F098F80021092000F094F800210C20F9
:1004700000F090F800210B2000F08CF800210620FD
:1004800000F088F80021072000F084F800204B4994
:10049000886008600120C860486000204549086005
:1004A000022000F067F80020C0434549886010BD75
:1004B000F8B504460D4616461F4642480078A0424D
:1004C00000D1F8BD3F480470022003F0D1FAFFF7D5
:1004D000C1FF284600F055F80021304600F05AF8D8
:1004E0003448C56046614762FFF797FF022003F07A
:1004F000BFFA00BFE5E710B5002033490870334963
:100500000870FA21324805F0EBF910BD28488068E0
:10051000002818D00020264988602C480078002840
:1005200011D102202B490870224880692849264AA7
:100530001278885424480078FA2804DA224800788F
:10054000401C214908701A48406A002802D0002047
:10055000174948627047C206D20E01219140134AE2
:1005600011607047C206D20E012191400F4A8032BD
:1005700011607047C206D20E01219140164A1160E7
:10058000704703210522120707231B02D21883009C
:10059000D150704710B58A0005231B070724240299
:1005A0001B1984001A5110BD1CED00E000E100E0B1
:1005B000002100400025004000E0D701002000405D
:1005C00000230040C0280020C2280020C3280020AB
:1005D000E8310020C128002080E200E0F8B50446A0
:1005E0000D4694480068002813D0EAB22178914B58
:1005F000A0681B689847064600BF3746002F06D004
:1006000000BF8DA228213846FCF736FF00BF00BF8F
:100610000CE0012D04D120780121A268904705E06B
:10062000002D03D120780021A2689047F8BDF8B5CD
:10063000074669468C48007800F0EFFA0646002E1F
:1006400000D0F8BD002533E00C20684387490968D5
:1006500044188748006822780121914008420FD051
:10066000A06800280CD06078012804D10021204621
:10067000FFF7B4FF1AE001212046FFF7AFFF15E0B6
:100680007B48406822780121914008420ED0A06842
:1006900000280BD06078012804D101212046FFF703
:1006A0009DFF03E000212046FFF798FF681CC5B2BC
:1006B000704800788542C7DB00BFC2E770B50446CA
:1006C0000D466D48006800F0F4FF0646002E00D08D
:1006D00070BD67484460056020462843024667486D
:1006E00001686548006800F0B3FF064600BFEFE709
:1006F000FFB583B006460C461746052F02D20720E9
:1007000007B0F0BD594806605A4804705B4807605E
:10071000484906980860002516E00C2161438819B5
:10072000027800924168019101998900052212071F
:1007300007231B02D318009A9200995000BF027839
:10074000012191400D4300BF2046611ECCB200281C
:10075000E3D14B4B2A462946434800F089F90290E1
:100760000298002801D00298CAE7464A0021424870
:1007700000F027FFC4E710B53C480068002801D10D
:10078000082010BD3848007800F0B7F9F9E710B537
:1007900036480068002801D1082010BD3248007892
:1007A00000F01AFA0446002C01D02046F5E7324842
:1007B000006800F07EFFF0E7F8B506460C462D48CD
:1007C0000078864201DD0720F8BD0C2070432749E0
:1007D0000968451825480068002801D10820F3E77A
:1007E00069462148007800F018FA0746002F01D02A
:1007F0003846E9E7687800280BD129780098C84086
:10080000C007C00F02D00020207010E0012020702F
:100810000DE0687801280AD129780098C840C007FF
:10082000C00F02D00120207001E0002020700020C5
:10083000CAE70000D02800202E2E5C2E2E5C2E2E23
:100840005C2E2E5C2E2E5C536F757263655C61703E
:10085000705F636F6D6D6F6E5C6170705F627574F9
:10086000746F6E2E63000000D4280020C42800207E
:10087000DC280020C8280020D8280020CC28002010
:10088000BD0602002F060200F0B502460C4600200D
:1008900035E001238340194623460B422ED0D5680C
:1008A0000D4205D101235B04D5680D43D56004E0FA
:1008B00003231B04D5688D43D56005252D07072626
:1008C0003602AD198600AD5903263604B543052618
:1008D000360707273F02F6198700F55105252D0732
:1008E00007263602AD198600AD591D430526360789
:1008F00007273F02F6198700F55100BF401C20284A
:10090000C7D3F0BDF0B585B0EC4805690020EC49CF
:10091000C86300263DE014207043EA490968441882
:100920000120B040E8490968084230D0E068C0437F
:10093000684021680840074639462046FFF7A4FF73
:10094000DE48006968400390039800280ED00398A1
:100950000543E068C0436840216808400090204695
:100960000099FFF791FF0098074300BFA068A843D4
:100970003840019060682840384002900199029800
:10098000084303D0226901990298904700BF701C68
:10099000C6B2CE4800788642BDDB05B0F0BD10B5CA
:1009A0000146002028E014224A43C64B1B689A588F
:1009B000012383401A421ED00522120707231B027F
:1009C000D2188300D25803231B049A4305231B0724
:1009D000072424021B1984001A5105221207072339
:1009E0001B02D2188300D25805231B0707242402B8
:1009F0001B1984001A51401C2028D4D310BD70B597
:100A000005460C46002C01D1072070BD2046810709
:100A1000890F01D1012100E00021002901D1072027
:100A2000F3E7A8480460AA4805700020A7490870A9
:100A3000A5490860A6480078142250430146A14801
:100A4000006804F04FFF0020C043A24988600620E0
:100A500001218140A04A116000BF012100F0F7F898
:100A60000620012181409D4A116000BF0020CCE793
:100A7000F8B504460D4616461F4692480068002801
:100A800001D10820F8BD002F01D10720FAE78F48D7
:100A900000788F490978884201DB0420F2E7284674
:100AA00030438A49097814225143864A12685050CB
:100AB00086480078142148438249096840184560F7
:100AC00082480078142148437E49096840188660AE
:100AD0007E480078142148437A4909684018076124
:100AE0007A480078207079480078401C774908706F
:100AF0002078FFF754FF0020C4E7F0B502467148A4
:100B00000068002801D10820F0BD704800788242BA
:100B100001DB0720F8E70020694BD86367480469C8
:100B200069480068002802D158066A4B58600120C5
:100B30009040654B1B681843634B186000231420DA
:100B40005043604D2D684019C360002140E00123EF
:100B50008B401846142353435A4D2D68EB580342DB
:100B600035D02546054202D003231B040EE00123A5
:100B70005B0414255543534E3668AD19ED680543A3
:100B8000142656434F4F3F68F619F56005252D078B
:100B900007263602AD198E00AD5903263604B5433B
:100BA0000526360707273F02F6198F00F551052560
:100BB0002D0707263602AD198E00AD591D430526B7
:100BC000360707273F02F6198F00F55100BF491C71
:100BD0002029BCD3002097E710B5044639480068A7
:100BE000002801D1082010BD38480078844201DB7C
:100BF0000720F8E72046FFF7D2FE0120A040324947
:100C000009688143304801600068002803D1012051
:100C1000C007304988600020E5E710B50246294842
:100C20000068002801D1082010BD284800788242C1
:100C300001DB0720F8E714205043224C24680319F5
:100C40001E4800691C68204008600020ECE710B5D1
:100C5000002819DA224A03071B0F083B9B089B0058
:100C6000D2588307DC0EFF23A3409A438B071B0E49
:100C70008407E40EA3401A43194B0407240F083CD1
:100C8000A408A4001A5118E0144A03231B02D21826
:100C900083089B00D2588307DC0EFF23A3409A43AE
:100CA0008B071B0E8407E40EA3401A430B4B03244F
:100CB00024021B198408A4001A5110BD000500501D
:100CC00040610040E4280020E8280020ED280020B2
:100CD000EC2800200063004080E200E000E100E03A
:100CE0001CED00E010B5002819DAF74A03071B0FC6
:100CF000083B9B089B00D2588307DC0EFF23A340D0
:100D00009A438B071B0E8407E40EA3401A43EE4B55
:100D10000407240F083CA408A4001A5118E0EB4A69
:100D200003231B02D21883089B00D2588307DC0ED2
:100D3000FF23A3409A438B071B0E8407E40EA340B6
:100D40001A43E24B032424021B198408A4001A51FD
:100D500010BD10B50446DE48846003211120FFF762
:100D6000C1FF10BD10B501200004DA494860D9491F
:100D700040394860112000F0E7FC112000F0D6FC5B
:100D80000120D54908602F20FCF76EFA0120D349D5
:100D9000087010BD10B5112001218140CB4A80326E
:100DA000116000BF01200004CA498860C949403968
:100DB00088600120C84948602F20FCF755FA0120BF
:100DC000C54988600020C64908602F20FCF74CFA0E
:100DD0000020C249087010BDF0B5024628205043DB
:100DE000C04B1B68C118C0480068401C02D1BE48F7
:100DF000026057E0BC488B68006828246043B94C07
:100E0000246800198068834217D8B74800682823EF
:100E10005843B44B1B68C01880688B68C31AB2482B
:100E2000006828246043AF4C246800198360AE48F2
:100E300000684862AC48026034E08B68AA4D2C68B8
:100E400028680DE028254543A64E3668AD19AD68E3
:100E50005B1B044628254543A24E3668AD19686AD7
:100E6000451C07D0282545439E4E3668AD19AD6810
:100E70009D42E7D3451C0CD028254543994E366842
:100E8000AD19AD68EE1A28254543964F3F68ED1918
:100E9000AE608B60486228256543924E3668AD1976
:100EA0006A6200BFF0BDF8B506468F4805682C465B
:100EB00009E0B44200D108E0254628206043894972
:100EC00009684018446A601CF3D100BF601C00D15F
:100ED000F8BDA5420FD184480068282148438149C4
:100EE00009684018406A8049086008460068401C4C
:100EF00001D1FFF74FFF282060437A490968401865
:100F0000876828206043774909684018416A28208B
:100F10006843744A12688018416228206843714906
:100F200009684018446A601C0CD0282060436D4951
:100F3000096840188068C11928206043694A12680E
:100F40008018816000BFC3E710B5112000F0F5FBE9
:100F500010BD10B5142000F0F0FB10BD70B50446B4
:100F600062480068002813D0604A216AE06912686C
:100F70009047054600BF2E46002E07D000BF5CA25A
:100F8000FF2164313046FCF777FA00BF00BF02E072
:100F9000E169206A884770BDF8B553480068401C75
:100FA00039D0002700F002FC04464D480168204675
:100FB00000F0FFFB06464C48056811E02820684316
:100FC000484909684418A068B04200D90AE0A068FE
:100FD000361AA068C719656A2046FFF7BFFF00BF31
:100FE000681CEBD100BF4E4800784E490978884212
:100FF00009D14C480078401CC0B24A490870022808
:1010000001D10020087047480078800046490F5001
:10101000FFF79FFF00BFF8BD014641480078414AF5
:10102000127890421DD03E480078401C3C4A107017
:1010300010460078022801D100201070384800784E
:101040008000394A10580860254A086812688018DC
:10105000234A1060104600680002000A1060012058
:1010600070470020086000BFFAE7FEB51E48006820
:1010700001902E480078009076E00098C0002C493E
:101080000968441825786BE01820684361680F18D8
:10109000681CC5B2A078A84200D100253868022893
:1010A00002D0032859D145E02821786848430D49EA
:1010B00009684618307E002804D07868FFF7F3FEF0
:1010C000002030764AE000001CED00E000E100E086
:1010D0000015014040130140001001401429002078
:1010E00000290020F0280020FC28002010290020E2
:1010F0002E2E5C2E2E5C2E2E5C2E2E5C2E2E5C5305
:101100006F757263655C6170705F636F6D6D6F6E3C
:101110005C6170705F74696D65722E630000000021
:101120000C2900200D29002004290020F52800208A
:10113000F82800200CE0FE49096828225143FD4AA6
:101140001268881800210176F94A416A116000BFCF
:10115000F7480068401CEED100E000BF00BF00BFB0
:101160006078A84290D100BF0098411EC9B200919A
:10117000002882D1EE4801680198814201D0012007
:10118000FEBD0020FCE7F0B50346002426E0E84E53
:10119000366828277E43E74F3F68F01986689E42ED
:1011A00003D98668F61A86601CE086689B1B8668F1
:1011B0003419002686600676DD4E3568DC4F466AB7
:1011C0003E604669002E08D00E193602360AC66007
:1011D0004669066116684662156000BFD44800681B
:1011E000401CD4D100BFF0BDFEB50746D048006812
:1011F0000290D1480078019069E00198C000CF4981
:10120000096845185CE0781C07D03E4628207043EA
:10121000C84909684418676A23E0297818235943A4
:101220006A6850182978491C29702978AA7891424F
:1012300001D100212970466828217143BD4A1268F6
:101240008C180168012902D1217E002900D037E0E5
:101250008168E160C1682161016961614169216260
:1012600000BFB749E0680968401A0002000AB549A2
:10127000884208D2B249E068096800F09AFA216908
:101280004018A06011E0AE48E168006800F091FAF3
:10129000009021690098814204D921690098081AB8
:1012A000A06001E00020A06000BF0020E06020619D
:1012B00001202076801E60623046FFF78DFD00BF62
:1012C000781CA0D12878697888429CD100BF019809
:1012D000411EC9B2019100288FD19548016802983A
:1012E000814201D00120FEBD0020FCE7FEB5904800
:1012F0000068401C34D08E480068282148438D493E
:1013000009684018856800F051FA01908C4804681B
:101310002146019800F04DFAC61C8B480078002841
:1013200001D1FFF71FFDAE4201D2284600E0304652
:1013300004192402240A20468449086000BF00F0F2
:1013400035FA00900199009800F033FAC71C204646
:10135000019900F02EFA874201D9FFF7F5FD01E06F
:10136000FFF718FDFEBDFEB50020C0430190744894
:1013700004686F4807686846FFF74EFE0546FFF7AA
:1013800074FE0646002D05D001AA21460098FFF7FD
:10139000FAFE01260198FFF727FF002800D001265A
:1013A000002E02D03846FFF7A1FFFEBD4170704706
:1013B00070B502460B465078411C9078884200D1A7
:1013C00000211078884201D1002070BD196050784A
:1013D0001826704355682C182046F6E7FFB581B0F3
:1013E00005460E461746E900544A126888186946B1
:1013F000FFF7DEFF0446002C02D1042005B0F0BD4B
:1014000001202060666000F0D1F9A060E7600498D8
:1014100020610A986061E900484A126888180099BA
:10142000FFF7C4FFFFF795FD0020E7E7F8B5044696
:101430000E46E100414A126888186946FFF7B8FF76
:101440000546002D01D10420F8BD022028606E6001
:10145000E1003A4A126888180099FFF7A7FFFFF7E2
:1014600078FD0020F0E738B50446E100334A126801
:1014700088186946FFF79CFF0546002D01D104201E
:1014800038BD03202860001F6860E1002B4A126805
:1014900088180099FFF78AFFFFF75BFD0020EFE750
:1014A00010B500202A490860002129484160816068
:1014B000C16000202649403908604860FFF76CFD94
:1014C00010BD10B5FFF74FFF10BDFFB581B00E4640
:1014D00017461C4620468107890F01D1012100E0F3
:1014E0000021002902D1072005B0F0BD002C01D158
:1014F0000720F9E7FFF74EFC16490A9808601648DE
:1015000006700C48046000250CE000212820684388
:10151000084A1268115028206843064A1268801849
:1015200001766D1CB542F0DB28207043041915E0EC
:10153000FC280020F0280020F5280020F8280020B2
:1015400000290020FFFF7F001429002040150140E2
:101550004011014010290020F42800200320974961
:10156000087097480460183400250CE0E900944A9C
:10157000126888180021017041708770446018213A
:1015800079430C196D1C032DF0DB0020C0438D49FD
:10159000086000208C4908708C490870142000F005
:1015A000D3F803211420FFF79DFB142000F0BEF8B0
:1015B0000198FFF7CEFB00F0F9F88549086000209C
:1015C00092E770B503460C4682480068002801D1B6
:1015D000082070BD002A01D10720FAE7002B01D1B5
:1015E0000720F6E700211CE028204843794D2D68AC
:1015F0002858002814D1012528204843754E366804
:10160000355028204843734D2D68401944602820E8
:101610004843704D2D684019C26119600020D8E719
:10162000491C6D4800788142DEDB0420D1E710B50B
:1016300000F092F8012802D0032804D101E0002430
:1016400003E0012401E0022400BF00BF204610BDDA
:10165000FEB504460D4616465E480068002801D1D6
:101660000820FEBD5C480078844201D2052D01D2DD
:101670000720F6E7282060435649096808580128E2
:1016800001D00820EDE7282060435249096840183E
:101690004068012801D1284600E000200746FFF7F6
:1016A000C6FF3B462A46214600960190FFF796FE6C
:1016B000D7E770B5044647480068002801D10820E4
:1016C00070BD45480078844201D30720F8E7282000
:1016D0006043404909680858012801D00820EFE715
:1016E000FFF7A5FF05462146FFF7A0FEE8E710B586
:1016F00038480068002801D1082010BDFFF797FF87
:101700000446FFF7B0FEF8E710B5044600F04EF8C7
:101710002060002010BD70B505460E4614463146C7
:10172000284600F046F82060002070BDC206D20EA8
:1017300001219140294A11607047C206D20E012151
:101740009140274A11607047C206D20E0121914094
:10175000234A80321160704710B522484068C105A5
:10176000C90D002920D00A46103A104600280DDA8B
:101770001C4B1C330407240F083CA408A4001B596D
:101780008407E40EE3401B069B0F0BE0134B03247E
:1017900024021B198408A4001B598407E40EE340AB
:1017A0001B069B0FD8B210BD0420FCE70E48406812
:1017B00070470246501A0002000A7047F5280020C0
:1017C000F8280020FC2800200C2900200D290020EA
:1017D00000290020F0280020F428002000E100E08B
:1017E00000E200E000ED00E00015014070B50646A3
:1017F0000C46154629462046FBF74FFE70BDF8B54E
:1018000059480078002800D1F8BD584800680028E1
:1018100001D1012000E0002005465548006800285D
:1018200001D1012000E00020064600BF002D14D1A8
:10183000684651DF0446052C01D101250CE0002C3F
:1018400006D000BF4BA269212046FBF715FE03E03E
:10185000464900980968884700BF002E1AD15348AE
:101860000088009069465248006861DF0446052CF4
:1018700001D101260DE0002C06D000BF3DA2802141
:101880002046FBF7F9FD04E049480068384909683B
:10189000884700BF002D02D0002E00D000E0C5E731
:1018A00000BF00BFB0E7FFB581B00C4616461F462B
:1018B000002C02D1072005B0F0BD20468107890F1A
:1018C00001D1012100E00021002901D10720F2E728
:1018D0003748046035480680364807603649019825
:1018E00010DF0546002D01D02846E4E701201E49FF
:1018F000087016202EDFDEE710B511DF0446002C3D
:1019000001D0012000E0002017490870204610BDDA
:101910000146002901D10E207047154801600020C2
:10192000FAE70146002901D10E2070470F480160F7
:101930000020FAE770B51F480068002811D01D4844
:1019400000688047044600BF2546002D07D000BF31
:1019500008A2FF2133312846FBF78EFD00BF00BFF0
:1019600001E0FFF74CFF70BD182900202C29002052
:10197000282900202E2E5C2E2E5C2E2E5C2E2E5C16
:101980002E2E5C536F757263655C73645F636F6D5D
:101990006D6F6E5C736F66746465766963655F68AE
:1019A000616E646C65722E630000000024290020C3
:1019B000202900201C290020ED17020001218200AF
:1019C000FC4B9A5805231B02D2181160704770B562
:1019D00005460C46012D01D9002070BD0621694342
:1019E000F54A88180622214603F014FFA07800F07B
:1019F00094FEE07800F091FE207903218A0005230F
:101A00001B07072636029B1986009A5100BF607992
:101A100000F083FEA078A900E64A51580522120280
:101A200089188860E078A900E24A5158052212021C
:101A30008918C8602079A900DE4A5158052212028F
:101A40008918086160780006A900DA4A5158052211
:101A50001202891848622078A900D64A51581522E6
:101A60009201891848610021A800D24A1058FF301D
:101A700001308160607900F059FE2846FFF79EFF33
:101A8000A800CC490858A8E730B503460020CB4C45
:101A90002080002A01D0012B01D9002030BD980000
:101AA000C44C2058C64C206030E00020C34C20803D
:101AB0000024C3480068FF30013084601078C04CB7
:101AC000246805252D026419E061521C04E0BB481E
:101AD0000088401CB94C2080B9480068FF300130B4
:101AE0008068002805D1B54800887D246401A042A3
:101AF000EDDBB24800887D246401A04200D10AE0F9
:101B0000AF480068052424020019806908464C1E6D
:101B1000A1B20028C9D100BF0120BFE730B50346FC
:101B20000020A64C2080002A01D0012B01D90020E2
:101B300030BD98009F4C2058A14C206031E000201F
:101B40009E4C208000249E480068FF300130846055
:101B500000209B4C246805252D026419E06104E0F7
:101B600096480088401C954C208095480068FF30BE
:101B700001308068002805D1904800887D246401E8
:101B8000A042EDDB8D4800887D246401A04200D195
:101B90000CE08B480068052424020019806910704D
:101BA000521C08464C1EA1B20028C8D100BF01201B
:101BB000BEE710B58049487900F0B8FD10BD10B5FA
:101BC0007D49487900F0B7FD10BD10B5D7207D499B
:101BD0000870FFF7F4FF7B4A01210020FFF754FF54
:101BE00000BF0020784908700A460121FFF796FFE0
:101BF0007548007880210842F3D000BF00BFFFF78E
:101C0000D8FF10BD70B504460D461646FEF70FFC12
:101C100058206C4908702002000E48702004000E05
:101C20008870CC70FFF7CBFF664A04210020FFF7D5
:101C30002BFF2A4631460020FFF726FFFFF7B9FFAA
:101C4000FFF7C3FFFCF726FAFEF7CFFB70BDFEB52A
:101C50005E4800885E4988424CD008465B4908804F
:101C6000002048800120000548600120088148814B
:101C70000020087310225748FFF7C4FF0020564980
:101C80000870487000250EE00021EA005248001D4F
:101C90008154EA0010184180EA004F48001D1018D6
:101CA0004160681CC5B2042DEEDB24224A49494834
:101CB0001030FFF7A7FF06224849494803F0AAFD64
:101CC000122248494648801D03F0A4FD00204449E3
:101CD000086224223F483430FFF794FFFF2201219D
:101CE0004902414803F0D7FD012252023E493F48D4
:101CF000FFF788FF012202213DA003F057FB462297
:101D0000012141A003F052FB304801884CA003F0B0
:101D10004DFB2E48418851A003F048FB2B484168F9
:101D200057A003F043FB294801895FA003F03EFB65
:101D30002648418969A003F039FB2448017B73A040
:101D400003F034FB244801787CA003F02FFB2248E9
:101D5000417880A003F02AFB002512E0EE001E4827
:101D6000001D3018EE0043681B48001D30184288E3
:101D7000EE001948001D815D7DA003F017FB681C73
:101D8000C5B2042DEADB8AA003F010FB002406E0B4
:101D90001348015D8DA003F009FB601CC4B2062C42
:101DA000F6D359A003F002FB8AA003F0FFFA002447
:101DB00025E10000342900202033002030290020B4
:101DC0003C290020E4320020023300202C33002084
:101DD00055AA000000EC0F003C330020408A0200AE
:101DE00060330020468A02008433002000EE0F009A
:101DF0005B5350495D3A204857203A20562564529B
:101E000025640D0A000000005B5350495D3A2046EE
:101E100057203A204D616A6F722056657273696F60
:101E20006E203D2025642C204D696E6F7220566512
:101E30007273696F6E203D2025640D0A000000005A
:101E40005B5350495D3A20486561646572203D20CE
:101E50003078253034582C0D0A0000005B5350496F
:101E60005D3A20546F74616C20496D616765205044
:101E700061636B6574203D202564200D0A0000001D
:101E80005B5350495D3A20496D616765204D656D32
:101E90006F72792041726561203D2030782530389D
:101EA00058200D0A000000005B5350495D3A205352
:101EB0006D61727420487562204576656E7473207A
:101EC00053746F726520537461727420496E646537
:101ED00078203D202564200D0A0000005B53504906
:101EE0005D3A20436C6F7564204576656E7473208F
:101EF00055706C6F616420537461727420496E6414
:101F00006578203D202564200D0A00005B53504970
:101F10005D3A20546F74616C20536D61727420447B
:101F2000657669636520696E2050696E67204C692B
:101F30007374203D202564200D0A00005B53504936
:101F40005D3A20496D616765206E756D203D2025E5
:101F5000640D0A005B5350495D3A2075706C6F61E7
:101F6000645F696D675F23203D2025640D0A0000D2
:101F70005B5350495D3A20496D672053746F726519
:101F800020537474203D2025642C20496D67205017
:101F90006B74203D2025642C20496D6720416464CA
:101FA000203D20307825303858200D0A00000000F0
:101FB0005B5350495D3A20536D61727420487562DD
:101FC000204D414323203D200000000025303258A1
:101FD0003A2000005B5350495D3A20536D617274A2
:101FE000204875622053657269616C23203D200092
:101FF000F548015DF5A003F0D9F9601CC4B2122CBC
:10200000F6D3F148801F016AF1A003F0CFF9F7A0E1
:1020100003F0CCF9F6A003F0C9F900241CE020017C
:10202000FD49401840792101FB4A891809792201AC
:10203000F94BD218D27800920191029020011E46ED
:10204000801983782001801942782001315CF3A047
:1020500003F0ACF9601CC4B2FE48007BA042DEDC99
:10206000FEBD70B504460D4616460B20FA490870B1
:102070002002000E48702004000E8870CC700020F2
:102080000871FFF79CFDF44A05210020FFF7FCFCD6
:102090002A4631460020FFF741FDFFF78AFD214621
:1020A000EEA003F083F931462846FEF7B9F870BD7B
:1020B00010B59F20E8490870FFF781FDE64A01212D
:1020C0000020FFF7E1FCF04A05210020FFF726FD84
:1020D000FFF76FFDFFF779FD10BD10B53D20DE491C
:1020E00008702A20487080208870A620C870FFF7EA
:1020F00066FDD94A04210020FFF7C6FCFFF759FD11
:10210000FFF763FD10BD10B50021E0A003F04EF90C
:10211000E949EAA003F04AF9F349F4A003F046F9CB
:1021200001210905FCA003F041F9FFF74EFDFFF77F
:10213000D4FFFFF7BDFF1022C649EB48FFF791FF20
:102140002422FE49E8481030FFF78BFF24229E49E5
:10215000891FE5483430FFF784FF01225202AE495F
:10216000F748FFF77EFFFFF772FD10BD10B5F54B86
:10217000062207210220FEF79BF9F3A003F016F9CF
:102180000020C043B34908801022D748FFF73AFD2A
:102190007D20C000FBF778F810BD10B50446102272
:1021A0002146EF4803F0E7FA00280FD1E54B06225D
:1021B00007210220FEF77CF9EAA003F0F7F8EEA071
:1021C00003F0F4F8FFF7D2FFFBF73EF910BD7047BC
:1021D00010B5EF49487900F0A9FAFFF7F8FF10BDF4
:1021E00010B5EB49487900F0A6FAFFF7F0FF10BDF3
:1021F00070B506460C460025701E05010B20964959
:1022000008702802000E48702804000E8870CD70F7
:10221000002008711021204603F062FBFFF7E0FF69
:102220008D4A05210020FFF72FFC224610210020B7
:10223000FFF774FCFFF7CCFFFFF7C7FC2046FFF762
:10224000ACFF70BD70B504460D46FEF7F0F80B20EC
:10225000814908702002000E48702004000E88702A
:10226000CC70002008712946CA4803F039FBFFF7FB
:10227000B7FF794A05210020FFF706FCC54A294629
:102280000020FFF74BFCFFF7A3FFFFF79EFCFBF7D7
:1022900001FFFEF7AAF870BD70B504460D46FEF7C3
:1022A000C6F8A84B062207210220FEF701F92146B5
:1022B000B9A003F07BF8A34B0A2209210020FEF706
:1022C000F7F80B20644908702002000E48702004C3
:1022D000000E8870CC70002008712946AD4803F0CC
:1022E000FFFAFFF77DFF5C4A05210020FFF7CCFBDA
:1022F000A84A093229460020FFF710FCFFF768FFC3
:10230000FFF763FCFBF7C6FEFEF76FF870BDF8B58C
:1023100004460E4615460027FFF757FC0B204E4992
:1023200008702002000E48702004000E8870CC70E7
:10233000002008712946974803F0D2FAFFF73FFCC6
:10234000454A05210020FFF79FFBA9B2914A0020D2
:10235000FFF7E4FBFFF72DFC2A4631468D4803F0DA
:102360000AFA002800D10127002F09D18FA003F01D
:102370001DF881A003F01AF8FFF7F8FEFBF764F8E8
:10238000F8BD70B504460D461646FFF71EFC5820F2
:10239000314908702002000E48702004000E887039
:1023A000CC70FFF70CFC2C4A04210020FFF76CFBDB
:1023B0002A4631460020FFF767FBFFF7FAFB32465B
:1023C00029462046FCE0000066330020256300001B
:1023D0000A536D6172742048756220525443207410
:1023E000696D65203D202564200A00000D0A00006B
:1023F0005B5350495D3A20536D6172742044657699
:102400006963652050696E67204C6973742044616C
:10241000746123203D200000843300200D0A5344C2
:1024200023204D41432041444452455353203A20F8
:10243000253032583A253032583A253032583A252C
:102440003032583A253032583A25303258200D0A69
:10245000000000002C330020E43200205B53504980
:102460005D3A205265616420436F6E6669677572DC
:102470006174696F6E20506172616D657465723A46
:102480002025303858000000023300205B535049AB
:102490005D3A204556454E545F444154415F535484
:1024A0004152545F504147455F41444420093D201B
:1024B00025303858200D0A0000EA0F005B535049C0
:1024C0005D3A204556454E545F444154415F454E68
:1024D000445F504147455F414444093D2025303821
:1024E00058200D0A0000000000EC0F005B5350491B
:1024F0005D3A20434F4E4649475F53445F434C4F3C
:1025000055445F4944585F414444093D20253038D3
:1025100058200D0A000000005B5350495D3A2049E5
:102520004D4147455F504147455F414444090909D2
:10253000093D2025303858200D0A00003C3300208A
:1025400000EE0F0000E0D7010A506572666F726DF1
:1025500020666163746F72792072657365740A0016
:10256000768A0200496E76616C6964204576656EF4
:102570007420446174610A00536F6674205265735D
:10258000657420506572666F726D65640A000000A4
:1025900020330020D037002050696E6720416464EA
:1025A000203D20253038582C2000000064617461E3
:1025B000207772697465206661696C65640A000041
:1025C000FFF7A5FE70BD70B504460E461546002DFA
:1025D00000D170BDFFF7F9FA582059490870200260
:1025E000000E48702004000E8870CC70FFF7E7FAE8
:1025F000534A04210020FFF747FA324629460020BB
:10260000FFF742FAFFF7D5FA2A4631462046FFF790
:102610007EFE00BFDDE7F7B582B004461646002710
:102620000020019000900025002E01D0002C01D147
:1026300005B0F0BD601E84B22046E117C90E09182E
:1026400049110191E117C90E091849114901611A8F
:10265000C9B20091270100988019202803DD2021AC
:102660000098081A00E03046C5B22A4635A0019904
:1026700002F09CFE5820324908703802000E487063
:102680003804000E8870CF70FFF799FA2C4A0421A5
:102690000020FFF7F9F929010020039AFFF7F4F968
:1026A000FFF787FAFFF791FA2A0138460399FFF7F7
:1026B0002EFEB5422FD0701BC5B20198401C4702B8
:1026C0002A460199491C1FA002F070FE58201C499F
:1026D00008703802000E48703804000E8870CF7001
:1026E000FFF76DFA164A04210020FFF7CDF9701BA1
:1026F000030103981A1829010020FFF7C5F9FFF715
:1027000058FAFFF762FA2A01701B0301039819189F
:102710003846FFF7FCFD00BF8AE7032105221207B8
:1027200007231B02D2188300D1507047012181403A
:10273000094A9160704701218140074AD160704782
:10274000E43200205067233D2025642C2045767418
:1027500023203D2025640A000005005010B500200C
:10276000FE490870FE480078002805D0FBF7C8FF36
:10277000FCF798FAFCF741FB0020FA490870122098
:1027800001F014F910BD10B5122001F006F908206F
:1027900001F003F9FFF7E2FF10BD10B5082001F0CA
:1027A0000AF97D20C00001F063F9082001F0FEF86D
:1027B0007D20000101F05CF9082001F0FCF87D208B
:1027C000C00001F055F910BD10B50120E3490870B3
:1027D000E3480078002801D0FBF7ACFF0320E14973
:1027E0000870122001F0E7F87D20C00001F040F9E8
:1027F00010BD10B5FBF74EFCFDF7F7FDFFF7E4FF4A
:10280000FFF7CBFF10BD10B5FDF711FEFFF7A6FFD8
:102810000020D5490870D54B062207210220FDF77C
:1028200047FE10BD70B5002500241AE0E100D04835
:10283000405C012813D1CF4802F0B8FDCC48001FFE
:102840004470E100001D08184088CB494880E10031
:10285000C74808184068C8494860012503E0601C63
:10286000C4B2042CE2DB00BF284670BD10B5C348DB
:102870000078002872D0C2480078002803D1C148EF
:10288000007800283ED0BE480078002802D0002002
:10289000BB490870B2480078002822D1FFF7C2FF78
:1028A00000280DD00120B7490870B74908700E20E4
:1028B000AD4908700020B549087001F022FD48E0DC
:1028C0000020B04908700120B1490870AE49087075
:1028D0000E20A54908700020AC49087001F011FDD8
:1028E00037E00020A7490870A94908700120A949CC
:1028F0000870A549087008209B4908700020A3496A
:10290000087026E0A4480078002810D00020A249D2
:1029100008700120A14908709B4908700E20924957
:10292000087000209949087001F0EBFC11E098480C
:10293000007800280DD000209549087001209549A5
:1029400008709149087008208749087000208F4955
:10295000087000208949087009E0FFE701208A49D2
:10296000087000208949087011207F49087010BD47
:10297000FEB5074600258AA1384602F0E8FE044667
:10298000E01B80B20190019978180A2102F0D5FE6F
:102990000446E41C1F212046FDF742FC605D002830
:1029A00074D1681C21180622814802F033FFE81D0B
:1029B000211812227E48801D02F02CFF2846193073
:1029C00021180422684602F025FF684B06220721E1
:1029D0000220FDF76DFD77A0009902F0E7FC7A4830
:1029E00001687AA002F0E2FC7E490098884205D393
:1029F00075490098086001207B4908705B4B0622EE
:102A000007210220FDF754FD6F48016877A002F00E
:102A1000CDFC28461D30205CFB2811D17948007878
:102A2000801C78490870514B062207210220FDF7CF
:102A30003FFD28461D30225C215C73A002F0B6FCED
:102A400028461E30205CFC2811D16E480078401CBE
:102A50006C490870454B062207210220FDF728FD2E
:102A600028461E30225C215C71A002F09FFCFBF71F
:102A7000E5FD7848FBF7FFFD24224D497648FFF736
:102A8000C1F876A002F092FC002607E00FE048486B
:102A9000815D73A002F08AFC701CC6B2062EF6D3CC
:102AA0006EA002F083FC01203449087010E0615DE3
:102AB0006DA002F07BFC605D012803D171A002F0E3
:102AC00075FC05E0605D022802D17AA002F06EFC80
