:020000040001F9
:10D000003048002021D301003BD3010085E9010015
:10D010000000000000000000000000000000000010
:10D020000000000000000000000000003FD30100ED
:10D03000000000000000000041D3010043D30100C4
:10D0400045D3010045D30100B103020045D30100DF
:10D050002947020000000000A907020045D3010093
:10D0600045D3010045D3010045D3010045D301005C
:10D0700045D3010045D3010045D3010045D301004C
:10D0800045D301004513020045D3010045D30100FB
:10D090006713020045D30100D917020045D30100F0
:10D0A00045D3010045D3010000000000000000004E
:10D0B0000000000000000000000000000000000070
:10D0C00000F002F800F0B1F80CA030C808382418BD
:10D0D0002D18A246671EAB4654465D46AC4201D1B0
:10D0E00000F0A3F87E460F3E0FCCB6460126334231
:10D0F00000D0FB1AA246AB463343184740BC0000A1
:10D1000060BC00000023002400250026103A01D353
:10D1100078C1FBD8520700D330C100D50B607047EF
:10D1200010B56E2902D108F0D2FF10BD702902D1CE
:10D1300007F01FFF10BD662902D10BF053F910BD97
:10D14000652902D10BF04EF910BD672902D10BF011
:10D1500049F910BD612902D10BF04CF910BD0368EB
:10D160001B0A01D380231943692902D107F08CFEE1
:10D1700010BD642902D107F087FE10BD752902D1C8
:10D1800007F082FE10BD6F2902D109F0B5F810BD7D
:10D19000782902D107F0DAFE10BDE92902D109F0A1
:10D1A00051F810BDE42902D109F04CF810BDF52961
:10D1B00002D109F047F810BDEF2902D109F0A8F813
:10D1C00010BDF82902D107F0CFFE10BD0368DB09BE
:10D1D00001D380231943632902D108F0B5FF10BDA4
:10D1E000732902D108F0B8FF10BDE32902D109F07C
:10D1F00008FD10BDF32902D109F00BFD10BD002080
:10D2000010BD1FB5C046C04609F0C2FD0400002095
:10D2100000210BF013F8401C6060002000210AF090
:10D22000F7FFE0601FBD10B510BD09F091FD11467C
:10D23000FFF7E7FF02F002F90AF024FB03B4FFF75F
:10D24000F2FF03BC0AF080FB401E00BF00BF00BF1E
:10D2500000BF00BF00BF00BF00BF00BF00BF00BFD6
:10D2600000BFF1D170470000401E00BF00BF00BFEB
:10D2700000BF00BF00BF00BF00BF00BF00BF00BFB6
:10D2800000BFF1D170470000401E00BF00BF00BFCB
:10D2900000BF00BF00BF00BF00BF00BF00BF00BF96
:10D2A00000BFF1D170470000401E00BF00BF00BFAB
:10D2B00000BF00BF00BF00BF00BF00BF00BF00BF76
:10D2C00000BFF1D170470000401E00BF00BF00BF8B
:10D2D00000BF00BF00BF00BF00BF00BF00BF00BF56
:10D2E00000BFF1D17047000070B505460C461646E8
:10D2F00002E00FCC0FC5103E102EFAD2082E02D33A
:10D3000003CC03C5083E042E07D301CC01C5361F4C
:10D3100003E021782970641C6D1C761EF9D270BD63
:10D3200003210C4802680A4302600B4802680A4362
:10D3300002600A4880470A480047FEE7FEE7FEE72A
:10D34000FEE7FEE7FEE7000006480749054A074BEF
:10D3500070470000240500405405004007D4010038
:10D36000C1D00100303C002030480020303C00207B
:10D370002E482F49086070472E48008CC0B2012803
:10D3800010D12C48808C0007000F0BD12948806AEF
:10D39000F0210840402805D12648C06A084201D142
:10D3A000012070470020FCE72248008CC0B2012811
:10D3B00027D12048808C0007000F22D11D48806AA9
:10D3C000F021084205D11B48C06A084201D1012062
:10D3D00070471848806AF0210840102805D1154888
:10D3E000C06A084201D10120F2E71248806AF021A8
:10D3F0000840302805D10F48C06A084201D10120F9
:10D40000E6E70020E4E710B5FFF7CEFF002805D0DF
:10D4100009480A494860C81309498861FFF7ACFF09
:10D42000002802D001200749886010BD0024F400C4
:10D4300000280020C00F00F0DFFF07C000050040FB
:10D44000006C00400006004004460D461646F54BB1
:10D4500006220721022002F07DFF23462A4631469C
:10D46000F1A007F09DFC02F00DF804460D462A4697
:10D470002146F748FFF7E8FFF0B505460B460021C7
:10D480001C680EE0665C481C275CAF4206D1881C15
:10D4900020181060701E90800020F0BD701C0918CC
:10D4A00000BF98888842EDD80520F6E7F0B585B032
:10D4B00005460E461421684607F00EFF0027E54892
:10D4C0000089E4494989884217DAAE4215DA2C46C8
:10D4D0000FE06946204604F0CFFD611B0901DE4ADA
:10D4E00088181022694607F08FFE781CC7B2601CAE
:10D4F00084B2DA488442ECDB01252C460EE0694612
:10D50000204604F0B9FD611BC9190901D24A8818E7
:10D510001022694607F078FE601C84B2B442EEDB4C
:10D5200005B0F0BD10B587DF0446002C03D02146BE
:10D53000CBA007F035FC10BD10B5D348007800280B
:10D540002AD0C4484089C349098988420AD0CFA05B
:10D5500007F026FCFFF7E6FF0120DA490870DA49F8
:10D56000087016E0D9480078002812D105F09EF81E
:10D57000002807D0FFF7D6FF0120D5490870D2490F
:10D58000087006E0FFF7CEFF0120D2490870CE49AF
:10D5900008700020BC49087010BD10B5CE48007856
:10D5A000002814D0CDA007F0FBFBC8480078002865
:10D5B00005D1D0480078002801D1FFF7B3FF06F06D
:10D5C00021FA7820CC4908700020C349087010BDAA
:10D5D00008B5A0480089C9490880C94807F09AFDE4
:10D5E00000900A20C74908700846C4490A7842706A
:10D5F000497881700422C449C01C07F005FE03224B
:10D600006946C048C01D07F0FFFDBE48BF490A7803
:10D6100082724978C172BD488078BA490873002087
:10D6200048738873C8730120B94908707D4B06227E
:10D630000721022002F08EFE1021B24802F042FDC6
:10D64000784B06220721022002F084FEB0480178C0
:10D65000B0A007F0A5FB0120B449087008BD10B5C3
:10D66000B348007800280BD0B2A007F099FBFFF771
:10D6700059FF07F071FAFFF7ABFF0020AC490870C3
:10D6800010BD10B50446012C04D0022C08D0032C88
:10D6900012D10BE0FFF7E3FF0220B04908700BE066
:10D6A000FFF77BFF0320AD49087005E0FFF744FF5B
:10D6B0000120AA49087000BF00BF10BD10B5044684
:10D6C000022C05D1FFF769FF0220A549087000BFB1
:10D6D00000BF10BD10B5894800885E49088110223E
:10D6E000A04804F0E1F910BD10B5844800885949FC
:10D6F000088110229B4804F0D7F910BD70B59A48F4
:10D700000078002803D199480078002854D0514867
:10D710000489214696A007F043FB7D480078251830
:10D720004E48854224D984420CD0001BC2B27549B0
:10D73000204604F0B5FE4948001B7049098840188E
:10D740006E49088001206D4908804448281AC2B2F9
:10D750004248001B00016B4BC118012004F0A0FEE1
:10D760003E48281A654909884018644908800CE039
:10D77000674802786349204604F092FE5F480088BB
:10D780006349097840185D490880002060490870A5
:10D7900075480078002805D0FFF7A6FF00207249E1
:10D7A000087008E071480078002804D0FFF792FF65
:10D7B00000206E49087000BF70BD10B50A20714985
:10D7C000087006F072F800206E490870642005F0B9
:10D7D00089FF10BD10B50A206A49087005F0D1FF15
:10D7E000002068490870642005F07CFF10BD3748B0
:10D7F0000078002804D1E120C00063490880D2E00D
:10D800006248007800280BD000206049087060480A
:10D810000078002805D0FF202D305B490880C2E049
:10D82000BDE0B7E000E0D7015B4150504C5D3A20CD
:10D830004153534552543A2025732C2025642C2003
:10D840006572726F72203078253038780D0A0000CA
:10D85000EFBEADDE2C330020CC370020E8FD000009
:10D860005B4150504C5D3A205363616E2073746F7E
:10D8700070206661696C65642C20726561736F6EDF
:10D880002025640A000000003F2800204E65772014
:10D890004576656E7420417661696C61626C6520C5
:10D8A000616E642047505253204461746120536577
:10D8B0006E642054696D6520457870697265642EC8
:10D8C0002E0A0000082800204029002045280020BA
:10D8D000092800200A280020402800202D2D2D2D69
:10D8E0002D475053204576656E742D2D2D2D2D0A14
:10D8F000000000000D280020AA290020A2280020F6
:10D9000070330020AE2F0020302800209A290020FC
:10D910009528002053485F4576656E745F706B7480
:10D920005F636E743A2025640A00000036280020E8
:10D930003E2800202B2B2B2B2B536D61727420481B
:10D940007562204576656E7428456E7669726F6ED5
:10D950006D656E74292B2B2B2B2B0A004D28002074
:10D960004E28002000EC0F00392800203A28002023
:10D970000A487562204576656E74206964203D20F2
:10D9800025640A004C2800202028002013280020AD
:10D9900012280020E1200001F649088003E0E12080
:10D9A0000001F4490880704770B5F34800780028FA
:10D9B00003D00A20F149087070BDF14800780028B2
:10D9C00013D00120EF490870FFF711FFEE480078EF
:10D9D000002803D00120ED49087005E00220EC4941
:10D9E00008700120EB490870E6E70020EA4908705A
:10D9F000EA490870EA490870EA490870E049087085
:10DA0000DD490870E0480078002826D00120DF4971
:10DA10000870E5480078002815D01022E349E44852
:10DA200007F0F2FBE248E3490A7A4270497A8170D2
:10DA30000020DD4908700120DF490870FFF75EFE15
:10DA40000F20CC490880DD480078002804D101204F
:10DA5000DA490870FFF7BEFEAEE70020CB49087038
:10DA6000D6480078012807D10020D44908700A2040
:10DA7000D3490870FFF7A1FECB480078002812D0E8
:10DA80001022CA49CA4807F0BFFBC948C9490A7AE7
:10DA90004270497A81700020C34908700120C6494C
:10DAA0000870FFF72BFE02F014FC05F0B9FD00280A
:10DAB00001D004F0ECFDC348007840084000401C51
:10DAC000C04908700846007802218843BD490870A3
:10DAD00050200881482048810020486088810846FD
:10DAE00086DF044600BF2546002D05D000BFB6A244
:10DAF000B8492846FFF7A8FC00BFB7A007F050F9C7
:10DB000000BF59E738B5BA48017868468170B9490D
:10DB100001806A460121B848008890DF044600BFB2
:10DB20002546002D06D000BFA7A2AA492D312846C0
:10DB3000FFF78AFC00BF38BDF0B58BB0044600206B
:10DB40000A9009900890271D2088302879D008DC99
:10DB5000102877D0112876D01B280BD01D2873D120
:10DB600082E1322871D0332870D037286FD038281E
:10DB7000F5D1F8E138460B300490B87AC008694610
:10DB80008882A07BC007C00F72D002AA04A9092016
:10DB9000FFF772FC0646002E11D1062297A00299CB
:10DBA00007F0E3FA002801D101200A90062295A08F
:10DBB000029907F0DAFA002801D1012009900A98A9
:10DBC000002802D1099800287ED090A0029907F081
:10DBD000E7F80D21615691A007F0E2F802AA04A926
:10DBE0001620FFF749FC0646002E05D168468089BD
:10DBF000401E0299085C0890002507E00520411BA3
:10DC0000F81C405C06A94855681CC5B2062DF5DB1A
:10DC1000002530E02901854A8818062206A907F068
:10DC2000A4FA002825D10120814908708148007894
:10DC300000280DD08048006829017C4A8918886036
:10DC40000CE072E122E134E195E172E175E178E105
:10DC50000020C0432901754A89188860607B29012A
:10DC6000724A89188871290189180898C87104E0D6
:10DC7000E9E0681CC5B2202DCCDB00BF6C48007801
:10DC8000002849D14B48007B202845DA607B494970
:10DC9000097B0901654A891888714648007B0001A3
:10DCA00011464018C068401C14D162480078002812
:10DCB00010D0614800683F49097B09018918C86094
:10DCC0005D4800683B4900E0CAE0097B090189180A
:10DCD00088600CE00020C0433649097B0901534AA3
:10DCE0008918C8603349097B09018918886031495E
:10DCF000097B09014D4A8818062206A9FFF7F4FAA4
:10DD00002C49097B0901494A89180898C871294892
:10DD1000007B401C274908730D2161566320C043D6
:10DD2000814226DB05210898084205D0FFF7FAFB5F
:10DD300001201949087008E002210898084204D01F
:10DD4000FFF7F0FB01201549087013480078002800
:10DD500003D11248007800287AD03C203749087057
:10DD6000374A1849B81C88DF0646002E7BD031465A
:10DD70006AE071E0202800200E28002048290020B9
:10DD80000D2800204028002045280020462800209B
:10DD90004D280020442800200828002009280020C1
:10DDA0000A2800200B2800203B280020582D0020A6
:10DDB000AE2F00202C3300203928002047280020D7
:10DDC0004C280020782D00202E2E5C6D61696E2E6F
:10DDD00063000000120300005B4150504C5D3A208C
:10DDE0005363616E20537461727465640A000000AD
:10DDF00078280020839E0000502800205342422DA6
:10DE0000535400005342422D5356000053522023D6
:10DE1000203D202573202C20000000005253534940
:10DE2000203D202564202C200D0A00008033002096
:10DE30004B2800200F280020302800201828002020
:10DE40004C84020004E00EE0F4A006F0A9FF0AE012
:10DE50000120FE49087006E00120FC49087002E03C
:10DE60000120FA49087087E03888B91C75DF06463A
:10DE700000BF0196019E002E06D000BFF44AFF218C
:10DE8000B2310198FFF7E0FA00BF75E0A088F149D0
:10DE90000880F149F14807F01DFAEF49F04807F012
:10DEA00019FAFFF72FFE0020EE490870EE490870BE
:10DEB00062E00020C043E74908800020EB49088069
:10DEC000EB490870EB490870E6490870EA490870A8
:10DED000EA490870EAA006F063FFA179F1A006F014
:10DEE0005FFFA0793E2805D10020F5490870FFF7B3
:10DEF0005BFD19E0A079132814D1F24800780528B9
:10DF000005DAF0480078401CEE49087004E0EEA005
:10DF100006F046FF01F0B6FA0020E9490870FFF765
:10DF200043FD01E0FFF740FD26E0204601F01CFB29
:10DF300022E0204601F063FB1EE0204601F0F1FBE9
:10DF40001AE0E08800280DD000BFE0880190019819
:10DF5000002806D000BFBE4AFF21F2310198FFF72A
:10DF600073FA00BF08E006F0B6FE204601F011FC8F
:10DF700006F09CFE00E000BF00BF0BB0F0BD022821
:10DF800002D0032802D100E000BF00E000BF00BFC4
:10DF9000704710B504462046FFF7CEFD10BD10B502
:10DFA00004462046FFF7EBFF10BDF8B500BF002385
:10DFB0004822D149082003F0C8FB054600BF2E4681
:10DFC000002E06D000BFA24AA34961313046FFF7B8
:10DFD0003BFA00BF00BF0020009002206946087095
:10DFE000684660DF044600BF2546002D06D000BF0E
:10DFF000974AA32189002846FFF726FA00BFBF48A9
:10E0000003F0D8FB044600BF2546002D06D000BF14
:10E010008F4A292109012846FFF716FA00BFB848A0
:10E0200003F0D1FB044600BF2546002D06D000BFFB
:10E03000874AA52189002846FFF706FA00BFF8BDE8
:10E040007FB5B04B0FCB6C460FC4AF49684663DF5A
:10E05000044600BF2546002D05D000BF7C4AAB49D1
:10E060002846FFF7F1F900BF7FBD70B5A8480078DA
:10E07000002816D10022FF214931A648006803F08C
:10E0800039FA044600BF2546002D06D000BF704A6D
:10E090009E4928312846FFF7D7F900BF01209C4947
:10E0A000087070BD70B500220121C9039A4800684C
:10E0B00003F020FA044600BF2546002D06D000BF1D
:10E0C000634A924919312846FFF7BEF900BFFFF7AE
:10E0D000CCFF70BD70B58E480078002813D08D48F5
:10E0E000006803F038FA044600BF2546002D06D02C
:10E0F00000BF574A854938312846FFF7A5F900BFC8
:10E1000000208349087070BD10B501205549087082
:10E1100059480078002821D080480078002819DD6F
:10E120004D4A4E494E4807F06FF87C4800787C49CC
:10E1300008700020794908704749484807F0CAF834
:10E140007748017877A006F02BFE01207D49087002
:10E150007D4908707DA006F023FE2AE0474800783C
:10E16000002826D07F4800880121490288421ADC15
:10E170007C4800887C49086008463849026838486D
:10E1800007F042F83449354807F0A4F87748018889
:10E1900077A006F005FE00207449088001207B4925
:10E1A00008707B4908707BA006F0FAFD00202F491B
:10E1B000088010BD10B5044601207D4908707D48D7
:10E1C0000078002804D07C480078401C7A49087008
:10E1D0007A480068401C794908603C21774800680B
:10E1E00007F07CF8002917D123480078002813D1C4
:10E1F0002248007800280FD17148007800280BD100
:10E2000070480078002807D16F480078002803D1B3
:10E210006E4800780028DBE0E9E000005B415050E8
:10E220004C5D3A20436F6E6E656374696F6E205269
:10E23000657175657374204661696C65642C207224
:10E240006561736F6E2025640A0000004428002079
:10E25000C8DD01005028002026020000882D002083
:10E26000AE2F00209128002018280020B22800207E
:10E2700019280020962800200828002009280020BE
:10E28000446973636F6E6E65637465642066726F54
:10E290006D20736D617274207461672F7669736984
:10E2A0006F6E0A00446973636F6E6E656374696FA5
:10E2B0006E20726561736F6E3D25640A0000000078
:10E2C00040290020172800200A20424C455F48437F
:10E2D000495F52454D4F54455F555345525F544534
:10E2E000524D494E415445445F434F4E4E45435471
:10E2F000494F4E0A00000000EC29002093DF010086
:10E300009FDF0100548402007828002031030000C0
:10E3100010280020802800207C280020942800203D
:10E32000952800204576656E745F706B745F72632C
:10E3300076642874696D655F6F7574293A20256469
:10E340000A00000035280020432800204576656E2D
:10E350007420726561642054696D656F757428322C
:10E3600073290A009A280020A4280020B42800203D
:10E37000496D675F706B745F726376642874696D52
:10E38000655F6F7574293A2025640A003D280020D6
:10E390008F280020496D6167652072656164205493
:10E3A000696D656F7574283130306D73290A00000E
:10E3B00034280020E9290020E82900203028002006
:10E3C0000D2800200E2800200A2800200B280020FD
:10E3D0000DD1F8480078022809D1F74B0622072111
:10E3E00001F0B8FFF5480168F5A006F0D9FCF9483E
:10E3F0000078401CF7490870084600783C2818DB74
:10E4000000200870F4480088002812D0F3480078F3
:10E4100000280ED1F0480088401EEF4908800846C9
:10E420000088002805D10120EC4908700A20EA493B
:10E430000880EB48007800280AD0E9480078401EA0
:10E44000E749087008460078002801D101F01AF861
:10E45000E448007800280BD0E2480078401EE149EB
:10E46000087008460078002802D10120DE490870B3
:10E47000DE48007800280BD0DC480078401EDB49DD
:10E48000087008460078002802D10120D849087099
:10E49000D848007800280CD0D6480078401ED549CE
:10E4A000087008460078002803D1D349087001F0AD
:10E4B00048F9D2480078002804D0D1480078401CA0
:10E4C000CF490870CF48007800280CD0CD4800789C
:10E4D000401ECC49087008460078002803D1C64980
:10E4E0000870FFF761FAC848007800280AD0C648CB
:10E4F0000078401EC449087008460078002801D101
:10E50000FFF702FEC1480088002813D0C0480078F9
:10E5100000280FD1BD480088401EBC49088008462D
:10E520000088002806D10120B9490870E120C00008
:10E53000B6490880B7480088002811D0B64800784E
:10E5400000280DD1B3480088401EB2490880084613
:10E550000088002804D10120AF490870FFF747F96F
:10E5600010BDAE49097800290DD0AC490978491E83
:10E570000906090EA94A117005D10121A84A117096
:10E580000022A8494A767047F8B500BF0020A64B84
:10E5900006220421009002F0EAFE054600BF2E4646
:10E5A000002E05D000BFA14AA1493046FEF74CFF1E
:10E5B00000BF00BF9F4A01219F4802F054FF04465C
:10E5C00000BF2546002D06D000BF984A9849091D76
:10E5D0002846FEF739FF00BF984A0121984802F00B
:10E5E00042FF044600BF2546002D06D000BF8F4ADB
:10E5F0008F4908312846FEF727FF00BFF8BD1CB53C
:10E60000904903C9019100906946002003F031F957
:10E610001CBD7CB500200090019069460870062260
:10E62000894900A8013006F0EFFD6946002070DF3F
:10E63000044600BF2546002D06D000BF7B4A7C491A
:10E6400026312846FEF700FF00BF7CBDFEB504461C
:10E65000204671DF054600BF2E46002E06D000BFC3
:10E66000724A73492E313046FEF7EEFE00BFA079A4
:10E6700061792279009201910290E378A278617821
:10E6800072A006F08DFBA0796F49087621796E485B
:10E690004176A17881766179C176E17801776178F8
:10E6A0004177FEBD70B500BF764A0521082005F010
:10E6B0000BFF044600BF2546002D06D000BF5B4A75
:10E6C0005B493E312846FEF7BFFE00BF00BF70BD6C
:10E6D00070B56D480078002800D070BD01206A49EF
:10E6E000087001F09AFF044600BF2546002D06D0B1
:10E6F00000BF4E4A4E494C312846FEF7A5FE00BFEA
:10E7000000BFEAE770B560480078002800D170BD0E
:10E7100000205D49087001F08CFF044600BF2546CB
:10E72000002D06D000BF414A132189012846FEF77B
:10E730008BFE00BF00BFEAE770B504460D46012D11
:10E7400036D1022C0AD00D2C17D0162C28D101203E
:10E750002A49087000202A49087028E04B480078B0
:10E76000002809D101204A49087014480068494925
:10E77000086001204549087019E0012046490870E9
:10E780000E4800684549086045480078002806D1D1
:10E79000FF202D301F49088001204149087006E004
:10E7A00000BF224A224985312046FEF74DFEBCE0DB
:10E7B00078E00000C028002000E0D70130280020C9
:10E7C0000A5254432074696D65203D202564200A57
:10E7D000000000001A2800201E2800203F280020EA
:10E7E0004C2800204629002005280020AA290020C6
:10E7F0000628002096280020112800200C28002040
:10E800001628002018280020192800201C28002085
:10E810003E2800202028002040280020C128002079
:10E82000C3280020C8320020342A0020C8DD01009F
:10E8300066040000B5E101007C28002063E50100CA
:10E840008028002064840200603300200D0A424CBE
:10E85000455F4D41432041444452455353203A20A3
:10E86000253032583A253032583A253032583A2538
:10E870003032583A253032583A25303258200D0A75
:10E8800000000000E42C002048280020452800203B
:10E89000412800202C2800201228002024280020B5
:10E8A00013280020002D40D1022C29D00D2C02D09D
:10E8B000162C33D10AE00020FD490870FD4800689D
:10E8C000FD4908600120FD4908702DE0FC480078F2
:10E8D000002814D0FB480078022807DBF9480078AC
:10E8E000052803DA012044DF00F0CCFDF54800786C
:10E8F000052801DB03F077FB0020F149087013E0E5
:10E90000F1480078012808D1F0490870E94800680A
:10E91000EF4908600020EC49087005E000BFED4AAF
:10E92000ED492046FEF790FD00BF70BD70B500BFF9
:10E93000EA49012001F0B5FF044600BF2546002D3D
:10E9400006D000BFE34A292149012846FEF77CFD95
:10E9500000BF00BF70BD70B500BFE14BE14A0321AD
:10E96000E14801F017FE044600BF2546002D06D001
:10E9700000BFD84AD8491C312846FEF765FD00BFC4
:10E9800000BF70BDD94B06220721022001F0E2FC36
:10E99000D7A006F005FA00F075FD10B5DAA006F074
:10E9A000FFF9E4480088E44908811022E34803F0B5
:10E9B0007BF8FEF7F9FF10BD10B5CC4B06220721FE
:10E9C000022001F0C7FCDEA006F0EAF9D948008871
:10E9D000D94908811022D94803F066F8BA4800786E
:10E9E000002803D1E2480078002808D00120E1493E
:10E9F0000870E14908700020DD49087001E0FEF769
:10EA0000D3FF10BD1CB5DD4806F084FB0090A9487B
:10EA10000068DB490988401A80B20190AA48007852
:10EA2000002803D00B20D749087002E02B20D549DD
:10EA3000087004229F49D348C01C06F0E5FB03225E
:10EA40006946D048C01D06F0DFFBCE48CC490A8895
:10EA500042814988818169468988C1810120CA49EA
:10EA60000870CA4908701CBD08B5C44806F052FBBE
:10EA7000009095480078002803D00C20C449087005
:10EA800002E02C20C249087004229149C048C01CF1
:10EA900006F0BAFB03226946BD48C01D06F0B4FB70
:10EAA0000621BB480A3006F015FC0120B649087063
:10EAB000B849087008BD08B59F4800899D4908807D
:10EAC000AE4806F027FB00900620B34908700846C0
:10EAD00098490A7842704978817004227549C01CAF
:10EAE00006F092FB03226946AB48C01D06F08CFB82
:10EAF000AA48007AA84988720422A8490C31A6487D
:10EB00000B3006F081FBA548007C0006800F8001D9
:10EB1000A249097C8906890E08439F49C8731620BB
:10EB20000874084683490A7842744978817404223B
:10EB30006049133006F068FB032269469648173097
:10EB400006F062FB9548007E93498876042293493B
:10EB50001C3191481B3006F057FB9048008C000692
:10EB6000800F80018D49098C8906890E08438A49E6
:10EB7000C8770220844908705C4B0622072101F007
:10EB8000E9FB2021844801F09DFA584B0622072119
:10EB9000022001F0DFFB7C48017881A006F000F93B
:10EBA00001208549087008BD10B5022000F073FCF3
:10EBB000002807D1012044490870E12000017F4965
:10EBC000088007E0022000F066FC012802D1002046
:10EBD0003D49087010BD10B5022000F05CFC002813
:10EBE00010D101203849087031480078002804D03D
:10EBF000FF202D30714908800CE0E12000016F49B1
:10EC0000088007E0022000F046FC012802D1002025
:10EC10002D4908702C480078002805D12548006847
:10EC20002B490860FFF720FF10BD70B564480078DD
:10EC3000002839D005F009FD6248007800280AD084
:10EC400060480078401E5F49087008460078002838
:10EC500001D103F04FFD5C480088002812D05A48CB
:10EC60000088401E5849088008460088002809D1BD
:10EC70004B20C00008803048007B020153495448B3
:10EC800003F0C1FA5348007800280ED01120012368
:10EC900083401946504B5B68C340DA07D20F002A05
:10ECA00004D14D4B99609BE0B6E0B0E096E00000E7
:10ECB0001228002030280020282800204228002088
:10ECC0000C2800201628002045280020412800207C
:10ECD0002C280020C8DD010016050000442D00206E
:10ECE000A5F40100660600005428002000E0D701CA
:10ECF0000A20486172644661756C745F48616E6495
:10ED00006C65720A000000004576656E74205374CD
:10ED10006F726520696E64657820557064617465F2
:10ED200020696E20666C617368206D656D6F727905
:10ED30000A000000A22800202C33002000EC0F0065
:10ED4000475053204576656E742053746F7265206A
:10ED5000696E6465782055706461746520696E2001
:10ED6000666C617368206D656D6F72790A000000D2
:10ED70000D280020082800204029002070330020A2
:10ED800024280020682D0020952800203C28002001
:10ED9000582D00203B280020AE2F0020A83700204F
:10EDA0004750535F4576656E745F706B745F636E3A
:10EDB000743A2025640A000037280020202800200B
:10EDC00034280020492800202228002080330020F9
:10EDD00000EE0F004829002000050050F94BD960D3
:10EDE00000BFF9480078401EF749087008460078CF
:10EDF00000280ED10120F5490870F54B06220721A5
:10EE0000022001F0A7FAF3A005F0CAFF01E005F027
:10EE100069FF0020FD490870FD48007800280BD1EB
:10EE2000FC480078002807D1FB480078002803D16F
:10EE3000FA48007800287DD0F94804882146F9482E
:10EE400005F0AEFFF84800782518F848854250D9FB
:10EE5000844222D0001BC2B2F549204603F020FBB9
:10EE6000EB480078002811D0F048001BF1490988D0
:10EE70004018F049088008460088EC49B8318842BB
:10EE800004DDEC480088401AEA490880E748001B86
:10EE9000E34909884018E24908800120E0490880D8
:10EEA000E248281AC2B2E148001B0001E04BC11839
:10EEB000012003F0F5FAD6480078002811D0DB488D
:10EEC000281ADC4909884018DA4908800846008871
:10EED000D649B831884204DDD6480088401AD54961
:10EEE0000880D248281ACE4909884018CC490880A1
:10EEF00024E0CD480278CE49204603F0D1FAC44838
:10EF00000078002811D0CB480088C74909784018FC
:10EF1000C849088008460088C449B831884204DDE1
:10EF2000C4480088401AC3490880BD480088BE49CB
:10EF3000097800E036E04018B94908800020BA4955
:10EF40000870B3480078002810D00020B04908703D
:10EF5000B9480078002824D00120B84908708820DA
:10EF6000B74908700020B44908701AE0A948007831
:10EF7000002805D0FFF711FD0020A649087010E019
:10EF8000A5480078002805D0FFF716FD0020A2490B
:10EF9000087006E0A1480078002802D000209F49B0
:10EFA000087060E0A748007800285CD0A648016897
:10EFB000A6A005F0F5FE642004F094FBA6480088A6
:10EFC00082B29B49A048006803F042FA9E4800685C
:10EFD000A149096840189C490860A04800780028A9
:10EFE0003DD00846016899A005F0DAFE9C484088AB
:10EFF000142148430446012000052418994800784C
:10F000008004041990480068A0421DD11022944940
:10F01000954802F049FD012192480078C2009148CC
:10F02000001D8154001F0078401C8E49087008465E
:10F030000078042801DB00200870242289498A48CE
:10F04000103002F031FD05E088A005F0A9FE002097
:10F050008C49087000F075FB002080490870002082
:10F060007849087000BF70BD10B57448007800285A
:10F070000ED07348007800280AD005F02CFE7048A6
:10F08000007800F084FE05F011FE00206B49087046
:10F0900010BD10B57C480078002804D0FFF7E4FCD0
:10F0A0000020794908707948007800281AD07848FB
:10F0B0000078002816D177480078002812D1102255
:10F0C00075495B4806F0A0F8594865490A7A4270CC
:10F0D000497A817000206D49087001206F490870DD
:10F0E000FEF70CFB6E480078002804D0FFF78AFC7E
:10F0F00000206B4908706B480078002832D06A48BD
:10F100000078002804D069480078FEF7D7FA29E093
:10F1100067480078002825D166480078002821D16A
:10F120006548007800281DD164480078002819D16E
:10F1300063480078002815D162480078002811D172
:10F140002248007800280DD104F03CFC00205E49E4
:10F15000087003F09CFA00201C490870514908709F
:10F16000FEF722FC59480078002815D04E48007858
:10F1700000280AD0002055490870FEF7D3F9642012
:10F1800004F0B0FAFEF710FC10BD00204F490870E3
:10F190004F480078FEF775FA00BFF5E710B54D4807
:10F1A000007800280AD04C480078012806D14B4846
:10F1B00001784B4804F076FC01F0EFF84248007803
:10F1C00000288FE000050050482900204029002039
:10F1D00000E0D7010A57652068617665206E6F747C
:10F1E0002076616C6964204D41432E2E2E2E2E54C4
:10F1F000727920746F2067657474696E6720766118
:10F200006C6964204D41430A00000000342800204E
:10F2100035280020362800203728002038280020F4
:10F22000A228002070D9010095280020E8FD0000E8
:10F23000AE2F0020A0280020432800208D28002089
:10F24000932800203D280020A82800204164642045
:10F250003D20253038580A00A42800208F2800209F
:10F260002C3300203C33002000EC0F00416C6C205C
:10F27000696D616765206E6F74207265636569767C
:10F2800065640A0011280020412800203C28002045
:10F29000432900209F290020682D00203A280020C3
:10F2A0004228002046280020452800204E28002023
:10F2B00008280020092800200D2800200E28002002
:10F2C0000A2800200B2800209E2900204428002026
:10F2D0004D280020C3280020C0280020C22800207C
:10F2E000E831002006D004F06DFBFFF7E4FB0020BE
:10F2F0007F4908707F480078002804D004F078FB2C
:10F3000000207C49087010BD10B57B4800780028AB
:10F3100012D07A48007800280ED1794801787948CF
:10F3200003F030FC002076490870FA21754805F09A
:10F33000D1FF00207049087073480078002804D07D
:10F3400000207149087003F0DAFE70480078002848
:10F3500004D004F015F900206C4908706C4800785E
:10F36000002804D004F038F900206949087010BD65
:10F370000021C943674AD161002009E0022105222A
:10F38000120707231B02D2188300D150411CC8B2B8
:10F390002028F3DB704710B5022000218A000523E6
:10F3A0001B07072424021B1984001A5100BF0A20DE
:10F3B00004F098F9FFF7F8FB10BD10B5FFF7D8FF80
:10F3C00000F070FEFFF7E7FF05F059FC05F0BBFC0D
:10F3D00005F073FCFFF7D8F8FFF7A8FAFFF7BBFAC0
:10F3E00003F015F904F0CBFA04F08AF90A2004F0CE
:10F3F00079F9FFF704F910BD10B5FEF7D6FDFEF759
:10F400001FFE4548FFF722F9FFF703F9042077DFD5
:10F4100010BD0120414908703B490870704770B524
:10F4200048DF044600BF2546002D05D000BF3C4AFA
:10F430003C492846FEF708F800BF70BDFFF7BDFF46
:10F44000FFF730F902F09CFDFFF7D6FFFEF72AFE2A
:10F45000FFF73EF9FFF7DDFF05F076FB00BFFFF792
:10F46000E4FBFFF701FEFFF74FFFFFF797FEFFF703
:10F4700010FE05F0EAF82C4800780028EFD0FFF7DE
:10F48000CEFFECE7BFF34F8F28482949C860BFF390
:10F490004F8F00BFFEE701461E480069C840C00705
:10F4A000C00F70477CB504460D461646009468466A
:10F4B000057146711F4A082105F026F87CBDF8B594
:10F4C00005460E462C4600BF082E01D1012000E063
:10F4D00000200746002F04D100BF17A2A821FDF786
:10F4E000B3FF00BF6179207922689047F8BD000022
:10F4F0009E29002006280020C3280020C0280020C4
:10F50000C2280020E83100204029002005280020E2
:10F510004129002000050050842800200E280020EA
:10F52000C8DD01009E080000452800200400FA05FF
:10F5300000ED00E0BFF401002E2E5C2E2E5C2E2E7E
:10F540005C2E2E5C2E2E5C496E636C7564655C616E
:10F5500070705F636F6D6D6F6E5C6170705F627510
:10F5600074746F6E2E680000FEB505462F460C378A
:10F57000388800281FDD082229460E31684605F02C
:10F5800043FE68460188F4A005F00AFC0020F84913
:10F59000087001A9F748008892DF044600BF26469C
:10F5A000002E06D000BFF4A251213046FDF74CFFDB
:10F5B00000BF00BF00BFFEBD38B5F348008800287B
:10F5C0001CD0F1480088401C81B268460180EE489A
:10F5D0000088401C81B2684641806946E548008841
:10F5E00093DF044600BF2546002D06D000BFE2A2EF
:10F5F000A2212846FDF728FF00BF00BF38BDFEB599
:10F60000044620460C300290002636E00A2031469F
:10F6100041430298801C0F183988DCA005F0C0FB1C
:10F620003888E049401802D002281FD111E0DE4896
:10F630000078401CDC490870E18ADCA005F0B0FBD2
:10F64000E08AD1490880A07CC006C00FE04908705C
:10F6500010E0D5480078401CD3490870E18ADDA04D
:10F6600005F09EFBE08AE249088003E0E1A005F096
:10F6700097FB00BF00BF701CC6B202980088B04262
:10F68000C4DCC9480078022808D10020C6490870A7
:10F690000120B7490870FFF78FFF18E0E08A401C8F
:10F6A000694688800021C9436846C18001A9B148E4
:10F6B000008892DF054600BF2E46002E06D000BF10
:10F6C000ADA291213046FDF7BFFE00BF00BFFEBDD9
:10F6D0007FB50121009168460171CC4801886846D8
:10F6E000C1800390022141810021018101A9A1482B
:10F6F000008897DF044600BF2546002D06D000BFD6
:10F700009DA2CB212846FDF79FFE00BF00BFC0A0F1
:10F7100005F046FB0120C44908708A20C3490870DF
:10F720007FBD10B50446E189C1A005F039FBE08931
:10F73000B6490880A6480078002801D0FFF7C8FF26
:10F7400010BD70B50126C448007800280DD0C3480C
:10F750000078002806D000260120B3490870032055
:10F76000B24908700020BC490870002E10D0132147
:10F770008048008876DF044600BF2546002D06D06D
:10F7800000BF7DA2B6492846FDF75EFE00BF00BF60
:10F7900070BDF8B505462C460C340020B149087000
:10F7A00020887949098888427ED1A04800788A2833
:10F7B0000ED006DC032878D0862877D0882876D12A
:10F7C000BCE08C2874D092281ED09328F7D1A2E0F8
:10F7D000A188A01D00F076FCA079012811D19249E2
:10F7E0000870A1480078002803D092208F49087043
:10F7F00009E09E480078002805D08C208B490870CD
:10F8000001E0FFF79EFF9EE299480078002800D0B3
:10F8100099E2A079012834D196480088002830D197
:10F82000207A0002E179084392490880207B000297
:10F83000E17A08430346A07A0002617A084302464F
:10F840008C4801888CA005F0ABFA8A480088002813
:10F8500005D1012080490870FFF773FF5AE0A07AB4
:10F860000002617A08438F49088008460088401EDC
:10F87000088000208C4908708C4800898C490880D9
:10F8800048E07C48008800283CD002208949087064
:10F89000854909780901884A88181022A11D05F0B8
:10F8A000B3FC8148007804E04EE26AE134E149E2C9
:10F8B0007AE1401C7C49087008460078202814DB57
:10F8C000674A443A7C497D4805F09EFC76480078BA
:10F8D0007B4908700020744908707948017879A044
:10F8E00005F05EFA01207D49087062480088401EDC
:10F8F000604908800846008800280BD178A005F0F0
:10F900004FFA07E0A079002804D10120524908707D
:10F91000FFF717FF17E2A188A01D00F0D3FBA07925
:10F92000012805D14049087086204049087004E04C
:10F93000012049490870FFF704FF04E2A188A01DD7
:10F9400000F0C0FBA079012805D137490870862056
:10F9500036490870DFE0D9E0736572766963652027
:10F9600055554944203A203078253034580D0A0046
:10F970008C280020502800202E2E5C626C655F735E
:10F9800076735F632E630000AC2800200A43686131
:10F99000722055554944203A203078253034580D8E
:10F9A0000A000000FF3DFFFF92280020424C455F07
:10F9B000555549445F4E4F544946595F444154415F
:10F9C000203078253034582028522C4E2900000051
:10F9D00090280020424C455F555549445F57524995
:10F9E000544520307825303458202857290000000D
:10F9F000AE280020466F756E6420736F6D65746865
:10FA0000696E6720656C73650A000000B0280020ED
:10FA1000456E61626C6564206E6F746966696361CE
:10FA200074696F6E730D0A008D28002093280020E2
:10FA300044697363726970746F7227732068616EB2
:10FA4000646C652076616C7565203A2030782530CD
:10FA500034580D0A00000000112800200F28002053
:10FA60006A020000962800200828002009280020AB
:10FA70009128002098280020556E72656164204509
:10FA80007674203D2025642C205374745F4964787B
:10FA9000203D2025642C20456E645F4964783D2517
:10FAA000640A0000A0280020942800202C330020A5
:10FAB000A228002019280020882D0020AE2F002029
:10FAC000952800204576656E745F706B745F726375
:10FAD0007664203D2025640A0000000035280020BF
:10FAE000416C6C204576656E7420706B7473207267
:10FAF0006376642066726F6D20536D617274546119
:10FB0000672F566973696F6E0A0000000120DE4995
:10FB10000870FFF716FE16E1A188A01D00F0D2FACA
:10FB2000A079012827D1207A0002E179084307460D
:10FB3000A07A0002617A0843064632463946D3A0CD
:10FB400005F02EF9DC480088B0420BD1DBA005F0AF
:10FB500027F9E6480088E64908811022E54801F0C7
:10FB6000A3FF02E0E4A005F01BF90120C6490870DC
:10FB7000FFF7E7FD04E00120C3490870FFF7E1FD4E
:10FB8000E1E0A188A01D00F09DFAA079012805D12F
:10FB90000020BD490870FFF7D4FD04E00020BA49F9
:10FBA0000870FFF7CEFDCEE0DD480078002800D0D9
:10FBB000C9E0A07901284DD1DA480088002849D150
:10FBC000E0790002217A0843D64908800846018876
:10FBD000D5480078C200D448001D10184180D24892
:10FBE0000078C100D048001D08184088C0494880EE
:10FBF0000020CE490880CE490870A188A01D00F0E1
:10FC000061FAC8480088142148430246C548018863
:10FC1000C8A005F0C5F8C448007880040121090592
:10FC20004018CE49086008460168BF480078C20005
:10FC3000BD48001D10184160BB480078C100BA489B
:10FC4000001D08184068AA494860B7480078B649BE
:10FC5000487076E0B348008800286AD00220C04986
:10FC60000870B248008801214902884251DCBD4930
:10FC7000AE4A128888181422A11D05F0C5FAAB48B7
:10FC800000881430A9490880B7480088401CB6494C
:10FC90000880A648008801214902884239DBA3492F
:10FCA0000888C117C90D091849124902411AAF4AFB
:10FCB00011809E48008811460988401AAC49088086
:10FCC00001204002AB4908600846A6490268AA48DC
:10FCD00005F09AFAA5480088002802D193490880C7
:10FCE0000CE0A2480088914908809E48A04A1288EA
:10FCF00081189E4802889B4805F086FA9A48018838
:10FD00009EA005F04DF80020974908800120A049E9
:10FD1000087084480088401E824908800846008890
:10FD200000280ED19BA005F03BF801205649087031
:10FD300007E0A079002804D1012053490870FFF79B
:10FD400000FD00E000BF00BFF8BD3EB59C48018843
:10FD50006846418000218180022101701421C18008
:10FD60009848029069469848008897DF044600BF8B
:10FD70002546002D06D000BF944A95492846FDF738
:10FD800063FB00BF00BF1420924908703EBD10B550
:10FD9000044614218B4805F09DFA8A2C0ED006DC0F
:10FDA000032C20D0862C55D0882C5FD14CE08C2C95
:10FDB00056D0922C25D0932C58D128E086A004F060
:10FDC000EFFF0020874908707E4804700820102843
:10FDD00001D9102000E00820024683A17948401C88
:10FDE00005F012FA43E083A004F0DAFF00207D4919
:10FDF00008707448047004228449401C05F004FA19
:10FE000035E083A004F0CCFF6E4804702FE088A09A
:10FE100004F0C6FF284801888BA004F0C1FF6948A0
:10FE2000047025490888C117090E0918091209022A
:10FE3000411A644A517020490888C117090E0918EF
:10FE40000904090E917012E085A004F0A9FF5D4835
:10FE500004700CE088A004F0A3FF5A48047006E088
:10FE60008AA004F09DFF5748047000E000BF00BF67
:10FE70001421544800F026F989480078002801D060
:10FE8000FFF763FF10BD0000112800200A647663AD
:10FE90005F72756E5F696478203D2025642C206454
:10FEA00076635F6C617374726561645F6964782006
:10FEB0003D2025640A000000A028002055706461E0
:10FEC00074656420696E206465766963652C2077AB
:10FED0007269746520696E64657820696E20687542
:10FEE000622773206D656D6F72790A00A228002069
:10FEF0002C33002000EC0F004576656E74206D6990
:10FF000073746D617463682066726F6D20676574C9
:10FF1000206576656E7420636F756E740A0000004C
:10FF200091280020B22800203C3300209A2800208D
:10FF30008F28002074746C5F696D675F706B745FED
:10FF400023203D2025642C202862797465735F236B
:10FF5000203D20307825303858290A00A828002074
:10FF600019280020882D0020B42800209C2800207B
:10FF70009E280020A4280020AE2F0020706B745F04
:10FF800072637664203D202564203A200000000042
:10FF90003D280020416C6C20496D61676520706BC5
:10FFA000747320726376642066726F6D20536D6186
:10FFB00072745461672F566973696F6E0A0000008E
:10FFC000AE280020D43100205028002078F901000C
:10FFD000510200009628002050415353574F52447D
:10FFE0000A00000017280020696E7321676D403FEA
:10FFF000000000005345545F5245414C5F54494D49
:020000040002F8
:10000000455F434C4F434B0A00000000302800205E
:10001000524541445F415641494C41424C455F5530
:100020004E524541445F4556454E540A000000007B
:100030004D4F444946595F4C4153545F52454144EA
:100040005F4556454E540A000A206C617374207255
:10005000656164206576656E74203D2025640A0024
:1000600045524153455F414C4C5F4556454E545FA8
:10007000444154410A0000004745545F4556454EEF
:10008000545F434F554E540A00000000524541440E
:100090005F494D4147455F444154410A000000001B
:1000A0008C28002010B50F4B06220721022000F0FB
:1000B00051F910BD70B504460D46E0B200F07CF871
:1000C000204670BD70B505460E46002404E0295D4B
:1000D00005A004F065FE641CB442F8D304A004F04B
:1000E0005FFE70BD00E0D701307825303258200027
:1000F0000D0A000010B5002819DAD44A03071B0FB7
:10010000083B9B089B00D2588307DC0EFF23A340CB
:100110009A438B071B0E8407E40EA3401A43CB4B74
:100120000407240F083CA408A4001A5118E0C84A88
:1001300003231B02D21883089B00D2588307DC0ECE
:10014000FF23A3409A438B071B0E8407E40EA340B2
:100150001A43BF4B032424021B198408A4001A511C
:1001600010BD00BFBB4880680128FBD10020B94901
:100170008860B9488069C0B2704770B504460D46C2
:1001800001260AE02046641E002804DB7D20C00012
:10019000FDF75AF801E0002603E0AE488068012828
:1001A000F0D100BF002C05DB0020AA498860AA48D6
:1001B00080692870304670BDA749C86100BFA54955
:1001C000C9690129FBD10021A24AD161704730B52C
:1001D0000346002528466D1C1C5C05E02046FFF701
:1001E000EBFF28466D1C1C5C002CF7D130BD70B5B0
:1001F00003460C46002528466D1C1E5C07E0601E69
:1002000084B23046FFF7D8FF28466D1C1E5C002CD8
:10021000F5D170BDF8B507460C4615461E4620467A
:1002200000F001F90021304600F006F98A48C46068
:100230004661069800280DD0384600F0F4F80021F9
:10024000284600F0F9F8844805618760012082495A
:100250004031C8628148804948620420086001201A
:100260007F498860086000207A498860401E7D4987
:100270008860812080004860022000F0CDF80121D4
:100280000220FFF737FF022000F0B7F8F8BD10B5E5
:1002900001207349086000206E498860401E714942
:1002A0008860812080004860022000F0B5F80121BC
:1002B0000220FFF71FFF022000F09FF810BD10B5CD
:1002C000042065490860012065498860FFF7DFFF69
:1002D00010BD10B5FDF7FEFE012061494860002009
:1002E0005C498860401E5F498860022000F094F8F5
:1002F000022000F089F810BD10B5022000F084F84B
:1003000000210A2000F098F80021092000F094F85C
:1003100000210C2000F090F800210B2000F08CF858
:100320000021062000F088F80021072000F084F862
:1003300000204B49886008600120C86048600020A8
:1003400045490860022000F067F80020C043454995
:10035000886010BDF8B504460D4616461F46424853
:100360000078A04200D1F8BD3F480470022003F09D
:10037000B9F9FFF7C1FF284600F055F800213046D3
:1003800000F05AF83448C56046614762FFF797FFAE
:10039000022003F0A7F900BFE5E710B500203349BC
:1003A000087033490870FA21324804F093FF10BDF9
:1003B00028488068002818D00020264988602C48EA
:1003C0000078002811D102202B490870224880694A
:1003D0002849264A1278885424480078FA2804DAF2
:1003E00022480078401C214908701A48406A0028B9
:1003F00002D00020174948627047C206D20E012180
:100400009140134A11607047C206D20E01219140FB
:100410000F4A803211607047C206D20E012191400E
:10042000164A1160704703210522120707231B0299
:10043000D2188300D150704710B58A0005231B07DE
:10044000072424021B1984001A5110BD1CED00E082
:1004500000E100E0002100400025004000E0D7015D
:100460000020004000230040C0280020C2280020B7
:10047000C3280020E8310020C128002080E200E0ED
:10048000F8B504460D4694480068002813D0EAB237
:100490002178914BA0681B689847064600BF3746F5
:1004A000002F06D000BF8DA228213846FCF7CCFFD4
:1004B00000BF00BF0CE0012D04D120780121A2680B
:1004C000904705E0002D03D120780021A2689047D5
:1004D000F8BDF8B5074669468C48007800F0EFFA99
:1004E0000646002E00D0F8BD002533E00C206843FE
:1004F000874909684418874800682278012191409B
:1005000008420FD0A06800280CD06078012804D1E0
:1005100000212046FFF7B4FF1AE001212046FFF733
:10052000AFFF15E07B4840682278012191400842E6
:100530000ED0A06800280BD06078012804D10121DA
:100540002046FFF79DFF03E000212046FFF798FFBC
:10055000681CC5B2704800788542C7DB00BFC2E79F
:1005600070B504460D466D48006800F0F4FF06467D
:10057000002E00D070BD67484460056020462843C7
:100580000246674801686548006800F0B3FF064608
:1005900000BFEFE7FFB583B006460C461746052FB0
:1005A00002D2072007B0F0BD594806605A480470CF
:1005B0005B480760484906980860002516E00C2152
:1005C000614388190278009241680191019989007C
:1005D0000522120707231B02D318009A9200995094
:1005E00000BF0278012191400D4300BF2046611EEB
:1005F000CCB20028E3D14B4B2A462946434800F0B1
:1006000089F902900298002801D00298CAE7464A68
:100610000021424800F027FFC4E710B53C480068BD
:10062000002801D1082010BD3848007800F0B7F943
:10063000F9E710B536480068002801D1082010BD40
:100640003248007800F01AFA0446002C01D0204607
:10065000F5E73248006800F07EFFF0E7F8B506469F
:100660000C462D480078864201DD0720F8BD0C209D
:10067000704327490968451825480068002801D1BA
:100680000820F3E769462148007800F018FA074689
:10069000002F01D03846E9E7687800280BD1297887
:1006A0000098C840C007C00F02D00020207010E0A2
:1006B000012020700DE0687801280AD1297800987F
:1006C000C840C007C00F02D00120207001E0002008
:1006D00020700020CAE70000D02800202E2E5C2EBB
:1006E0002E5C2E2E5C2E2E5C2E2E5C536F7572634C
:1006F000655C6170705F636F6D6D6F6E5C61707073
:100700005F627574746F6E2E63000000D428002041
:10071000C4280020DC280020C8280020D828002079
:10072000CC28002061050200D3040200F0B5024687
:100730000C46002035E001238340194623460B4236
:100740002ED0D5680D4205D101235B04D5680D4339
:10075000D56004E003231B04D5688D43D5600525CF
:100760002D0707263602AD198600AD59032636043B
:10077000B5430526360707273F02F6198700F551CE
:1007800005252D0707263602AD198600AD591D43F4
:100790000526360707273F02F6198700F55100BFE7
:1007A000401C2028C7D3F0BDF0B585B0EC480569E2
:1007B0000020EC49C86300263DE014207043EA495C
:1007C000096844180120B040E8490968084230D05F
:1007D000E068C04368402168084007463946204623
:1007E000FFF7A4FFDE4800696840039003980028E3
:1007F0000ED003980543E068C04368402168084074
:10080000009020460099FFF791FF0098074300BF32
:10081000A068A843384001906068284038400290A2
:1008200001990298084303D02269019902989047E0
:1008300000BF701CC6B2CE4800788642BDDB05B052
:10084000F0BD10B50146002028E014224A43C64BF3
:100850001B689A58012383401A421ED005221207B2
:1008600007231B02D2188300D25803231B049A4388
:1008700005231B07072424021B1984001A51052293
:10088000120707231B02D2188300D25805231B0727
:10089000072424021B1984001A51401C2028D4D399
:1008A00010BD70B505460C46002C01D1072070BD67
:1008B00020468107890F01D1012100E00021002994
:1008C00001D10720F3E7A8480460AA48057000207A
:1008D000A7490870A5490860A6480078142250432B
:1008E0000146A148006804F0F7FC0020C043A2497B
:1008F0008860062001218140A04A116000BF0121CB
:1009000000F0F7F80620012181409D4A116000BFE8
:100910000020CCE7F8B504460D4616461F4692481F
:100920000068002801D10820F8BD002F01D1072060
:10093000FAE78F4800788F490978884201DB042064
:10094000F2E7284630438A49097814225143864AFF
:10095000126850508648007814214843824909683B
:100960004018456082480078142148437E49096850
:10097000401886607E480078142148437A49096807
:10098000401807617A480078207079480078401C48
:10099000774908702078FFF754FF0020C4E7F0B5CE
:1009A000024671480068002801D10820F0BD704857
:1009B0000078824201DB0720F8E70020694BD8630A
:1009C0006748046969480068002802D158066A4BE4
:1009D000586001209040654B1B681843634B1860BA
:1009E000002314205043604D2D684019C36000213E
:1009F00040E001238B401846142353435A4D2D6881
:100A0000EB58034235D02546054202D003231B0490
:100A10000EE001235B0414255543534E3668AD198F
:100A2000ED680543142656434F4F3F68F619F560AD
:100A300005252D0707263602AD198E00AD59032670
:100A40003604B5430526360707273F02F6198F00FF
:100A5000F55105252D0707263602AD198E00AD5933
:100A60001D430526360707273F02F6198F00F5516B
:100A700000BF491C2029BCD3002097E710B50446CD
:100A800039480068002801D1082010BD3848007896
:100A9000844201DB0720F8E72046FFF7D2FE012061
:100AA000A04032490968814330480160006800284D
:100AB00003D10120C007304988600020E5E710B568
:100AC000024629480068002801D1082010BD2848A6
:100AD0000078824201DB0720F8E714205043224CC3
:100AE000246803191E4800691C6820400860002023
:100AF000ECE710B5002819DA224A03071B0F083B60
:100B00009B089B00D2588307DC0EFF23A3409A4327
:100B10008B071B0E8407E40EA3401A43194B0407EE
:100B2000240F083CA408A4001A5118E0144A032317
:100B30001B02D21883089B00D2588307DC0EFF23C8
:100B4000A3409A438B071B0E8407E40EA3401A436D
:100B50000B4B032424021B198408A4001A5110BD56
:100B60000005005040610040E4280020E8280020F3
:100B7000ED280020EC2800200063004080E200E027
:100B800000E100E01CED00E010B5002819DAF74A9A
:100B900003071B0F083B9B089B00D2588307DC0E02
:100BA000FF23A3409A438B071B0E8407E40EA34048
:100BB0001A43EE4B0407240F083CA408A4001A5162
:100BC00018E0EB4A03231B02D21883089B00D2587B
:100BD0008307DC0EFF23A3409A438B071B0E840779
:100BE000E40EA3401A43E24B032424021B19840899
:100BF000A4001A5110BD10B50446DE4884600321DC
:100C00001120FFF7C1FF10BD10B501200004DA4923
:100C10004860D94940394860112000F0E7FC1120B4
:100C200000F0D6FC0120D54908602F20FCF71CFB02
:100C30000120D349087010BD10B511200121814059
:100C4000CB4A8032116000BF01200004CA4988608D
:100C5000C949403988600120C84948602F20FCF705
:100C600003FB0120C54988600020C64908602F2089
:100C7000FCF7FAFA0020C249087010BDF0B5024630
:100C800028205043C04B1B68C118C0480068401C56
:100C900002D1BE48026057E0BC488B680068282437
:100CA0006043B94C246800198068834217D8B7485C
:100CB000006828235843B44B1B68C01880688B68B1
:100CC000C31AB248006828246043AF4C2468001956
:100CD0008360AE4800684862AC48026034E08B68CC
:100CE000AA4D2C6828680DE028254543A64E366895
:100CF000AD19AD685B1B044628254543A24E3668F6
:100D0000AD19686A451C07D0282545439E4E3668B4
:100D1000AD19AD689D42E7D3451C0CD0282545434D
:100D2000994E3668AD19AD68EE1A28254543964FA1
:100D30003F68ED19AE608B60486228256543924E8E
:100D40003668AD196A6200BFF0BDF8B506468F4837
:100D500005682C4609E0B44200D108E02546282069
:100D60006043894909684018446A601CF3D100BF98
:100D7000601C00D1F8BDA5420FD18448006828212D
:100D80004843814909684018406A8049086008461C
:100D90000068401C01D1FFF74FFF282060437A49CB
:100DA0000968401887682820604377490968401817
:100DB000416A28206843744A1268801841622820DA
:100DC0006843714909684018446A601C0CD02820A7
:100DD00060436D49096840188068C1192820604344
:100DE000694A12688018816000BFC3E710B51120FE
:100DF00000F0F5FB10BD10B5142000F0F0FB10BDA5
:100E000070B5044662480068002813D0604A216A21
:100E1000E06912689047054600BF2E46002E07D0B5
:100E200000BF5CA2FF2164313046FCF70DFB00BF20
:100E300000BF02E0E169206A884770BDF8B55348F9
:100E40000068401C39D0002700F002FC04464D48E1
:100E50000168204600F0FFFB06464C48056811E09B
:100E600028206843484909684418A068B04200D95E
:100E70000AE0A068361AA068C719656A2046FFF71D
:100E8000BFFF00BF681CEBD100BF4E4800784E4941
:100E90000978884209D14C480078401CC0B24A49C0
:100EA0000870022801D100200870474800788000AF
:100EB00046490F50FFF79FFF00BFF8BD014641486C
:100EC0000078414A127890421DD03E480078401C7C
:100ED0003C4A107010460078022801D100201070A2
:100EE000384800788000394A10580860254A086858
:100EF00012688018234A1060104600680002000A39
:100F00001060012070470020086000BFFAE7FEB5BE
:100F10001E48006801902E480078009076E0009806
:100F2000C0002C490968441825786BE018206843F4
:100F300061680F18681CC5B2A078A84200D10025CE
:100F40003868022802D0032859D145E02821786862
:100F500048430D4909684618307E002804D0786857
:100F6000FFF7F3FE002030764AE000001CED00E0C1
:100F700000E100E000150140401301400010014075
:100F80001429002000290020F0280020FC2800203F
:100F9000102900202E2E5C2E2E5C2E2E5C2E2E5C18
:100FA0002E2E5C536F757263655C6170705F636F4A
:100FB0006D6D6F6E5C6170705F74696D65722E63CC
:100FC000000000000C2900200D2900200429002029
:100FD000F5280020F82800200CE0FE4909682822A6
:100FE0005143FD4A1268881800210176F94A416A86
:100FF000116000BFF7480068401CEED100E000BF60
:1010000000BF00BF6078A84290D100BF0098411E89
:10101000C9B20091002882D1EE480168019881424E
:1010200001D00120FEBD0020FCE7F0B503460024FE
:1010300026E0E84E366828277E43E74F3F68F019E0
:1010400086689E4203D98668F61A86601CE0866828
:101050009B1B86683419002686600676DD4E35684F
:10106000DC4F466A3E604669002E08D00E193602F3
:10107000360AC6604669066116684662156000BF9A
:10108000D4480068401CD4D100BFF0BDFEB507466F
:10109000D04800680290D1480078019069E001983A
:1010A000C000CF49096845185CE0781C07D03E466F
:1010B00028207043C84909684418676A23E02978E2
:1010C000182359436A6850182978491C29702978CF
:1010D000AA78914201D100212970466828217143E4
:1010E000BD4A12688C180168012902D1217E0029AD
:1010F00000D037E08168E160C16821610169616108
:101100004169216200BFB749E0680968401A0002DE
:10111000000AB549884208D2B249E068096800F07F
:101120009AFA21694018A06011E0AE48E1680068B1
:1011300000F091FA009021690098814204D9216958
:101140000098081AA06001E00020A06000BF002005
:10115000E060206101202076801E60623046FFF74B
:101160008DFD00BF781CA0D12878697888429CD179
:1011700000BF0198411EC9B2019100288FD1954846
:1011800001680298814201D00120FEBD0020FCE7E9
:10119000FEB590480068401C34D08E480068282175
:1011A00048438D4909684018856800F051FA01905C
:1011B0008C4804682146019800F04DFAC61C8B4803
:1011C0000078002801D1FFF71FFDAE4201D228466A
:1011D00000E0304604192402240A204684490860AD
:1011E00000BF00F035FA00900199009800F033FA42
:1011F000C71C2046019900F02EFA874201D9FFF75B
:10120000F5FD01E0FFF718FDFEBDFEB50020C0436F
:101210000190744804686F4807686846FFF74EFEFF
:101220000546FFF774FE0646002D05D001AA2146AB
:101230000098FFF7FAFE01260198FFF727FF002824
:1012400000D00126002E02D03846FFF7A1FFFEBDD8
:101250004170704770B502460B465078411C90783B
:10126000884200D100211078884201D1002070BD51
:10127000196050781826704355682C182046F6E7F8
:10128000FFB581B005460E461746E900544A12687C
:1012900088186946FFF7DEFF0446002C02D10420BF
:1012A00005B0F0BD01202060666000F0D1F9A060BB
:1012B000E760049820610A986061E900484A126872
:1012C00088180099FFF7C4FFFFF795FD0020E7E7B6
:1012D000F8B504460E46E100414A1268881869468E
:1012E000FFF7B8FF0546002D01D10420F8BD02200C
:1012F00028606E60E1003A4A126888180099FFF78A
:10130000A7FFFFF778FD0020F0E738B50446E100BD
:10131000334A126888186946FFF79CFF0546002D7E
:1013200001D1042038BD03202860001F6860E1005F
:101330002B4A126888180099FFF78AFFFFF75BFDB8
:101340000020EFE710B500202A4908600021294855
:1013500041608160C16000202649403908604860D2
:10136000FFF76CFD10BD10B5FFF74FFF10BDFFB5C7
:1013700081B00E4617461C4620468107890F01D1D1
:10138000012100E00021002902D1072005B0F0BDB5
:10139000002C01D10720F9E7FFF74EFC16490A9807
:1013A0000860164806700C48046000250CE0002117
:1013B00028206843084A1268115028206843064ACA
:1013C0001268801801766D1CB542F0DB282070434E
:1013D000041915E0FC280020F0280020F528002042
:1013E000F828002000290020FFFF7F00142900209A
:1013F000401501404011014010290020F428002030
:1014000003209749087097480460183400250CE0C1
:10141000E900944A126888180021017041708770B1
:101420004460182179430C196D1C032DF0DB00205A
:10143000C0438D49086000208C4908708C490870B1
:10144000142000F0D3F803211420FFF79DFB142093
:1014500000F0BEF80198FFF7CEFB00F0F9F88549DF
:101460000860002092E770B503460C468248006889
:10147000002801D1082070BD002A01D10720FAE719
:10148000002B01D10720F6E700211CE0282048436B
:10149000794D2D682858002814D10125282048436B
:1014A000754E3668355028204843734D2D684019D5
:1014B000446028204843704D2D684019C26119606E
:1014C0000020D8E7491C6D4800788142DEDB04200B
:1014D000D1E710B500F092F8012802D0032804D11A
:1014E00001E0002403E0012401E0022400BF00BF6A
:1014F000204610BDFEB504460D4616465E480068FF
:10150000002801D10820FEBD5C480078844201D249
:10151000052D01D20720F6E72820604356490968C7
:101520000858012801D00820EDE7282060435249DF
:10153000096840184068012801D1284600E00020D1
:101540000746FFF7C6FF3B462A4621460096019014
:10155000FFF796FED7E770B50446474800680028B5
:1015600001D1082070BD45480078844201D307208E
:10157000F8E728206043404909680858012801D04D
:101580000820EFE7FFF7A5FF05462146FFF7A0FE7D
:10159000E8E710B538480068002801D1082010BDE0
:1015A000FFF797FF0446FFF7B0FEF8E710B50446D3
:1015B00000F04EF82060002010BD70B505460E46C4
:1015C00014463146284600F046F82060002070BDE1
:1015D000C206D20E01219140294A11607047C2060D
:1015E000D20E01219140274A11607047C206D20EE7
:1015F00001219140234A80321160704710B5224882
:101600004068C105C90D002920D00A46103A10468D
:1016100000280DDA1C4B1C330407240F083CA408D7
:10162000A4001B598407E40EE3401B069B0F0BE04C
:10163000134B032424021B198408A4001B5984079C
:10164000E40EE3401B069B0FD8B210BD0420FCE75C
:101650000E48406870470246501A0002000A704760
:10166000F5280020F8280020FC2800200C29002064
:101670000D29002000290020F0280020F428002057
:1016800000E100E000E200E000ED00E000150140B4
:1016900070B506460C46154629462046FBF7E5FE82
:1016A00070BDF8B559480078002800D1F8BD5848F9
:1016B0000068002801D1012000E0002005465548BF
:1016C0000068002801D1012000E00020064600BF8C
:1016D000002D14D1684651DF0446052C01D10125A7
:1016E0000CE0002C06D000BF4BA269212046FBF77E
:1016F000ABFE03E0464900980968884700BF002E0A
:101700001AD153480088009069465248006861DF4A
:101710000446052C01D101260DE0002C06D000BFA7
:101720003DA280212046FBF78FFE04E04948006877
:1017300038490968884700BF002D02D0002E00D02C
:1017400000E0C5E700BF00BFB0E7FFB581B00C46C1
:1017500016461F46002C02D1072005B0F0BD2046DA
:101760008107890F01D1012100E00021002901D169
:101770000720F2E73748046035480680364807609E
:101780003649019810DF0546002D01D02846E4E7D0
:1017900001201E49087016202EDFDEE710B511DF8C
:1017A0000446002C01D0012000E0002017490870F9
:1017B000204610BD0146002901D10E207047154872
:1017C00001600020FAE70146002901D10E20704790
:1017D0000F4801600020FAE770B51F480068002834
:1017E00011D01D4800688047044600BF2546002DE3
:1017F00007D000BF08A2FF2133312846FBF724FEA3
:1018000000BF00BF01E0FFF74CFF70BD18290020AA
:101810002C290020282900202E2E5C2E2E5C2E2E16
:101820005C2E2E5C2E2E5C536F757263655C736448
:101830005F636F6D6D6F6E5C736F66746465766900
:1018400063655F68616E646C65722E630000000002
:1018500024290020202900201C29002091160200A4
:1018600001218200F94B9A5805231B02D2181160FE
:10187000704770B505460C46012D01D9002070BD9A
:1018800006216943F24A88180622214603F0BCFC6F
:10189000A07800F087FEE07800F084FE2079032134
:1018A0008A0005231B07072636029B1986009A51DA
:1018B00000BF607900F076FEA078A900E34A515895
:1018C0000522120289188860E078A900DF4A515881
:1018D000052212028918C8602079A900DB4A5158F4
:1018E000052212028918086160780006A900D74A0B
:1018F000515805221202891848622078A900D34A5B
:10190000515815229201891848610021A800CF4A38
:101910001058FF3001308160607900F04CFE28469D
:10192000FFF79EFFA800C9490858A8E730B503464D
:101930000020C84C2080002A01D0012B01D90020B2
:1019400030BD9800C14C2058C34C206030E00020CE
:10195000C04C20800024C0480068FF300130846003
:101960001078BD4C246805252D026419E061521CD5
:1019700004E0B8480088401CB64C2080B648006897
:10198000FF3001308068002805D1B24800887D24EE
:101990006401A042EDDBAF4800887D246401A042D1
:1019A00000D10AE0AC4800680524240200198069CF
:1019B00008464C1EA1B20028C9D100BF0120BFE7D4
:1019C00030B503460020A34C2080002A01D0012B13
:1019D00001D9002030BD98009C4C20589E4C2060BE
:1019E00031E000209B4C208000249B480068FF30A1
:1019F000013084600020984C246805252D0264196C
:101A0000E06104E093480088401C924C208092489A
:101A10000068FF3001308068002805D18D480088BB
:101A20007D246401A042EDDB8A4800887D246401A6
:101A3000A04200D10CE08848006805242402001967
:101A400080691070521C08464C1EA1B20028C8D1F3
:101A500000BF0120BEE710B57D49487900F0ABFD1D
:101A600010BD10B57A49487900F0AAFD10BD10B537
:101A7000D7207A490870FFF7F4FF784A0121002047
:101A8000FFF754FF00BF0020754908700A46012186
:101A9000FFF796FF7248007880210842F3D000BF1C
:101AA00000BFFFF7D8FF10BD70B504460D461646BF
:101AB000FEF70FFC5820694908702002000E48709C
:101AC0002004000E8870CC70FFF7CBFF634A04211E
:101AD0000020FFF72BFF2A4631460020FFF726FFA4
:101AE000FFF7B9FFFFF7C3FFFCF7BFFAFEF7CFFB25
:101AF00070BDFEB55B4800885B4988424AD0084605
:101B000058490880002048800120000548600120D5
:101B1000088148810020087310225448FFF7C4FF51
:101B2000002053490870487000250EE00021EA00AB
:101B30004F48001D8154EA0010184180EA004C48CB
:101B4000001D10184160681CC5B2042DEEDB242274
:101B5000474946481030FFF7A7FF06224549464847
:101B600003F052FB122245494348801D03F04CFB11
:101B70001E2241493D483430FFF796FFFF220121E4
:101B800049023F4803F081FB012252023C493D4893
:101B9000FFF78AFF012202213BA003F001F937225F
:101BA00001213FA003F0FCF82E4801884AA003F071
:101BB000F7F82C4841884FA003F0F2F82948416813
:101BC00055A003F0EDF8274801895DA003F0E8F87F
:101BD0002448418967A003F0E3F82248017B71A003
:101BE00003F0DEF8224801787AA003F0D9F8204803
:101BF00041787EA003F0D4F8002512E0EE001C48E6
:101C0000001D3018EE0043681948001D3018428846
:101C1000EE001748001D815D7BA003F0C1F8681C31
:101C2000C5B2042DEADB88A003F0BAF8002406E070
:101C30001148015D8BA003F0B3F8601CC4B2062C00
:101C4000F6D357A003F0ACF810E1000034290020CF
:101C500020330020302900203C290020E4320020DD
:101C6000023300202C33002055AA000000EC0F00A6
:101C70003C33002034840200603300203A840200A8
:101C80008033002000EE0F005B5350495D3A20483E
:101C900057203A205625645225640D0A00000000A2
:101CA0005B5350495D3A204657203A204D616A6F98
:101CB000722056657273696F6E203D2025642C205A
:101CC0004D696E6F722056657273696F6E203D208C
:101CD00025640D0A000000005B5350495D3A20481E
:101CE0006561646572203D203078253034582C0DB4
:101CF0000A0000005B5350495D3A20546F74616CD8
:101D000020496D616765205061636B6574203D20DB
:101D10002564200D0A0000005B5350495D3A2049BC
:101D20006D616765204D656D6F72792041726561E7
:101D3000203D20307825303858200D0A0000000062
:101D40005B5350495D3A20536D617274204875624F
:101D5000204576656E74732053746F7265205374DA
:101D600061727420496E646578203D202564200DE1
:101D70000A0000005B5350495D3A20436C6F756464
:101D8000204576656E74732055706C6F61642053C6
:101D90007461727420496E646578203D202564204A
:101DA0000D0A00005B5350495D3A20546F74616C1A
:101DB00020536D6172742044657669636520696E95
:101DC0002050696E67204C697374203D2025642083
:101DD0000D0A00005B5350495D3A20496D6167650B
:101DE000206E756D203D2025640D0A005B5350491F
:101DF0005D3A2075706C6F61645F696D675F232069
:101E00003D2025640D0A00005B5350495D3A20498E
:101E10006D672053746F726520537474203D2025C4
:101E2000642C20496D6720506B74203D2025642C64
:101E300020496D6720416464203D2030782530388A
:101E400058200D0A000000005B5350495D3A2053B2
:101E50006D61727420487562204D414323203D20FE
:101E600000000000253032583A200000F4A002F0B3
:101E700097FF002406E0F948015DF9A002F090FF09
:101E8000601CC4B2122CF6D3F6A002F089FFF6A0B3
:101E900002F086FF00241CE02001FD494018417932
:101EA0002001FB4A801800792201F94BD218D27820
:101EB00000920291019020011E4680198378200132
:101EC000801942782001315CF2A002F069FF601CA9
:101ED000C4B2FE48007BA042DEDCFEBD70B5044605
:101EE0000D4616460B20FA4908702002000E487075
:101EF0002004000E8870CC7000200871FFF7B1FD3F
:101F0000F34A05210020FFF711FD2A463146002043
:101F1000FFF756FDFFF79FFD2146EEA002F040FFC0
:101F200031462846FEF7CEF870BD10B59F20E8492F
:101F30000870FFF796FDE64A01210020FFF7F6FC46
:101F4000EF4A05210020FFF73BFDFFF784FDFFF777
:101F50008EFD10BD10B53D20DD4908702A20487067
:101F600080208870A620C870FFF77BFDD84A042126
:101F70000020FFF7DBFCFFF76EFDFFF778FD10BDDB
:101F800010B50021DFA002F00BFFE949E9A002F043
:101F900007FFF349F3A002F003FF01210905FCA0AC
:101FA00002F0FEFEFFF763FDFFF7D4FFFFF7BDFF72
:101FB0001022C649EA48FFF791FF2422FD49E8486C
:101FC0001030FFF78BFF1E22A449891FE4483430EC
:101FD000FFF784FF01225202AD49F748FFF77EFF69
:101FE000FFF787FD10BDF54B062207210220FEF703
:101FF000B1F9F3A002F0D4FE0020C043B349088039
:102000001022D748FFF750FD7D20C000FBF73CF9B8
:1020100000BFBFF34F8FF048F049C860BFF34F8F48
:1020200000BF00BFFEE710B5044610222146EC4871
:1020300003F09BF800280DD1E04B06220721022077
:10204000FEF788F9E7A002F0ABFEEBA002F0A8FED5
:10205000FFF7C9FF10BD704710B5ED49487900F092
:10206000AAFAFFF7F8FF10BD10B5E949487900F06A
:10207000A7FAFFF7F0FF10BD70B506460C46002525
:10208000701E05010B20924908702802000E48704E
:102090002804000E8870CD700020087110212046A1
:1020A00003F018F9FFF7E0FF894A05210020FFF748
:1020B0003DFC224610210020FFF782FCFFF7CCFFF9
:1020C000FFF7D5FC2046FFF7AEFF70BD70B50446A4
:1020D0000D46FEF7FEF80B207D4908702002000E29
:1020E00048702004000E8870CC70002008712946CA
:1020F000C84803F0EFF8FFF7B7FF754A0521002045
:10210000FFF714FCC34A29460020FFF759FCFFF7EC
:10211000A3FFFFF7ACFCFBF7A8FFFEF7B8F870BD14
:1021200070B504460D46FEF7D4F8A44B06220721ED
:102130000220FEF70FF92146B7A002F031FE9F4BB7
:102140000A2209210020FEF705F90B2060490870DA
:102150002002000E48702004000E8870CC70002011
:1021600008712946AB4803F0B5F8FFF77DFF584AE0
:1021700005210020FFF7DAFBA64AD21D29460020E0
:10218000FFF71EFCFFF768FFFFF771FCFBF76DFF21
:10219000FEF77DF870BDF8B504460E4615460027DB
:1021A000FFF765FC0B204A4908702002000E4870BA
:1021B0002004000E8870CC700020087129469548D4
:1021C00003F088F8FFF74DFC414A05210020FFF796
:1021D000ADFBA9B28F4A0020FFF7F2FBFFF73BFCF3
:1021E0002A4631468B4802F0C0FF002800D1012763
:1021F000002F07D18DA002F0D3FD7FA002F0D0FD0B
:10220000FFF7F1FEF8BD70B504460D461646FFF720
:102210002EFC58202E4908702002000E4870200421
:10222000000E8870CC70FFF71CFC294A04210020A6
:10223000FFF77CFB2A4631460020FFF777FBFFE0E3
:102240005B5350495D3A20536D617274204875624A
:102250002053657269616C23203D200066330020A5
:10226000256300000D0A00005B5350495D3A20537E
:102270006D617274204465766963652050696E678C
:10228000204C697374204461746123203D20000058
:10229000803300200D0A534423204D414320414404
:1022A0004452455353203A20253032583A25303293
:1022B000583A253032583A253032583A253032587B
:1022C0003A25303258200D0A000000002C3300203F
:1022D000E43200205B5350495D3A2052656164202E
:1022E000436F6E66696775726174696F6E205061C5
:1022F00072616D657465723A2025303858000000AF
:10230000023300205B5350495D3A204556454E54F8
:102310005F444154415F53544152545F50414745DB
:102320005F41444420093D2025303858200D0A00E3
:1023300000EA0F005B5350495D3A204556454E5424
:102340005F444154415F454E445F504147455F41C2
:102350004444093D2025303858200D0A0000000073
:1023600000EC0F005B5350495D3A20434F4E464905
:10237000475F53445F434C4F55445F4944585F4166
:102380004444093D2025303858200D0A0000000043
:102390005B5350495D3A20494D4147455F504147A5
:1023A000455F414444090909093D2025303858203A
:1023B0000D0A00003C33002000EE0F0000E0D701C2
:1023C0000A506572666F726D20666163746F727910
:1023D0002072657365740A000400FA0500ED00E0E0
:1023E0006A840200496E76616C6964204576656E88
:1023F0007420446174610A00536F667420526573DF
:10240000657420506572666F726D65640A00000025
:1024100020330020CC37002050696E67204164646F
:10242000203D20253038582C200000006461746164
:10243000207772697465206661696C65640A0000C2
:10244000FFF709FB324629462046FFF7A4FE70BD80
:1024500070B504460E461546002D00D170BDFFF73D
:1024600006FB5820594908702002000E48702004CD
:10247000000E8870CC70FFF7F4FA544A0421002053
:10248000FFF754FA324629460020FFF74FFAFFF7CC
:10249000E2FA2A4631462046FFF77DFE00BFDDE71F
:1024A000F7B582B004461646002700200190009040
:1024B0000025002E01D0002C01D105B0F0BD601E1A
:1024C00084B22046E117C90E091849110191E1179C
:1024D000C90E091849114901611AC9B200912701B1
:1024E00000988019202803DD20210098081A00E0B8
:1024F0003046C5B22A4636A0019902F051FC582058
:10250000324908703802000E48703804000E887096
:10251000CF70FFF7A6FA2D4A04210020FFF706FA34
:1025200029010020039AFFF701FAFFF794FAFFF759
:102530009EFA2A0138460399FFF72DFEB5422FD0A7
:10254000701BC5B20198401C47022A460199491CDC
:102550001FA002F025FC58201C4908703802000E0C
:1025600048703804000E8870CF70FFF77AFA174A67
:1025700004210020FFF7DAF9701B030103981A18F1
:1025800029010020FFF7D2F9FFF765FAFFF76FFA8C
:102590002A01701B0301039819183846FFF7FBFD49
:1025A00000BF8AE703210522120707231B02D21866
:1025B0008300D1507047012181400A4A91607047E1
:1025C00001218140074AD16070470000E4320020B9
:1025D0005067233D2025642C2045767423203D2020
:1025E00025640A000005005010B50020FE4908705F
:1025F000FE480078002803D0FCF76AF8FCF7EBFAF5
:102600000020FB490870122001F021F810BD10B520
:10261000122001F013F8082001F010F8FFF7E4FF92
:1026200010BD10B5082001F017F87D20C00001F0A2
:1026300059F8082001F00BF87D20000101F052F854
:10264000082001F009F87D20C00001F04BF810BD12
:1026500010B50120E4490870E4480078002801D052
:10266000FCF750F80320E2490870122000F0F4FF54
:102670007D20C00001F036F810BD10B5FBF7F5FC69
:10268000FDF705FEFFF7E4FFFFF7CBFF10BD10B528
:10269000FDF71FFEFFF7A8FF0020D6490870D64BB4
:1026A000062207210220FDF755FE10BD70B500255A
:1026B00000241AE0E100D148405C012813D1D04841
:1026C00002F06EFBCD48001F4470E100001D0818A9
:1026D0004088CC494880E100C84808184068C9498A
:1026E0004860012503E0601CC4B2042CE2DB00BF9B
:1026F000284670BD10B5C4480078002870D0C34883
:102700000078002803D1C2480078002839D0BF489B
:102710000078002802D00020BC490870B348007837
:10272000002822D1FFF7C2FF00280DD00120B849B0
:102730000870B84908700E20AE4908700020B649EC
:10274000087001F012FC46E00020B1490870012039
:10275000B2490870AF4908700E20A64908700020E1
:10276000AD49087001F001FC35E00120AC4908706A
:10277000A849087008209F4908700020A6490870E1
:1027800029E0A8480078002810D00020A54908704A
:102790000120A54908709F4908700E2095490870CE
:1027A00000209D49087001F0E0FB14E09B48007890
:1027B000002810D08D48007800280CD19749087067
:1027C00001209749087093490870082089490870CA
:1027D00000209149087000208B49087009E0FFE74C
:1027E00001208C49087000208B4908701220814913
:1027F000087010BDFEB5074600258CA1384602F0D2
:10280000A0FC0446E01B80B20190019978180A21CF
:1028100002F08DFC0446E41C605D002856D1681C63
:1028200021180622854802F0EFFCE81D211812222B
:102830008248801D02F0E8FC284619302118042245
:10284000684602F0E1FC6C4B062207210220FDF7EE
:1028500081FD7BA0009902F0A3FA7E4801687EA06A
:1028600002F09EFA82490098884205D3794900987F
:10287000086001207F4908705F4B06220721022073
:10288000FDF768FD734801687BA002F089FAFBF749
:10289000C0FE7F48FBF7DAFE1E2268497D48FFF73D
:1028A00003F97DA002F07CFA002606E06348815D12
:1028B0007AA002F075FA701CC6B2062EF6D376A086
:1028C00002F06EFA01205049087010E0615D75A0B9
:1028D00002F066FA605D012803D179A002F060FA87
:1028E00005E0605D022802D181A002F059FAFEBD28
:1028F00070B505464DA1284602F023FC0446601B36
:1029000086B2A8190A2102F012FC0446E41C2078C1
:10291000312802D1FFF767FB15E02078302809D174
:10292000354B062207210220FDF714FD7AA002F0A4
:1029300037FA08E0304B062207210220FDF70AFD96
:102940007CA002F02DFA70BD38B5054682A128465C
:1029500002F0F7FB0446153404222146684602F0D3
:1029600053FC254B062207210220FDF7F3FC34A07F
:10297000009902F015FA3748016837A002F010FA02
:102980003B490098884205D33249009808600120ED
:1029900038490870184B062207210220FDF7DAFC9F
:1029A0002C48016834A002F0FBF938BD10B50021B5
:1029B0001248001F4078C20010488154001F407820
:1029C000C2000E48101841800C48001F4078C20019
:1029D0000A481018416024220849091F2D4824384C
:1029E000FFF762F810BD00004329002045280020B1
:1029F000E92900204429002000E0D70140330020CD
:102A0000848502002C330020422900200828002061
:102A10000928002040290020472900200A280020FA
:102A20000B2800200E2800200D280020436F6E7414
:102A3000656E742D4C656E6774683A0060330020D3
:102A40000A436C6F75642074696D65203D202564B0
:102A5000200A0000302800200A4F6C6420525443A2
:102A60002074696D65203D202564200A0000000067
:102A7000A87442550F2800200A4E6577205254430F
:102A80002074696D65203D202564200A0000000047
:102A90008428002034EC0F000D0A00002530325845
:102AA0003A200000526567697374726174696F6ED1
:102AB000204572726F72203D20253032580D0A0079
:102AC0004E6F206D6F72652053657269616C204E88
