:020000040001F9
:10D000005848002021D301003BD30100CDE90100A5
:10D010000000000000000000000000000000000010
:10D020000000000000000000000000003FD30100ED
:10D03000000000000000000041D3010043D30100C4
:10D0400045D3010045D30100E504020045D30100AA
:10D050000148020000000000DD08020045D3010085
:10D0600045D3010045D3010045D3010045D301005C
:10D0700045D3010045D3010045D3010045D301004C
:10D0800045D301007914020045D3010045D30100C6
:10D090009B14020045D301000D19020045D3010085
:10D0A00045D3010045D3010000000000000000004E
:10D0B0000000000000000000000000000000000070
:10D0C00000F002F800F0B1F80CA030C808382418BD
:10D0D0002D18A246671EAB4654465D46AC4201D1B0
:10D0E00000F0A3F87E460F3E0FCCB6460126334231
:10D0F00000D0FB1AA246AB463343184758BE000087
:10D1000078BE00000023002400250026103A01D339
:10D1100078C1FBD8520700D330C100D50B607047EF
:10D1200010B56E2902D109F04EF810BD702902D158
:10D1300007F0A3FF10BD662902D10BF0CFF910BD97
:10D14000652902D10BF0CAF910BD672902D10BF095
:10D15000C5F910BD612902D10BF0C8F910BD0368F3
:10D160001B0A01D380231943692902D107F010FF5C
:10D1700010BD642902D107F00BFF10BD752902D143
:10D1800007F006FF10BD6F2902D109F031F910BD7B
:10D19000782902D107F05EFF10BDE92902D109F01C
:10D1A000CDF810BDE42902D109F0C8F810BDF52969
:10D1B00002D109F0C3F810BDEF2902D109F024F91A
:10D1C00010BDF82902D107F053FF10BD0368DB0939
:10D1D00001D380231943632902D109F031F810BD2E
:10D1E000732902D109F034F810BDE32902D109F006
:10D1F00084FD10BDF32902D109F087FD10BD002088
:10D2000010BD1FB5C046C04609F03EFE0400002018
:10D2100000210BF08FF8401C6060002000210BF013
:10D2200073F8E0601FBD10B510BD09F00DFE11468A
:10D23000FFF7E7FF02F073F90AF0A0FB03B4FFF772
:10D24000F2FF03BC0AF0FCFB401E00BF00BF00BFA2
:10D2500000BF00BF00BF00BF00BF00BF00BF00BFD6
:10D2600000BFF1D170470000401E00BF00BF00BFEB
:10D2700000BF00BF00BF00BF00BF00BF00BF00BFB6
:10D2800000BFF1D170470000401E00BF00BF00BFCB
:10D2900000BF00BF00BF00BF00BF00BF00BF00BF96
:10D2A00000BFF1D170470000401E00BF00BF00BFAB
:10D2B00000BF00BF00BF00BF00BF00BF00BF00BF76
:10D2C00000BFF1D170470000401E00BF00BF00BF8B
:10D2D00000BF00BF00BF00BF00BF00BF00BF00BF56
:10D2E00000BFF1D17047000070B505460C461646E8
:10D2F00002E00FCC0FC5103E102EFAD2082E02D33A
:10D3000003CC03C5083E042E07D301CC01C5361F4C
:10D3100003E021782970641C6D1C761EF9D270BD63
:10D3200003210C4802680A4302600B4802680A4362
:10D3300002600A4880470A480047FEE7FEE7FEE72A
:10D34000FEE7FEE7FEE7000006480749054A074BEF
:10D3500070470000240500405405004007D4010038
:10D36000C1D00100583C002058480020583C002003
:10D370002E482F49086070472E48008CC0B2012803
:10D3800010D12C48808C0007000F0BD12948806AEF
:10D39000F0210840402805D12648C06A084201D142
:10D3A000012070470020FCE72248008CC0B2012811
:10D3B00027D12048808C0007000F22D11D48806AA9
:10D3C000F021084205D11B48C06A084201D1012062
:10D3D00070471848806AF0210840102805D1154888
:10D3E000C06A084201D10120F2E71248806AF021A8
:10D3F0000840302805D10F48C06A084201D10120F9
:10D40000E6E70020E4E710B5FFF7CEFF002805D0DF
:10D4100009480A494860C81309498861FFF7ACFF09
:10D42000002802D001200749886010BD0024F400C4
:10D4300000280020C00F00F0DFFF07C000050040FB
:10D44000006C004000060040F2480168F2A007F0BE
:10D450002BFDF0480068FC4908622422FB4804F0D8
:10D46000BDFB00BFBFF34F8FF948FA49C860BFF357
:10D470004F8F00BF00BFFEE704460D461646F64B31
:10D4800006220721022002F0FFFF23462A463146EA
:10D49000F2A007F009FD3020EB498877FFF7D4FFB1
:10D4A00004460D462A462146F648FFF7E5FFF0B54B
:10D4B00005460B4600211C680EE0665C481C275C94
:10D4C000AF4206D1881C20181060701E908000208A
:10D4D000F0BD701C091800BF98888842EDD805205F
:10D4E000F6E7F0B585B005460E461421684607F00C
:10D4F0006EFF0027E4484089E3498989884217DAAA
:10D50000AE4215DA2C460FE06946204605F079F860
:10D51000611B0901DD4A88181022694607F0F8FEF0
:10D52000781CC7B2601C84B2D9488442ECDB012568
:10D530002C460EE06946204605F063F8611BC919C8
:10D540000901D24A88181022694607F0E1FE601CE2
:10D5500084B2B442EEDB05B0F0BD10B587DF0446FF
:10D56000002C03D02146CBA007F09EFCD3480078C6
:10D57000002812D00020D1490870D1480078C24953
:10D5800088731022B148343804F028FBBE48807BF1
:10D590000201CC49CC4805F0F0F810BD10B5CB48DD
:10D5A000007800282AD0B8488089B749498988423C
:10D5B0000AD0C7A007F078FCFFF7CFFF0120D249BF
:10D5C0000870D249087016E0D1480078002812D1BE
:10D5D00005F04AFA002807D0FFF7BFFF0120CD4928
:10D5E0000870CA49087006E0FFF7B7FF0120CA4972
:10D5F0000870C64908700020B449087010BD10B505
:10D60000C6480078002811D0C1480078002805D10C
:10D61000C3480078002801D1FFF79FFF06F088FA81
:10D620007820C04908700020BC49087010BD08B5BA
:10D6300095484089BC4908808348103007F0EEFDCA
:10D6400000900A20B949087008468F490A7A42704A
:10D65000497A817004226F49C01C07F059FE0322E9
:10D660006946B248C01D07F053FEB048B0490A7879
:10D6700082724978C172AE488078AC490873002044
:10D6800048738873C8730120AA490870AA490870B2
:10D6900008BD10B5A948007800280BD0A8A007F055
:10D6A00003FCFFF75AFF07F0CCFAFFF7C0FF00209A
:10D6B000A249087010BD10B50446012C04D0022CFC
:10D6C00008D0032C12D10BE0FFF7E3FF0220A6499C
:10D6D00008700BE0FFF793FF0320A349087005E0F3
:10D6E000FFF75CFF0120A049087000BF00BF10BD1C
:10D6F00010B50446022C05D1FFF781FF02209B499B
:10D70000087000BF00BF10BD5F480089401C5E4923
:10D710000881084600895E49884202DD01205A4995
:10D720000881704710B5FFF7EFFF7F480088564922
:10D73000488110224548343804F050FA10BD10B525
:10D74000FFF7E2FF784800884F49488110223F48A0
:10D75000343804F043FA10BD70B5854800780028CD
:10D7600003D184480078002851D0814800780028EF
:10D7700003D022203449887706E07E4800780028CC
:10D7800002D02320304988773F48448921467AA037
:10D7900007F08AFB651C3E48854224D984420CD0A0
:10D7A000001BC2B26149204605F039F83848001B19
:10D7B0005D49098840185C49088001205A49088061
:10D7C0003348281AC2B23248001B0001574BC11817
:10D7D000012005F024F82E48281A534909884018DA
:10D7E0005149088009E001225049204605F017F808
:10D7F0004D480088401C4C4908805D48007800284E
:10D8000006D0FFF79CFF002059490870C9E0C9E025
:10D81000BEE00000302800200A536D617274204879
:10D820007562205254432074696D65206475726975
:10D830006E6720536F6674205265736574203D20B7
:10D840002564200A000000006033002034EC0F0043
:10D850000400FA0500ED00E000E0D7015B41505004
:10D860004C5D3A204153534552543A2025732C20A5
:10D8700025642C206572726F7220307825303878DC
:10D880000D0A0000EFBEADDE2C330020F43700207F
:10D89000E8FD00005B4150504C5D3A205363616EDF
:10D8A0002073746F70206661696C65642C207265EA
:10D8B00061736F6E2025640A000000004828002074
:10D8C0004C2800208433002000EE0F003E2800206A
:10D8D0004E6577204576656E7420417661696C618E
:10D8E000626C6520616E642047505253204461741D
:10D8F000612053656E642054696D652045787069B8
:10D900007265642E2E0A000007280020402900209E
:10D910004428002008280020092800203F28002053
:10D920000C280020AA290020A2280020AE2F0020C9
:10D930009A29002095280020362800203D28002024
:10D940002B2B2B2B2B536D61727420487562204555
:10D9500076656E7428456E7669726F6E6D656E744D
:10D96000292B2B2B2B2B0A004D2800204E28002082
:10D9700038280020392800200A53482048756220A2
:10D980004576656E74206964203D2025640A000098
:10D99000FC480078002804D0FFF7C4FE0020F949B5
:10D9A000087000BF70BDF8480078002804D1E1205D
:10D9B000C000F649088017E0F548007800280FD02D
:10D9C0000020F3490870F3480078002803D0822033
:10D9D000EE49088008E0E1200001EC49088003E0FE
:10D9E000E1200001E9490880704770B5EA480078F5
:10D9F000002803D00A20E949087070BDE848007883
:10DA0000002813D00120E7490870FFF7CCFFDE485B
:10DA10000078002803D00120E349087005E00220C7
:10DA2000E24908700120E2490870E6E70020E14978
:10DA30000870E1490870E1490870E1490870D84967
:10DA40000870D5490870D0480078002821D00120FE
:10DA5000D5490870DB480078002819D0DA48408999
:10DA6000DA4908801022DA49DA4807F051FCD9482F
:10DA7000D5490A7A4270497A81700020D1490870EC
:10DA80000120D5490870FFF767FE0F20BF490880C5
:10DA9000B3E70020C4490870CA480078002816D0AF
:10DAA000C9484089C94908801022C949C94807F0B6
:10DAB0002FFCC848C4490A7A4270497A8170002014
:10DAC000C04908700120C4490870FFF745FE02F004
:10DAD0009AFC05F064FE002801D004F0B6FFBF48B0
:10DAE000007840084000401CBC4908700846007897
:10DAF00002218843B9490870502008814820488194
:10DB0000002048608881084686DF044600BF25461D
:10DB1000002D05D000BFB2A2B4492846FFF7ACFCE7
:10DB200000BFB3A007F0C0F900BF66E738B5B6483C
:10DB3000017868468170B54901806A460121B44880
:10DB4000008890DF044600BF2546002D06D000BFA8
:10DB5000A3A2CD2189002846FFF78EFC00BF38BD67
:10DB6000F0B58BB0044600200A900990089005900B
:10DB7000271D208830287DD008DC10287BD0112874
:10DB80007AD01B280BD01D2877D193E1322875D08D
:10DB9000332874D0372873D03828F5D10CE23846B2
:10DBA0000B300390B87AC00869460882A07BC00792
:10DBB000C00F66D001AA03A90920FFF778FC06462A
:10DBC000002E11D1062293A0019907F052FB0028E4
:10DBD00001D101200A90062290A0019907F049FB8B
:10DBE000002801D1012009900A98002802D1099843
:10DBF00000287DD08BA0019907F056F90D216156C0
:10DC00008CA007F051F901AA03A91620FFF74FFCD9
:10DC10000646002E05D168460089401E0199085C21
:10DC20000890002507E00520411BF81C405C06A970
:10DC30004855681CC5B2062DF5DB00253DE02901DD
:10DC4000804A8818062206A907F013FB002832D163
:10DC5000012005907C48007800282BD07B48006884
:10DC6000401C27D079480068002823D02801754936
:10DC7000401807E082E12FE141E1A5E182E185E181
:10DC800088E10AE1C0687249884205D16F4800689E
:10DC900029016C4A8918C8606C4800682901694AE2
:10DCA00089188860607B2901891888712901891881
:10DCB0000898C87105E0681CC5B2664800788542BE
:10DCC000BDDB00BF059800284CD1624800782028B1
:10DCD00048DA607B5F49097809015A4A89188871D6
:10DCE00059480078002818D058480068401C00E0C7
:10DCF000DCE012D05548006800280ED05348006878
:10DD00005449097809018918C86050480068514988
:10DD100009780901891888600FE04B4800780028CD
:10DD20000BD14B484B4909780901464A8918C8600C
:10DD30004849097809018918886046490978090124
:10DD4000404A8818062206A9FFF7CEFA4149097809
:10DD500009013C4A89180898C8713E480078401C5F
:10DD60003C4908700D2161566320C043814273DB3A
:10DD700005210898084271D0FFF7EFFB01200D49FB
:10DD8000087074E039280020442800201E28002054
:10DD900012280020112800200D28002048290020EA
:10DDA0000C2800203F280020452800204D28002076
:10DDB00043280020072800200828002009280020E8
:10DDC0000A2800203A2800202C330020A228002016
:10DDD000582D0020AE2F002038280020782D00205C
:10DDE0002E2E5C6D61696E2E63000000FE02000045
:10DDF0005B4150504C5D3A205363616E2053746117
:10DE0000727465640A00000078280020839E000078
:10DE1000502800205342422D535400005342422DBB
:10DE20005356000053522023203D202573202C20E0
:10DE30000000000052535349203D202564202C202F
:10DE40000D0A0000843300200E2800203028002016
:10DE5000FF9999994C28002024E0FFE702210898B7
:10DE6000084204D0FFF779FB0120FA490870FA480C
:10DE70000078002803D1F748007800280ED03C2015
:10DE8000F6490870F64AF749B81C88DF0646002EA6
:10DE90000FD03146F4A007F007F80AE00120FE4950
:10DEA000087006E00120FC49087002E00120FA49F0
:10DEB00008708AE03888B91C75DF064600BF0096F6
:10DEC000009E002E06D000BFF44AFF21B931009811
:10DED000FFF7D2FA00BF78E0A088F1490880F14945
:10DEE000F14807F072FAEF49F04807F06EFAFFF7D1
:10DEF0001DFE0020EE490870D849087065E000203A
:10DF0000C043E74908800020EA490880EA490870D0
:10DF1000EA490870E6490870CF490870CD49087091
:10DF2000E7A006F0C1FFA179EEA006F0BDFFA07941
:10DF30003E2805D10020F2490870FFF756FD1CE08D
:10DF4000A079132817D1EF480078052805DAED48A5
:10DF50000078401CEB49087007E0EBA006F0A4FF36
:10DF60005020F5498877FFF76FFA0020E4490870E0
:10DF7000FFF73BFD01E0FFF738FD26E0204601F00A
:10DF800083FB22E0204601F0CAFB1EE0204601F0A0
:10DF900058FC1AE0E08800280DD000BFE08800900F
:10DFA0000098002806D000BFBC4AFF21FA31009833
:10DFB000FFF762FA00BF08E006F011FF204601F00B
:10DFC00080FC06F0F7FE00E000BF00BF0BB0F0BD24
:10DFD000022802D0032802D100E000BF00E000BF09
:10DFE00000BF704710B504462046FFF7B9FD10BDCD
:10DFF00010B504462046FFF7EBFF10BDF8B500BF93
:10E0000000234822CD49082003F039FC054600BF13
:10E010002E46002E06D000BFA04AA2495C313046F1
:10E02000FFF72AFA00BF00BF0020009002206946D7
:10E030000870684660DF044600BF2546002D06D004
:10E0400000BF964A974961312846FFF715FA00BF8D
:10E05000BB4803F049FC044600BF2546002D06D00E
:10E0600000BF8E4A8F4965312846FFF705FA00BF89
:10E07000B44803F042FC044600BF2546002D06D0FC
:10E0800000BF864A874969312846FFF7F5F900BF86
:10E09000F8BD7FB5AC4B0FCB6C460FC4AB4968469F
:10E0A00063DF044600BF2546002D05D000BF7B4A34
:10E0B000A7492846FFF7E0F900BF7FBD70B5A54826
:10E0C0000078002816D10022FF214931A2480068BB
:10E0D00003F0AAFA044600BF2546002D06D000BF73
:10E0E0006E4A9B4928312846FFF7C6F900BF012038
:10E0F0009849087070BD70B500220121C903974886
:10E10000006803F091FA044600BF2546002D06D0B2
:10E1100000BF624A8E4919312846FFF7ADF900BFAA
:10E12000FFF7CCFF70BD70B58A480078002813D087
:10E130008948006803F0A9FA044600BF2546002D6F
:10E1400006D000BF554A824938312846FFF794F976
:10E1500000BF00207F49087070BD10B501205449F0
:10E1600008703D480078002821D07D4800780028BC
:10E1700019DD4C4A4C494D4807F0CAF878480078F8
:10E18000784908700020764908704649464807F0EB
:10E190001CF97448017874A006F086FE01207A49C3
:10E1A00008707A4908707AA006F07EFE2AE02948B5
:10E1B0000078002826D07C48008801214902884246
:10E1C0001ADC7948008879490860084636490268AF
:10E1D000364807F09DF83349334807F0F6F874489D
:10E1E000018874A006F060FE0020714908800120BB
:10E1F000774908707749087077A006F055FE00202F
:10E200002C49088010BD10B50446012079490870DA
:10E2100079480078002804D078480078401C774975
:10E22000087077480068401C754908600846006817
:10E2300000280DD008460068401C09D00846006838
:10E240007049884205D26E4800686F498842DDE017
:10E25000DDE0DDE008280020072800201728002046
:10E2600044850200782D00205B4150504C5D3A20DF
:10E27000436F6E6E656374696F6E2052657175656C
:10E280007374204661696C65642C20726561736FDC
:10E290006E2025640A00000043280020E0DD010014
:10E2A0005028002026020000882D0020AE2F0020DC
:10E2B00091280020B228002018280020962800204D
:10E2C000446973636F6E6E65637465642066726F14
:10E2D0006D20736D617274207461672F7669736944
:10E2E0006F6E0A00446973636F6E6E656374696F65
:10E2F0006E20726561736F6E3D25640A0000000038
:10E3000040290020162800200A20424C455F48433F
:10E31000495F52454D4F54455F555345525F5445F3
:10E32000524D494E415445445F434F4E4E45435430
:10E33000494F4E0A0000000060330020EC29002005
:10E34000E5DF0100F1DF01004C85020078280020A4
:10E35000260300000F280020802800207C280020B1
:10E3600094280020952800204576656E745F706BB8
:10E37000745F726376642874696D655F6F75742964
:10E380003A2025640A000000352800204228002099
:10E390004576656E7420726561642054696D656FA1
:10E3A0007574283273290A009A280020A4280020B6
:10E3B000B4280020496D675F706B745F7263766488
:10E3C0002874696D655F6F7574293A2025640A00A9
:10E3D0003C2800208F280020496D61676520726508
:10E3E00061642054696D656F7574283130306D73C8
:10E3F000290A000034280020E9290020E82900200B
:10E4000030280020C08B5D56C077025C00D907E041
:10E410003C21F748006806F0DCFF002900D100BF6E
:10E42000F4480078401CF3490870084600783C28FE
:10E4300018DB00200870F0480088002812D0EF4850
:10E44000007800280ED1EC480088401EEA49088078
:10E4500008460088002805D10120E84908700A20F4
:10E46000E5490880E648007800280DD0E4480078A7
:10E47000401EE349087008460078002804D1602057
:10E48000E0498877FEF7E0FFDF48007800280BD0EE
:10E49000DD480078401EDC490870084600780028F6
:10E4A00002D10120D9490870D948007800280BD042
:10E4B000D7480078401ED6490870084600780028E2
:10E4C00002D10120D3490870D348007800280CD02D
:10E4D000D1480078401ED0490870084600780028CE
:10E4E00003D1CE49087001F0BCF9CD48007800286E
:10E4F00004D0CC480078401CCA490870CA4800784B
:10E5000000280CD0C8480078401EC749087008464B
:10E510000078002803D1C1490870FFF766FAC348A4
:10E52000007800280AD0C1480078401EBF49087012
:10E5300008460078002801D1FFF70FFEBC4800888C
:10E54000002813D0BB48007800280FD1B8480088B5
:10E55000401EB749088008460088002806D10120DF
:10E56000B4490870E120C000B1490880B248008871
:10E57000002811D0B148007800280DD1AE4800889D
:10E58000401EAD49088008460088002804D10120BB
:10E59000AA490870FFF707FA10BDA94909780029B0
:10E5A0000DD0A7490978491E0906090EA44A117021
:10E5B00005D10121A34A11700022A3494A76704770
:10E5C000F8B500BF0020A14B06220421009002F004
:10E5D00068FF054600BF2E46002E05D000BF9C4AAE
:10E5E0009C493046FEF748FF00BF00BF9A4A012110
:10E5F0009A4802F0D2FF044600BF2546002D06D0FF
:10E6000000BF934A9349091D2846FEF735FF00BF16
:10E61000934A0121934802F0C0FF044600BF2546FB
:10E62000002D06D000BF8A4A8A4908312846FEF7E5
:10E6300023FF00BFF8BD1CB58B4903C901910090B1
:10E640006946002003F0AFF91CBD7CB500200090A6
:10E6500001906946087006226A4900A8013006F058
:10E6600057FE6946002070DF044600BF2546002D96
:10E6700006D000BF764A774926312846FEF7FCFED1
:10E6800000BF7CBDFEB50446204671DF054600BFD5
:10E690002E46002E06D000BF6D4A6E492E31304600
:10E6A000FEF7EAFE00BFA07961792279009201911C
:10E6B0000290E378A27861786CA006F0F5FBA0796F
:10E6C0005049087621794F484176A1788176617961
:10E6D000C176E178017761784177FEBD70B500BF02
:10E6E000704A0521082005F05BFF044600BF25465F
:10E6F000002D06D000BF564A56493E312846FEF747
:10E70000BBFE00BF00BF70BD012044DF704770B585
:10E7100065480078002800D070BD0120624908706B
:10E7200002F015F8044600BF2546002D06D000BFB4
:10E73000474A484951312846FEF79EFE00BF00BFB8
:10E74000EAE770B558480078002800D170BD002075
:10E750005549087002F007F8044600BF2546002D11
:10E7600006D000BF3A4A3B495F312846FEF784FE97
:10E7700000BF00BFEAE770B504460D46012D35D154
:10E78000022C0AD00D2C17D0162C30D10120244990
:10E7900008700020234908709AE044480078002857
:10E7A00009D10120424908701148006841490860B8
:10E7B00001203E4908708BE03C480078002814D0C6
:10E7C0003D480078002810D101203B4908700848D6
:10E7D00000683A4908603A480078002805D182204C
:10E7E0001549088001203649087071E071E069E040
:10E7F00030280020192800201C2800203E28002056
:10E800004B280020603300204629002005280020E6
:10E81000AA29002006280020962800201028002081
:10E820000B28002015280020172800201828002079
:10E830001A2800203D2800201E2800203F28002004
:10E84000C1280020C3280020C8320020342A00201C
:10E85000E0DD01005B04000007E201007C280020ED
:10E860009BE50100802800205C8502000D0A424CD7
:10E87000455F4D41432041444452455353203A2083
:10E88000253032583A253032583A253032583A2518
:10E890003032583A253032583A25303258200D0A55
:10E8A00000000000E42C002047280020442800201D
:10E8B000402800202C280020112800202428002097
:10E8C0001228002000BFF94AF9492046FEF7D4FD7E
:10E8D0004FE0002D4DD1022C35D00D2C02D0162C3E
:10E8E0003FD10EE0F3480078002809D0F2480078C4
:10E8F000002805D00020F04908700120EF49087079
:10E9000036E0EF48007800281CD0EE480078022856
:10E910000ADBEC480078052806DAFFF7F5FE7020E0
:10E92000E9498877FEF790FDE6480078052806DB80
:10E930008020E549887703F04DFCFEF785FD002037
:10E94000DF49087014E0DB480078012808D1DF496E
:10E950000870DF480068DF4908600020D54908706A
:10E9600006E000BFD14AD24934312046FEF784FD8B
:10E9700000BF70BD70B500BFD749012002F02BF871
:10E98000044600BF2546002D06D000BFC74AC8492F
:10E990003E312846FEF770FD00BF00BF70BD70B568
:10E9A00000BFCE4BCE4A0321CE4801F08DFE044677
:10E9B00000BF2546002D06D000BFBC4ABC495031DF
:10E9C0002846FEF759FD00BF00BF70BDC64B0622AA
:10E9D0000721022001F058FDC4A006F065FA40208E
:10E9E000B9498877FEF730FD10B50A20C54908708F
:10E9F00004F057FF0020C3490870BB4B06220721D3
:10EA0000022001F041FDC0A006F04EFA642004F09F
:10EA1000F9FE10BD10B5FEF777FEC6480088C6495E
:10EA200048811022C54803F0D9F8FEF7DEFF10BD7B
:10EA300010B5FEF769FEBF480088BF494881102223
:10EA4000BE4803F0CBF89B480078002803D1BC48AF
:10EA50000078002808D00120BA490870BA49087027
:10EA60000020B749087001E0FEF7BFFF10BD1CB5DC
:10EA70009548103006F0D2FB009095480068B349E5
:10EA8000086008460088B2490988401A80B201909F
:10EA900088480078002803D00B20AE49087002E0B7
:10EAA0002B20AC4908700422A849AA48C01C06F0D3
:10EAB0002FFC03226946A748C01D06F029FCA54883
:10EAC000A3490A8842814988818169468988C18130
:10EAD0000120A14908701CBD08B57B48103006F024
:10EAE0009DFB009073480078002803D00C209B49C0
:10EAF000087002E02C209949087004227549974853
:10EB0000C01C06F005FC032269469448C01D06F0AF
:10EB1000FFFB6D48807F9149887205218F480B303B
:10EB200006F053FC01208E49087008BD08B58248E4
:10EB30004089804908806448103006F06FFB0090DF
:10EB400006208849087008467B490A7A4270497A4B
:10EB5000817004225E49C01C06F0DAFB032269467C
:10EB60008048C01D06F0D4FB7F48007A7D4988723A
:10EB700004227D490C317B480B3006F0C9FB7A48F2
:10EB8000007C0006800F80017749097C8906890E88
:10EB900008437449C87316200874084666490A7AFF
:10EBA0004274497A817404224949133006F0B0FB5B
:10EBB000032269466B48173006F0AAFB6A48007EBC
:10EBC00068498876042268491C3166481B3006F083
:10EBD0009FFB6548008C0006800F80016249098C0C
:10EBE0008906890E08435F49C87702205F4908708B
:10EBF00001205F49087008BD10B559480078002809
:10EC00001BD04D4840894B4908805448007810215A
:10EC10000843524908701022524806F079FB5148C7
:10EC200045490A7A4270497A817000204C4908703F
:10EC3000012050490870FEF78FFD10BD10B502206D
:10EC400000F09CFC002807D101201A490870E1203F
:10EC500000014949088007E0022000F08FFC0128EC
:10EC600002D10020134908701748006A194908604A
:10EC70001548006A16490860FFF72EFFFFF7BCFF32
:10EC80009020114988773D48086224222B4834306F
:10EC900002F0A4FF10BD10B5022000F06FFC0028A8
:10ECA0006ED101200349087072E069E0E0DD0100E7
:10ECB000EB040000442800201128002041280020F7
:10ECC0000B28002015280020603300204028002059
:10ECD000302800202C280020442D00208BF5010036
:10ECE000660600005428002000E0D7010A20486191
:10ECF00072644661756C745F48616E646C65720A1B
:10ED0000000000004B2800200A48554220414343A0
:10ED1000454C45524F4D455445522053454E534F57
:10ED20005220494E495420415420504F57455220BB
:10ED30004F4E0A00A22800202C33002000EC0F00C8
:10ED40000C28002007280020402900202828002027
:10ED500024280020682D00203B280020582D00206A
:10ED60003A280020AE2F0020AC3700209528002044
:10ED700037280020382800201E280020FF99999964
:10ED8000022000F0FBFB012802D10020FE490870A0
:10ED9000FD480078002805D1FC480068FC4908605F
:10EDA000FFF79AFE10BD10B50D2000F0E7FB00281C
:10EDB00015D1F8480078002820D10120F5490870C5
:10EDC000F2480068F4490860F4480078002815D13A
:10EDD0008220F34908800120F04908700EE00D20E0
:10EDE00000F0CCFB012809D1EA480078002805D0C2
:10EDF0000020E84908700120EA49087010BD70B58C
:10EE0000E9480078002853D005F08BFCE7480078EB
:10EE100000280AD0E5480078401EE44908700846FA
:10EE20000078002801D103F043FEE1480088002863
:10EE30000ED0DF480088401EDD4908800846008863
:10EE4000002805D14B20C00008800120D949087056
:10EE5000D9480078002826D0112001238340194684
:10EE6000D64B5B68C340DA07D20F002A02D1D34BDE
:10EE7000996001E0D14BD96000BFCF480078401EB7
:10EE8000CD4908700846007800280ED10120CC49F1
:10EE90000870CC4B06220721022001F0F5FACAA027
:10EEA00006F002F801E005F0A1FF0020BE4908705D
:10EEB000D3480078002807D1D2480078002803D131
:10EEC000D1480078002873D0CF480078002803D0BC
:10EED0002420CE4988770EE0CA480078002803D065
:10EEE0002520CA49887706E0C5480078002802D066
:10EEF0002620C6498877C64804882146C5A005F063
:10EF0000D3FFCA4800782518C948854251D98442A0
:10EF100022D0001BC2B2C749204603F080FCB8488B
:10EF20000078002811D0C248001BC3490988401846
:10EF3000C149088008460088BD49B831884204DDCF
:10EF4000BD480088401ABC490880B948001BB04938
:10EF500009884018AE4908800120AD490880B448AE
:10EF6000281AC2B2B248001B0001B24BC1180120DE
:10EF700003F055FCA2480078002811D0AC48281AAC
:10EF8000AD4909884018AC49088008460088A8495E
:10EF9000B831884204DDA8480088401AA649088094
:10EFA000A348281A9A49098840189949088023E0FB
:10EFB0004EE09E4802789F49204603F030FC90487E
:10EFC0000078002811D09C4800889849097840189A
:10EFD00099490880084600889549B831884204DD7F
:10EFE00095480088401A94490880894800888F49CC
:10EFF000097840188649088000208C4908708048AC
:10F000000078002810D000207D4908708B480078D7
:10F0100000281CD001208A4908708820894908707E
:10F0200000208649087012E076480078002805D054
:10F03000FFF7F0FC00207349087008E07248007880
:10F04000002804D0FFF7F4FC00206F49087060E04E
:10F050007D48007800285CD07C4801687CA005F0E1
:10F0600023FF642004F0CEFB7C48008882B2714903
:10F070007648006803F0A8FB74480068774909687F
:10F080004018724908607648007800283DD008464C
:10F0900001686FA005F008FF7248408814214843BA
:10F0A00004460120000524186F48007880040419E4
:10F0B00066480068A0421DD110226A496B4802F0E0
:10F0C0008DFD012168480078C2006748001D815409
:10F0D000001F0078401C6449087008460078042826
:10F0E00001DB0020087024225F496048103002F0E4
:10F0F00075FD05E05EA005F0D7FE002062490870AE
:10F1000000F0AFFB00205649087000204E490870FF
:10F1100000BF70BD10B54A48007800280ED049489D
:10F12000007800280AD005F05AFE4648007800F022
:10F13000C8FE05F03FFE00204149087010BD10B523
:10F1400052480078002804D0FFF7C6FC00204F4941
:10F1500008704F480078002814D04E4800780028E6
:10F1600010D14D48007800280CD13E4840892849EC
:10F170000880102249492F4806F0CAF82D4839491D
:10F180000A7A8DE097E00000442800203028002013
:10F190002C280020112800202428002012280020DC
:10F1A0001E28002041280020342800204928002063
:10F1B0002028002048280020482900200005005071
:10F1C0004029002000E0D7010A5765206861766574
:10F1D000206E6F742076616C6964204D41432E2E41
:10F1E0002E2E2E54727920746F2067657474696EA8
:10F1F000672076616C6964204D41430A000000007D
:10F2000035280020362800203728002060330020D1
:10F21000A22800200A534420487562204576656E76
:10F2200074206964203D2025640A00009528002090
:10F23000E8FD0000AE2F0020A0280020422800207A
:10F240008D280020932800203C280020A82800209A
:10F25000416464203D20253038580A00A42800204D
:10F260008F2800202C3300203C33002000EC0F00BE
:10F27000416C6C20696D616765206E6F74207265EA
:10F280006365697665640A00102800204028002024
:10F290003B280020432900209F290020682D0020C2
:10F2A0004270497A81700020CA4908700120CA4919
:10F2B0000870FEF751FAC9480078002804D0FFF71B
:10F2C000D6FB0020C5490870C548007800283FD00B
:10F2D000C4480078002804D0C3480078FEF708FA34
:10F2E00036E0C2480078002832D1C14800780028B2
:10F2F0002ED1C048007800282AD1BF4800780028C5
:10F3000026D1BE480078002822D1BD4800780028C8
:10F310001ED1BC48007800281AD1BB4800780028CC
:10F3200016D104F0E5FB0020B849087003F08DFB0E
:10F330000020B4490870AA490870B5480078002830
:10F3400004D00020B2490870FFF791FBFEF74DFB97
:10F35000B0480078002815D0A248007800280AD0CC
:10F360000020AC490870FEF7F8F8642004F04AFA6F
:10F37000FEF73BFB10BD0020A6490870A6480078A8
:10F38000FEF799F900BFF5E710B5A448007800280A
:10F3900009D0A3480078012805D0A24B0C220B21EC
:10F3A000012001F071F8A048007800280AD09C489C
:10F3B0000078012806D19D4801789D4804F008FC9A
:10F3C00001F085F891480078002806D004F090FB01
:10F3D000FFF7ACFB00208D490870964800780028A4
:10F3E00004D004F09BFB00209249087010BD10B5BA
:10F3F0008D480078002812D08948007800280ED166
:10F400008A4801788A4803F02FFD00208749087058
:10F41000FA21874805F0D9FF002083490870794810
:10F420000078002804D000207649087004F033F8F2
:10F4300081480078002804D004F025F900207E4996
:10F4400008707E480078002804D004F090F900206D
:10F450007A49087010BD0021C943794AD161002062
:10F4600009E002210522120707231B02D21883009C
:10F47000D150411CC8B22028F3DB704710B50220E0
:10F4800000218A0005231B07072424021B1984007E
:10F490001A5100BF0A2004F0B5F910BD10B5FFF7EE
:10F4A000DAFF00F099FEFFF7E9FF05F06CFC05F0CC
:10F4B000CEFC05F086FCFFF783F8FFF75BFAFFF759
:10F4C0006EFA03F079FA04F0F0FA04F0A9F90A20D0
:10F4D00004F098F9FFF7AFF810BD10B5FEF78EFDF8
:10F4E000FEF7D7FD5748FFF7CDF8FFF7AEF8042039
:10F4F00077DF10BD0120404908704249087070470D
:10F5000070B548DF044600BF2546002D05D000BF7A
:10F510004D4A4E492846FDF7AFFF00BF70BDFFF7CB
:10F52000BDFFFFF7DBF802F022FEFFF787FBFFF7D6
:10F53000D4FFFEF7E0FDFFF7EAF8FFF7DBFF05F089
:10F540006FFB43480078002804D10120404908702F
:10F55000FFF74AFA00BFFFF752FCFFF7DBFDFFF7AA
:10F5600046FFFFF711FFFFF7EAFD05F0DAF81D4847
:10F5700000780028EFD0FFF7C3FFECE701463048E2
:10F580000069C840C007C00F70477CB504460D46EF
:10F59000164600946846057146712E4A082105F00A
:10F5A0001FF87CBDF8B505460E462C4600BF082E58
:10F5B00001D1012000E000200746002F04D100BF48
:10F5C00025A2A821FDF758FF00BF617920792268A4
:10F5D0009047F8BD3B280020392800204128002012
:10F5E00045280020442800204E280020072800201D
:10F5F000082800200C2800200D28002009280020C1
:10F600000A28002040290020372800209E290020B9
:10F6100011280020432800204D2800209F29002089
:10F62000C028002000509D00C3280020C2280020D0
:10F63000E83100200628002005280020412900206C
:10F640000005005084280020E0DD0100750800005E
:10F6500046280020A5F501002E2E5C2E2E5C2E2EB5
:10F660005C2E2E5C2E2E5C496E636C7564655C614D
:10F6700070705F636F6D6D6F6E5C6170705F6275EF
:10F6800074746F6E2E680000FEB505462F460C3769
:10F69000388800281FDD082229460E31684605F00B
:10F6A00037FE68460188F8A005F0FEFB0020FC4903
:10F6B000087001A9FB48008892DF044600BF264677
:10F6C000002E06D000BFF8A251213046FDF7D4FE2F
:10F6D00000BF00BF00BFFEBD38B5F7480088002856
:10F6E0001CD0F5480088401C81B268460180F24871
:10F6F0000088401C81B2684641806946E94800881C
:10F7000093DF044600BF2546002D06D000BFE6A2C9
:10F71000A2212846FDF7B0FE00BF00BF38BDFEB5F0
:10F72000044620460C300290002636E00A2031467E
:10F7300041430298801C0F183988E0A005F0B4FB03
:10F740003888E449401802D002281FD111E0E2486D
:10F750000078401CE0490870E18AE0A005F0A4FBB5
:10F76000E08AD5490880A07CC006C00FE449087033
:10F7700010E0D9480078401CD7490870E18AE1A020
:10F7800005F092FBE08AE649088003E0E5A005F079
:10F790008BFB00BF00BF701CC6B202980088B0424D
:10F7A000C4DCCD480078022808D10020CA4908707E
:10F7B0000120BB490870FFF78FFF18E0E08A401C6A
:10F7C000694688800021C9436846C18001A9B548BF
:10F7D000008892DF054600BF2E46002E06D000BFEF
:10F7E000B1A291213046FDF747FE00BF00BFFEBD2C
:10F7F0007FB50121009168460171D04801886846B3
:10F80000C1800390022141810021018101A9A54805
:10F81000008897DF044600BF2546002D06D000BFB4
:10F82000A1A2CB212846FDF727FE00BF00BFC4A040
:10F8300005F03AFB0120C84908708A20C7490870C2
:10F840007FBD10B50446E189C5A005F02DFBE08918
:10F85000BA490880AA480078002801D0FFF7C8FFFD
:10F8600010BD70B50126C8480078002815D0C748DB
:10F87000007800280ED0C6480068401C0AD0C44852
:10F880000068002806D000260120B3490870032034
:10F89000B24908700020BC490870002E10D0132116
:10F8A0008048008876DF044600BF2546002D06D03C
:10F8B00000BF7DA2B7492846FDF7DEFD00BF00BFAF
:10F8C00070BDF8B505462C460C340020B2490870CE
:10F8D00020887949098888427ED1A04800788A2802
:10F8E0000ED006DC032878D0862877D0882876D1F9
:10F8F000BCE08C2874D092281ED09328F7D1A2E0C7
:10F90000A188A01D00F078FCA079012811D19249AE
:10F910000870A2480078002803D092208F49087010
:10F9200009E09F480078002805D08C208B4908709A
:10F9300001E0FFF796FFA0E29A480078002800D087
:10F940009BE2A079012834D197480088002830D163
:10F95000207A0002E179084393490880207B000265
:10F96000E17A08430346A07A0002617A084302461E
:10F970008D4801888DA005F097FA8B4800880028F3
:10F9800005D1012080490870FFF76BFF5AE0A07A8B
:10F990000002617A08439049088008460088401EAA
:10F9A000088000208D4908708D4840898D49088065
:10F9B00048E07D48008800283CD002208A49087031
:10F9C000864909780901894A88181022A11D05F085
:10F9D0009FFC8248007804E050E26CE136E14BE2A3
:10F9E0007CE1401C7D49087008460078202814DB23
:10F9F000684A443A7D497E4805F08AFC7748007899
:10FA00007C4908700020754908707A4801787AA00E
:10FA100005F04AFA01207E49087063480088401EBC
:10FA2000614908800846008800280BD179A005F0BC
:10FA30003BFA07E0A079002804D101205249087060
:10FA4000FFF70FFF19E2A188A01D00F0D5FBA079F8
:10FA5000012805D14049087086204049087004E01B
:10FA6000012049490870FFF7FCFE06E2A188A01DAD
:10FA700000F0C2FBA079012805D137490870862023
:10FA800036490870E1E0DBE07365727669636520F2
:10FA900055554944203A203078253034580D0A0015
:10FAA0008C280020502800202E2E5C626C655F732D
:10FAB00076735F632E630000AC2800200A43686100
:10FAC000722055554944203A203078253034580D5D
:10FAD0000A000000FF3DFFFF92280020424C455FD6
:10FAE000555549445F4E4F544946595F444154412E
:10FAF000203078253034582028522C4E2900000020
:10FB000090280020424C455F555549445F57524963
:10FB100054452030782530345820285729000000DB
:10FB2000AE280020466F756E6420736F6D65746833
:10FB3000696E6720656C73650A000000B0280020BC
:10FB4000456E61626C6564206E6F7469666963619D
:10FB500074696F6E730D0A008D28002093280020B1
:10FB600044697363726970746F7227732068616E81
:10FB7000646C652076616C7565203A20307825309C
:10FB800034580D0A00000000102800200E28002024
:10FB9000302800206A020000962800200728002054
:10FBA000082800209128002098280020556E7265B2
:10FBB000616420457674203D2025642C20537474A4
:10FBC0005F496478203D2025642C20456E645F49A0
:10FBD00064783D25640A0000A028002094280020B5
:10FBE0002C330020A228002018280020882D002077
:10FBF000AE2F0020952800204576656E745F706BEF
:10FC0000745F72637664203D2025640A0000000062
:10FC100035280020416C6C204576656E7420706B31
:10FC2000747320726376642066726F6D20536D6109
:10FC300072745461672F566973696F6E0A00000011
:10FC40000120DE490870FFF70CFE16E1A188A01D17
:10FC500000F0D2FAA079012827D1207A0002E179B8
:10FC600008430746A07A0002617A084306463246F6
:10FC70003946D3A005F018F9DC480088B0420BD112
:10FC8000DBA005F011F9E6480088E649488110221A
:10FC9000E54801F0A3FF02E0E4A005F005F901202A
:10FCA000C6490870FFF7DDFD04E00120C349087074
:10FCB000FFF7D7FDE1E0A188A01D00F09DFAA07933
:10FCC000012805D10020BD490870FFF7CAFD04E0F6
:10FCD0000020BA490870FFF7C4FDCEE0DD48007887
:10FCE000002800D0C9E0A07901284DD1DA48008869
:10FCF000002849D1E0790002217A0843D6490880DA
:10FD000008460188D5480078C200D448001D101864
:10FD10004180D2480078C100D048001D08184088B2
:10FD2000C04948800020CE490880CE490870A1888B
:10FD3000A01D00F061FAC84800881421484302461B
:10FD4000C5480188C8A005F0AFF8C4480078800411
:10FD5000012109054018CE49086008460168BF48DE
:10FD60000078C200BD48001D10184160BB480078F3
:10FD7000C100BA48001D08184068AA494860B74841
:10FD80000078B649487076E0B348008800286AD009
:10FD90000220C0490870B248008801214902884207
:10FDA00051DCBD49AE4A128888181422A11D05F005
:10FDB000AFFAAB4800881430A9490880B7480088DA
:10FDC000401CB6490880A6480088012149028842A3
:10FDD00039DBA3490888C117C90D0918491249021E
:10FDE000411AAF4A11809E48008811460988401A7E
:10FDF000AC49088001204002AB4908600846A6498A
:10FE00000268AA4805F084FAA5480088002802D1B3
:10FE1000934908800CE0A2480088914908809E48D8
:10FE2000A04A128881189E4802889B4805F070FA03
:10FE30009A4801889EA005F037F80020974908806D
:10FE40000120A049087084480088401E824908802B
:10FE50000846008800280ED19BA005F025F8012057
:10FE60005649087007E0A079002804D101205349C1
:10FE70000870FFF7F6FC00E000BF00BFF8BD3EB51C
:10FE80009C480188684641800021818002210170E0
:10FE90001421C1809848029069469848008897DFED
:10FEA000044600BF2546002D06D000BF944A954960
:10FEB0002846FDF7E1FA00BF00BF14209249087000
:10FEC0003EBD10B5044614218B4805F07EFA8A2CFD
:10FED0000ED006DC032C20D0862C55D0882C5FD188
:10FEE0004CE08C2C56D0922C25D0932C58D128E065
:10FEF00086A004F0D9FF0020874908707E4804706E
:10FF00000820102801D9102000E00820024683A113
:10FF10007948401C05F0FCF943E083A004F0C4FFDD
:10FF200000207D4908707448047004228449401CF4
:10FF300005F0EEF935E083A004F0B6FF6E480470DA
:10FF40002FE088A004F0B0FF284801888BA004F0BF
:10FF5000ABFF6948047025490888C117090E0918C4
:10FF600009120902411A644A517020490888C117D0
:10FF7000090E09180904090E917012E085A004F019
:10FF800093FF5D4804700CE088A004F08DFF5A4890
:10FF9000047006E08AA004F087FF5748047000E070
:10FFA00000BF00BF1421544800F026F989480078AA
:10FFB000002801D0FFF763FF10BD000010280020CB
:10FFC0000A6476635F72756E5F696478203D2025F0
:10FFD000642C206476635F6C617374726561645F26
:10FFE000696478203D2025640A000000A0280020D4
:10FFF0005570646174656420696E20646576696318
:020000040002F8
:10000000652C20777269746520696E646578206953
:100010006E206875622773206D656D6F72790A00B6
:10002000A22800202C33002000EC0F004576656EDE
:1000300074206D6973746D617463682066726F6D8E
:1000400020676574206576656E7420636F756E74C5
:100050000A00000091280020B22800203C33002034
:100060009A2800208F28002074746C5F696D675F88
:10007000706B745F23203D2025642C2028627974E6
:1000800065735F23203D20307825303858290A00D9
:10009000A828002018280020882D0020B42800203F
:1000A0009C2800209E280020A4280020AE2F00209D
:1000B000706B745F72637664203D202564203A2063
:1000C000000000003C280020416C6C20496D6167F5
:1000D0006520706B747320726376642066726F6D36
:1000E00020536D6172745461672F566973696F6E26
:1000F0000A000000AE280020D43100205028002043
:10010000A8FA0100510200009628002050415353E4
:10011000574F52440A00000016280020696E7321D0
:10012000676D403F000000005345545F5245414C0D
:100130005F54494D455F434C4F434B0A000000005C
:1001400030280020524541445F415641494C4142CC
:100150004C455F554E524541445F4556454E540A05
:10016000000000004D4F444946595F4C4153545FD5
:10017000524541445F4556454E540A000A206C6181
:1001800073742072656164206576656E74203D200D
:1001900025640A0045524153455F414C4C5F45562A
:1001A000454E545F444154410A0000004745545FA6
:1001B0004556454E545F434F554E540A00000000CB
:1001C000524541445F494D4147455F444154410ACE
:1001D000000000008C28002010B50F4B06220721DC
:1001E000022000F051F910BD70B504460D46E0B292
:1001F00000F07CF8204670BD70B505460E46002420
:1002000004E0295D05A004F04FFE641CB442F8D35D
:1002100004A004F049FE70BD00E0D701307825301D
:10022000325820000D0A000010B5002819DAD44A0F
:1002300003071B0F083B9B089B00D2588307DC0E6B
:10024000FF23A3409A438B071B0E8407E40EA340B1
:100250001A43CB4B0407240F083CA408A4001A51EE
:1002600018E0C84A03231B02D21883089B00D25807
:100270008307DC0EFF23A3409A438B071B0E8407E2
:10028000E40EA3401A43BF4B032424021B19840825
:10029000A4001A5110BD00BFBB4880680128FBD1E3
:1002A0000020B9498860B9488069C0B2704770B50C
:1002B00004460D4601260AE02046641E002804DBA1
:1002C0007D20C000FCF7C0FF01E0002603E0AE483F
:1002D00080680128F0D100BF002C05DB0020AA496E
:1002E0008860AA4880692870304670BDA749C861F7
:1002F00000BFA549C9690129FBD10021A24AD161EA
:10030000704730B50346002528466D1C1C5C05E08F
:100310002046FFF7EBFF28466D1C1C5C002CF7D134
:1003200030BD70B503460C46002528466D1C1E5C8A
:1003300007E0601E84B23046FFF7D8FF28466D1CE8
:100340001E5C002CF5D170BDF8B507460C4615466D
:100350001E46204600F001F90021304600F006F963
:100360008A48C4604661069800280DD0384600F0DF
:10037000F4F80021284600F0F9F884480561876008
:10038000012082494031C862814880494862042086
:10039000086001207F498860086000207A498860F1
:1003A000401E7D498860812080004860022000F066
:1003B000CDF801210220FFF737FF022000F0B7F847
:1003C000F8BD10B501207349086000206E498860AF
:1003D000401E71498860812080004860022000F042
:1003E000B5F801210220FFF71FFF022000F09FF85F
:1003F00010BD10B50420654908600120654988607A
:10040000FFF7DFFF10BD10B5FDF78DFE012061493C
:10041000486000205C498860401E5F498860022077
:1004200000F094F8022000F089F810BD10B5022009
:1004300000F084F800210A2000F098F8002109203B
:1004400000F094F800210C2000F090F800210B201F
:1004500000F08CF80021062000F088F80021072029
:1004600000F084F800204B49886008600120C860D3
:100470004860002045490860022000F067F800202D
:10048000C0434549886010BDF8B504460D46164680
:100490001F4642480078A04200D1F8BD3F48047092
:1004A000022003F0AFF9FFF7C1FF284600F055F82E
:1004B0000021304600F05AF83448C5604661476272
:1004C000FFF797FF022003F09DF900BFE5E710B5A5
:1004D00000203349087033490870FA21324804F08B
:1004E00074FF10BD28488068002818D000202649D5
:1004F00088602C480078002811D102202B49087010
:10050000224880692849264A12788854244800786D
:10051000FA2804DA22480078401C214908701A4859
:10052000406A002802D00020174948627047C2067E
:10053000D20E01219140134A11607047C206D20EBB
:10054000012191400F4A803211607047C206D20EDD
:1005500001219140164A11607047032105221207BC
:1005600007231B02D2188300D150704710B58A00B0
:1005700005231B07072424021B1984001A5110BDF0
:100580001CED00E000E100E00021004000250040FB
:1005900000E0D7010020004000230040C0280020D8
:1005A000C2280020C3280020E8310020C1280020F4
:1005B00080E200E0F8B504460D4694480068002843
:1005C00013D0EAB22178914BA0681B689847064681
:1005D00000BF3746002F06D000BF8DA22821384625
:1005E000FCF74AFF00BF00BF0CE0012D04D12078CA
:1005F0000121A268904705E0002D03D12078002159
:10060000A2689047F8BDF8B5074669468C4800785F
:1006100000F0EFFA0646002E00D0F8BD002533E0CA
:100620000C20684387490968441887480068227885
:100630000121914008420FD0A06800280CD06078BA
:10064000012804D100212046FFF7B4FF1AE0012160
:100650002046FFF7AFFF15E07B4840682278012174
:10066000914008420ED0A06800280BD06078012885
:1006700004D101212046FFF79DFF03E00021204621
:10068000FFF798FF681CC5B2704800788542C7DB49
:1006900000BFC2E770B504460D466D48006800F023
:1006A000F4FF0646002E00D070BD67484460056028
:1006B000204628430246674801686548006800F004
:1006C000B3FF064600BFEFE7FFB583B006460C4612
:1006D0001746052F02D2072007B0F0BD5948066023
:1006E0005A4804705B48076048490698086000252E
:1006F00016E00C216143881902780092416801914B
:10070000019989000522120707231B02D318009ABA
:100710009200995000BF0278012191400D4300BF23
:100720002046611ECCB20028E3D14B4B2A46294615
:10073000434800F089F902900298002801D00298FD
:10074000CAE7464A0021424800F027FFC4E710B537
:100750003C480068002801D1082010BD38480078C6
:1007600000F0B7F9F9E710B536480068002801D164
:10077000082010BD3248007800F01AFA0446002C18
:1007800001D02046F5E73248006800F07EFFF0E730
:10079000F8B506460C462D480078864201DD072054
:1007A000F8BD0C20704327490968451825480068A2
:1007B000002801D10820F3E769462148007800F0BD
:1007C00018FA0746002F01D03846E9E76878002874
:1007D0000BD129780098C840C007C00F02D0002074
:1007E000207010E0012020700DE0687801280AD107
:1007F00029780098C840C007C00F02D0012020709F
:1008000001E0002020700020CAE70000D02800206E
:100810002E2E5C2E2E5C2E2E5C2E2E5C2E2E5C53ED
:100820006F757263655C6170705F636F6D6D6F6E25
:100830005C6170705F627574746F6E2E630000008F
:10084000D4280020C4280020DC280020C82800204C
:10085000D8280020CC2800209506020007060200B8
:10086000F0B502460C46002035E0012383401946CE
:1008700023460B422ED0D5680D4205D101235B04DF
:10088000D5680D43D56004E003231B04D5688D4370
:10089000D56005252D0707263602AD198600AD590E
:1008A00003263604B5430526360707273F02F61907
:1008B0008700F55105252D0707263602AD1986005C
:1008C000AD591D430526360707273F02F619870055
:1008D000F55100BF401C2028C7D3F0BDF0B585B04E
:1008E000EC4805690020EC49C86300263DE014206F
:1008F0007043EA49096844180120B040E849096892
:10090000084230D0E068C04368402168084007468C
:1009100039462046FFF7A4FFDE480069684003908F
:10092000039800280ED003980543E068C043684050
:1009300021680840009020460099FFF791FF009839
:10094000074300BFA068A843384001906068284072
:100950003840029001990298084303D02269019916
:100960000298904700BF701CC6B2CE4800788642FD
:10097000BDDB05B0F0BD10B50146002028E0142213
:100980004A43C64B1B689A58012383401A421ED023
:100990000522120707231B02D2188300D258032313
:1009A0001B049A4305231B07072424021B198400F8
:1009B0001A510522120707231B02D2188300D258AE
:1009C00005231B07072424021B1984001A51401C0D
:1009D0002028D4D310BD70B505460C46002C01D19B
:1009E000072070BD20468107890F01D1012100E059
:1009F0000021002901D10720F3E7A8480460AA4894
:100A000005700020A7490870A5490860A64800782D
:100A1000142250430146A148006804F0D8FC00208D
:100A2000C043A2498860062001218140A04A11608C
:100A300000BF012100F0F7F80620012181409D4A06
:100A4000116000BF0020CCE7F8B504460D461646FD
:100A50001F4692480068002801D10820F8BD002FE9
:100A600001D10720FAE78F4800788F49097888423A
:100A700001DB0420F2E7284630438A490978142232
:100A80005143864A126850508648007814214843E2
:100A9000824909684018456082480078142148431B
:100AA0007E490968401886607E48007814214843D2
:100AB0007A490968401807617A48007820707948B7
:100AC0000078401C774908702078FFF754FF002019
:100AD000C4E7F0B5024671480068002801D108203B
:100AE000F0BD70480078824201DB0720F8E7002063
:100AF000694BD8636748046969480068002802D1D7
:100B000058066A4B586001209040654B1B6818439B
:100B1000634B1860002314205043604D2D6840192A
:100B2000C360002140E001238B4018461423534347
:100B30005A4D2D68EB58034235D02546054202D068
:100B400003231B040EE001235B0414255543534E7D
:100B50003668AD19ED680543142656434F4F3F687C
:100B6000F619F56005252D0707263602AD198E000A
:100B7000AD5903263604B5430526360707273F023D
:100B8000F6198F00F55105252D0707263602AD19F8
:100B90008E00AD591D430526360707273F02F6197B
:100BA0008F00F55100BF491C2029BCD3002097E7D6
:100BB00010B5044639480068002801D1082010BD4E
:100BC00038480078844201DB0720F8E72046FFF729
:100BD000D2FE0120A04032490968814330480160BB
:100BE0000068002803D10120C00730498860002038
:100BF000E5E710B5024629480068002801D1082021
:100C000010BD28480078824201DB0720F8E7142055
:100C10005043224C246803191E4800691C68204078
:100C200008600020ECE710B5002819DA224A030713
:100C30001B0F083B9B089B00D2588307DC0EFF2349
:100C4000A3409A438B071B0E8407E40EA3401A436C
:100C5000194B0407240F083CA408A4001A5118E0FB
:100C6000144A03231B02D21883089B00D25883071F
:100C7000DC0EFF23A3409A438B071B0E8407E40E70
:100C8000A3401A430B4B032424021B198408A4001D
:100C90001A5110BD0005005040610040E4280020BA
:100CA000E8280020ED280020EC2800200063004008
:100CB00080E200E000E100E01CED00E010B500285B
:100CC00019DAF74A03071B0F083B9B089B00D25811
:100CD0008307DC0EFF23A3409A438B071B0E840778
:100CE000E40EA3401A43EE4B0407240F083CA4086B
:100CF000A4001A5118E0EB4A03231B02D218830800
:100D00009B00D2588307DC0EFF23A3409A438B0736
:100D10001B0E8407E40EA3401A43E24B0324240273
:100D20001B198408A4001A5110BD10B50446DE48F2
:100D3000846003211120FFF7C1FF10BD10B5012011
:100D40000004DA494860D94940394860112000F070
:100D5000E7FC112000F0D6FC0120D54908602F20C7
:100D6000FCF782FA0120D349087010BD10B511209C
:100D700001218140CB4A8032116000BF0120000474
:100D8000CA498860C949403988600120C84948601B
:100D90002F20FCF769FA0120C54988600020C64968
:100DA00008602F20FCF760FA0020C249087010BDCF
:100DB000F0B5024628205043C04B1B68C118C048FC
:100DC0000068401C02D1BE48026057E0BC488B68F6
:100DD000006828246043B94C246800198068834265
:100DE00017D8B748006828235843B44B1B68C0186D
:100DF00080688B68C31AB248006828246043AF4CEF
:100E0000246800198360AE4800684862AC480260FC
:100E100034E08B68AA4D2C6828680DE028254543EE
:100E2000A64E3668AD19AD685B1B044628254543C0
:100E3000A24E3668AD19686A451C07D0282545437F
:100E40009E4E3668AD19AD689D42E7D3451C0CD067
:100E500028254543994E3668AD19AD68EE1A282508
:100E60004543964F3F68ED19AE608B604862282578
:100E70006543924E3668AD196A6200BFF0BDF8B5A1
:100E800006468F4805682C4609E0B44200D108E0C8
:100E9000254628206043894909684018446A601C37
:100EA000F3D100BF601C00D1F8BDA5420FD184482A
:100EB000006828214843814909684018406A8049F0
:100EC000086008460068401C01D1FFF74FFF28204A
:100ED00060437A4909684018876828206043774949
:100EE00009684018416A28206843744A12688018CB
:100EF000416228206843714909684018446A601CAF
:100F00000CD0282060436D49096840188068C119D9
:100F100028206043694A12688018816000BFC3E7D7
:100F200010B5112000F0F5FB10BD10B5142000F035
:100F3000F0FB10BD70B5044662480068002813D06D
:100F4000604A216AE06912689047054600BF2E4654
:100F5000002E07D000BF5CA2FF2164313046FCF7B1
:100F60008BFA00BF00BF02E0E169206A884770BDCC
:100F7000F8B553480068401C39D0002700F002FC47
:100F800004464D480168204600F0FFFB06464C48E9
:100F9000056811E028206843484909684418A0689A
:100FA000B04200D90AE0A068361AA068C719656A7D
:100FB0002046FFF7BFFF00BF681CEBD100BF4E48C3
:100FC00000784E490978884209D14C480078401C85
:100FD000C0B24A490870022801D100200870474871
:100FE0000078800046490F50FFF79FFF00BFF8BD13
:100FF000014641480078414A127890421DD03E484F
:101000000078401C3C4A107010460078022801D13C
:1010100000201070384800788000394A1058086065
:10102000254A086812688018234A10601046006834
:101030000002000A1060012070470020086000BF15
:10104000FAE7FEB51E48006801902E48007800902F
:1010500076E00098C0002C490968441825786BE0B8
:101060001820684361680F18681CC5B2A078A842B0
:1010700000D100253868022802D0032859D145E064
:101080002821786848430D4909684618307E0028B1
:1010900004D07868FFF7F3FE002030764AE00000C5
:1010A0001CED00E000E100E00015014040130140AC
:1010B000001001401429002000290020F028002001
:1010C000FC280020102900202E2E5C2E2E5C2E2EB7
:1010D0005C2E2E5C2E2E5C536F757263655C6170A6
:1010E000705F636F6D6D6F6E5C6170705F74696D62
:1010F00065722E63000000000C2900200D290020DD
:1011000004290020F5280020F82800200CE0FE49E2
:10111000096828225143FD4A126888180021017687
:10112000F94A416A116000BFF7480068401CEED1DF
:1011300000E000BF00BF00BF6078A84290D100BFB0
:101140000098411EC9B20091002882D1EE48016882
:101150000198814201D00120FEBD0020FCE7F0B5DE
:101160000346002426E0E84E366828277E43E74FF2
:101170003F68F01986689E4203D98668F61A866031
:101180001CE086689B1B86683419002686600676FC
:10119000DD4E3568DC4F466A3E604669002E08D059
:1011A0000E193602360AC66046690661166846623E
:1011B000156000BFD4480068401CD4D100BFF0BD0A
:1011C000FEB50746D04800680290D14800780190EB
:1011D00069E00198C000CF49096845185CE0781CB7
:1011E00007D03E4628207043C84909684418676AFA
:1011F00023E02978182359436A6850182978491C34
:1012000029702978AA78914201D100212970466875
:1012100028217143BD4A12688C180168012902D146
:10122000217E002900D037E08168E160C16821613A
:10123000016961614169216200BFB749E0680968DD
:10124000401A0002000AB549884208D2B249E06853
:10125000096800F09AFA21694018A06011E0AE48D0
:10126000E168006800F091FA0090216900988142DD
:1012700004D921690098081AA06001E00020A0604C
:1012800000BF0020E060206101202076801E6062A7
:101290003046FFF78DFD00BF781CA0D12878697813
:1012A00088429CD100BF0198411EC9B2019100281B
:1012B0008FD1954801680298814201D00120FEBD7E
:1012C0000020FCE7FEB590480068401C34D08E48F2
:1012D0000068282148438D4909684018856800F056
:1012E00051FA01908C4804682146019800F04DFAAB
:1012F000C61C8B480078002801D1FFF71FFDAE42C5
:1013000001D2284600E0304604192402240A20466F
:101310008449086000BF00F035FA009001990098F8
:1013200000F033FAC71C2046019900F02EFA8742DC
:1013300001D9FFF7F5FD01E0FFF718FDFEBDFEB591
:101340000020C0430190744804686F4807686846ED
:10135000FFF74EFE0546FFF774FE0646002D05D04A
:1013600001AA21460098FFF7FAFE01260198FFF72F
:1013700027FF002800D00126002E02D03846FFF7B4
:10138000A1FFFEBD4170704770B502460B46507814
:10139000411C9078884200D100211078884201D108
:1013A000002070BD196050781826704355682C18BD
:1013B0002046F6E7FFB581B005460E461746E90020
:1013C000544A126888186946FFF7DEFF0446002C6D
:1013D00002D1042005B0F0BD01202060666000F05D
:1013E000D1F9A060E760049820610A986061E90083
:1013F000484A126888180099FFF7C4FFFFF795FD67
:101400000020E7E7F8B504460E46E100414A1268BD
:1014100088186946FFF7B8FF0546002D01D1042062
:10142000F8BD022028606E60E1003A4A1268881810
:101430000099FFF7A7FFFFF778FD0020F0E738B528
:101440000446E100334A126888186946FFF79CFF9A
:101450000546002D01D1042038BD03202860001F5F
:101460006860E1002B4A126888180099FFF78AFF2C
:10147000FFF75BFD0020EFE710B500202A49086068
:101480000021294841608160C1600020264940391F
:1014900008604860FFF76CFD10BD10B5FFF74FFF07
:1014A00010BDFFB581B00E4617461C462046810789
:1014B000890F01D1012100E00021002902D107207C
:1014C00005B0F0BD002C01D10720F9E7FFF74EFC75
:1014D00016490A980860164806700C4804600025F2
:1014E0000CE0002128206843084A12681150282087
:1014F0006843064A1268801801766D1CB542F0DB1D
:1015000028207043041915E0FC280020F028002052
:10151000F5280020F828002000290020FFFF7F0088
:1015200014290020401501404011014010290020DD
:10153000F428002003209749087097480460183465
:1015400000250CE0E900944A126888180021017017
:10155000417087704460182179430C196D1C032D6C
:10156000F0DB0020C0438D49086000208C490870E2
:101570008C490870142000F0D3F803211420FFF7E1
:101580009DFB142000F0BEF80198FFF7CEFB00F0A1
:10159000F9F885490860002092E770B503460C46CB
:1015A00082480068002801D1082070BD002A01D1BE
:1015B0000720FAE7002B01D10720F6E700211CE005
:1015C00028204843794D2D682858002814D101253A
:1015D00028204843754E3668355028204843734DBF
:1015E0002D684019446028204843704D2D684019EB
:1015F000C26119600020D8E7491C6D48007881421B
:10160000DEDB0420D1E710B500F092F8012802D00B
:10161000032804D101E0002403E0012401E00224B6
:1016200000BF00BF204610BDFEB504460D4616465D
:101630005E480068002801D10820FEBD5C480078A3
:10164000844201D2052D01D20720F6E7282060430D
:10165000564909680858012801D00820EDE72820DC
:1016600060435249096840184068012801D1284662
:1016700000E000200746FFF7C6FF3B462A4621460A
:1016800000960190FFF796FED7E770B504464748ED
:101690000068002801D1082070BD454800788442C8
:1016A00001D30720F8E7282060434049096808581B
:1016B000012801D00820EFE7FFF7A5FF05462146E6
:1016C000FFF7A0FEE8E710B538480068002801D110
:1016D000082010BDFFF797FF0446FFF7B0FEF8E7BC
:1016E00010B5044600F04EF82060002010BD70B523
:1016F00005460E4614463146284600F046F820605E
:10170000002070BDC206D20E01219140294A11600D
:101710007047C206D20E01219140274A11607047DE
:10172000C206D20E01219140234A803211607047D7
:1017300010B522484068C105C90D002920D00A46CD
:10174000103A104600280DDA1C4B1C330407240FF6
:10175000083CA408A4001B598407E40EE3401B06C0
:101760009B0F0BE0134B032424021B198408A400D5
:101770001B598407E40EE3401B069B0FD8B210BD33
:101780000420FCE70E48406870470246501A0002E9
:10179000000A7047F5280020F8280020FC280020C7
:1017A0000C2900200D29002000290020F02800200D
:1017B000F428002000E100E000E200E000ED00E09D
:1017C0000015014070B506460C46154629462046D0
:1017D000FBF766FE70BDF8B559480078002800D1C7
:1017E000F8BD58480068002801D1012000E0002021
:1017F000054655480068002801D1012000E000207E
:10180000064600BF002D14D1684651DF0446052C62
:1018100001D101250CE0002C06D000BF4BA26921AC
:101820002046FBF729FE03E04649009809688847EF
:1018300000BF002E1AD153480088009069465248D4
:10184000006861DF0446052C01D101260DE0002C63
:1018500006D000BF3DA280212046FBF70DFE04E02C
:101860004948006838490968884700BF002D02D000
:10187000002E00D000E0C5E700BF00BFB0E7FFB515
:1018800081B00C4616461F46002C02D1072005B039
:10189000F0BD20468107890F01D1012100E0002120
:1018A000002901D10720F2E7374804603548068057
:1018B000364807603649019810DF0546002D01D0F3
:1018C0002846E4E701201E49087016202EDFDEE7D7
:1018D00010B511DF0446002C01D0012000E00020EB
:1018E00017490870204610BD0146002901D10E207D
:1018F0007047154801600020FAE70146002901D130
:101900000E2070470F4801600020FAE770B51F48AD
:101910000068002811D01D4800688047044600BFB9
:101920002546002D07D000BF08A2FF2133312846ED
:10193000FBF7A2FD00BF00BF01E0FFF74CFF70BD49
:10194000182900202C290020282900202E2E5C2E6A
:101950002E5C2E2E5C2E2E5C2E2E5C536F757263C9
:10196000655C73645F636F6D6D6F6E5C736F6674DF
:101970006465766963655F68616E646C65722E6329
:101980000000000024290020202900201C2900201C
:10199000C517020001218200F74B9A5805231B024C
:1019A000D2181160704770B505460C46012D01D95B
:1019B000002070BD06216943F04A8818062221469E
:1019C00003F0A6FCA07800F0A9FFE07800F0A6FFE5
:1019D000207903218A0005231B07072636029B195D
:1019E00086009A5100BF607900F098FFA078A900A6
:1019F000E14A51580522120289188860E078A9004E
:101A0000DD4A5158052212028918C8602079A900C0
:101A1000D94A5158052212028918086160780006D7
:101A2000A900D54A51580522120289184862207827
:101A3000A900D14A51581522920189184861002104
:101A4000A800CD4A1058FF3001308160607900F065
:101A50006EFF2846FFF79EFFA800C7490858A8E771
:101A600030B503460020C64C2080002A01D0012B4F
:101A700001D9002030BD9800BF4C2058C14C2060D7
:101A800030E00020BE4C20800024BE480068FF30BB
:101A9000013084601078BB4C246805252D02641940
:101AA000E061521C04E0B6480088401CB44C208021
:101AB000B4480068FF3001308068002805D1B04884
:101AC00000887D246401A042EDDBAD4800887D24C0
:101AD0006401A04200D10AE0AA480068052424025B
:101AE0000019806908464C1EA1B20028C9D100BF68
:101AF0000120BFE730B503460020A14C2080002A1A
:101B000001D0012B01D9002030BD98009A4C2058FB
:101B10009C4C206031E00020994C208000249948A2
:101B20000068FF30013084600020964C2468052551
:101B30002D026419E06104E091480088401C904C3B
:101B4000208090480068FF3001308068002805D16F
:101B50008B4800887D246401A042EDDB8848008822
:101B60007D246401A04200D10CE086480068052471
:101B70002402001980691070521C08464C1EA1B244
:101B80000028C8D100BF0120BEE710B57B494879C5
:101B900000F0CDFE10BD10B57849487900F0CCFEBC
:101BA00010BD10B5D72078490870FFF7F4FF764ACA
:101BB00001210020FFF754FF00BF00207349087087
:101BC0000A460121FFF796FF7048007880210842FD
:101BD000F3D000BF00BFFFF7D8FF10BD70B50446BB
:101BE0000D461646FEF70FFC582067490870200284
:101BF000000E48702004000E8870CC70FFF7CBFFF9
:101C0000614A04210020FFF72BFF2A4631460020BD
:101C1000FFF726FFFFF7B9FFFFF7C3FFFCF74EFA08
:101C2000FEF7CFFB70BD7FB55948008859498842FF
:101C30004ED0084656490880002048800120000503
:101C40004860012008814881888100208873102223
:101C50005148FFF7C3FF0020504908704870002525
:101C60000EE00021EA004D48001D8154EA001018E2
:101C70004180EA004948001D10184160681CC5B247
:101C8000042DEEDB2422454943481030FFF7A6FF20
:101C900006224349434803F03BFB12224249414894
:101CA000801D03F035FB90203E4988773F4808624D
:101CB000242239483430FFF791FF012149023C4882
:101CC00003F085FB0122520239493A48FFF786FFAB
:101CD000394803F0E9F80122022138A003F0E4F8C2
:101CE0004B2201213BA003F0DFF8334803F0DCF87E
:101CF0002748018802223DA003F0D6F824484188F5
:101D0000022242A003F0D0F821480422416849A0F1
:101D100003F0CAF81E480189022250A003F0C4F85B
:101D20001B484189022259A003F0BEF81848818956
:101D3000022264A003F0B8F81548807B6E49087051
:101D40001348817B01226DA003F0AEF810211A48E0
:101D5000503003F0A9F8184803F0A6F80F480178AE
:101D6000012273A003F0A0F80C484178012277A06B
:101D700003F09AF8002513E13429002020330020D5
:101D8000302900203C290020E432002002330020CA
:101D90002C33002055AA000000EC0F003C3300203B
:101DA0002C8502006033002032850200FF9999994A
:101DB0008433002000EE0F00808502005B53504901
:101DC0005D3A204857203A205625645225640D0A72
:101DD000000000005B5350495D3A204657203A20EE
:101DE0005625645F25640D0A0D0A00005B535049B7
:101DF0005D3A20486561646572203D203078253069
:101E000034582C2025640D0A000000005B53504913
:101E10005D3A20546F74616C20496D616765205094
:101E200061636B6574203D2025642C2025640D0AB8
:101E3000000000005B5350495D3A20496D616765C1
:101E4000204D656D6F72792041726561203D2030B3
:101E500078253038582C2025640D0A005B535049F2
:101E60005D3A20536D617274204875622045766535
:101E70006E747320537461727420496E64657820A7
:101E80003D2025642C2025640D0A00005B53504939
:101E90005D3A20536D617274204875622045766505
:101EA0006E74732053746F72652053746172742062
:101EB000496E646578203D2025642C2025640D0A38
:101EC000000000005B5350495D3A20436C6F75641D
:101ED000204576656E74732055706C6F6164205375
:101EE0007461727420496E646578203D2025642CED
:101EF0002025640D0A0000004C2800205B53504947
:101F00005D3A20546F74616C20536D61727420448B
:101F1000657669636520696E2050696E67204C693B
:101F20007374203D2025642C2025640D0A000000D8
:101F30005B5350495D3A20496D616765206E756D50
:101F4000203D2025642C2025640D0A005B53504958
:101F50005D3A2075706C6F61645F696D675F232007
:101F60003D2025642C2025640D0A0000EE00AD48BC
:101F70003018EE004368AB4830184288EE00A9489C
:101F8000815DA9A002F090FF042302220121B6A0E6
:101F900002F08AFF0821B9A002F086FF681CC5B2D2
:101FA000042DE3DB2421BDA002F07EFFC94802F02E
:101FB0007BFF0623C84841790279C07803930192D8
:101FC00002910090C448837842780178C3A002F05F
:101FD0006BFFD2A002F068FF002407E0BE48801D1E
:101FE000015DD5A002F060FF601CC4B2122CF5D3D5
:101FF000D2A002F059FF0623B748407FB649097FB7
:10200000B54AD27E0393009201910290B248837E3A
:10201000427E017ECAA002F047FFAF48827F817FE7
:102020000123D7A002F040FFAB480422016AE0A0E0
:1020300002F03AFF2421E8A002F036FFA54802F0A2
:1020400033FFF2A002F030FF002431E02001F94913
:10205000401840792101F74A891809792201F54B86
:10206000D218D27800920191029020011E46801968
:1020700083782001801942782001315CEEA002F0C3
:1020800013FF1021200132468018C0680191009092
:1020900020018019836820018019C27920018019EC
:1020A000062141568B48943002F0FEFE601CC4B2FB
:1020B000EE4800788442C9DB01214902ECA002F01D
:1020C000F3FE844802F0F0FE7FBD70B504460D4675
:1020D00016460B20F44908702002000E48702004B8
:1020E000000E8870CC7000200871FFF754FDEE4A96
:1020F00005210020FFF7B4FC2A4631460020FFF7F7
:10210000F9FCFFF742FD2146E8A002F0CDFE314682
:102110002846FEF771F870BD10B59F20E24908709F
:10212000FFF739FDE04A01210020FFF799FCEA4A58
:1021300005210020FFF7DEFCFFF727FDFFF731FD4B
:1021400010BD10B53D20D84908702A204870802065
:102150008870A620C870FFF71EFDD34A0421002016
:10216000FFF77EFCFFF711FDFFF71BFD10BD10B55B
:102170000021DAA002F098FEE349E4A002F094FE08
:10218000ED49EEA002F090FE01210905F6A002F053
:102190008BFEFFF706FDFFF7D4FFFFF7BDFF102210
:1021A000FA49E548FFF791FF24221E49091FE2483A
:1021B0001030FFF78AFF24224749DF483430FFF709
:1021C00084FF012252029B49F148FFF77EFFFFF78F
:1021D0002AFD10BD10B50020C043EC490880102234
:1021E000D548FFF7FBFC7D20C000FBF74DF810BD84
:1021F00010B5044610222146E64803F03AF80028BC
:102200000FD1E54B062207210220FEF73DF9E3A09E
:1022100002F04AFEECA002F047FEFFF7DBFFFBF7FF
:1022200013F910BD403300205B5350495D3A2049FB
:102230006D672053746F726520537474203D2025A0
:10224000642C20496D6720506B74203D2025642C40
:1022500020496D6720416464203D20307825303866
:1022600058200D0A000000005B5350495D3A2025BC
:10227000642C2025642C2025640D0A005B535049F2
:102280005D3A20496D61676520537472756374759A
:102290007265203D2025640D0A0000005B53504903
:1022A0005D3A2053697A65206F6620546F74616CC3
:1022B00020496D616765205374727563747572652A
:1022C000203D202E2E2E2E2E25642E2E2E2E2E0D2F
:1022D0000A0D0A0080850200603300205B535049DC
:1022E0005D3A20536D61727420487562204D414300
:1022F00023203D2020253032583A253032583A25C7
:102300003032583A253032583A253032583A253052
:1023100032582C2025640D0A000000005B53504900
:102320005D3A20536D617274204875622053657266
:1023300069616C23203D2000256300000D0A000028
:102340005B5350495D3A20536D6172742048756249
:102350002050535723203D2020253032583A253035
:1023600032583A253032583A253032583A253032F0
:10237000583A253032582C2025640D0A0000000000
:102380005B5350495D3A20536D6172742048756209
:1023900020526573657420526561736F6E203D2015
:1023A000307825303258282564292C2025640A00ED
:1023B0005B5350495D3A20536D61727420487562D9
:1023C000205254432074696D65203D2030782530BB
:1023D00038582C2025640A005B5350495D3A20533D
:1023E000697A652053482044617461205374727582
:1023F0006374757265203D202E2E2E2E2E25642EA0
:102400002E2E2E2E0D0A0D0A000000005B5350499F
:102410005D3A20536D61727420446576696365206E
:1024200050696E67204C6973742044617461232085
:102430003D200000843300200D0A534423204D41E9
:10244000432041444452455353203D2025303258C7
:102450003A253032583A253032583A253032583AF7
:10246000253032583A253032582C20004C28002094
:102470005B5350495D3A53697A652050696E672015
:102480004C69737420446174612053747275637471
:10249000757265203D202E2E2E2E2E25642E2E2E7A
:1024A0002E2E0D0A0D0A0000E43200205B53504925
:1024B0005D3A205265616420436F6E66696775728C
:1024C0006174696F6E20506172616D657465723AF6
:1024D0002025303858000000023300205B5350495B
:1024E0005D3A204556454E545F444154415F535434
:1024F0004152545F504147455F41444420093D20CB
:1025000025303858200D0A0000EA0F005B5350496F
:102510005D3A204556454E545F444154415F454E17
:10252000445F504147455F414444093D20253038D0
:1025300058200D0A0000000000EC0F005B535049CA
:102540005D3A20434F4E4649475F53445F434C4FEB
:1025500055445F4944585F414444093D2025303883
:1025600058200D0A000000005B5350495D3A204995
:102570004D4147455F504147455F41444409090982
:10258000093D2025303858200D0A00002C3300204A
:1025900000EE0F006485020000E0D701496E76610D
:1025A0006C6964204576656E7420446174612046D0
:1025B0006F756E6420447572696E6720466C617336
:1025C0006820526561640A00536F66742052657317
:1025D000657420506572666F726D65640A00000054
:1025E000704710B5D749487900F0A1F9FFF7F8FF17
:1025F00010BD10B5D349487900F09EF9FFF7F0FF00
:1026000010BD70B506460C460025701E05010B2056
:10261000CD4908702802000E48702804000E88700A
:10262000CD70002008711021204602F0CEFEFFF789
:10263000E0FFC54A05210020FFF712FA22461021CB
:102640000020FFF757FAFFF7CCFFFFF7AAFA204662
:10265000FFF7CEFD70BD70B504460D46FDF7D3FE05
:102660000B20B94908702002000E48702004000EAB
:102670008870CC70002008712946B44802F0A5FE8D
:10268000FFF7B7FFB04A05210020FFF7E9F9AF4A8D
:1026900029460020FFF72EFAFFF7A3FFFFF781FA84
:1026A000FBF70CFDFDF78DFE70BD70B504460D46C1
:1026B000FDF7A9FE0B20A44908702002000E487007
:1026C0002004000E8870CC700020087129469F48B5
:1026D00002F07BFEFFF78DFF9B4A05210020FFF7EC
:1026E000BFF99A4A093229460020FFF703FAFFF79B
:1026F00078FFFFF756FAFBF7E1FCFDF762FE70BDCD
:10270000F8B504460E4615460027FFF74AFA0B2097
:102710008D4908702002000E48702004000E887059
:10272000CC70002008712946884802F04EFEFFF761
:1027300032FA854A05210020FFF792F9A9B2834AAF
:102740000020FFF7D7F9FFF720FA2A4631467F48E5
:1027500002F08FFD002800D10127002F09D17CA0B5
:1027600002F0A2FB7F4802F09FFBFFF733FDFAF770
:102770006BFE90207C498877F8BD70B504460D4605
:102780001646FFF70EFA58206F4908702002000E17
:1027900048702004000E8870CC70FFF7FCF96A4A7C
:1027A00004210020FFF75CF92A4631460020FFF79C
:1027B00057F9FFF7EAF920206B4988773246294616
:1027C0002046FFF79DFF70BD70B504460E461546C6
:1027D000002D00D170BDFFF7E4F958205A49087068
:1027E0002002000E48702004000E8870CC70FFF7A5
:1027F000D2F9554A04210020FFF732F93246294622
:102800000020FFF72DF9FFF7C0F9212056498877FE
:102810002A4631462046FFF773FF00BFDAE7F7B5D7
:1028200082B0044616460027002001900090002543
:10283000002E01D0002C01D105B0F0BD601E84B285
:102840002046E117C90E091849110191E117C90E77
:10285000091849114901611AC9B20091270100986C
:102860008019202803DD20210098081A00E0304656
:10287000C5B229463DA002F017FB58203249087026
:102880003802000E48703804000E8870CF70FFF7D1
:1028900082F92D4A04210020FFF7E2F829010020E7
:1028A000039AFFF7DDF8FFF770F9FFF77AF92A01CD
:1028B00038460399FFF724FFB5422DD0701BC5B2EF
:1028C0000198401C4702294628A002F0EDFA582042
:1028D0001D4908703802000E48703804000E8870D8
:1028E000CF70FFF758F9184A04210020FFF7B8F815
:1028F000701B030103981A1829010020FFF7B0F894
:10290000FFF743F9FFF74DF92A01701B0301039804
:1029100019183846FFF7F4FE00BF8DE703210522A2
:10292000120707231B02D2188300D15070470121E0
:102930008140114A91607047012181400E4AD16067
:102940007047000020330020E4320020F4370020DC
:1029500064617461207772697465206661696C6571
:10296000640A0000C8250200603300204576742305
:10297000203D2025640A00000005005010B500200D
:10298000F8490870F8480078002805D0FBF7BFFE2A
:10299000FCF781F9FCF707FA0020F44908701220CF
:1029A00000F014FFF24B062207210220FDF76CFD18
:1029B000F0A002F079FA10BD10B5122000F0FDFE73
:1029C000082000F0FAFEFFF7D9FF10BD10B508206F
:1029D00000F001FF7D20C00000F014FF082000F08F
:1029E000F5FE7D20000100F00DFF082000F0F3FE51
:1029F0007D20C00000F006FF10BD10B50120D949B0
:102A00000870D9480078002801D0FBF79AFE03200F
:102A1000D6490870122000F0DEFED54B06220721B1
:102A20000220FDF731FDD7A002F03EFA7D20C00064
:102A300000F0E8FE10BD10B5FBF740FBFDF7C1FC50
:102A4000FFF7DBFFFFF7C2FF10BD10B5FDF7DBFCA2
:102A5000FFF794FF0020CF490870C54B06220721DD
:102A60000220FDF711FD10BD70B5002500241AE00D
:102A7000E100C948405C012813D1C84802F014FAAB
:102A8000C548001F4470E100001D08184088C44973
:102A90004880E100C04808184068C14948600125E5
:102AA00003E0601CC4B2042CE2DB00BF284670BD0A
:102AB00010B5BC480078002872D0BB4800780028C8
:102AC00003D1BA48007800283ED0B74800780028E3
