:020000040001F9
:106000000037002069620100836201001F740100F3
:106010000000000000000000000000000000000080
:106020000000000000000000000000008762010086
:106030000000000000000000896201008B62010086
:106040008D6201008D6201008D620100A1CC010012
:106050008D6201000000000029A801008D6201008E
:106060008D6201008D6201008D6201008D62010070
:106070008D6201008D6201008D6201008D62010060
:106080008D620100ED9F01008D6201008D620100B3
:106090000FA001008D62010081A401008D6201004A
:1060A0008D6201008D620100000000000000000010
:1060B00000000000000000000000000000000000E0
:1060C00000F002F800F044F80CA030C8083824189A
:1060D0002D18A246671EAB4654465D46AC4201D120
:1060E00000F036F87E460F3E0FCCB646012633420E
:1060F00000D0FB1AA246AB4633431847D4960000A3
:10610000F49600000023002400250026103A01D355
:1061100078C1FBD8520700D330C100D50B6070475F
:1061200010B5642902D107F0AFFA10BD782902D169
:1061300007F0E0FA10BD732902D107F0F7FE10BD99
:10614000002010BD1FB5C046C0461FBD10B510BD14
:1061500008F000FC1146FFF7F5FF01F0A6FC08F07F
:1061600018FC03B4FFF7F2FF03BC08F06BFC00005F
:10617000401E00BF00BF00BF00BF00BF00BF00BF88
:1061800000BF00BF00BF00BF00BFF1D170470000DB
:10619000401E00BF00BF00BF00BF00BF00BF00BF68
:1061A00000BF00BF00BF00BF00BFF1D170470000BB
:1061B000401E00BF00BF00BF00BF00BF00BF00BF48
:1061C00000BF00BF00BF00BF00BFF1D1704700009B
:1061D000401E00BF00BF00BF00BF00BF00BF00BF28
:1061E00000BF00BF00BF00BF00BFF1D1704700007B
:1061F000401E00BF00BF00BF00BF00BF00BF00BF08
:1062000000BF00BF00BF00BF00BFF1D1704700005A
:10621000401E00BF00BF00BF00BF00BF00BF00BFE7
:1062200000BF00BF00BF00BF00BFF1D1704700003A
:1062300070B505460C46164602E00FCC0FC5103E61
:10624000102EFAD2082E02D303CC03C5083E042E2A
:1062500007D301CC01C5361F03E021782970641CE7
:106260006D1C761EF9D270BD03210C4802680A43EA
:1062700002600B4802680A4302600A4880470A48E5
:106280000047FEE7FEE7FEE7FEE7FEE7FEE7000069
:1062900006480749054A074B70470000240500409F
:1062A000540500404F630100C1600100002B002035
:1062B00000370020002B00202E482F49086070472F
:1062C0002E48008CC0B2012810D12C48808C0007C9
:1062D000000F0BD12948806AF0210840402805D1E1
:1062E0002648C06A084201D1012070470020FCE71F
:1062F0002248008CC0B2012827D12048808C00079A
:10630000000F22D11D48806AF021084205D11B48A8
:10631000C06A084201D1012070471848806AF02104
:106320000840102805D11548C06A084201D1012053
:10633000F2E71248806AF0210840302805D10F4862
:10634000C06A084201D10120E6E70020E4E710B569
:10635000FFF7CEFF002805D009480A494860C81356
:1063600009498861FFF7ACFF002802D001200749E6
:10637000886010BD0024F40000200020C00F00F051
:10638000DFFF07C000050040006C00400006004031
:1063900001F0F5FB04460D462A462146FC48FFF76E
:1063A000F7FF044600BFFBA26D212046FFF7F0FF78
:1063B0001FB500200090019002900390F8480078EB
:1063C00069460870F7480078002804D00878102142
:1063D000084369460870F4480078002805D06946EB
:1063E00008788021084369460870F04801786846BB
:1063F0004170EE480088011268468170EC480178CF
:106400006846C170EA4800880004010E68460171C0
:10641000E74800680002010E68464171E4480068E0
:10642000010E68468171E34801786846C171E14810
:1064300000880004010E68460172DE480068000210
:10644000010E68464172D648007804282FD1D648FC
:106450000078002815D0D848017868468172D6485F
:1064600000880004010E6846C172D348006800022B
:10647000010E68460173D0480068010E68464173FA
:1064800055E0CE48017868468172CC480088000407
:10649000010E6846C172C94800680002010E6846D4
:1064A0000173C6480068010E684641733FE0BC486E
:1064B0000078072820D1C248017868468172C04818
:1064C00000880004010E6846C172BD4800680002E1
:1064D000010E68460173BA480068010E68464173B0
:1064E000B8480068B6490968441A684684732004AD
:1064F000010E6846C1731AE0B3480178684681729C
:10650000B14800880004010E6846C172AF480178A6
:1065100068460173AE48017868464173AC4800880C
:10652000011268468173AB4801786846C1736946B9
:106530009E4805F0F5FB1FBD1FB50020009001909F
:10654000029003906946087096480078002804D0AD
:106550000878102108436946087094480178684615
:106560004170924800880112684681709048017815
:106570006846C1708E4800880004010E68460171AB
:106580008B4800680002010E684641718848006827
:10659000010E68468171874801786846C171854857
:1065A00000880004010E68460172824800680002FB
:1065B000010E6846417284480178684681728248BB
:1065C00000880004010E6846C17280480178684660
:1065D00001737F480178684641737D480088011245
:1065E000684681737B4801786846C17369467A487A
:1065F00001F046FE1FBD10B5012004F0DFFC04F0E1
:10660000C4FE012004F0D5FD10BD30B5A3B00621B5
:1066100000914C2168460182172181826F490691C1
:10662000382115A807F0DDF9002110A88175012196
:1066300001836946179104A82090382107A807F024
:10664000D0F967496846818001210181654903913C
:106650000221017701A81390012110A8017407A954
:1066600015A802F06CFF044600BF2546002D06D099
:1066700000BF48A24321C9002846FFF789FE00BF9A
:1066800023B030BD10B549480088401C47490880F8
:10669000002043490870FFF78BFE444800885249A8
:1066A00088421ADB00204149088050480078C00722
:1066B000C00F06D14D48007840084000401C4B49AF
:1066C00008704A4800788007C00F06D14748007814
:1066D00002218843801C45490870424800784008E0
:1066E0004000401C3F490870FFF78FFF04F04DFE4B
:1066F00010BD10B52B480078002804D0FFF785FFA7
:10670000FFF779FF3AE029480088401C27490880B4
:10671000042023490870012004F050FCFFF748FED4
:10672000012004F046FD214800882F4988421ADBE9
:1067300000201E4908802D480078C007C00F06D1F0
:106740002A48007840084000401C28490870274823
:1067500000788007C00F06D12448007802218843C2
:10676000801C224908701F48007840084000401CE7
:106770001C490870FFF749FFFFF73DFF00201C4947
:1067800008701C480088202188431A49088010BDE1
:10679000EFBEADDE2E2E5C6D61696E2E63000000D3
:1067A0001B2000202D20002031200020442100202B
:1067B000482100204C210020802000205021002072
:1067C0004020002044200020702000207420002061
:1067D000762000203A2000203C27002004200020C2
:1067E000839E000064200020A0FE000058210020AD
:1067F000202000203C20002010B5F7480088401CD5
:10680000F54908800420F5490870012004F0D6FB02
:10681000FFF7CEFD012004F0CCFCEF480088F049E2
:1068200088421ADB0020EC490880EE480078C00757
:10683000C00F06D1EB48007840084000401CE949F1
:106840000870E84800788007C00F06D1E548007856
:1068500002218843801CE3490870E348007840081F
:106860004000401CE04908700846007880218843B9
:106870008030DD490870FFF7C8FEFFF7BCFE00203E
:10688000DA490870DA480088012189028843D8492A
:10689000088010BD10B5D0480088401CCE49088043
:1068A000D4480068D44908600720CC49087001200A
:1068B00004F084FBFFF77CFD012004F07AFCC6485D
:1068C0000088C74988421ADB0020C3490880C548B0
:1068D0000078C007C00F06D1C248007840084000C9
:1068E000401CC0490870BF4800788007C00F06D11F
:1068F000BC48007802218843801CBA490870BA4815
:10690000007804218843001DB7490870FFF77DFE19
:10691000FFF771FE0020B949087010BD0120B84989
:106920000860B849086000BFB74800680028FBD07D
:106930000020B5490860B2488068B4490880012049
:10694000B04948600020AE490860B0480088B049AE
:106950000870704710B5032001F01AF9032001F008
:1069600020F910BD10B50446A2480068401CA1499A
:1069700008600120A7490870A7480078002815D0B2
:10698000A648407C002811D10320012383401946EA
:10699000A34B5B68C340DA07D20F002A02D1A04B99
:1069A000996001E09E4BD96000BF00BF9B4820303A
:1069B000407A002803D09948407C01280ED14B2111
:1069C000C9008C48006807F00EF8002906D19548E8
:1069D0000078002802D1012092490870924800787E
:1069E000002829D091480078002825D08F480078C9
:1069F000401E8E4908700846007800281CD10220ED
:106A000001F0D9F8002814D184482030407A0028B9
:106A10000FD10121814820304172012004F0CEFACB
:106A200004F0B3FC04F0FBFD012004F0C2FB01F014
:106A3000A6F800207C49087010BD01F0A0F8F8B558
:106A400000BF7B487B4B092208210090002003F007
:106A5000E2FA054600BF2E46002E06D000BF764A59
:106A6000FF21C5313046FFF793FC00BF00BF734ADA
:106A70000121734803F04BFB044600BF2546002D5F
:106A800006D000BF6C4AFF21C8312846FFF780FCC2
:106A900000BF6C4A01216C4803F039FB044600BF7B
:106AA0002546002D06D000BF634AFF21CB31284682
:106AB000FFF76EFC00BFF8BD3EB500BF684600782A
:106AC00001090901491C009168460078F0218843BA
:106AD0001030009000BF12225049123168467CDF0E
:106AE000044600BF2546002D06D000BF524AFF21B4
:106AF000DE312846FFF74CFC00BF0120400278DF62
:106B0000044600BF2546002D06D000BF4A4AFF219B
:106B1000E2312846FFF73CFC00BF002001900290C4
:106B20000C21684681802021C1800021018128211B
:106B3000418101A87ADF044600BF2546002D06D01A
:106B400000BF3D4AFF21EC312846FFF721FC00BF82
:106B5000042077DF044600BF2546002D06D000BF85
:106B6000354AFF21EF312846FFF712FC00BF3EBD3A
:106B700030B589B0202101A806F033FF1421334835
:106B800006F02FFF1421324806F02BFF14222F4964
:106B900005A801F0BCFB14222D4907A801F0B7FBA2
:106BA0000020019004902B48029001A92A4801F08E
:106BB000F7FA044600BF2546002D05D000BF1E4A47
:106BC00026492846FFF7E4FB00BF09B030BD10B5E9
:106BD000FFF7CEFF10BD0000442100201B20002045
:106BE000A0FE000058210020642000203120002059
:106BF0003C200020482100204420002027200020A5
:106C00000075004000700040007100407C200020B2
:106C10003A200020282000201F200020482A0020A1
:106C200000050050322000202C20002048200020A9
:106C3000C57B0100A4210020946701006569010063
:106C4000682000203B6A01006C20002014270020EF
:106C500028270020A36301003C2700202E0200000B
:106C60001E20F84908800846807840084000401CF3
:106C700088700846807802218843F2498870084667
:106C800080781C2188430C30EE4988700846807853
:106C900020218843EB4988700720C87010200871B4
:106CA000704770B505462878002810D13B21E6488A
:106CB000008876DF044600BF2646002E06D000BFBF
:106CC000E24A4B21C9003046FFF762FB00BF70BDAE
:106CD000044600BFDD4ADE492046FFF759FB30B5C8
:106CE00087B01C21684606F07CFE0020009005203D
:106CF000C003019002900321684601730021C18105
:106D00000174D4480590D4480690684606F0DBFA32
:106D1000044600BF2546002D06D000BFCB4ACC4913
:106D200017312846FFF734FB00BF07B030BD70B500
:106D3000CA480078002813D0C948006803F05FFAF9
:106D4000044600BF2546002D06D000BFBF4AC049FB
:106D500023312846FFF71CFB00BF0020BF49087005
:106D600070BD70B5BD480078002816D10022012101
:106D7000C903BB48006803F011FA044600BF25466A
:106D8000002D06D000BFB14AA52189002846FFF793
:106D9000FFFA00BF0120B149087070BD70B5B1485D
:106DA0000078002813D0B048006803F028FA0446A1
:106DB00000BF2546002D06D000BFA44AA9218900A6
:106DC0002846FFF7E5FA00BF0020A649087070BD0D
:106DD00070B5A4480078002816D100220F2189043C
:106DE000A148006803F0DAF9044600BF2546002DEB
:106DF00006D000BF954A96494E312846FFF7C8FA9B
:106E000000BF01209749087070BD10B597480488ED
:106E1000142C00D814249648844200D30446200140
:106E20000A2106F0E0FD9349088010BD30B585B019
:106E30008E482030407A002801D105B030BD1421A1
:106E4000684606F0CEFD00216846017000200190E2
:106E500068460172874801886846018200214182A4
:106E600073DF044600BF2546002D06D000BF774AD9
:106E700077497A312846FFF78BFA00BF7E480078C1
:106E8000002802D101207C49087000BFD5E710B569
:106E9000152000F090FE01280AD1784800781021D2
:106EA000884310307549087001207549087008E062
:106EB000724800781021884370490870002070499A
:106EC000087010BD7CB500200090019069460870E4
:106ED000062266492C3900A8013006F023FD6946D8
:106EE000002070DF044600BF2546002D05D000BFFE
:106EF000564A64492846FFF74BFA00BF7CBD70B57F
:106F000003F0CDFB044600BF2546002D06D000BF90
:106F10004E4A0921C9012846FFF73AFA00BF70BD61
:106F200070B503F0C8FB044600BF2546002D06D00F
:106F300000BF464A9121C9002846FFF729FA00BF41
:106F400070BDF8B505462888142876D006DC1028D0
:106F50000BD0112825D0132870D148E017286ED007
:106F600019286DD05228F7D154E0A88836490880F6
:106F7000142045490870002044490870FFF7D0FFED
:106F8000FFF726FF3C480078002802D000203A494D
:106F900008703F480078002802D101203C49087061
:106FA000AAE00020C043284908803948007800281A
:106FB00002D0002036490870032000F0F7FD0020C1
:106FC00031490870314908702F494870FFF797FF21
:106FD000FFF71BFFFFF770FDFFF774FFFFF757FF89
:106FE000FFF713FBFFF722FFFFF7D8FE84E0154AF7
:106FF0000021154800887FDF044600BF2746002F88
:1070000006D000BF114A1249C4313846FFF7C0F913
:1070100000BF71E0002211460B480088A9DF04463A
:1070200000BF2746002F06D000BF084ACB218900A9
:107030003846FFF7ADF900BF5EE031E05BE029E0E4
:1070400058E00000842000204A20002094670100BE
:1070500063020000A36C0100D16C01001C20002021
:10706000682000201D2000206C200020482A0020DD
:10707000102700007A2000201E200020642000201D
:107080002D20002096040000632100208021002094
:107090001F2000203222A91DF94806F043FC2BE0F6
:1070A000F74EB61D3188E889814211D10022314660
:1070B000F448008881DF044600BF2746002F06D031
:1070C00000BFF14A6721C9003846FFF761F910E0B7
:1070D00000221146EB48008881DF044600BF2746A6
:1070E000002F05D000BFE84AE8493846FFF750F9BD
:1070F00000BF01E000E000BF00BFF8BD10B50446CE
:107100002046FFF71EFF204606F0B7F92146E0486B
:1071100000F086FF10BD10B50446204601F095FB37
:1071200010BDF8B500BF00235022DA49082003F053
:1071300060F9054600BF2E46002E06D000BFD24A99
:10714000D24934313046FFF723F900BF00BF002099
:1071500000900090684660DF044600BF2546002D81
:1071600006D000BFC84AC9493B312846FFF710F98D
:1071700000BFC94803F072F9044600BF2546002D40
:1071800006D000BFC04AC1493F312846FFF700F989
:1071900000BFC24803F06BF9044600BF2546002D2E
:1071A00006D000BFB84AB94943312846FFF7F0F886
:1071B00000BFF8BD70B500BFB94A0A21082002F02F
:1071C00007FA044600BF2546002D06D000BFAE4A90
:1071D000AE494B312846FFF7DBF800BF00BF70BD5A
:1071E00070B504460D46012D37D1022C22D00D2C4E
:1071F00002D0152C29D103E00120AA4908702BE008
:107200000020A94908700120A8490870A8480088F2
:1072100020210843A6490880A64800781021884309
:10722000A44908700020A4490870A4490870FFF719
:10723000ECF911E0A2480078002805D10120A0490E
:10724000087002209F49087006E000BF8E4A8F49EF
:1072500075312046FFF79CF831E0002D2FD1022C2C
:1072600024D00D2C02D0152C21D103E000208D4913
:10727000087023E001208C4908708C4908708C4804
:107280000088202108438A4908808A480078102114
:1072900088431030874908708B4800688B49086024
:1072A000012085490870FFF7B0F907E006E000BF4C
:1072B000754A764995312046FFF76AF800BF70BDE0
:1072C00070B500BF8249012003F02BFB044600BFCC
:1072D0002546002D06D000BF6B4A6C49AD312846CB
:1072E000FFF756F800BF00BF70BD70B500BF794B07
:1072F000794A0321794803F090F9044600BF2546F6
:10730000002D06D000BF604A6049C0312846FFF713
:107310003FF800BF00BF70BD70B540DF044600BF3E
:107320002546002D06D000BF574A5849C931284686
:10733000FFF72EF800BF70BD10B50F2000F028FC3D
:10734000102000F025FC102000F02BFC6448FEF714
:107350000FFF102000F02AFC0F2000F022FC6048F4
:10736000FEF706FF0F2000F021FC10BD08B500203D
:1073700006231F2207210090202005F007FF08BDEB
:1073800008B5584800680090684605F01BFE08BD27
:107390001CB55449091D03C901910090694601209B
:1073A00003F015FE1CBD10B50020C0434E49C86156
:1073B000002409E00220052109070722120289188A
:1073C000A2008850601CC4B2202CF3DB162000F011
:1073D000DFFB162000F0E5FB10BD18204349486094
:1073E000002043490860704710B503F0DDFC3C48BD
:1073F000FEF7BEFE10BD10B500240DE0032000F026
:10740000D0FB3C48FEF7B4FE032000F0CFFB394828
:10741000FEF7AEFE601CC4B2032CEFDB10BD00F023
:10742000AEFB10B534480078002804D1334800780A
:10743000002800D110BD32480078002866D0FFF740
:10744000C7FC05F0BBFD7D20C000FEF791FE03F0F8
:1074500082FC00202B4908704870294908701448A4
:107460000088FF2101318843114908800120264905
:1074700008700F480088802108430D490880E1E02A
:10748000CC2500204A200020946701003E03000024
:107490003C27002000260020FD700100177101002C
:1074A00050260020262000202D2000202020002013
:1074B0003C200020642000202F20002030200020CD
:1074C0002C200020482000204821002050210020AE
:1074D00000270020DB7B0100660600004C20002016
:1074E000A086010058F6010000050050007500401C
:1074F0000071004020A107002A2000202E2000203B
:10750000242000202B21002022200020FE4800788B
:1075100000284ED003F0C4FB7D20C000FEF728FEFB
:1075200003F088FBF948007800282CD00121F848A6
:1075300000780002F64A52781043F64A108010464E
:10754000008800111080C8021288104206D0F1484D
:1075500000880F2212031043EE4A1080ED48008885
:1075600000B2ED4A1080104600880A22504300B253
:10757000E94A10800020105EC217120F1218121173
:10758000E54B1A8000BF0020E14908704870DE49D1
:107590000870E248008880218843E0490880012083
:1075A000DF490870DD48008840210843DB49088036
:1075B00048E0DB480078002844D0DA48FEF7D8FDE0
:1075C00003F0B4FBD1480078002815D00020D6493C
:1075D0000880CF4840780002CD4909780843D24955
:1075E000088009887D22D20051430846C917090C3A
:1075F00009180914CC4A11800020C9490870C748ED
:10760000008840218843C549088003F0B9FBC7487A
:107610000078002807D0FFF781F9FEF78DFF0020E2
:10762000C24908700CE0012003F0C8FCFFF72AF8FB
:10763000012003F0BEFDFFF7B1FB0020BC4908703C
:1076400005F01AFD00BFF5E610B5BA48007800282D
:1076500013D0B9480078002803D000F0F5FB00F003
:107660008EFA04F0A4FE0020B2490870AB480088EE
:1076700040084000A94908804EE0B0480078002842
:1076800015D0AF48407C002807D1AD482030407A63
:10769000012802D1FFF72DF83EE00020A74908702D
:1076A0009E480088202188439C49088034E0A548F2
:1076B0000078002816D0A248407C002807D1A048B6
:1076C0002030407A012802D1FFF796F824E000200C
:1076D0009C490870914800880121890288438F499C
:1076E000088019E098480078002815D001209749B3
:1076F00008708A480088FF210131084387490880C3
:1077000000209149087085480088102188438349EA
:1077100008800120854908708D480078002820D114
:107720008C480078002803D080480078002818D0C2
:107730008348407C002807D181482030407A0128C6
:1077400002D1FFF76EFE0CE00020804908707348FC
:107750000088FF2101318843704908800020744966
:10776000087010BD10B574480078002800D010BD16
:107770007348407C012800D1F9E771482030407AF5
:10778000002800D1F3E774480078002822D073481D
:10779000007800281ED10120704908706C480078DC
:1077A00000280BD101206A4908706D4800784021FB
:1077B000884340306A490870FEF727FF694800781F
:1077C000002826D16848006868490860012065499A
:1077D00008701EE06148007801281AD10D2000F0E1
:1077E000EAF9012815D100205C4908705A4908704F
:1077F000FFF750F85648007800280AD00020544976
:107800000870574800784021884355490870FEF7B2
:10781000FCFE00BFABE770B555480078002811D0DA
:1078200074DF044600BF2546002D05D000BF514A35
:1078300051492846FEF7ACFD00BF00204C490870B6
:107840004E49087070BD10B549480078002812D123
:107850004048007800280ED1FFF7D7FAFFF72CF93F
:10786000FFF730FBFFF713FBFEF7CFFEFFF7DEFA63
:1078700001204249087010BD70B5002540480078CD
:1078800000283FD03F48007800281BD03E480078B1
:10789000002817D1344800683C490968401A782804
:1078A00010D301203849087038480068384908600A
:1078B00001202449087019480088012189020843E1
:1078C0001649088033480078002808D021480078FD
:1078D000002804D1FEF78FFE00202E4908703C21BD
:1078E0002148006806F07FF8002969D11448203843
:1078F000057D3C214D4329461B48006806F073F87E
:10790000002949E0D0E00000222000207D21002055
:107910002B21002072200020702000203C2000201D
:107920002320002060AE0A00762000202A200020BC
:107930002E2000205C21002060210020202000203B
:10794000482A00203120002021200020242000206F
:10795000292000201F200020262000203920002080
:107960006420002027200020482100204020002003
:107970001E20002094670100940600002B200020A8
:10798000282000202F20002030200020502100201F
:10799000802000203220002012D1AE48007800283C
:1079A0000ED1FEF7BBFF0120AB490870AB48008841
:1079B000FF2101310843A94908800120A549087029
:1079C000A748007800280CD0A6480078002808D1E5
:1079D000FFF7A6FA03F094FAFFF791FA0020A04906
:1079E0000870A1480078002811D09F490878C10F7D
:1079F000091849104900411A02D100F0B9F901E013
:107A000000F0C1F998480078401E974908709748DF
:107A1000407A012805D196480078002801D1FFF767
:107A200012FF9248407A002805D19148007800283A
:107A300001D0FFF7F0FE002431E0002C02D0012C31
:107A40002AD116E08B480078002811D089480078A8
:107A5000401E0006000E8749087009D1864800784C
:107A6000002805D17F480078002801D005F04FFD9F
:107A700012E08048407800280DD07E484078401EB3
:107A80000006000E7B49487005D176480078002832
:107A900001D005F03CFD00BF00BF601CC4B2022C49
:107AA000CBDB00207549087070BDFFF77CFCFEF74A
:107AB00051FFFFF741FCFFF790FCFEF7C0FFFFF717
:107AC000FFFBFFF712FCFFF72CFBFFF773FBFFF741
:107AD0004DFCFFF755FCFFF75BFC04F0A6F8684887
:107AE000FEF746FBFFF780FC05F0C6FA012003F025
:107AF00060FB05F0E5FAFEF7DFFFFFF768F8FFF738
:107B0000E1F9FFF7C4F9FEF780FDFFF7E8F8FFF7AA
:107B1000A7F8FFF7F4F9FFF778F95448407A0128FD
:107B200007D153480078002809D101205049087036
:107B300005E04E48407A002801D1FFF75CFCFFF7D2
:107B400075F9FFF70EF9032000F030F800BFFFF7DA
:107B500093FEFFF707FE01F0FCFD40480088002877
:107B600004D001F0F6FDFFF76FFDF0E73B48008819
:107B70000028ECD101F0EDFDFFF7CEFBE7E7BFF306
:107B80004F8F40484049C860BFF34F8F00BFFEE7AA
:107B900003210522120707231B02D2188300D150AC
:107BA000704701218140394A91607047012181402D
:107BB000364AD1607047014634480069C840C00762
:107BC000C00F70477CB504460D4600940195304ABD
:107BD0000821684601F01CFD7CBD7CB504460D46BD
:107BE000164600946846057146712A4A082101F03C
:107BF0000FFD7CBDF8B504460D46264600BF082D96
:107C000001D1012000E000200746002F05D100BF70
:107C100021A2FF211B31FEF7BBFB00BF316870685A
:107C20008847F8BDF8B505460E462C4600BF082E1D
:107C300001D1012000E000200746002F04D100BF41
:107C400021A2A821FEF7A4FB00BF61792079226858
:107C50009047F8BD2E200020242000203C2000204A
:107C60005D2100201F20002061210020682A0020C3
:107C70002B200020632100208021002028200020CC
:107C8000102700000400FA0500ED00E00005005098
:107C9000F57B0100257C01002E2E5C2E2E5C2E2E05
:107CA0005C2E2E5C2E2E5C496E636C7564655C6187
:107CB00070705F636F6D6D6F6E5C6170705F746923
:107CC0006D65722E680000002E2E5C2E2E5C2E2E0E
:107CD0005C2E2E5C2E2E5C496E636C7564655C6157
:107CE00070705F636F6D6D6F6E5C6170705F6275F9
:107CF00074746F6E2E6800000020464948608860EA
:107D00000720086101204449C8600F2041494031E3
:107D10000860012041490860704770B5404A3F49FA
:107D2000C039022047DF044600BF2546002D06D09B
:107D300000BF3CA253212846FEF72AFB00BF00BF2C
:107D4000042045DF044600BF2546002D06D000BFB5
:107D500034A257212846FEF71BFB00BF00BF70BDB1
:107D600010B5002303220421022000F01DF810BDED
:107D700010B5FFF7D2FFFFF7BFFFFFF7F1FF0120BC
:107D80002549086010BD00202549083951221201FB
:107D90008918886001202049486004200121814021
:107DA000234AD16000BF704770B5002B0CD101246D
:107DB0008C401F4DEC601F4C194D083D512636017B
:107DC000AD198600AC510BE001248C40184DAC601D
:107DD000194C134D083D51263601AD198600AC51A2
:107DE00000BF00BF00BF012485000D4E083EAD1945
:107DF0002C600C0203252C4315042C431D052C4339
:107E0000354651263601AD198600AC5100BF00BF82
:107E100000BF70BD00A5004000A0004000A20040CF
:107E2000086000402E2E5C62757A7A65722E6300BF
:107E300000050050031F0200031F01008A88028210
:107E40007047FA490870704710B50020FFF7F9FF36
:107E50000020F7490870012003F0ABF910BD70B5A0
:107E600004460D46F248007800280CD0FFF7ECFFDE
:107E700000BFBFF34F8FEF48EF49C860BFF34F8F8C
:107E800000BF00BFFEE70020C043208270BD33B5B5
:107E90008BB004463C20E9494870142102A805F043
:107EA000A0FD02A90CA803F0F0FE1421019100200E
:107EB0000790089009900A90E148018868468183FC
:107EC000012181770021018401A8099002A80A906C
:107ED000208A07A9A6DF0546002D08D1D3480078DF
:107EE000012804D1D7480088401CD649088028467C
:107EF0000DB030BD70B505463FE0D348008800287E
:107F000002D1FFF7A1FF3CE0D04801882846FFF7E7
:107F1000BEFF0446002C01D0204670BD002C05D0C9
:107F2000082C1BD0CA4820181CD116E0BF48007886
:107F3000012811D1C5480088401CC4490880084662
:107F40000088C449884202DD0120C0490880BE483B
:107F50000088401EBC4908800EE00DE0FFF774FF6A
:107F60002046DAE7A868002802D02046A96888479A
:107F7000FFF76AFF2046D0E700BFAC480078012831
:107F8000BBD000BF0020C8E770B505462BE0AD4868
:107F90000088B1490988884202DDFFF755FF22E0D9
:107FA000A84801882846FFF772FF0446002C01D03C
:107FB000204670BD002C05D0082C05D0A448201800
:107FC00006D100E00EE00DE0FFF73EFF2046F0E7AF
:107FD000A868002802D02046A9688847FFF734FF28
:107FE0002046E6E700BF914800780128CFD0002066
:107FF000DFE770B504460D468D480078802804D030
:10800000922806D0952809D104E02046FFF7BCFF4E
:1080100004E000BF2046FFF76DFF00BF00BF70BD4A
:1080200070B505460C462088012811D0102804D0D0
:10803000112807D0502810D109E021462846FFF723
:10804000FDFE0BE021462846FFF709FF06E005E0AC
:1080500021462846FFF7CDFF00E000BF00BF70BDFE
:10806000F0B58FB006460C4617461D4600BF002FE0
:1080700001D0012000E0002000900098002805D1E8
:1080800000BF76A28F21FEF783F900BF00BF00BFBB
:10809000002D01DD012000E0002000900098002864
:1080A00005D100BF6DA29021FEF772F900BF00BF9D
:1080B0001C2107A805F095FC6C48844207D169464D
:1080C000087F0821884308306946087710E0674830
:1080D000801E84420CD16846007F02218843811CA7
:1080E00068460177007F1021884310306946087781
:1080F000002008900A900B900C900D90317808A801
:108100008176684604870020019000BF68460079A8
:1081100001090901491C684601710079F021884371
:1081200010306946087100BF00BF684640790109F8
:108130000901491C684641714079F021884310309B
:108140006946487100BF6846807906218843811CD2
:1081500068468171807908218843014668468171AB
:1081600080791021884301466846817180794108F1
:10817000490068468171142102A805F032FC0EA85E
:10818000029001A803906846058200214182858201
:108190000697F08902AA07A9149BA2DF0FB0F0BDD1
:1081A00070B586B005460C46314B0FCB01AE0FC6FD
:1081B000206868600020C0432882294601A863DF48
:1081C0000646002E02D0304606B070BD29786846BB
:1081D0008175284981822A460E3205A90120A0DF37
:1081E0000646002E01D03046EEE7208A00280CDD3E
:1081F00021480090238A1D4928466269FFF730FF15
:108200000646002E01D03046DEE7208B002835DD03
:108210000B480090238B1549891E2846E269FFF719
:108220001FFF0646002E29D03046CDE79A200020B9
:10823000602100200400FA0500ED00E06321002029
:108240008A2000209C2000206E2100206821002030
:10825000FCCFFFFFA0FE0000662100202E2E5C62F6
:108260006C655F7376732E630000000003C200002C
:1082700064F60100839E0000922000200020A3E706
:1082800070B586B004460D4614210191002002907D
:1082900003900490059009480188684601810121F6
:1082A00081720021818101A804900595208A02A98C
:1082B000A6DF0646304606B070BD00008A200020CA
:1082C000F8B505460E46002432782146641C6A54EF
:1082D00072782146641C6A5400BF022C01D101202F
:1082E00000E000200746002F05D100BF09A2202191
:1082F000FEF74EF800BF00BF2046F8BD70B504463B
:108300000D46284605F0ECFA2080656070BD0280BD
:10831000416070472E2E5C626C655F7372765F639E
:108320006F6D6D6F6E2E6300002314214143F94A77
:1083300053541421414389184B8002231421414393
:1083400089188B600023142141438918CB601421C4
:10835000414389180B611421414389188B80704770
:1083600010B50020EC490880EC490870E949091F64
:10837000087048708870002403E02046FFF7D4FF9F
:10838000641C1E2CF9D310BDFFB583B004460F4604
:1083900015460326E148007800280BD1002D06D1B0
:1083A0000698002803D10220DC49087002E0012071
:1083B000DA490870D9480078030006F075FB07FC1D
:1083C00005304D82B7D4FC00D5484069401C08D028
:1083D00001221207126991B2D14A506905F003FBDC
:1083E00002E0012000074069401E012109070969D8
:1083F00089B2484302900120000700690004820C02
:1084000001200007006980B278430146029821DF0D
:108410000646002E02D10220C0490870CCE0384642
:1084200020DF0646002E16D1002D11D10698002817
:108430000AD12078042803D10720B84908700AE03F
:108440000520B649087006E00420B449087002E02F
:108450000320B2490870AFE0B1484069401C08D021
:1084600001221207126991B2AD4A506905F0BBFAB8
:1084700002E0012000074069401E01210907096947
:1084800089B24843012109070290096989B27943F9
:1084900008462A46029921DF0646002E10D106988A
:1084A00000280AD12078042803D106209B490870AF
:1084B00006E005209949087002E0042097490870F9
:1084C0007AE097484069401C08D0012212071269DF
:1084D00091B2934A506905F086FA02E00120000744
:1084E0004069401E01210907096989B24843A90072
:1084F000401861884018012109070290096989B272
:108500007943AA00891862888818069A029921DF9F
:108510000646002E09D12078042803D106207F4981
:10852000087002E005207D49087045E00120000741
:10853000006980B27843AB00C0180290608882085E
:108540002169029821DF0646002E0BD1002D06D1AD
:108550000698002803D107207049087002E0062021
:108560006E49087028E06E484069401C08D001221E
:108570001207126991B26A4A506905F034FA02E0B2
:10858000012000074069401E01210907096989B2DD
:108590004843019001200007006981B2019805F06D
:1085A00022FA029020DF0646002E02D107205B4906
:1085B000087001E0FFE700BF00BF304607B0F0BD24
:1085C000F0B585B00F275348001F007814214843A9
:1085D00050494418E5682078022804D0042823D0A4
:1085E00005286FD16FE0206903904B480088860210
:1085F0006088801B0490039880190390A0888019DC
:108600004519012189020498884206D204988208FB
:108610002846039921DF074605E0FF22013228465C
:10862000039921DF074680E0A06800013D4940181A
:1086300000890490A0680001401840890390A06858
:1086400000014018406802900298A84205D10399A1
:10865000049848436188884202D0A06803280DD15D
:1086600001200007006981B2284605F0BCF92A49BB
:1086700009884618304620DF074622E0012000071F
:10868000006981B2284605F0AEF9064601200007D0
:10869000006980B27043281A800801900120000709
:1086A000006980B2711C484361884919401A8008EA
:1086B000009031462046009B019AFFF765FE074671
:1086C00000BF32E030E001200007006981B2284697
:1086D00005F089F90646A0884119012000070069C4
:1086E00080B27043081A80080490A08840196188FD
:1086F000421801200007006980B2711C4843801AAB
:108700008008039031462046039B049AFFF73CFE05
:1087100007460AE054270020A8200020AA200020B5
:1087200000100010AC29002000BF00BF002F02D1B4
:108730000120F7498870384605B0F0BDFFB581B01B
:10874000064617460024F24840781E2837D0F048E5
:108750000078EF4949784018C4B21E2C02DB20464D
:108760001E38C4B214206043E949091D0E54142078
:10877000604340180761142060434118029805C8FF
:10878000CA60886014206043E14A121D8018049971
:1087900041801420604380180A9981800025101FB1
:1087A0008078002805D1FFF70BFF0546112D00D179
:1087B0000025D7484078401CD549487000E0042582
:1087C000284605B0F0BD10B50024D14840780028F7
:1087D00007DDFFF7F5FE0446002C02D0112C00D176
:1087E0000024204610BDF8B50446C948007814217D
:1087F0004843C749091D0E5C081F007814214843EF
:10880000C349091D401880680001C2490D58C0487D
:10881000007814214843BE49091D40184088091FAB
:108820000090097814225143B94A121D89180B6926
:10883000111F097814225143B54A121D89180846A0
:10884000083022463146A847F8BDFEB50546002649
:10885000AF48807801287DD10020AD498870AE48AE
:108860000078082811D1022D03D10020AA490870F0
:1088700002E00020A9490870FFF7A5FF0646002E78
:1088800002D03046FFF7AFFFFEBD022D02D0032D10
:1088900079D174E09E480078142148439C49091D11
:1088A00044189F480088401C9D4908802078022871
:1088B00007D10846008880026188884201DB0120D8
:1088C00000E0002007462078052805D1924800786E
:1088D000072801D1012000E0002002902078042820
:1088E00005D18D480078072801D1012000E0002043
:1088F0000190207804280BD1894800888002618883
:10890000884205DB84480078002801D1012000E07E
:10891000002000900298002807D10198002804D177
:108920000098002801D1002F1FD000207A4908703C
:108930003046FFF758FF76490878FFF7F5FC00202E
:108940007749088072484078401E7149487008464F
:10895000007800E01AE0401C0870084600781E28E5
:1089600003DB084600781E380870FFF72CFF064628
:10897000002E02D03046FFF736FF05E003E00D2061
:10898000FFF731FF00E000BF00BF00BF00BF7BE783
:1089900070B5FFF7E5FC0020624908806248406935
:1089A000401C08D001221207126991B25E4A506938
:1089B00005F019F802E0012000074069C01E0121FE
:1089C0000907096989B24843584908600020544999
:1089D000088000BF0DE0002102014E4B99500201BA
:1089E000D21811810201D21891810201D21851814D
:1089F000401C0228EFD30820474908704A484069C4
:108A0000401C08D001221207126991B2464A5069EF
:108A100004F0E9FF02E0012000074069401E012147
:108A20000907096989B24843064601200007006921
:108A300081B2304604F0D7FF054620DF0446002C03
:108A400004D101203249887034490870204670BD35
:108A5000F8B504460D4600BF30480078002801D123
:108A60000820F8BD00BF002C01D10E20F9E7002D31
:108A700001D10E20F5E72068002801D10E20F0E793
:108A8000A08801210907096989B2884202DCA0880F
:108A9000102801DA0720E4E7E08800282FD02248D8
:108AA0004069401C08D001221207126991B21E4A87
:108AB000506904F098FF02E0012000074069401E61
:108AC00001210907096989B24843E188A288514315
:108AD000164A12688918884211D3E088A188484351
:108AE00001210907096989B288420ADDA1880122AA
:108AF0001207126990B204F080FF002901D007200C
:108B0000AFE720798007800F12D00720A9E7000087
:108B100050270020AC290020AA200020A0200020FF
:108B2000A8200020A220002000100010A420002077
:108B3000FE480088022801D1042092E7FB48008803
:108B40002860FB4800686860F84909880901F94A0B
:108B5000891868684860F5490988090120685050FB
:108B6000A088F2490988090189180881E088EF493D
:108B700009880901891848810027A688E1884E43A1
:108B800000BF781C87B201200007006980B2B042A4
:108B900005D201200007006980B2361A00E00026E5
:108BA00001200007006980B2E14909684018E049E6
:108BB000086001200007006980B2B042E1D9DB48BB
:108BC00000880001DB4940188781D8480088401C94
:108BD000D6490880002044E73CB5034600BFD6488C
:108BE0000078002801D108203CBD00BF002B01D136
:108BF0000E20F9E7002A01D10E20F5E718680228B7
:108C000005D218680001CB4C2058002801D107205C
:108C1000EAE75C68186801940090019C18680001FC
:108C2000C44D401900894843201801900098000164
:108C30002C4600194089009C240164192489604352
:108C4000009C2401641964680019019CA04201D8A9
:108C50000720C9E7019C0098546010600020C3E71A
:108C6000F8B504460E4615461F4600BFB2480078C8
:108C7000002801D10820F8BD00BF002E01D10E2030
:108C8000F9E7002C01D10E20F5E72068022805D273
:108C900020680001A7490858002801D10720EAE709
:108CA00020680001A3494018408921680901A14AB0
:108CB00089180989484321680901891849684018B9
:108CC0006168884201D80720D5E7002D06D02068CA
:108CD0000001984940180089A84201DA0720CAE734
:108CE000E81921680901934A89180989884201DD38
:108CF0000720C0E7304600F05CF9002804D0384671
:108D000000F057F9002801D11020B4E7606800F0A6
:108D100050F9002801D11020ADE72B4632462146FC
:108D200002200097FFF70AFDA5E7F8B504460E46B6
:108D300015461F4600BF80480078002801D1082052
:108D4000F8BD00BF002E01D10E20F9E7002C01D1A3
:108D50000E20F5E72068022805D220680001754939
:108D60000858002801D10720EAE72068000171496E
:108D700040184089216809016E4A891809894843C9
:108D8000216809018918496840186168884201D83A
:108D90000720D5E7002D06D020680001654940185E
:108DA0000089A84201DA0720CAE7E8192168090109
:108DB000604A89180989884201DD0720C0E73046EA
:108DC00000F0F7F8002804D0384600F0F2F8002848
:108DD00001D11020B4E7606800F0EBF8002801D161
:108DE0001020ADE72B463246214605200097FFF7BD
:108DF000A5FCA5E7FFB581B00C4615461E4600BF91
:108E00004D480078002802D1082005B0F0BD00BF11
:108E1000002C01D10E20F8E70198002801D10E2086
:108E2000F3E72068022805D220680001414908586C
:108E3000002801D10720E8E7206800013D494018DB
:108E40004089216809013B4A8918098948432168FA
:108E500009018918496840186168884201D80720CB
:108E6000D3E7002D06D02068000132494018008960
:108E7000A84201DA0720C8E7A819216809012D4A8C
:108E800089180989884201DD0720BEE7019800F0B2
:108E900090F8002804D0304600F08BF8002801D16B
:108EA0001020B2E7606800F084F8002801D110209B
:108EB000ABE7606881192A46019804F033FD0095FC
:108EC000206800011B490F58002203212046019B06
:108ED000B847002099E7F8B504460D4600BF16488C
:108EE0000078002801D10820F8BD00BF002C01D176
:108EF0000E20F9E72068022805D2206800010D49FC
:108F00000858002801D10720EEE720680001094930
:108F10004018408921680901064A8918098948438F
:108F20002168090189184968401807E0A22000203B
:108F3000A4200020AC290020A020002061688842E5
:108F400001D80720D0E7606800F033F8002801D18D
:108F50001020C9E723681B011A4FDB1962685B68A0
:108F6000D01A226812013B46D218118904F03BFD49
:108F7000002901D00720B7E700202B4602462146F2
:108F800000900420FFF7DAFB06463046ACE70146C6
:108F900000BF0D480078002801D10820704700BFAD
:108FA000002901D10E20F9E7084840780860002028
:108FB000F4E701468807800F01D1012070470020A7
:108FC000FCE70000AC290020A02000205027002052
:108FD000F7B584B004460F4606980678B01C1F28E3
:108FE00003DC6078801C1F2802DD0C2007B0F0BD78
:108FF0001F20801B801E85B20295B11C781802A923
:109000007DDF03900398002801D00398EEE72078D5
:10901000022808D168460089A84204DC0920019092
:10902000684605890BE0082001906078002804D08C
:109030006078A84201DC657801E068460589681C13
:10904000C2B23046711CCEB23A543046721CD6B20F
:109050000199395406980178A81C0818C1B20698DD
:1090600001700020C2E7F8B505460C462078001DC7
:109070001F2801DD0C20F8BD684679DF0646002E6A
:1090800001D03046F7E703212278501C2070A95404
:1090900019212278501C2070A95420784119684663
:1090A000008800F089FA2178401820700020E2E75B
:1090B000F8B505460F4616461C466868002801D1DB
:1090C0000720F8BD2078801C298840181F2801DD62
:1090D0000C20F6E72878401CC1B22278501C207082
:1090E000B1542178481C207077542A882378981925
:1090F000696804F017FC2078297840182070002057
:10910000DFE730B503461078C01C1F2801DD0C20B6
:1091100030BD02241578681C10704C550A2415784F
:10912000681C10704C551578681C10704B55002049
:10913000EEE7FFB587B006461D46109C002006905E
:1091400020780590002747E0B900706841180A8828
:109150006846028149884181002203A902A865DF8F
:1091600004900498002802D004980BB0F0BD684623
:10917000017B099881422ED10698002801D0002059
:1091800000E00220019020786946097B411801988F
:1091900008181F2801DD0C20E7E70698002809D1F0
:1091A0002078401C20702278511C08982170A85407
:1091B000012006902078421903A902A865DF0490D7
:1091C0000498002801D00498CFE720786946097BED
:1091D0004018207000BF7F1C3088B842B4DC06986D
:1091E000002806D021780598401C081AC1B20598BD
:1091F00029540020B9E7FFB581B0074615460A9EFD
:10920000009602223846049B0299FFF792FF04461B
:10921000002C02D0204605B0F0BD00961022294651
:109220003846049BFFF785FF0446002C01D02046FA
:10923000F1E70020EFE701460888062808DB0888E8
:109240001922D201904205DD0888E04A904201D0FF
:10925000072070474888062808DB48881922D20171
:10926000904205DD4888D94A904201D00720F0E7B6
:109270000888D64A904208D04888904205D008888D
:109280004A88904201DD0720E3E70020E1E7F8B5D6
:1092900006460D4614462078801D1F2801D90C2053
:1092A000F8BD3046FFF7C7FF0746002F01D038460C
:1092B000F6E705212278501C2070A954122122784B
:1092C000501C2070A95422785119308800F074F98C
:1092D00021784018207022785119708800F06CF9BC
:1092E0002178401820700020DAE7F8B505460E46D0
:1092F00014462879801CC7B22078801CC0191F280A
:1093000001DD0C20F8BD781CC1B22278501C207001
:10931000B154FF212278501C2070B1542278911949
:10932000288800F049F9217840182070A888002882
:109330000EDDA868002801D10720E3E7AA8823787A
:109340009819A96804F0EEFA20782979401820705D
:109350000020D7E7FEB507460E461446386B0028B6
:1093600001D10720FEBD0020019032E0396B0C22B4
:10937000019850430D182879801CC0B200900098C5
:10938000401CC1B22278501C2070B15416212278A2
:10939000501C2070B15422789119288800F00CF9E3
:1093A000217840182070A88800280EDDA8680028C1
:1093B00001D10720D6E7AA8823789819A96804F074
:1093C000B1FA20782979401820700198401CC0B269
:1093D00001903420C15D01988142C7DC0020C1E7C3
:1093E000F8B504460F461646002500203070207858
:1093F000002809D0324639462046FFF7E9FD0546E8
:10940000002D01D02846F8BDA078002808D03146AC
:109410003846FFF728FE0546002D01D02846F2E722
:10942000A08800280ADD33463A460121201DFFF7B7
:109430003FFE0546002D01D02846E4E7E0680028FD
:109440000BD00020E168085632463946FFF759FE36
:109450000546002D01D02846D5E7208A00280CDDDE
:109460003B4606220221204610300096FFF7C3FE3D
:109470000546002D01D02846C5E7208B00280CDDCD
:109480003B4607220321204618300096FFF7B3FE23
:109490000546002D01D02846B5E7208C00280CDDBC
:1094A0003B4615221421204620300096FFF7A3FEEC
:1094B0000546002D01D02846A5E7A06A002809D05E
:1094C00032463946A06AFFF7E2FE0546002D01D07C
:1094D000284698E7E06A002809D032463946E06A13
:1094E000FFF703FF0546002D01D028468BE7342007
:1094F000005D002809DD324639462046FFF72AFF85
:109500000546002D01D028467DE728467BE7014629
:109510008888002807D08868002804D088680078E8
:109520000422104201D1072070470020FCE70146C9
:109530008888002801DD072070470020FCE7F3B58C
:1095400093B00D460021129111911398002814D068
:109550001398FFF7DCFF0446002C02D0204615B01C
:10956000F0BD12AA09A91398FFF73AFF0446002C90
:1095700001D02046F3E709AE00E00026002D13D00D
:109580002846FFF7D4FF0446002C01D02046E6E72A
:1095900011AA01A92846FFF723FF0446002C01D099
:1095A0002046DCE701AF00E0002710A803793A4627
:1095B000017A304672DFD2E702460A70FF200002CD
:1095C000104000124870022070470000FFFF0000AA
:1095D00030B50346481CC004040C10468507AD0F87
:1095E00001D1012500E00025002D01D1072030BD6B
:1095F000794802601019794D28600020784D287054
:10960000784D287078480380784801800020EEE784
:10961000F7B584B00C467448008884426BDC744D06
:109620000020039000F0A4F802900298012814D0C2
:1096300003A82EDF0746022F01D172B60CE000BF4F
:109640000197019F002F06D000BF6AA259210198FF
:10965000FCF79EFE00BF00BF00BF6148007800F02D
:10966000B1F860490978884206D05D4805780078ED
:1096700000F0A8F85A4908700298012814D062B680
:109680006846007B2FDF0746022F0CD000BF0197F2
:10969000019F002F06D000BF56A261210198FCF760
:1096A00077FE00BF00BF00BF5148854221D0E900CE
:1096B000494A0698126850500498002811D0002C8E
:1096C0000FDD494909886943444A126888182246CF
:1096D000049904F027F9E8003F490968401884809C
:1096E00005E00020E9003C4A1268891888800026BD
:1096F00000E0042600E00926304607B0F0BDF8B5CA
:1097000005460E4617460520009035480078354935
:10971000097888421BD033480478007800F052F86A
:10972000304908703048008860432C490968401867
:109730002860E00028490968401880883080E000EF
:1097400025490968085838600020009000BF00983B
:10975000F8BD0EB504E068468188009A02989047EB
:109760006A4601A902A8FFF7CAFF0028F3D00EBD80
:1097700010B52D484068C105C90D002920D00A4602
:10978000103A50B200280DDA274B1C330407240F7F
:10979000083CA408A4001B598407E40EE3401B0600
:1097A0009B0F0BE0214B032424021B198408A40007
:1097B0001B598407E40EE3401B069B0FD8B210BD73
:1097C0000420FCE7014609480088814201DA481C70
:1097D00000E00020C0B27047AC200020B020002084
:1097E000B5200020B4200020B6200020B8200020A2
:1097F000FFFF00002E2E5C2E2E5C2E2E5C2E2E5C8B
:109800002E2E5C536F757263655C6170705F636F61
:109810006D6D6F6E5C6170705F7363686564756CAD
:1098200065722E630000000000ED00E000E100E042
:1098300010B5002819DAF74A03071B0F083B9B08ED
:109840009B00D2588307DC0EFF23A3409A438B076B
:109850001B0E8407E40EA3401A43EE4B0407240FAB
:10986000083CA408A4001A5118E0EB4A03231B0289
:10987000D21883089B00D2588307DC0EFF23A34035
:109880009A438B071B0E8407E40EA3401A43E24B56
:10989000032424021B198408A4001A5110BD10B51A
:1098A0000446DE48846003211120FFF7C1FF10BD8C
:1098B00010B501200004DA494860D94940394860B0
:1098C000112000F0E7FC112000F0D6FC0120D54962
:1098D00008602F20FCF75CFC0120D349087010BD04
:1098E00010B5112001218140CB4A8032116000BFA8
:1098F00001200004CA498860C949403988600120B4
:10990000C84948602F20FCF743FC0120C549886006
:109910000020C64908602F20FCF73AFC0020C2490D
:10992000087010BDF0B5024624205043C04B1B68A0
:10993000C118C0480068401C02D1BE48026057E010
:10994000BC484B68006824246043B94C2468001963
:109950004068834217D8B748006824235843B44B63
:109960001B68C01840684B68C31AB24800682424BA
:109970006043AF4C246800194360AE480068086239
:10998000AC48026034E04B68AA4D2C6828680DE0B2
:1099900024254543A64E3668AD196D685B1B044609
:1099A00024254543A24E3668AD19286A451C07D0C8
:1099B000242545439E4E3668AD196D689D42E7D318
:1099C000451C0CD024254543994E3668AD196D6869
:1099D000EE1A24254543964F3F68ED196E604B60A3
:1099E000086224256543924E3668AD192A6200BF8D
:1099F000F0BDF8B506468F4805682C4609E0B4422C
:109A000000D108E0254624206043894909684018B0
:109A1000046A601CF3D100BF601C00D1F8BDA542F0
:109A20000FD18448006824214843814909684018BF
:109A3000006A8049086008460068401C01D1FFF7B1
:109A40004FFF242060437A49096840184768242062
:109A50006043774909684018016A24206843744AC2
:109A6000126880180162242068437149096840180F
:109A7000046A601C0CD0242060436D4909684018BA
:109A80004068C11924206043694A12688018416007
:109A900000BFC3E710B5112000F0F5FB10BD10B5F5
:109AA000142000F0F0FB10BD70B504466248006859
:109AB000002813D0604AE169A06912689047054602
:109AC00000BF2E46002E07D000BF5CA2FF216431EC
:109AD0003046FCF75DFC00BF00BF02E0A169E06911
:109AE000884770BDF8B553480068401C39D000273E
:109AF00000F002FC04464D480168204600F0FFFBE0
:109B000006464C48056811E0242068434849096826
:109B100044186068B04200D90AE06068361A60688C
:109B2000C719256A2046FFF7BFFF00BF681CEBD1AD
:109B300000BF4E4800784E490978884209D14C4808
:109B40000078401CC0B24A490870022801D10020A8
:109B5000087047480078800046490F50FFF79FFF84
:109B600000BFF8BD014641480078414A1278904252
:109B70001DD03E480078401C3C4A107010460078CA
:109B8000022801D100201070384800788000394A3E
:109B900010580860254A086812688018234A106027
:109BA000104600680002000A106001207047002083
:109BB000086000BFFAE7FEB51E48006801902E4815
:109BC0000078009076E00098C0002C49096844189D
:109BD00025786BE01820684361680F18681CC5B2CF
:109BE000A078A84200D100253878022802D00328A6
:109BF00059D145E02421786848430D490968461841
:109C0000307D002804D07868FFF7F3FE002030751F
:109C10004AE000001CED00E000E100E0001501401A
:109C20004013014000100140E0200020CC20002023
:109C3000BC200020C8200020DC2000202E2E5C2E1E
:109C40002E5C2E2E5C2E2E5C2E2E5C536F75726356
:109C5000655C6170705F636F6D6D6F6E5C6170707D
:109C60005F74696D65722E6300000000D8200020CB
:109C7000D9200020D0200020C1200020C4200020B6
:109C80000CE0FE49096824225143FD4A12688818F5
:109C900000210175F94A016A116000BFF7480068A8
:109CA000401CEED100E000BF00BF00BF6078A842BA
:109CB00090D100BF0098411EC9B20091002882D106
:109CC000EE4801680198814201D00120FEBD0020CC
:109CD000FCE7F0B50346002426E0E84E366824276A
:109CE0007E43E74F3F68F01946689E4203D94668B5
:109CF000F61A46601CE046689B1B4668341900262D
:109D000046600675DD4E3568DC4F066A3E600669C2
:109D1000002E08D00E193602360A86600669C66023
:109D200016680662156000BFD4480068401CD4D194
:109D300000BFF0BDFEB50746D04800680290D1488C
:109D40000078019069E00198C000CF490968451882
:109D50005CE0781C07D03E4624207043C84909685F
:109D60004418276A23E02978182359436A68501851
:109D70002978491C29702978AA78914201D10021BB
:109D80002970466824217143BD4A12688C180178F5
:109D9000012902D1217D002900D037E08168A1602E
:109DA000C168E160016921614169E16100BFB749B2
:109DB000A0680968401A0002000AB549884208D222
:109DC000B249A068096800F09AFAE168401860603A
:109DD00011E0AE48A168006800F091FA0090E168D7
:109DE0000098814204D9E1680098081A606001E097
:109DF0000020606000BF0020A060E06001202075AE
:109E0000801E20623046FFF78DFD00BF781CA0D178
:109E10002878697888429CD100BF0198411EC9B258
:109E2000019100288FD1954801680298814201D0A4
:109E30000120FEBD0020FCE7FEB590480068401CF4
:109E400034D08E480068242148438D490968401861
:109E5000456800F051FA01908C4804682146019849
:109E600000F04DFAC61C8B480078002801D1FFF79E
:109E70001FFDAE4201D2284600E0304604192402FC
:109E8000240A20468449086000BF00F035FA00909B
:109E90000199009800F033FAC71C2046019900F0A0
:109EA0002EFA874201D9FFF7F5FD01E0FFF718FD13
:109EB000FEBDFEB50020C0430190744804686F48A1
:109EC00007686846FFF74EFE0546FFF774FE064634
:109ED000002D05D001AA21460098FFF7FAFE0126C1
:109EE0000198FFF727FF002800D00126002E02D09E
:109EF0003846FFF7A1FFFEBD4170704770B50246BE
:109F00000B465078411C9078884200D1002110788F
:109F1000884201D1002070BD196050781826704326
:109F200055682C182046F6E7FFB581B005460E4669
:109F30001746E900544A126888186946FFF7DEFFA1
:109F40000446002C02D1042005B0F0BD0120207091
:109F5000666000F0D1F9A060E760049820610A987B
:109F60006061E900484A126888180099FFF7C4FF49
:109F7000FFF795FD0020E7E7F8B504460E46E1003F
:109F8000414A126888186946FFF7B8FF0546002D58
:109F900001D10420F8BD022028706E60E1003A4A29
:109FA000126888180099FFF7A7FFFFF778FD0020D7
:109FB000F0E738B50446E100334A1268881869466C
:109FC000FFF79CFF0546002D01D1042038BD03207A
:109FD0002870001F6860E1002B4A126888180099F9
:109FE000FFF78AFFFFF75BFD0020EFE710B50020C9
:109FF0002A4908600021294841608160C160002031
:10A000002649403908604860FFF76CFD10BD10B567
:10A01000FFF74FFF10BDFFB581B00E4617461C4637
:10A0200020468107890F01D1012100E0002100298C
:10A0300002D1072005B0F0BD002C01D10720F9E7BF
:10A04000FFF74EFC16490A980860164806700C483F
:10A05000046000250CE0002124206843084A1268AF
:10A06000115424206843064A1268801801756D1C3B
:10A07000B542F0DB24207043041915E0C82000200D
:10A08000BC200020C1200020C4200020CC200020C3
:10A09000FFFF7F00E02000204015014040110140FB
:10A0A000DC200020C020002003209749087097483A
:10A0B0000460183400250CE0E900944A12688818FE
:10A0C00000210170417087704460182179430C1998
:10A0D0006D1C032DF0DB0020C0438D49086000207B
:10A0E0008C4908708C490870142000F0D3F80321C3
:10A0F0001420FFF79DFB142000F0BEF80198FFF735
:10A10000CEFB00F0F9F885490860002092E770B5B1
:10A1100003460C4682480068002801D1082070BD23
:10A12000002A01D10720FAE7002B01D10720F6E72A
:10A1300000211CE024204843794D2D68285C00282C
:10A1400014D1012524204843754E36683554242007
:10A150004843734D2D684019447024204843704D86
:10A160002D684019826119600020D8E7491C6D48AC
:10A1700000788142DEDB0420D1E710B500F092F8D0
:10A18000012802D0032804D101E0002403E00124C7
:10A1900001E0022400BF00BF204610BDFEB504460A
:10A1A0000D4616465E480068002801D10820FEBD15
:10A1B0005C480078844201D2052D01D20720F6E7E1
:10A1C0002420604356490968085C012801D0082012
:10A1D000EDE724206043524909684018407801287F
:10A1E00001D1284600E000200746FFF7C6FF3B46A6
:10A1F0002A46214600960190FFF796FED7E770B5F4
:10A20000044647480068002801D1082070BD454831
:10A210000078844201D30720F8E7242060434049B6
:10A220000968085C012801D00820EFE7FFF7A5FFC7
:10A2300005462146FFF7A0FEE8E710B5384800685C
:10A24000002801D1082010BDFFF797FF0446FFF753
:10A25000B0FEF8E710B5044600F04EF8206000208C
:10A2600010BD70B505460E4614463146284600F02E
:10A2700046F82060002070BDC206D20E0121914038
:10A28000294A11607047C206D20E01219140274A27
:10A2900011607047C206D20E01219140234A8032DC
:10A2A0001160704710B522484068C105C90D0029EA
:10A2B00020D00A46103A50B200280DDA1C4B1C334D
:10A2C0000407240F083CA408A4001B598407E40ECB
:10A2D000E3401B069B0F0BE0134B032424021B19C6
:10A2E0008408A4001B598407E40EE3401B069B0F5F
:10A2F000D8B210BD0420FCE70E4840687047024603
:10A30000501A0002000A7047C1200020C42000201B
:10A31000C8200020D8200020D9200020CC200020F8
:10A32000BC200020C020002000E100E000E200E0AE
:10A3300000ED00E00015014070B506460C461546DC
:10A3400029462046FCF726F870BDF8B55948007834
:10A35000002800D1F8BD58480068002801D101202C
:10A3600000E00020054655480068002801D1012082
:10A3700000E00020064600BF002D14D1684651DFE2
:10A380000446052C01D101250CE0002C06D000BFAD
:10A390004BA269212046FBF7FBFF03E046490098EA
:10A3A0000968884700BF002E1AD1534800880090E2
:10A3B00069465248006861DF0446052C01D1012638
:10A3C0000DE0002C06D000BF3DA280212046FBF707
:10A3D000DFFF04E04948006838490968884700BF42
:10A3E000002D02D0002E00D000E0C5E700BF00BF66
:10A3F000B0E7FFB581B00C4616461F46002C02D1CF
:10A40000072005B0F0BD20468107890F01D1012149
:10A4100000E00021002901D10720F2E7374804605D
:10A4200035480680364807603649019810DF0546F2
:10A43000002D01D02846E4E701201E4908701620AF
:10A4400026DFDEE710B511DF0446002C01D0012025
:10A4500000E0002017490870204610BD0146002981
:10A4600001D10E207047154801600020FAE701462F
:10A47000002901D10E2070470F4801600020FAE743
:10A4800070B51F480068002811D01D48006880473B
:10A49000044600BF2546002D07D000BF08A2FF21BB
:10A4A00033312846FBF774FF00BF00BF01E0FFF720
:10A4B0004CFF70BDE4200020F8200020F420002094
:10A4C0002E2E5C2E2E5C2E2E5C2E2E5C2E2E5C53A1
:10A4D0006F757263655C73645F636F6D6D6F6E5CE7
:10A4E000736F66746465766963655F68616E646CDA
:10A4F00065722E6300000000F0200020EC20002098
:10A50000E820002039A30100F8B504460D46924822
:10A510000068002813D0EAB221788F4B60681B686E
:10A520009847064600BF3746002F06D000BF8BA2D3
:10A5300028213846FBF72CFF00BF00BF0CE0012D9F
:10A5400004D1207801216268904705E0002D03D1F5
:10A550002078002162689047F8BDF8B50746694643
:10A560008A48007800F0EBFA0646002E00D0F8BDCD
:10A57000002532E0E80086490968441885480068EB
:10A5800022780121914008420FD0606800280CD049
:10A590006078012804D100212046FFF7B5FF1AE0BA
:10A5A00001212046FFF7B0FF15E07A484068227885
:10A5B0000121914008420ED0606800280BD06078DD
:10A5C000012804D101212046FFF79EFF03E000216E
:10A5D0002046FFF799FF681CC5B26F480078854296
:10A5E000C8DB00BFC3E770B504460D466B48006882
:10A5F000FFF705FE0646002E00D070BD654844609A
:10A6000005602046284302466548016863480068A3
:10A61000FFF7C4FD064600BFEFE7FFB583B006466F
:10A620000C461746052F02D2072007B0F0BD584848
:10A630000660594804705A48076047490698086000
:10A64000002515E0E10088190278009281780191D7
:10A65000019989000522120707231B02D318009ACB
:10A660009200995000BF0278012191400D4300BF34
:10A670002046611ECCB20028E4D14A4B2A46294626
:10A68000424800F087F902900298002801D0029811
:10A69000CBE7454A00214148FFF739FDC5E710B532
:10A6A0003B480068002801D1082010BD37480078D9
:10A6B00000F0B5F9F9E710B535480068002801D178
:10A6C000082010BD3148007800F018FA0446002C2C
:10A6D00001D02046F5E731480068FFF790FDF0E72C
:10A6E000F8B506460C462C480078864201DD072066
:10A6F000F8BDF0002649096845182548006800287B
:10A7000001D10820F4E769462048007800F017FAE4
:10A710000746002F01D03846EAE7687800280BD1B9
:10A7200029780098C840C007C00F02D000202070D0
:10A7300010E0012020700DE0687801280AD1297806
:10A740000098C840C007C00F02D00120207001E06F
:10A75000002020700020CBE7082100202E2E5C2E48
:10A760002E5C2E2E5C2E2E5C2E2E5C536F7572632B
:10A77000655C6170705F636F6D6D6F6E5C61707052
:10A780005F627574746F6E2E630000000C210020F0
:10A79000FC20002014210020002100201021002096
:10A7A00004210020E7A501005BA50100F0B50246E9
:10A7B0000C46002035E001238340194623460B4216
:10A7C0002ED0D5680D4205D101235B04D5680D4319
:10A7D000D56004E003231B04D5688D43D5600525AF
:10A7E0002D0707263602AD198600AD59032636041B
:10A7F000B5430526360707273F02F6198700F551AE
:10A8000005252D0707263602AD198600AD591D43D3
:10A810000526360707273F02F6198700F55100BFC6
:10A82000401C2028C7D3F0BDF0B585B0EC480569C1
:10A830000020EC49C86300263DE014207043EA493B
:10A84000096844180120B040E8490968084230D03E
:10A85000E068C04368402168084007463946204602
:10A86000FFF7A4FFDE4800696840039003980028C2
:10A870000ED003980543E068C04368402168084053
:10A88000009020460099FFF791FF0098074300BF12
:10A89000A068A84338400190606828403840029082
:10A8A00001990298084303D02269019902989047C0
:10A8B00000BF701CC6B2CE4800788642BDDB05B032
:10A8C000F0BD10B50146002028E014224A43C64BD3
:10A8D0001B689A58012383401A421ED00522120792
:10A8E00007231B02D2188300D25803231B049A4368
:10A8F00005231B07072424021B1984001A51052273
:10A90000120707231B02D2188300D25805231B0706
:10A91000072424021B1984001A51401C2028D4D378
:10A9200010BD70B505460C46002C01D1072070BD46
:10A9300020468107890F01D1012100E00021002973
:10A9400001D10720F3E7A8480460AA480570002059
:10A95000A7490870A5490860A6480078142250430A
:10A960000146A148006803F03CF80020C043A2491A
:10A970008860062001218140A04A116000BF0121AA
:10A9800000F0F7F80620012181409D4A116000BFC8
:10A990000020CCE7F8B504460D4616461F469248FF
:10A9A0000068002801D10820F8BD002F01D1072040
:10A9B000FAE78F4800788F490978884201DB042044
:10A9C000F2E7284630438A49097814225143864ADF
:10A9D000126850508648007814214843824909681B
:10A9E0004018456082480078142148437E49096830
:10A9F000401886607E480078142148437A490968E7
:10AA0000401807617A480078207079480078401C27
:10AA1000774908702078FFF754FF0020C4E7F0B5AD
:10AA2000024671480068002801D10820F0BD704836
:10AA30000078824201DB0720F8E70020694BD863E9
:10AA40006748046969480068002802D158066A4BC3
:10AA5000586001209040654B1B681843634B186099
:10AA6000002314205043604D2D684019C36000211D
:10AA700040E001238B401846142353435A4D2D6860
:10AA8000EB58034235D02546054202D003231B0470
:10AA90000EE001235B0414255543534E3668AD196F
:10AAA000ED680543142656434F4F3F68F619F5608D
:10AAB00005252D0707263602AD198E00AD59032650
:10AAC0003604B5430526360707273F02F6198F00DF
:10AAD000F55105252D0707263602AD198E00AD5913
:10AAE0001D430526360707273F02F6198F00F5514B
:10AAF00000BF491C2029BCD3002097E710B50446AD
:10AB000039480068002801D1082010BD3848007875
:10AB1000844201DB0720F8E72046FFF7D2FE012040
:10AB2000A04032490968814330480160006800282C
:10AB300003D10120C007304988600020E5E710B547
:10AB4000024629480068002801D1082010BD284885
:10AB50000078824201DB0720F8E714205043224CA2
:10AB6000246803191E4800691C6820400860002002
:10AB7000ECE710B5002819DA224A03071B0F083B3F
:10AB80009B089B00D2588307DC0EFF23A3409A4307
:10AB90008B071B0E8407E40EA3401A43194B0407CE
:10ABA000240F083CA408A4001A5118E0144A0323F7
:10ABB0001B02D21883089B00D2588307DC0EFF23A8
:10ABC000A3409A438B071B0E8407E40EA3401A434D
:10ABD0000B4B032424021B198408A4001A5110BD36
:10ABE00000050050406100401C2100202021002071
:10ABF00025210020242100200063004080E200E0A5
:10AC000000E100E01CED00E008B54020DD490870DF
:10AC1000E020DD4908700220DA4900900878DB4B1B
:10AC20000122D94902F0E0F800BFD9480078002895
:10AC3000FBD008BD10B54820D24908700020D24989
:10AC40000870D04908780122CF4902F091F800BF7E
:10AC5000CF4800780028FBD04820CA4908700878FF
:10AC60000222CA4902F013F900BFC948007800283F
:10AC7000FBD010BD08B54420C24908700020C2496D
:10AC800008700120BF4900900878C04B0122BE49DE
:10AC900002F0AAF800BFBE4800780028FBD008BD2B
:10ACA00010B54820B74908700120B7490870B54968
:10ACB00008780122B44902F05BF800BFB44800787C
:10ACC0000028FBD04820AF49087008780222AF491D
:10ACD00002F0DDF800BFAE4800780028FBD0482025
:10ACE000A84908700120A8490870A0208870E120B8
:10ACF0004870A44908780322A34902F039F800BF3C
:10AD0000A34800780028FBD010BD08B540209D491D
:10AD10000870E5209C49087002209A490090087844
:10AD20009A4B0122984902F05FF808BD08B544200B
:10AD3000944908700220944908709249009008785C
:10AD4000924B0122904902F04FF800BF90480078E2
:10AD50000028FBD008BD10B544208A4908700020A7
:10AD600089490870A02048708649087802228649DF
:10AD700001F0FEFF00BF864800780028FBD010BD20
:10AD800010B544207F49087000207F490870487042
:10AD90007C49087802227C4901F0EAFF00BF7C4828
:10ADA00000780028FBD010BD00B589B079A00068FC
:10ADB000089079A00068079078A00068069078A0B5
:10ADC0000068059077A00068049077A00068039061
:10ADD00076A00068029076A000680190754880789F
:10ADE000012807DB734880787F2803DC714880786E
:10ADF000694648726F48C078012807DB6D48C07803
:10AE00007F2803DC6B48C078694648716AA00068F7
:10AE1000009018205B4908700878022208A901F008
:10AE2000A7FF00BF5A4800780028FBD018205549DA
:10AE300008700878022207A901F09AFF00BF544861
:10AE400000780028FBD018204E49087008780222AC
:10AE500006A901F08DFF00BF4D4800780028FBD007
:10AE60001820484908700878022205A901F080FFDF
:10AE700000BF474800780028FBD0182041490870DF
:10AE80000878022204A901F073FF00BF404800784F
:10AE90000028FBD018203B4908700878022203A93B
:10AEA00001F066FF00BF3A4800780028FBD0182068
:10AEB000344908700878022202A901F059FF00BF46
:10AEC000334800780028FBD018202E4908700878F5
:10AED000022201A901F04CFF00BF2D480078002894
:10AEE000FBD018202749087008780222694601F033
:10AEF0003FFF00BF264800780028FBD009B000BD06
:10AF00001CB502F05BF8FBF763FF28A00068019016
:10AF100027A00068009027488078012807DB254893
:10AF200080787F2803DC234880786946487121486F
:10AF3000C078012807DB1F48C0787F2803DC1D4844
:10AF4000C0786946487018200E49087008780222B7
:10AF500001A901F00DFF00BF0D4800780028FBD0CB
:10AF600018200849087008780222694601F000FF9D
:10AF700000BF074800780028FBD0FBF70FFF02F066
:10AF80007BF81CBD30210020262100202B21002031
:10AF90007C21002020470000210900002240000001
:10AFA00023000000240000002500000032070000FC
:10AFB00033700000482A0020301500000121820073
:10AFC000FE4B9A5805231B02D2181160704770B5CA
:10AFD00005460C46012D01DD002070BD06216943A8
:10AFE000F74A88180622214602F09CFCA07801F05E
:10AFF000B6F8E07801F0B3F8207903218A00052340
:10B000001B07072636029B1986009A5100BF6079FC
:10B0100001F0A5F8A078A900E84A515805221202CB
:10B0200089188860E078A900E44A51580522120284
:10B030008918C8602079A900E04A515805221202F7
:10B0400089180861607901F093F860780006A9001A
:10B05000DA4A515805221202891848622078A9005C
:10B06000D64A515815229201891848610021A8003A
:10B07000D24A1058FF30013081600120FFF79EFF57
:10B08000A800CE490858A8E730B503460020CD4CAB
:10B090002080002A01D0012B01DD002030BD980066
:10B0A000C64C2058C84C206030E00020C54C2080A1
:10B0B0000024C5480068FF30013084601078C24C1D
:10B0C000246805252D026419E061521C04E0BD4886
:10B0D0000088401CBB4C2080BB480068FF3001301A
:10B0E0008068002805D1B74800887D246401A0420B
:10B0F000EDDBB44800887D246401A04200D10AE061
:10B10000B1480068052424020019806908464C1ED5
:10B11000A1B20028C9D100BF0120BFE730B5034666
:10B120000020A84C2080002A01D0012B01DD002046
:10B1300030BD9800A14C2058A34C206031E0002085
:10B14000A04C20800024A0480068FF3001308460BB
:10B1500000209D4C246805252D026419E06104E05F
:10B1600098480088401C974C208097480068FF3022
:10B1700001308068002805D1924800887D24640150
:10B18000A042EDDB8F4800887D246401A04200D1FD
:10B190000CE08D48006805242402001980691070B5
:10B1A000521C08464C1EA1B20028C8D100BF012085
:10B1B000BEE700218200814B9A5805231B02D2185A
:10B1C0001160704710B581480021016041608160C5
:10B1D000C160D7207D4908701D2000F0CEFF7B4A5A
:10B1E00001210846FFF750FF00BFFEF7B2FA78488A
:10B1F0000021016041608160C1600246022101209E
:10B20000FFF78CFF7248007880210842EDD000BF24
:10B2100000BF1D2000F0ACFF6E480078002802D06F
:10B220006DA002F0D3F910BD10B5FFF7CBFFB92028
:10B23000664908701D2000F0A0FF644A01210846FD
:10B24000FFF722FF1D2000F093FFFFF7BBFF10BDAB
:10B2500010B560480078002801D1FFF7E5FF10BD68
:10B2600010B5AB20594908701D2000F086FF574AE1
:10B2700001210846FFF708FF1D2000F079FFFFF7C6
:10B28000A1FF10BD10B553480078002801D1FFF789
:10B29000E7FF10BD10B50024FFF7F4FF554C4B48F5
:10B2A0000021016041608160C160582047490870F9
:10B2B000200C48702004000E8870CC701D2000F017
:10B2C0005CFF424A04210120FFF7DEFE3F480021D7
:10B2D000016041608160C1604749096801600246C0
:10B2E00004210120FFF7D0FE1D2000F041FFFFF7F1
:10B2F00069FFFFF7ADFF10BD10B500243D4C33488A
:10B300000021016041608160C1603148016041609D
:10B310008160C1600B202D490870200C487020040A
:10B32000000E8870CC70002008711D2000F025FFF1
:10B33000264A05210120FFF7A7FE254A0421012006
:10B34000FFF7ECFE1D2000F013FF224800780028D4
:10B3500006D02AA002F03AF904211D4802F01CF997
:10B3600025481B49096801600068401C03D1224937
:10B370000860FFF78FFF17480078002804D01E48A8
:10B38000016823A002F022F910BD10B50024FFF7D8
:10B3900079FF284C0D480021016041608160C16047
:10B3A00058200A490870200C48702004000E88704C
:10B3B000CC701D2000F0E1FE044A3DE03421002065
:10B3C000CC2900203C21002040210020D829002049
:10B3D000E82900203E2100205B5350495D3A20734C
:10B3E00070692073746174757320667265650D0AE7
:10B3F0000000000000F40F00542100205B5350496E
:10B400005D3A205365712320446174613A20000045
:10B410005B5350495D3A204C6173742053657175DC
:10B42000656E6365204E756D203D202564200D0AF4
:10B430000000000000EC0F0004210120FFF724FEB3
:10B44000F7480021016041608160C160F5490988C9
:10B450000180F54909884180F44909684160F4494F
:10B4600009780172F34909784172F3490A884281E7
:10B4700049888181024610210120FFF705FE1D2029
:10B4800000F076FEFFF79EFEFFF7E2FE10BD38B536
:10B490000024EA4CE2480021016041608160C16003
:10B4A000E748016041608160C1600B20DC490870A1
:10B4B000200C48702004000E8870CC7000200871A9
:10B4C0001D2000F05AFED64A05210120FFF7DCFDC1
:10B4D000DB4A10210120FFF721FE1D2000F048FE6D
:10B4E000D8480078002806D0D7A002F06FF80921CC
:10B4F000D34802F051F8CB48D14909880180CA49A4
:10B50000CF4840880880C948CD4949680160C8488B
:10B51000CB49097A0170C749C948407A0870C649C1
:10B52000C74842890A8080894880BE480088CC4943
:10B5300088421DD10020BB490880BB490880BD4816
:10B54000007840084000BB49087008460078022196
:10B550008843B8490870C348006BB449086008467E
:10B560000068B5490860B24800210170FFF70DFF7F
:10B57000B4480078002824D0BBA002F027F8A948DE
:10B580000188BFA002F022F8A7480188C3A002F0FA
:10B590001DF8A6480168C8A002F018F8A448007871
:10B5A00001460090CBA002F011F8A24800680146C5
:10B5B0000090D0A002F00AF89F480168D5A002F0E0
:10B5C00005F838BDF0B589B004460027002521E014
:10B5D00020783038C6B20721481B02F0FAFA02463A
:10B5E0000B46019100900020D34903F0E9FA059140
:10B5F0000490304602F0F5FA03910290059B049AFC
:10B6000002F0F2FA0791069002F09EFAC719641C44
:10B61000681CC5B2082DDBDB384609B0F0BD10B59B
:10B620000024FFF72FFEC54C7D48002101604160DA
:10B630008160C16058207A490870200C487020044D
:10B64000000E8870CC701D2000F097FD744A042114
:10B650000120FFF719FD834A78210120FFF714FD2F
:10B660001D2000F085FDFFF7ADFDFFF7F1FD10BDDA
:10B6700070B50025B14D6A480021016041608160CC
:10B68000C1600B2066490870280C48702804000E21
:10B690008870CD70002008711D2000F06EFD604A9A
:10B6A00005210120FFF7F0FC6E4A78210120FFF709
:10B6B00035FD1D2000F05CFDFFF784FD614800783A
:10B6C000002806D09EA001F081FF7821654801F096
:10B6D00063FF64480078012850D001206149488305
:10B6E000022088839C48086312229CA15D48523046
:10B6F00002F018F913215B48401C02F070F908228F
:10B700009BA15848401C02F00DF90A2155482030F1
:10B71000017506229B494A3002F004F906229A4933
:10B720005048703002F0FEF87D21C9004D4840308D
:10B7300001802D2120308180C821C1801E2101720D
:10B74000002120384174C521017106228F492C380F
:10B7500002F0E8F810228E4942481E3002F0E2F86A
:10B76000702140484030C170072181700021203095
:10B77000417201203B490870FFF751FF31480078C2
:10B7800000284CD03748418B82A001F01FFF35487C
:10B79000818B87A001F01AFF3248016B8BA001F06A
:10B7A00015FF3049523190A001F010FF2D49491C7E
:10B7B00092A001F00BFF2B482030017D96A001F0F4
:10B7C00005FF9DA001F002FF002407E025486A3034
:10B7D000015D9EA001F0FAFE601CC4B2062CF5DBF0
:10B7E0002DA001F0F3FE9BA001F0F0FE002407E085
:10B7F0001C487030015D95A001F0E8FE601CC4B2E9
:10B80000062CF5DB24A001F0E1FE1648403001884B
:10B8100095A001F0DBFE13486030818836E186E1B7
:10B82000D829002044210020462100204821002062
:10B8300064200020582100205021002000EC0F003F
:10B84000E82900203E2100205B5350495D3A204307
:10B850006F6E66696720506172613A2000000000D7
:10B86000FFFF0000082A00205B5350495D3A204347
:10B870006F6E66696720506172613A0A00000000CD
:10B880005B5350495D3A204576656E7420496E647D
:10B890006578203D202564200D0A00005B53504947
:10B8A0005D3A204C617374205265616420494420E4
:10B8B0003D202564200D0A005B5350495D3A20432A
:10B8C000757272656E742054696D65203D20256423
:10B8D000200D0A005B5350495D3A204D616E752082
:10B8E000426974204669656C64203D2025303258D9
:10B8F000200D0A005B5350495D3A20496E666F2067
:10B90000426974204669656C64203D2025303258B8
:10B91000200D0A005B5350495D3A204C617374203E
:10B92000646F6F72206F70656E2054696D65203D85
:10B93000202564200D0A00000000244000EE0F00C6
:10B940005B5350495D3A205065726D616E656E744F
:10B9500020506172613A200000442B545342422D22
:10B9600053543130323130303039303030310000E2
:10B97000696E7321676D403F202020202020202009
:10B980002020200074F601007AF601003320002008
:10B99000062000205B5350495D3A204D616A6F726A
:10B9A00056657273696F6E203D202564200D0A0074
:10B9B0005B5350495D3A204D696E6F7256657273E4
:10B9C000696F6E203D202564200D0A005B535049AD
:10B9D0005D3A205265616C2054696D65203D2025DB
:10B9E00064200D0A000000005B5350495D3A20536B
:10B9F000522023203D202573200D0A005B5350491F
:10BA00005D3A205041535320574F5244203D20254A
:10BA100073200D0A000000005B5350495D3A20700E
:10BA20006572696F646963496E74657276616C20D2
:10BA30003D202564200D0A005B5350495D3A204C9F
:10BA400061746974756465203D20000025303258AA
:10BA50003A0000005B5350495D3A204C6F6E6769B5
:10BA600074756465203D20005B5350495D3A204168
:10BA7000647665727469736D656E74496E7465720F
:10BA800076616C203D202564200D0A00DDA001F0C8
:10BA90009DFDE548017AE5A001F098FDE2482038D7
:10BAA000417CEBA001F092FDDF4820380179F0A045
:10BAB00001F08CFDF5A001F089FD062408E0601E70
:10BAC000D94A4C3A115CF74801F080FD601EC4B2BF
:10BAD000002CF4DCD3A001F079FDD3482038817824
