:020000040001F9
:10600000183700206962010083620100D775010022
:106010000000000000000000000000000000000080
:106020000000000000000000000000008762010086
:106030000000000000000000896201008B62010086
:106040008D6201008D6201008D62010045D4010066
:106050008D62010000000000F9A901008D620100BD
:106060008D6201008D6201008D6201008D62010070
:106070008D6201008D6201008D6201008D62010060
:106080008D620100BDA101008D6201008D620100E1
:10609000DFA101008D62010051A601008D620100A7
:1060A0008D6201008D620100000000000000000010
:1060B00000000000000000000000000000000000E0
:1060C00000F002F800F044F80CA030C8083824189A
:1060D0002D18A246671EAB4654465D46AC4201D120
:1060E00000F036F87E460F3E0FCCB646012633420E
:1060F00000D0FB1AA246AB4633431847E49E00008B
:10610000049F00000023002400250026103A01D33C
:1061100078C1FBD8520700D330C100D50B6070475F
:1061200010B5642902D107F081FE10BD782902D193
:1061300007F0B2FE10BD732902D108F025FD10BD95
:10614000002010BD1FB5C046C0461FBD10B510BD14
:1061500009F008F81146FFF7F5FF01F06DFD09F0B1
:1061600020F803B4FFF7F2FF03BC09F073F8000056
:10617000401E00BF00BF00BF00BF00BF00BF00BF88
:1061800000BF00BF00BF00BF00BFF1D170470000DB
:10619000401E00BF00BF00BF00BF00BF00BF00BF68
:1061A00000BF00BF00BF00BF00BFF1D170470000BB
:1061B000401E00BF00BF00BF00BF00BF00BF00BF48
:1061C00000BF00BF00BF00BF00BFF1D1704700009B
:1061D000401E00BF00BF00BF00BF00BF00BF00BF28
:1061E00000BF00BF00BF00BF00BFF1D1704700007B
:1061F000401E00BF00BF00BF00BF00BF00BF00BF08
:1062000000BF00BF00BF00BF00BFF1D1704700005A
:10621000401E00BF00BF00BF00BF00BF00BF00BFE7
:1062200000BF00BF00BF00BF00BFF1D1704700003A
:1062300070B505460C46164602E00FCC0FC5103E61
:10624000102EFAD2082E02D303CC03C5083E042E2A
:1062500007D301CC01C5361F03E021782970641CE7
:106260006D1C761EF9D270BD03210C4802680A43EA
:1062700002600B4802680A4302600A4880470A48E5
:106280000047FEE7FEE7FEE7FEE7FEE7FEE7000069
:1062900006480749054A074B70470000240500409F
:1062A000540500404F630100C1600100182B00201D
:1062B00018370020182B00202E482F4908607047FF
:1062C0002E48008CC0B2012810D12C48808C0007C9
:1062D000000F0BD12948806AF0210840402805D1E1
:1062E0002648C06A084201D1012070470020FCE71F
:1062F0002248008CC0B2012827D12048808C00079A
:10630000000F22D11D48806AF021084205D11B48A8
:10631000C06A084201D1012070471848806AF02104
:106320000840102805D11548C06A084201D1012053
:10633000F2E71248806AF0210840302805D10F4862
:10634000C06A084201D10120E6E70020E4E710B569
:10635000FFF7CEFF002805D009480A494860C81356
:1063600009498861FFF7ACFF002802D001200749E6
:10637000886010BD0024F40000200020C00F00F051
:10638000DFFF07C000050040006C00400006004031
:1063900001F0BEFC04460D462A462146FE48FFF7A2
:1063A000F7FF044600BFFDA26D212046FFF7F0FF76
:1063B0001FB500200090019002900390FA480078E9
:1063C00069460870F9480078002804D00878102140
:1063D000084369460870F6480078002805D06946E9
:1063E00008789021084369460870F24801786846A9
:1063F0004170F0480088011268468170EE480178CB
:106400006846C170EC4800880004010E68460171BE
:10641000E94800680002010E68464171E6480068DC
:10642000010E68468171E54801786846C171E3480C
:1064300000880004010E68460172E048006800020E
:10644000010E68464172D848007804284BD1D848DC
:106450000078002831D0DA480068002817D0D848E2
:1064600001786846C170D64800880004010E68466D
:106470000171D34800680002010E68464171D0489E
:106480000068010E684681710020CD490860CD4842
:10649000017868468172CB4800880004010E684686
:1064A000C172C84800680002010E68460173C54801
:1064B0000068010E6846417355E0C348017868469C
:1064C0008172C14800880004010E6846C172BE484E
:1064D00000680002010E68460173BB480068010EA7
:1064E000684641733FE0B0480078072820D1B7489C
:1064F000017868468172B54800880004010E68463C
:10650000C172B24800680002010E68460173AF48CC
:106510000068010E68464173AD480068AB490968E0
:10652000441A684684732004010E6846C1731AE059
:10653000A848017868468172A64800880004010EC8
:106540006846C172A448017868460173A34801787F
:1065500068464173A1480088011268468173A048CB
:1065600001786846C1736946924805F070FF1FBD07
:106570001FB50020009001900290039069460870BA
:106580008A480078002804D008781021084369461A
:106590000870884801786846417086480088011272
:1065A00068468170844801786846C17082480088D6
:1065B0000004010E684601717F4800680002010E68
:1065C000684641717C480068010E684681717B48CD
:1065D00001786846C171794800880004010E684658
:1065E0000172764800680002010E684641727948DF
:1065F000017868468172774800880004010E684679
:10660000C17275480178684601737448017868461C
:10661000417372480088011268468173704801789E
:106620006846C17369466F4801F012FF1FBD10B57F
:10663000012005F06BF805F0A3FA012005F061F9DF
:1066400010BD30B5A3B0062100914C2168460182EF
:106650001721818264490691382115A807F093FD1E
:10666000002110A88175012101836946179104A8B2
:106670002090382107A807F086FD5C496846818094
:10668000012101815A4903910221017701A8139048
:10669000012110A8017407A915A803F038F80446D1
:1066A00000BF2546002D06D000BF3CA28B218900EB
:1066B0002846FFF76DFE00BF23B030BD10B53D4842
:1066C0000088401C3B490880002037490870FFF7CC
:1066D0006FFE38480088474988421ADB0020354958
:1066E000088045480078C007C00F06D142480078AE
:1066F00040084000401C404908703F48007880072F
:10670000C00F06D13C48007802218843801C3A49DA
:1067100008703748007840084000401C3449087031
:10672000FFF78FFF05F02CFA10BD10B51F48007859
:10673000002804D0FFF785FFFFF779FF6DE01D48C3
:106740000088401C1B49088004201749087001205C
:1067500004F0DCFFFFF72CFE012005F0D2F815480D
:106760000088244988424DDB0020124908802248D5
:106770000078C007C00F06D11F48007840084000CD
:10678000401C1D4908701C4800788007C00F39D193
:1067900019480078022131E0EFBEADDE2E2E5C6D8F
:1067A00061696E2E630000001B2000202D20002058
:1067B000312000205C210020602100206421002085
:1067C00098200020942000206821002040200020F4
:1067D00044200020882000208A2000208C200020D7
:1067E0003B2000205427002004200020839E00002E
:1067F00064200020A0FE0000702100208843801C3F
:10680000F9490870F948007840084000401CF749F1
:106810000870FFF716FFFFF70AFF0020F449087021
:10682000F448008820218843F249088010BD10B543
:10683000F1480088401CF04908800420EF490870A6
:10684000012004F063FFFFF7B3FD012005F059F8C4
:10685000E9480088EA4988421ADB0020E6490880B6
:10686000E1480078C007C00F06D1DF480078400833
:106870004000401CDC490870DB4800788007C00FEE
:1068800006D1D948007802218843801CD649087077
:10689000D648007840084000401CD449087008469B
:1068A0000078802188438030D0490870FFF7C9FE06
:1068B000FFF7BDFE0020D3490870D3490870D349C3
:1068C0000870CC480088012189028843C9490880A2
:1068D00010BD10B5C8480088401CC7490880CC4886
:1068E0000068CC4908600720C4490870012004F002
:1068F0000DFFFFF75DFD012005F003F8BE4800889D
:10690000BF4988421ADB0020BB490880B64800789E
:10691000C007C00F06D1B448007840084000401CB2
:10692000B1490870B04800788007C00F06D1AE4862
:10693000007802218843801CAB490870AB4800787E
:1069400004218843001DA9490870FFF77AFEFFF76C
:106950006EFE0020B049087010BD0120AF490860EC
:10696000AF49086000BFAF4800680028FBD0002096
:10697000AC490860A9488068AB4908800120A84953
:1069800048600020A5490860A7480088A74908700A
:10699000704710B5032001F0C4F9032001F0CAF9D3
:1069A00010BD10B504469A480068401C984908601C
:1069B00001209F4908709F480078002833D09E48E6
:1069C000407C00282FD103200123834019469B4B94
:1069D0005B68C340DA07D20F002A02D1974B996057
:1069E00001E0964BD96000BF8748007800281AD193
:1069F000152001F0A9F9012815D17C480078C006BE
:106A0000C00F10D10120804908707848007810210B
:106A100088431030754908707D48006888490860CF
:106A200001208849087084482030407A002803D02B
:106A30008148407C01280ED14B21C9007448006870
:106A400007F0A3FB002906D17F480078002802D177
:106A500001207D4908707D480078002829D07C48B5
:106A60000078002825D07A480078401E78490870C0
:106A70000846007800281CD1022001F065F90028A2
:106A800014D16D482030407A00280FD101216A4886
:106A900020304172012004F039FE05F071F805F054
:106AA0007AF9012004F02DFF01F032F90020674946
:106AB000087010BD01F02CF9F8B500BF6548664BB1
:106AC000092208210090002003F08DFB054600BF3D
:106AD0002E46002E06D000BF604AFF21D931304635
:106AE000FFF756FC00BF00BF5D4A01215D4803F07F
:106AF000F6FB044600BF2546002D06D000BF574ACE
:106B0000FF21DC312846FFF743FC00BF564A012134
:106B1000564803F0E4FB044600BF2546002D06D08E
:106B200000BF4E4AFF21DF312846FFF731FC00BF8E
:106B3000F8BD3EB500BF6846007801090901491C4F
:106B4000009168460078F02188431030009000BF23
:106B500012223949123168467CDF044600BF2546BF
:106B6000002D06D000BF3D4AFF21F2312846FFF735
:106B70000FFC00BF0120400278DF044600BF25461D
:106B8000002D06D000BF354AFF21F6312846FFF719
:106B9000FFFB00BF0020019002900C21684681801D
:106BA0002021C180002101812821418101A87ADFB3
:106BB000044600BF2546002D05D000BF274A2C49BA
:106BC0002846FFF7E5FB00BF042077DF044600BF3F
:106BD0002546002D06D000BF204A2549C91C28465D
:106BE000FFF7D6FB00BF3EBD7021002064200020CF
:106BF000202000203C2000205C2100201B200020C1
:106C0000A0FE000031200020322000203020002093
:106C10006021002044200020272000200075004033
:106C20000070004000710040922000203B200020B6
:106C3000282000201F200020602A0020000500508E
:106C4000682100202F200020332000202C2000204D
:106C500048200020577D0100BC2100209C670100D6
:106C6000A369010068200020B56A01006C200020A3
:106C7000FF01000030B589B0202101A807F083FA98
:106C80001421FE4807F07FFA1421FD4807F07BFA33
:106C90001422FA4905A801F022FC1422F84907A899
:106CA00001F01DFC002001900490F648029001A91B
:106CB000F54801F05DFB044600BF2546002D05D0D8
:106CC00000BFF24AF2492846FFF762FB00BF09B055
:106CD00030BD10B5FFF7CEFF10BD1E20ED49088076
:106CE0000846807840084000401C8870084680783C
:106CF00002218843E7498870084680781C21884330
:106D00000C30E44988700846807820218843E149A6
:106D100088700720C87010200871704770B505464C
:106D20002878002810D13B21DB48008876DF044614
:106D300000BF2646002E06D000BFD44A9B21890002
:106D40003046FFF725FB00BF70BD044600BFCF4AA9
:106D5000CF4935312046FFF71BFB30B587B01C21EA
:106D6000684607F010FA002000900520C00301904B
:106D700002900321684601730021C1810174C74854
:106D80000590C7480690684606F06FFE044600BFAF
:106D90002546002D06D000BFBC4ABD494C312846CF
:106DA000FFF7F6FA00BF07B030BD70B5BD480078F8
:106DB000002813D0BC48006803F009FB044600BF5C
:106DC0002546002D06D000BFB04AB14958312846AB
:106DD000FFF7DEFA00BF0020B249087070BD70B541
:106DE000B0480078002816D100220121C903AE481E
:106DF000006803F0BBFA044600BF2546002D06D00C
:106E000000BFA24A5521C9002846FFF7C1FA00BFBA
:106E10000120A449087070BD70B5A448007800280E
:106E200013D0A348006803F0D2FA044600BF2546F9
:106E3000002D06D000BF954A5721C9002846FFF70C
:106E4000A7FA00BF00209949087070BD70B5974837
:106E50000078002816D10022872189049448006810
:106E600003F084FA044600BF2546002D06D000BF7B
:106E7000864A874983312846FFF78AFA00BF0120F6
:106E80008A49087070BD10B58A480488142C00D84F
:106E900014248948844200D3044620010A2107F0C3
:106EA00074F98649088010BD30B585B0814820301E
:106EB000407A002801D105B030BD1421684607F0A2
:106EC00062F9002168460170002001906846017255
:106ED0007A480188684601820021418273DF0446B6
:106EE00000BF2546002D06D000BF684A6849AF3173
:106EF0002846FFF74DFA00BF71480078002802D1FC
:106F000001206F49087000BFD5E710B5152000F0CB
:106F10001BFF01280AD16B480078102188431030EC
:106F20006849087001206849087008E065480078E1
:106F3000102188436349087000206349087010BD20
:106F40007CB50020009001906946087006225949DE
:106F50002C3900A8013007F0B7F86946002070DF2F
:106F6000044600BF2546002D05D000BF474A5749BB
:106F70002846FFF70DFA00BF7CBD70B503F077FC23
:106F8000044600BF2546002D06D000BF3F4A4B21D6
:106F900009012846FFF7FCF900BF70BD70B503F08A
:106FA00072FC044600BF2546002D06D000BF374ABC
:106FB0009721C9002846FFF7EBF900BF70BDF8B56F
:106FC00005462888142855D006DC10280BD0112837
:106FD00025D013284FD1DBE017284DD019284CD0ED
:106FE0005228F7D1E7E0A8882B49088014203849B7
:106FF0000870002037490870FFF7D0FFFFF726FF21
:107000002F480078002802D000202D49087032480F
:107010000078002802D101202F49087010E10020DB
:10702000C0431D4908802C480078002802D0002069
:1070300029490870032000F082FE002024490870CE
:107040002449087022494870FFF797FFFFF71BFF9C
:10705000FFF76FFDFFF774FF20480078002847D046
:1070600000201E49087001201D4908701D48008835
:10707000012139E0B7E0E2E0AFE0DFE02C270020BB
:1070800040270020A3630100542700209C670100D3
:10709000420200009C2000204A2000201D6D0100BB
:1070A0004B6D01001C200020682000201D200020C6
:1070B0006C200020602A0020102700009020002073
:1070C0001E200020642000202D200020C604000087
:1070D0007B210020982100201F200020302000204C
:1070E000312000203C20002089020843F749088015
:1070F000152000F029FE00281ED1F5480078C006B2
:10710000C00F19D00020F34908700120F24908701F
:10711000EE48008820210843EC490880EC480078BC
:1071200010218843EA4908700020EC490870EC49B6
:107130000870EC49087022E0152000F005FE0128D7
:107140001DD1E3480078C006C00F18D10120E149E5
:107150000870E1490870DD48008820210843DB49B8
:107160000880DB480078102188431030D849087027
:10717000DD480068DD4908600120D8490870FFF744
:10718000C4FEFFF75EFAFFF78FFEFFF745FE57E0FC
:10719000D74A0021D74800887FDF044600BF274632
:1071A000002F06D000BFD44AD52189003846FFF70A
:1071B000EFF800BF44E000221146CE480088A9DF66
:1071C000044600BF2746002F05D000BFCA4ACB495E
:1071D0003846FFF7DDF800BF32E03222A91DC8486B
:1071E00006F072FF2CE0C64EB61D3188E889814258
:1071F00011D100223146BF48008881DF044600BF1C
:107200002746002F06D000BFBB4ABC490C31384688
:10721000FFF7BEF811E000221146B648008881DF72
:10722000044600BF2746002F06D000BFB24AB3492C
:1072300012313846FFF7ACF800BF01E000E000BFB4
:1072400000BFF8BD10B504462046FFF7B8FE204643
:1072500006F0E5FC2146AB4800F0CAFF10BD10B5B2
:107260000446204601F0D9FB10BDF8B500BF00234D
:107270005022A549082003F0A4F9054600BF2E4678
:10728000002E06D000BF9C4A9C4946313046FFF78D
:107290007FF800BF00BF002000900090684660DFCC
:1072A000044600BF2546002D06D000BF924A9349F0
:1072B0004D312846FFF76CF800BF944803F0B6F94B
:1072C000044600BF2546002D06D000BF8A4A8B49E0
:1072D00051312846FFF75CF800BF8D4803F0AFF945
:1072E000044600BF2546002D06D000BF824A8349D0
:1072F00055312846FFF74CF800BFF8BD70B500BF08
:10730000844A0A21082002F04BFA044600BF2546B1
:10731000002D06D000BF784A78495D312846FFF736
:1073200037F800BF00BF70BD70B504460D46012D93
:1073300039D1022C24D00D2C02D0152C2BD103E0F6
:107340000120754908702DE0002062490870012075
:10735000614908705D480088202108435B49088026
:107360005B480078102188435949087000205B4928
:1073700008705B4908705B490870FFF762F911E01B
:1073800066480078002805D1012064490870022071
:107390006349087006E000BF574A584988312046C3
:1073A000FEF7F6FF31E0002D2FD1022C24D00D2C5A
:1073B00002D0152C21D103E000205749087023E0AA
:1073C0000120444908704449087040480088202141
:1073D00008433E4908803E48007810218843103019
:1073E0003B490870404800684049086001203B491B
:1073F0000870FFF726F907E006E000BF3E4A3F4964
:10740000A8312046FEF7C4FF00BF70BD70B500BFB5
:107410004449012003F06DFB044600BF2546002DC2
:1074200006D000BF344A3549C0312846FEF7B0FFC8
:1074300000BF00BF70BD70B500BF3B4B3B4A03218E
:107440003B4803F0D2F9044600BF2546002D06D084
:1074500000BF294A2949D3312846FEF799FF00BFCA
:1074600000BF70BD70B540DF044600BF2546002D4B
:1074700006D000BF204A2149DC312846FEF788FFAC
:1074800000BF70BD10B50F2000F04BFC102000F0C5
:1074900048FC102000F04EFC2648FEF769FE102044
:1074A00000F04DFC0F2000F045FC2248FEF760FE86
:1074B0000F2000F044FC10BD08B5002006231F2259
:1074C00007210090202006F033FA08BD3C20002060
:1074D000642000202D200020202000202F200020CC
:1074E0003020002032200020602100206821002070
:1074F0009C2000204A2000209C67010059030000C6
:10750000E4250020542700201826002045720100A1
:107510005F72010068260020262000202C20002019
:1075200048200020182700206D7D0100660600001D
:107530004C200020A086010008B5FE48006800909D
:10754000684606F011F908BD1CB5FA49091D03C9C2
:10755000019100906946012004F0E1F81CBD10B5CE
:107560000020C043F449C861002409E0022005213D
:107570000907072212028918A2008850601CC4B2B1
:10758000202CF3DB162000F0CCFB162000F0D2FB01
:1075900010BD1820E94948600020E949086070479B
:1075A00010B503F07DFFE748FEF7E2FD10BD10B512
:1075B00000240DE0032000F0BDFBE348FEF7D8FDFA
:1075C000032000F0BCFBE048FEF7D2FD601CC4B213
:1075D000032CEFDB10BD00F09BFB10B5DB480078FF
:1075E000002804D1DA480078002800D110BDD9481D
:1075F0000078002820D0FFF729FC06F0B1F87D20A4
:10760000C000FEF7B5FD03F022FF0020D24908704C
:107610004870D0490870D1480088FF210131884363
:10762000CE4908800120CE490870CC4800888021CE
:107630000843CA4908809BE0C948007800284ED01A
:1076400003F016FC7D20C000FEF792FD03F0DAFB8C
:10765000C448007800282CD00121BF4800780002DF
:10766000BD4A52781043C04A10801046008800116D
:107670001080C8021288104206D0BB4800880F2232
:1076800012031043B84A1080B748008800B2B74AC6
:107690001080104600880A22504300B2B34A10807E
:1076A0000020105EC217120F12181211AF4B1A8071
:1076B00000BF0020A84908704870A9490870A74871
:1076C000008880218843A54908800120A8490870C6
:1076D000A248008840210843A049088048E0A44807
:1076E0000078002844D0A348FEF742FD03F09AFE3C
:1076F0009C480078002815D000209F4908809648B3
:10770000407800029449097808439B490880098819
:107710007D22D20051430846C917090C09180914E3
:10772000954A11800020924908708C4800884021B9
:1077300088438A49088003F09FFE84480078002827
:1077400007D0FFF70AF9FEF713FF00207F49087002
:1077500009E0012003F0DAFFFEF7B0FF012004F09A
:10776000D0F8FFF759FB00207949087006F056F869
:1077700000BF3BE710B581480078002813D080484F
:107780000078002803D000F047FC00F0C1FA05F0B3
:10779000E0F90020794908707048008840084000EE
:1077A0006E4908804EE077480078002816D0764869
:1077B000407C002807D174482030407A012802D14B
:1077C000FFF735F83EE000206E49087063480088F6
:1077D0000121890288436149088033E06B480078C1
:1077E000002815D06848407C002807D16648203022
:1077F000407A012802D1FEF798FF23E00020634978
:10780000087056480088202188435449088019E0B0
:107810005F480078002815D001204E4908704F4875
:107820000088FF21013108434C4908800020584955
:1078300008704A4800881021884348490880012080
:107840004249087053480078002820D152480078F7
:10785000002803D03D480078002818D04A48407CD2
:10786000002807D148482030407A012802D1FFF78C
:10787000B4FE0CE000203749087038480088FF212A
:10788000013188433549088000203149087010BD16
:1078900010B53B480078002800D010BD3A48407C25
:1078A000012800D1F9E738482030407A002800D17B
:1078B000F3E73A480078002822D0394800780028B9
:1078C0001ED10120364908703248007800280BD1BB
:1078D0000120304908703348007840218843403007
:1078E00030490870FEF7ADFE2F480078002806D119
:1078F0002E4800682E49086001202B49087089E055
:107900002748007801287DD10D2000F01DFA0128BC
:1079100078D12148007800287CD1214908701F497E
:107920000870FEF7D6FF1B48007800284BD00020D7
:1079300018493FE068FE0100000500500075004056
:1079400000710040A086010020A107002A2000202D
:107950002E20002024200020432100203C20002055
:1079600022200020952100207C200020882000205B
:107970002320002060AE0A008C200020742100200B
:107980007821002031200020602A002020200020C3
:1079900021200020292000201F2000202620002058
:1079A0003A200020642000202720002060210020B1
:1079B000402000200870F848007840218843F649AC
:1079C0000870FEF73EFE152000F0BEF9002821D118
:1079D000F1480078C006C00F1CD00020EF490870A5
:1079E0000120EF490870EF48008820210843ED4945
:1079F0000880E948007810218843E7490870002092
:107A0000E94900E006E00870E8490870E8490870B4
:107A1000FEF717FE00BF40E770B5E6480078002883
:107A200011D074DF044600BF2546002D05D000BFED
:107A3000E14AE2492846FEF7ABFC00BF0020DD49E1
:107A40000870DF49087070BD10B5DA48007800286A
:107A500012D1DC48007800280ED1FFF714FAFFF7A6
:107A600068F8FFF76DFAFFF750FAFEF7EAFDFFF747
:107A70001BFA0120D249087010BD70B50025D2480C
:107A8000007800287DD0C8480078002829D0C74851
:107A90000078002825D1CD480068CD490968401AF2
:107AA00078281ED30020C04908700120BF49087003
:107AB000C7480068C7490860C248007800280CD150
:107AC000C54908600120C5490870B64800880121F1
:107AD00089020843B349088003E0BC480068BE49F6
:107AE0000860BF480078002808D0B6480078002811
:107AF00004D1FEF79CFD0020B94908703C21B34831
:107B0000006806F042FB00291DD1B648057D3C21E6
:107B10004D432946AD48006806F037FB002912D1D5
:107B2000B148007800280ED1FEF717FF0120AF49B9
:107B300008709C480088FF2101310843994908805A
:107B40000120A9490870AA48007800280CD09D4857
:107B50000078002808D1FFF721FA03F08AFDFFF72B
:107B60000CFA0020A2490870A2480078002813D01F
:107B7000A0490878C10F091849104900411A04D1D9
:107B800000E058E000F0DCF901E000F0E4F9994889
:107B90000078401E9749087092484030407A01288A
:107BA00005D187480078002801D1FFF74DFF8D48A7
:107BB0004030407A002805D181480078002801D063
:107BC000FFF72AFF002431E0002C02D0012C2AD13B
:107BD00016E089480078002811D087480078401EB8
:107BE0000006000E8449087009D1844800780028F6
:107BF00005D174480078002801D006F05AF812E048
:107C00007D48407800280DD07B484078401E000613
:107C1000000E7949487005D16A480078002801D0E3
:107C200006F047F800BF00BF601CC4B2022CCBDBDB
:107C300000206549087070BDFFF791FCFEF7A9FEB2
:107C4000FFF720FCFFF7A5FCFEF736FFFFF7DEFB92
:107C5000FFF7F1FBFFF709FBFFF750FBFFF72CFCE9
:107C6000FFF76AFCFFF770FC04F076FB6448FEF750
:107C70007FFAFFF795FC05F0D1FD012003F041FEEE
:107C800005F0F0FDFEF755FFFFF723F8FFF758F971
:107C9000FFF73BF9FEF7D5FCFFF75FF8FFF71DF89C
:107CA000FFF76BF9FFF7EFF84E484030407A0128B4
:107CB00007D14348007800280AD1012040490870C4
:107CC00006E048484030407A002801D1FFF76FFCB9
:107CD000FFF7EAF8FFF783F8032000F030F800BF61
:107CE000FFF7CBFEFFF7D4FD01F01BFE2D48008807
:107CF000002804D001F015FEFFF73CFDF0E729480D
:107D000000880028ECD101F00CFEFFF7ABFBE7E7A1
:107D1000BFF34F8F3B483C49C860BFF34F8F00BF54
:107D2000FEE703210522120707231B02D218830056
:107D3000D150704701218140344A91607047012140
:107D40008140324AD1607047014630480069C840DE
:107D5000C007C00F70477CB504460D4600940195DE
:107D60002B4A0821684601F03BFD7CBD7CB50446EA
:107D70000D4616460094684605714671254A08214D
:107D800001F02EFD7CBDF8B504460D46264600BF29
:107D9000082D41D1012040E0642000202D2000204A
:107DA000202000203C2000202F2000203020002018
:107DB000322000201E2000209C670100D706000012
:107DC0002B2000201F2000202820002060210020E0
:107DD00068210020942000209820002031200020DD
:107DE00033200020402A00202E20002024200020C4
:107DF00075210020792100207B210020982100207E
:107E0000102700000400FA0500ED00E00005005016
:107E1000877D0100377E010000200746002F05D135
:107E200000BF11A2FF211B31FEF7B2FA00BF31687B
:107E300070688847F8BDF8B505460E462C4600BF69
:107E4000082E01D1012000E000200746002F04D1B8
:107E500000BF11A2A821FEF79BFA00BF617920792B
:107E600022689047F8BD00002E2E5C2E2E5C2E2E30
:107E70005C2E2E5C2E2E5C496E636C7564655C61B5
:107E800070705F636F6D6D6F6E5C6170705F746951
:107E90006D65722E680000002E2E5C2E2E5C2E2E3C
:107EA0005C2E2E5C2E2E5C496E636C7564655C6185
:107EB00070705F636F6D6D6F6E5C6170705F627527
:107EC00074746F6E2E680000002046494860886018
:107ED0000720086101204449C8600F204149403112
:107EE0000860012041490860704770B5404A3F4929
:107EF000C039022047DF044600BF2546002D06D0CA
:107F000000BF3CA253212846FEF742FA00BF00BF43
:107F1000042045DF044600BF2546002D06D000BFE3
:107F200034A257212846FEF733FA00BF00BF70BDC8
:107F300010B5002303220421022000F01DF810BD1B
:107F400010B5FFF7D2FFFFF7BFFFFFF7F1FF0120EA
:107F50002549086010BD0020254908395122120129
:107F6000891888600120204948600420012181404F
:107F7000234AD16000BF704770B5002B0CD101249B
:107F80008C401F4DEC601F4C194D083D51263601A9
:107F9000AD198600AC510BE001248C40184DAC604B
:107FA000194C134D083D51263601AD198600AC51D0
:107FB00000BF00BF00BF012485000D4E083EAD1973
:107FC0002C600C0203252C4315042C431D052C4367
:107FD000354651263601AD198600AC5100BF00BFB1
:107FE00000BF70BD00A5004000A0004000A20040FE
:107FF000086000402E2E5C62757A7A65722E6300EE
:1080000000050050031F0200031F01008A8802823E
:108010007047FA490870704710B50020FFF7F9FF64
:108020000020F7490870012003F06BFC10BD70B50B
:1080300004460D46F248007800280CD0FFF7ECFF0C
:1080400000BFBFF34F8FEF48EF49C860BFF34F8FBA
:1080500000BF00BFFEE70020C043208270BD33B5E3
:108060008BB004463C20E9494870142102A806F070
:108070008AF802A90CA804F09FF9142101910020AC
:108080000790089009900A90E1480188684681832A
:10809000012181770021018401A8099002A80A909A
:1080A000208A07A9A6DF0546002D08D1D34800780D
:1080B000012804D1D7480088401CD64908802846AA
:1080C0000DB030BD70B505463FE0D34800880028AC
:1080D00002D1FFF7A1FF3CE0D04801882846FFF716
:1080E000BEFF0446002C01D0204670BD002C05D0F8
:1080F000082C1BD0CA4820181CD116E0BF480078B5
:10810000012811D1C5480088401CC4490880084690
:108110000088C449884202DD0120C0490880BE4869
:108120000088401EBC4908800EE00DE0FFF774FF98
:108130002046DAE7A868002802D02046A9688847C8
:10814000FFF76AFF2046D0E700BFAC48007801285F
:10815000BBD000BF0020C8E770B505462BE0AD4896
:108160000088B1490988884202DDFFF755FF22E007
:10817000A84801882846FFF772FF0446002C01D06A
:10818000204670BD002C05D0082C05D0A44820182E
:1081900006D100E00EE00DE0FFF73EFF2046F0E7DD
:1081A000A868002802D02046A9688847FFF734FF56
:1081B0002046E6E700BF914800780128CFD0002094
:1081C000DFE770B504460D468D480078802804D05E
:1081D000922806D0952809D104E02046FFF7BCFF7D
:1081E00004E000BF2046FFF76DFF00BF00BF70BD79
:1081F00070B505460C462088012811D0102804D0FF
:10820000112807D0502810D109E021462846FFF751
:10821000FDFE0BE021462846FFF709FF06E005E0DA
:1082200021462846FFF7CDFF00E000BF00BF70BD2C
:10823000F0B58FB006460C4617461D4600BF002F0E
:1082400001D0012000E0002000900098002805D116
:1082500000BF76A28F21FEF79BF800BF00BF00BFD2
:10826000002D01DD012000E0002000900098002892
:1082700005D100BF6DA29021FEF78AF800BF00BFB4
:108280001C2107A805F07FFF6C48844207D169468E
:10829000087F0821884308306946087710E067485E
:1082A000801E84420CD16846007F02218843811CD5
:1082B00068460177007F10218843103069460877AF
:1082C000002008900A900B900C900D90317808A82F
:1082D0008176684604870020019000BF68460079D7
:1082E00001090901491C684601710079F0218843A0
:1082F00010306946087100BF00BF68464079010927
:108300000901491C684641714079F02188431030C9
:108310006946487100BF6846807906218843811C00
:1083200068468171807908218843014668468171D9
:10833000807910218843014668468171807941081F
:10834000490068468171142102A805F01CFF0EA89F
:10835000029001A80390684605820021418285822F
:108360000697F08902AA07A9149BA2DF0FB0F0BDFF
:1083700070B586B005460C46314B0FCB01AE0FC62B
:10838000206868600020C0432882294601A863DF76
:108390000646002E02D0304606B070BD29786846E9
:1083A0008175284981822A460E3205A90120A0DF65
:1083B0000646002E01D03046EEE7208A00280CDD6C
:1083C00021480090238A1D4928466269FFF730FF43
:1083D0000646002E01D03046DEE7208B002835DD32
:1083E0000B480090238B1549891E2846E269FFF748
:1083F0001FFF0646002E29D03046CDE7B2200020D0
:10840000782100200400FA0500ED00E07B21002027
:10841000A2200020B42000208621002080210020FE
:10842000FCCFFFFFA0FE00007E2100202E2E5C620C
:108430006C655F7376732E630000000003C200005A
:1084400074FE0100839E0000AA2000200020A3E704
:1084500070B586B004460D461421019100200290AB
:108460000390049005900948018868460181012124
:1084700081720021818101A804900595208A02A9BA
:10848000A6DF0646304606B070BD0000A2200020E0
:10849000F8B505460E46002432782146641C6A541D
:1084A00072782146641C6A5400BF022C01D101205D
:1084B00000E000200746002F05D100BF09A22021BF
:1084C000FDF766FF00BF00BF2046F8BD70B504464B
:1084D0000D46284605F0D6FD2080656070BD0280FF
:1084E000416070472E2E5C626C655F7372765F63CD
:1084F0006F6D6D6F6E2E6300002314214143F94AA6
:1085000053541421414389184B80022314214143C1
:1085100089188B600023142141438918CB601421F2
:10852000414389180B611421414389188B8070479E
:1085300010B50020EC490880EC490870E949091F92
:10854000087048708870002403E02046FFF7D4FFCD
:10855000641C1E2CF9D310BDFFB583B004460F4632
:1085600015460326E148007800280BD1002D06D1DE
:108570000698002803D10220DC49087002E001209F
:10858000DA490870D9480078030006F095FE07FC28
:1085900005304D82B7D4FC00D5484069401C08D056
:1085A00001221207126991B2D14A506905F0EDFD1E
:1085B00002E0012000074069401E01210907096906
:1085C00089B2484302900120000700690004820C30
:1085D00001200007006980B278430146029821DF3C
:1085E0000646002E02D10220C0490870CCE0384671
:1085F00020DF0646002E16D1002D11D10698002846
:108600000AD12078042803D10720B84908700AE06D
:108610000520B649087006E00420B449087002E05D
:108620000320B2490870AFE0B1484069401C08D04F
:1086300001221207126991B2AD4A506905F0A5FDF9
:1086400002E0012000074069401E01210907096975
:1086500089B24843012109070290096989B2794327
:1086600008462A46029921DF0646002E10D10698B8
:1086700000280AD12078042803D106209B490870DD
:1086800006E005209949087002E004209749087027
:108690007AE097484069401C08D00122120712690D
:1086A00091B2934A506905F070FD02E00120000785
:1086B0004069401E01210907096989B24843A900A0
:1086C000401861884018012109070290096989B2A0
:1086D0007943AA00891862888818069A029921DFCE
:1086E0000646002E09D12078042803D106207F49B0
:1086F000087002E005207D49087045E00120000770
:10870000006980B27843AB00C0180290608882088C
:108710002169029821DF0646002E0BD1002D06D1DB
:108720000698002803D107207049087002E006204F
:108730006E49087028E06E484069401C08D001224C
:108740001207126991B26A4A506905F01EFD02E0F3
:10875000012000074069401E01210907096989B20B
:108760004843019001200007006981B2019805F09B
:108770000CFD029020DF0646002E02D107205B4947
:10878000087001E0FFE700BF00BF304607B0F0BD52
:10879000F0B585B00F275348001F007814214843D7
:1087A00050494418E5682078022804D0042823D0D2
:1087B00005286FD16FE0206903904B48008886023E
:1087C0006088801B0490039880190390A08880190A
:1087D0004519012189020498884206D2049882082A
:1087E0002846039921DF074605E0FF22013228468B
:1087F000039921DF074680E0A06800013D49401849
:1088000000890490A0680001401840890390A06886
:1088100000014018406802900298A84205D10399CF
:10882000049848436188884202D0A06803280DD18B
:1088300001200007006981B2284605F0A6FC2A49FC
:1088400009884618304620DF074622E0012000074D
:10885000006981B2284605F098FC06460120000711
:10886000006980B27043281A800801900120000737
:10887000006980B2711C484361884919401A800818
:10888000009031462046009B019AFFF765FE07469F
:1088900000BF32E030E001200007006981B22846C5
:1088A00005F073FC0646A088411901200007006905
:1088B00080B27043081A80080490A088401961882B
:1088C000421801200007006980B2711C4843801AD9
:1088D0008008039031462046039B049AFFF73CFE34
:1088E00007460AE06C270020C0200020C22000209C
:1088F00000100010C429002000BF00BF002F02D1CB
:108900000120F7498870384605B0F0BDFFB581B049
:10891000064617460024F24840781E2837D0F04813
:108920000078EF4949784018C4B21E2C02DB20467B
:108930001E38C4B214206043E949091D0E541420A6
:10894000604340180761142060434118029805C82D
:10895000CA60886014206043E14A121D801804999F
:1089600041801420604380180A9981800025101FDF
:108970008078002805D1FFF70BFF0546112D00D1A7
:108980000025D7484078401CD549487000E00425B0
:10899000284605B0F0BD10B50024D1484078002825
:1089A00007DDFFF7F5FE0446002C02D0112C00D1A4
:1089B0000024204610BDF8B50446C94800781421AB
:1089C0004843C749091D0E5C081F0078142148431D
:1089D000C349091D401880680001C2490D58C048AC
:1089E000007814214843BE49091D40184088091FDA
:1089F0000090097814225143B94A121D89180B6955
:108A0000111F097814225143B54A121D89180846CE
:108A1000083022463146A847F8BDFEB50546002677
:108A2000AF48807801287DD10020AD498870AE48DC
:108A30000078082811D1022D03D10020AA4908701E
:108A400002E00020A9490870FFF7A5FF0646002EA6
:108A500002D03046FFF7AFFFFEBD022D02D0032D3E
:108A600079D174E09E480078142148439C49091D3F
:108A700044189F480088401C9D490880207802289F
:108A800007D10846008880026188884201DB012006
:108A900000E0002007462078052805D1924800789C
:108AA000072801D1012000E000200290207804284E
:108AB00005D18D480078072801D1012000E0002071
:108AC0000190207804280BD18948008880026188B1
:108AD000884205DB84480078002801D1012000E0AD
:108AE000002000900298002807D10198002804D1A6
:108AF0000098002801D1002F1FD000207A4908706B
:108B00003046FFF758FF76490878FFF7F5FC00205C
:108B10007749088072484078401E7149487008467D
:108B2000007800E01AE0401C0870084600781E2813
:108B300003DB084600781E380870FFF72CFF064656
:108B4000002E02D03046FFF736FF05E003E00D208F
:108B5000FFF731FF00E000BF00BF00BF00BF7BE7B1
:108B600070B5FFF7E5FC0020624908806248406963
:108B7000401C08D001221207126991B25E4A506966
:108B800005F003FB02E0012000074069C01E01213F
:108B90000907096989B248435849086000205449C7
:108BA000088000BF0DE0002102014E4B99500201E8
:108BB000D21811810201D21891810201D21851817B
:108BC000401C0228EFD30820474908704A484069F2
:108BD000401C08D001221207126991B2464A50691E
:108BE00005F0D3FA02E0012000074069401E012190
:108BF0000907096989B24843064601200007006950
:108C000081B2304605F0C1FA054620DF0446002C4B
:108C100004D101203249887034490870204670BD63
:108C2000F8B504460D4600BF30480078002801D151
:108C30000820F8BD00BF002C01D10E20F9E7002D5F
:108C400001D10E20F5E72068002801D10E20F0E7C1
:108C5000A08801210907096989B2884202DCA0883D
:108C6000102801DA0720E4E7E08800282FD0224806
:108C70004069401C08D001221207126991B21E4AB5
:108C8000506905F082FA02E0012000074069401EA9
:108C900001210907096989B24843E188A288514343
:108CA000164A12688918884211D3E088A18848437F
:108CB00001210907096989B288420ADDA1880122D8
:108CC0001207126990B205F06AFA002901D0072054
:108CD000AFE720798007800F12D00720A9E70000B6
:108CE00068270020C4290020C2200020B8200020CE
:108CF000C0200020BA20002000100010BC2000205E
:108D0000FE480088022801D1042092E7FB48008831
:108D10002860FB4800686860F84909880901F94A39
:108D2000891868684860F549098809012068505029
:108D3000A088F2490988090189180881E088EF496B
:108D400009880901891848810027A688E1884E43CF
:108D500000BF781C87B201200007006980B2B042D2
:108D600005D201200007006980B2361A00E0002613
:108D700001200007006980B2E14909684018E04914
:108D8000086001200007006980B2B042E1D9DB48E9
:108D900000880001DB4940188781D8480088401CC2
:108DA000D6490880002044E73CB5034600BFD648BA
:108DB0000078002801D108203CBD00BF002B01D164
:108DC0000E20F9E7002A01D10E20F5E718680228E5
:108DD00005D218680001CB4C2058002801D107208B
:108DE000EAE75C68186801940090019C186800012B
:108DF000C44D401900894843201801900098000193
:108E00002C4600194089009C240164192489604380
:108E1000009C2401641964680019019CA04201D8D7
:108E20000720C9E7019C0098546010600020C3E748
:108E3000F8B504460E4615461F4600BFB2480078F6
:108E4000002801D10820F8BD00BF002E01D10E205E
:108E5000F9E7002C01D10E20F5E72068022805D2A1
:108E600020680001A7490858002801D10720EAE737
:108E700020680001A3494018408921680901A14ADE
:108E800089180989484321680901891849684018E7
:108E90006168884201D80720D5E7002D06D02068F8
:108EA0000001984940180089A84201DA0720CAE762
:108EB000E81921680901934A89180989884201DD66
:108EC0000720C0E7304600F05CF9002804D038469F
:108ED00000F057F9002801D11020B4E7606800F0D5
:108EE00050F9002801D11020ADE72B46324621462B
:108EF00002200097FFF70AFDA5E7F8B504460E46E5
:108F000015461F4600BF80480078002801D1082080
:108F1000F8BD00BF002E01D10E20F9E7002C01D1D1
:108F20000E20F5E72068022805D220680001754967
:108F30000858002801D10720EAE72068000171499C
:108F400040184089216809016E4A891809894843F7
:108F5000216809018918496840186168884201D868
:108F60000720D5E7002D06D020680001654940188C
:108F70000089A84201DA0720CAE7E8192168090137
:108F8000604A89180989884201DD0720C0E7304618
:108F900000F0F7F8002804D0384600F0F2F8002876
:108FA00001D11020B4E7606800F0EBF8002801D18F
:108FB0001020ADE72B463246214605200097FFF7EB
:108FC000A5FCA5E7FFB581B00C4615461E4600BFBF
:108FD0004D480078002802D1082005B0F0BD00BF40
:108FE000002C01D10E20F8E70198002801D10E20B5
:108FF000F3E72068022805D220680001414908589B
:10900000002801D10720E8E7206800013D49401809
:109010004089216809013B4A891809894843216828
:1090200009018918496840186168884201D80720F9
:10903000D3E7002D06D0206800013249401800898E
:10904000A84201DA0720C8E7A819216809012D4ABA
:1090500089180989884201DD0720BEE7019800F0E0
:1090600090F8002804D0304600F08BF8002801D199
:109070001020B2E7606800F084F8002801D11020C9
:10908000ABE7606881192A46019805F01DF8009544
:10909000206800011B490F58002203212046019B34
:1090A000B847002099E7F8B504460D4600BF1648BA
:1090B0000078002801D10820F8BD00BF002C01D1A4
:1090C0000E20F9E72068022805D2206800010D492A
:1090D0000858002801D10720EEE72068000109495F
:1090E0004018408921680901064A891809894843BE
:1090F0002168090189184968401807E0BA20002052
:10910000BC200020C4290020B820002061688842CB
:1091100001D80720D0E7606800F033F8002801D1BB
:109120001020C9E723681B011A4FDB1962685B68CE
:10913000D01A226812013B46D218118905F025F891
:10914000002901D00720B7E700202B460246214620
:1091500000900420FFF7DAFB06463046ACE70146F4
:1091600000BF0D480078002801D10820704700BFDB
:10917000002901D10E20F9E7084840780860002056
:10918000F4E701468807800F01D1012070470020D5
:10919000FCE70000C4290020B82000206827002038
:1091A000F7B584B004460F4606980678B01C1F2811
:1091B00003DC6078801C1F2802DD0C2007B0F0BDA6
:1091C0001F20801B801E85B20295B11C781802A951
:1091D0007DDF03900398002801D00398EEE7207804
:1091E000022808D168460089A84204DC09200190C1
:1091F000684605890BE0082001906078002804D0BB
:109200006078A84201DC657801E068460589681C41
:10921000C2B23046711CCEB23A543046721CD6B23D
:109220000199395406980178A81C0818C1B206980B
:1092300001700020C2E7F8B505460C462078001DF5
:109240001F2801DD0C20F8BD684679DF0646002E98
:1092500001D03046F7E703212278501C2070A95432
:1092600019212278501C2070A95420784119684691
:10927000008800F089FA2178401820700020E2E789
:10928000F8B505460F4616461C466868002801D109
:109290000720F8BD2078801C298840181F2801DD90
:1092A0000C20F6E72878401CC1B22278501C2070B0
:1092B000B1542178481C207077542A882378981953
:1092C000696804F001FF2078297840182070002098
:1092D000DFE730B503461078C01C1F2801DD0C20E5
:1092E00030BD02241578681C10704C550A2415787E
:1092F000681C10704C551578681C10704B55002078
:10930000EEE7FFB587B006461D46109C002006908C
:1093100020780590002747E0B900706841180A8856
:109320006846028149884181002203A902A865DFBD
:1093300004900498002802D004980BB0F0BD684651
:10934000017B099881422ED10698002801D0002087
:1093500000E00220019020786946097B41180198BD
:1093600008181F2801DD0C20E7E70698002809D11E
:109370002078401C20702278511C08982170A85435
:10938000012006902078421903A902A865DF049005
:109390000498002801D00498CFE720786946097B1B
:1093A0004018207000BF7F1C3088B842B4DC06989B
:1093B000002806D021780598401C081AC1B20598EB
:1093C00029540020B9E7FFB581B0074615460A9E2B
:1093D000009602223846049B0299FFF792FF04464A
:1093E000002C02D0204605B0F0BD00961022294680
:1093F0003846049BFFF785FF0446002C01D0204629
:10940000F1E70020EFE701460888062808DB088816
:109410001922D201904205DD0888E04A904201D02D
:10942000072070474888062808DB48881922D2019F
:10943000904205DD4888D94A904201D00720F0E7E4
:109440000888D64A904208D04888904205D00888BB
:109450004A88904201DD0720E3E70020E1E7F8B504
:1094600006460D4614462078801D1F2801D90C2081
:10947000F8BD3046FFF7C7FF0746002F01D038463A
:10948000F6E705212278501C2070A9541221227879
:10949000501C2070A95422785119308800F074F9BA
:1094A00021784018207022785119708800F06CF9EA
:1094B0002178401820700020DAE7F8B505460E46FE
:1094C00014462879801CC7B22078801CC0191F2838
:1094D00001DD0C20F8BD781CC1B22278501C207030
:1094E000B154FF212278501C2070B1542278911978
:1094F000288800F049F9217840182070A8880028B1
:109500000EDDA868002801D10720E3E7AA882378A8
:109510009819A96804F0D8FD20782979401820709E
:109520000020D7E7FEB507460E461446386B0028E4
:1095300001D10720FEBD0020019032E0396B0C22E2
:10954000019850430D182879801CC0B200900098F3
:10955000401CC1B22278501C2070B15416212278D0
:10956000501C2070B15422789119288800F00CF911
:10957000217840182070A88800280EDDA8680028EF
:1095800001D10720D6E7AA8823789819A96804F0A2
:109590009BFD20782979401820700198401CC0B2AA
:1095A00001903420C15D01988142C7DC0020C1E7F1
:1095B000F8B504460F461646002500203070207886
:1095C000002809D0324639462046FFF7E9FD054616
:1095D000002D01D02846F8BDA078002808D03146DB
:1095E0003846FFF728FE0546002D01D02846F2E751
:1095F000A08800280ADD33463A460121201DFFF7E6
:109600003FFE0546002D01D02846E4E7E06800282B
:109610000BD00020E168085632463946FFF759FE64
:109620000546002D01D02846D5E7208A00280CDD0C
:109630003B4606220221204610300096FFF7C3FE6B
:109640000546002D01D02846C5E7208B00280CDDFB
:109650003B4607220321204618300096FFF7B3FE51
:109660000546002D01D02846B5E7208C00280CDDEA
:109670003B4615221421204620300096FFF7A3FE1A
:109680000546002D01D02846A5E7A06A002809D08C
:1096900032463946A06AFFF7E2FE0546002D01D0AA
:1096A000284698E7E06A002809D032463946E06A41
:1096B000FFF703FF0546002D01D028468BE7342035
:1096C000005D002809DD324639462046FFF72AFFB3
:1096D0000546002D01D028467DE728467BE7014658
:1096E0008888002807D08868002804D08868007817
:1096F0000422104201D1072070470020FCE70146F8
:109700008888002801DD072070470020FCE7F3B5BA
:1097100093B00D460021129111911398002814D096
:109720001398FFF7DCFF0446002C02D0204615B04A
:10973000F0BD12AA09A91398FFF73AFF0446002CBE
:1097400001D02046F3E709AE00E00026002D13D03B
:109750002846FFF7D4FF0446002C01D02046E6E758
:1097600011AA01A92846FFF723FF0446002C01D0C7
:109770002046DCE701AF00E0002710A803793A4655
:10978000017A304672DFD2E702460A70FF200002FB
:10979000104000124870022070470000FFFF0000D8
:1097A00030B50346481CC004040C10468507AD0FB5
:1097B00001D1012500E00025002D01D1072030BD99
:1097C000794802601019794D28600020784D287082
:1097D000784D287078480380784801800020EEE7B3
:1097E000F7B584B00C467448008884426BDC744D35
:1097F0000020039000F0A4F802900298012814D0F1
:1098000003A82EDF0746022F01D172B60CE000BF7D
:109810000197019F002F06D000BF6AA2592101982D
:10982000FCF7B6FD00BF00BF00BF6148007800F044
:10983000B1F860490978884206D05D48057800781B
:1098400000F0A8F85A4908700298012814D062B6AE
:109850006846007B2FDF0746022F0CD000BF019720
:10986000019F002F06D000BF56A261210198FCF78E
:109870008FFD00BF00BF00BF5148854221D0E900E5
:10988000494A0698126850500498002811D0002CBC
:109890000FDD494909886943444A126888182246FD
:1098A000049904F011FCE8003F49096840188480DD
:1098B00005E00020E9003C4A1268891888800026EB
:1098C00000E0042600E00926304607B0F0BDF8B5F8
:1098D00005460E4617460520009035480078354964
:1098E000097888421BD033480478007800F052F899
:1098F000304908703048008860432C490968401896
:109900002860E00028490968401880883080E0001D
:1099100025490968085838600020009000BF009869
:10992000F8BD0EB504E068468188009A0298904719
:109930006A4601A902A8FFF7CAFF0028F3D00EBDAE
:1099400010B52D484068C105C90D002920D00A4630
:10995000103A50B200280DDA274B1C330407240FAD
:10996000083CA408A4001B598407E40EE3401B062E
:109970009B0F0BE0214B032424021B198408A40035
:109980001B598407E40EE3401B069B0FD8B210BDA1
:109990000420FCE7014609480088814201DA481C9E
:1099A00000E00020C0B27047C4200020C820002082
:1099B000CD200020CC200020CE200020D020002070
:1099C000FFFF00002E2E5C2E2E5C2E2E5C2E2E5CB9
:1099D0002E2E5C536F757263655C6170705F636F90
:1099E0006D6D6F6E5C6170705F7363686564756CDC
:1099F00065722E630000000000ED00E000E100E071
:109A000010B5002819DAF74A03071B0F083B9B081B
:109A10009B00D2588307DC0EFF23A3409A438B0799
:109A20001B0E8407E40EA3401A43EE4B0407240FD9
:109A3000083CA408A4001A5118E0EB4A03231B02B7
:109A4000D21883089B00D2588307DC0EFF23A34063
:109A50009A438B071B0E8407E40EA3401A43E24B84
:109A6000032424021B198408A4001A5110BD10B548
:109A70000446DE48846003211120FFF7C1FF10BDBA
:109A800010B501200004DA494860D94940394860DE
:109A9000112000F0E7FC112000F0D6FC0120D54990
:109AA00008602F20FCF774FB0120D349087010BD1B
:109AB00010B5112001218140CB4A8032116000BFD6
:109AC00001200004CA498860C949403988600120E2
:109AD000C84948602F20FCF75BFB0120C54988601E
:109AE0000020C64908602F20FCF752FB0020C24925
:109AF000087010BDF0B5024624205043C04B1B68CF
:109B0000C118C0480068401C02D1BE48026057E03E
:109B1000BC484B68006824246043B94C2468001991
:109B20004068834217D8B748006824235843B44B91
:109B30001B68C01840684B68C31AB24800682424E8
:109B40006043AF4C246800194360AE480068086267
:109B5000AC48026034E04B68AA4D2C6828680DE0E0
:109B600024254543A64E3668AD196D685B1B044637
:109B700024254543A24E3668AD19286A451C07D0F6
:109B8000242545439E4E3668AD196D689D42E7D346
:109B9000451C0CD024254543994E3668AD196D6897
:109BA000EE1A24254543964F3F68ED196E604B60D1
:109BB000086224256543924E3668AD192A6200BFBB
:109BC000F0BDF8B506468F4805682C4609E0B4425A
:109BD00000D108E0254624206043894909684018DF
:109BE000046A601CF3D100BF601C00D1F8BDA5421F
:109BF0000FD18448006824214843814909684018EE
:109C0000006A8049086008460068401C01D1FFF7DF
:109C10004FFF242060437A49096840184768242090
:109C20006043774909684018016A24206843744AF0
:109C3000126880180162242068437149096840183D
:109C4000046A601C0CD0242060436D4909684018E8
:109C50004068C11924206043694A12688018416035
:109C600000BFC3E710B5112000F0F5FB10BD10B523
:109C7000142000F0F0FB10BD70B504466248006887
:109C8000002813D0604AE169A06912689047054630
:109C900000BF2E46002E07D000BF5CA2FF2164311A
:109CA0003046FCF775FB00BF00BF02E0A169E06928
:109CB000884770BDF8B553480068401C39D000276C
:109CC00000F002FC04464D480168204600F0FFFB0E
:109CD00006464C48056811E0242068434849096855
:109CE00044186068B04200D90AE06068361A6068BB
:109CF000C719256A2046FFF7BFFF00BF681CEBD1DC
:109D000000BF4E4800784E490978884209D14C4836
:109D10000078401CC0B24A490870022801D10020D6
:109D2000087047480078800046490F50FFF79FFFB2
:109D300000BFF8BD014641480078414A1278904280
:109D40001DD03E480078401C3C4A107010460078F8
:109D5000022801D100201070384800788000394A6C
:109D600010580860254A086812688018234A106055
:109D7000104600680002000A1060012070470020B1
:109D8000086000BFFAE7FEB51E48006801902E4843
:109D90000078009076E00098C0002C4909684418CB
:109DA00025786BE01820684361680F18681CC5B2FD
:109DB000A078A84200D100253878022802D00328D4
:109DC00059D145E02421786848430D49096846186F
:109DD000307D002804D07868FFF7F3FE002030754E
:109DE0004AE000001CED00E000E100E00015014049
:109DF0004013014000100140F8200020E420002022
:109E0000D4200020E0200020F42000202E2E5C2E04
:109E10002E5C2E2E5C2E2E5C2E2E5C536F75726384
:109E2000655C6170705F636F6D6D6F6E5C617070AB
:109E30005F74696D65722E6300000000F0200020E1
:109E4000F1200020E8200020D9200020DC20002084
:109E50000CE0FE49096824225143FD4A1268881823
:109E600000210175F94A016A116000BFF7480068D6
:109E7000401CEED100E000BF00BF00BF6078A842E8
:109E800090D100BF0098411EC9B20091002882D134
:109E9000EE4801680198814201D00120FEBD0020FA
:109EA000FCE7F0B50346002426E0E84E3668242798
:109EB0007E43E74F3F68F01946689E4203D94668E3
:109EC000F61A46601CE046689B1B4668341900265B
:109ED00046600675DD4E3568DC4F066A3E600669F1
:109EE000002E08D00E193602360A86600669C66052
:109EF00016680662156000BFD4480068401CD4D1C3
:109F000000BFF0BDFEB50746D04800680290D148BA
:109F10000078019069E00198C000CF4909684518B0
:109F20005CE0781C07D03E4624207043C84909688D
:109F30004418276A23E02978182359436A6850187F
:109F40002978491C29702978AA78914201D10021E9
:109F50002970466824217143BD4A12688C18017823
:109F6000012902D1217D002900D037E08168A1605C
:109F7000C168E160016921614169E16100BFB749E0
:109F8000A0680968401A0002000AB549884208D250
:109F9000B249A068096800F09AFAE1684018606068
:109FA00011E0AE48A168006800F091FA0090E16805
:109FB0000098814204D9E1680098081A606001E0C5
:109FC0000020606000BF0020A060E06001202075DC
:109FD000801E20623046FFF78DFD00BF781CA0D1A7
:109FE0002878697888429CD100BF0198411EC9B287
:109FF000019100288FD1954801680298814201D0D3
:10A000000120FEBD0020FCE7FEB590480068401C22
:10A0100034D08E480068242148438D49096840188F
:10A02000456800F051FA01908C4804682146019877
:10A0300000F04DFAC61C8B480078002801D1FFF7CC
:10A040001FFDAE4201D2284600E03046041924022A
:10A05000240A20468449086000BF00F035FA0090C9
:10A060000199009800F033FAC71C2046019900F0CE
:10A070002EFA874201D9FFF7F5FD01E0FFF718FD41
:10A08000FEBDFEB50020C0430190744804686F48CF
:10A0900007686846FFF74EFE0546FFF774FE064662
:10A0A000002D05D001AA21460098FFF7FAFE0126EF
:10A0B0000198FFF727FF002800D00126002E02D0CC
:10A0C0003846FFF7A1FFFEBD4170704770B50246EC
:10A0D0000B465078411C9078884200D100211078BE
:10A0E000884201D1002070BD196050781826704355
:10A0F00055682C182046F6E7FFB581B005460E4698
:10A100001746E900544A126888186946FFF7DEFFCF
:10A110000446002C02D1042005B0F0BD01202070BF
:10A12000666000F0D1F9A060E760049820610A98A9
:10A130006061E900484A126888180099FFF7C4FF77
:10A14000FFF795FD0020E7E7F8B504460E46E1006D
:10A15000414A126888186946FFF7B8FF0546002D86
:10A1600001D10420F8BD022028706E60E1003A4A57
:10A17000126888180099FFF7A7FFFFF778FD002005
:10A18000F0E738B50446E100334A1268881869469A
:10A19000FFF79CFF0546002D01D1042038BD0320A8
:10A1A0002870001F6860E1002B4A12688818009927
:10A1B000FFF78AFFFFF75BFD0020EFE710B50020F7
:10A1C0002A4908600021294841608160C16000205F
:10A1D0002649403908604860FFF76CFD10BD10B596
:10A1E000FFF74FFF10BDFFB581B00E4617461C4666
:10A1F00020468107890F01D1012100E000210029BB
:10A2000002D1072005B0F0BD002C01D10720F9E7ED
:10A21000FFF74EFC16490A980860164806700C486D
:10A22000046000250CE0002124206843084A1268DD
:10A23000115424206843064A1268801801756D1C69
:10A24000B542F0DB24207043041915E0E020002023
:10A25000D4200020D9200020DC200020E420002091
:10A26000FFFF7F00F8200020401501404011014011
:10A27000F4200020D8200020032097490870974838
:10A280000460183400250CE0E900944A126888182C
:10A2900000210170417087704460182179430C19C6
:10A2A0006D1C032DF0DB0020C0438D4908600020A9
:10A2B0008C4908708C490870142000F0D3F80321F1
:10A2C0001420FFF79DFB142000F0BEF80198FFF763
:10A2D000CEFB00F0F9F885490860002092E770B5E0
:10A2E00003460C4682480068002801D1082070BD52
:10A2F000002A01D10720FAE7002B01D10720F6E759
:10A3000000211CE024204843794D2D68285C00285A
:10A3100014D1012524204843754E36683554242035
:10A320004843734D2D684019447024204843704DB4
:10A330002D684019826119600020D8E7491C6D48DA
:10A3400000788142DEDB0420D1E710B500F092F8FE
:10A35000012802D0032804D101E0002403E00124F5
:10A3600001E0022400BF00BF204610BDFEB5044638
:10A370000D4616465E480068002801D10820FEBD43
:10A380005C480078844201D2052D01D20720F6E70F
:10A390002420604356490968085C012801D0082040
:10A3A000EDE72420604352490968401840780128AD
:10A3B00001D1284600E000200746FFF7C6FF3B46D4
:10A3C0002A46214600960190FFF796FED7E770B522
:10A3D000044647480068002801D1082070BD454860
:10A3E0000078844201D30720F8E7242060434049E5
:10A3F0000968085C012801D00820EFE7FFF7A5FFF6
:10A4000005462146FFF7A0FEE8E710B5384800688A
:10A41000002801D1082010BDFFF797FF0446FFF781
:10A42000B0FEF8E710B5044600F04EF820600020BA
:10A4300010BD70B505460E4614463146284600F05C
:10A4400046F82060002070BDC206D20E0121914066
:10A45000294A11607047C206D20E01219140274A55
:10A4600011607047C206D20E01219140234A80320A
:10A470001160704710B522484068C105C90D002918
:10A4800020D00A46103A50B200280DDA1C4B1C337B
:10A490000407240F083CA408A4001B598407E40EF9
:10A4A000E3401B069B0F0BE0134B032424021B19F4
:10A4B0008408A4001B598407E40EE3401B069B0F8D
:10A4C000D8B210BD0420FCE70E4840687047024631
:10A4D000501A0002000A7047D9200020DC2000201A
:10A4E000E0200020F0200020F1200020E4200020C7
:10A4F000D4200020D820002000E100E000E200E0AD
:10A5000000ED00E00015014070B506460C4615460A
:10A5100029462046FBF73EFF70BDF8B55948007844
:10A52000002800D1F8BD58480068002801D101205A
:10A5300000E00020054655480068002801D10120B0
:10A5400000E00020064600BF002D14D1684651DF10
:10A550000446052C01D101250CE0002C06D000BFDB
:10A560004BA269212046FBF713FF03E04649009800
:10A570000968884700BF002E1AD153480088009010
:10A5800069465248006861DF0446052C01D1012666
:10A590000DE0002C06D000BF3DA280212046FBF735
:10A5A000F7FE04E04948006838490968884700BF59
:10A5B000002D02D0002E00D000E0C5E700BF00BF94
:10A5C000B0E7FFB581B00C4616461F46002C02D1FD
:10A5D000072005B0F0BD20468107890F01D1012178
:10A5E00000E00021002901D10720F2E7374804608C
:10A5F00035480680364807603649019810DF054621
:10A60000002D01D02846E4E701201E4908701620DD
:10A6100026DFDEE710B511DF0446002C01D0012053
:10A6200000E0002017490870204610BD01460029AF
:10A6300001D10E207047154801600020FAE701465D
:10A64000002901D10E2070470F4801600020FAE771
:10A6500070B51F480068002811D01D480068804769
:10A66000044600BF2546002D07D000BF08A2FF21E9
:10A6700033312846FBF78CFE00BF00BF01E0FFF737
:10A680004CFF70BDFC200020102100200C21002078
:10A690002E2E5C2E2E5C2E2E5C2E2E5C2E2E5C53CF
:10A6A0006F757263655C73645F636F6D6D6F6E5C15
:10A6B000736F66746465766963655F68616E646C08
:10A6C00065722E6300000000082100200421002094
:10A6D0000021002009A50100F8B504460D46924866
:10A6E0000068002813D0EAB221788F4B60681B689D
:10A6F0009847064600BF3746002F06D000BF8BA202
:10A7000028213846FBF744FE00BF00BF0CE0012DB6
:10A7100004D1207801216268904705E0002D03D123
:10A720002078002162689047F8BDF8B50746694671
:10A730008A48007800F0EBFA0646002E00D0F8BDFB
:10A74000002532E0E8008649096844188548006819
:10A7500022780121914008420FD0606800280CD077
:10A760006078012804D100212046FFF7B5FF1AE0E8
:10A7700001212046FFF7B0FF15E07A4840682278B3
:10A780000121914008420ED0606800280BD060780B
:10A79000012804D101212046FFF79EFF03E000219C
:10A7A0002046FFF799FF681CC5B26F4800788542C4
:10A7B000C8DB00BFC3E770B504460D466B480068B0
:10A7C000FFF705FE0646002E00D070BD65484460C8
:10A7D00005602046284302466548016863480068D2
:10A7E000FFF7C4FD064600BFEFE7FFB583B006469E
:10A7F0000C461746052F02D2072007B0F0BD584877
:10A800000660594804705A4807604749069808602E
:10A81000002515E0E1008819027800928178019105
:10A82000019989000522120707231B02D318009AF9
:10A830009200995000BF0278012191400D4300BF62
:10A840002046611ECCB20028E4D14A4B2A46294654
:10A85000424800F087F902900298002801D002983F
:10A86000CBE7454A00214148FFF739FDC5E710B560
:10A870003B480068002801D1082010BD3748007807
:10A8800000F0B5F9F9E710B535480068002801D1A6
:10A89000082010BD3148007800F018FA0446002C5A
:10A8A00001D02046F5E731480068FFF790FDF0E75A
:10A8B000F8B506460C462C480078864201DD072094
:10A8C000F8BDF000264909684518254800680028A9
:10A8D00001D10820F4E769462048007800F017FA13
:10A8E0000746002F01D03846EAE7687800280BD1E8
:10A8F00029780098C840C007C00F02D000202070FF
:10A9000010E0012020700DE0687801280AD1297834
:10A910000098C840C007C00F02D00120207001E09D
:10A92000002020700020CBE7202100202E2E5C2E5E
:10A930002E5C2E2E5C2E2E5C2E2E5C536F75726359
:10A94000655C6170705F636F6D6D6F6E5C61707080
:10A950005F627574746F6E2E630000002421002006
:10A96000142100202C210020182100202821002063
:10A970001C210020B7A701002BA70100F0B502465B
:10A980000C46002035E001238340194623460B4244
:10A990002ED0D5680D4205D101235B04D5680D4347
:10A9A000D56004E003231B04D5688D43D5600525DD
:10A9B0002D0707263602AD198600AD590326360449
:10A9C000B5430526360707273F02F6198700F551DC
:10A9D00005252D0707263602AD198600AD591D4302
:10A9E0000526360707273F02F6198700F55100BFF5
:10A9F000401C2028C7D3F0BDF0B585B0EC480569F0
:10AA00000020EC49C86300263DE014207043EA4969
:10AA1000096844180120B040E8490968084230D06C
:10AA2000E068C04368402168084007463946204630
:10AA3000FFF7A4FFDE4800696840039003980028F0
:10AA40000ED003980543E068C04368402168084081
:10AA5000009020460099FFF791FF0098074300BF40
:10AA6000A068A843384001906068284038400290B0
:10AA700001990298084303D02269019902989047EE
:10AA800000BF701CC6B2CE4800788642BDDB05B060
:10AA9000F0BD10B50146002028E014224A43C64B01
:10AAA0001B689A58012383401A421ED005221207C0
:10AAB00007231B02D2188300D25803231B049A4396
:10AAC00005231B07072424021B1984001A510522A1
:10AAD000120707231B02D2188300D25805231B0735
:10AAE000072424021B1984001A51401C2028D4D3A7
:10AAF00010BD70B505460C46002C01D1072070BD75
:10AB000020468107890F01D1012100E000210029A1
:10AB100001D10720F3E7A8480460AA480570002087
:10AB2000A7490870A5490860A64800781422504338
:10AB30000146A148006803F026FB0020C043A2495B
:10AB40008860062001218140A04A116000BF0121D8
:10AB500000F0F7F80620012181409D4A116000BFF6
:10AB60000020CCE7F8B504460D4616461F4692482D
:10AB70000068002801D10820F8BD002F01D107206E
:10AB8000FAE78F4800788F490978884201DB042072
:10AB9000F2E7284630438A49097814225143864A0D
:10ABA0001268505086480078142148438249096849
:10ABB0004018456082480078142148437E4909685E
:10ABC000401886607E480078142148437A49096815
:10ABD000401807617A480078207079480078401C56
:10ABE000774908702078FFF754FF0020C4E7F0B5DC
:10ABF000024671480068002801D10820F0BD704865
:10AC00000078824201DB0720F8E70020694BD86317
:10AC10006748046969480068002802D158066A4BF1
:10AC2000586001209040654B1B681843634B1860C7
:10AC3000002314205043604D2D684019C36000214B
:10AC400040E001238B401846142353435A4D2D688E
:10AC5000EB58034235D02546054202D003231B049E
:10AC60000EE001235B0414255543534E3668AD199D
:10AC7000ED680543142656434F4F3F68F619F560BB
:10AC800005252D0707263602AD198E00AD5903267E
:10AC90003604B5430526360707273F02F6198F000D
:10ACA000F55105252D0707263602AD198E00AD5941
:10ACB0001D430526360707273F02F6198F00F55179
:10ACC00000BF491C2029BCD3002097E710B50446DB
:10ACD00039480068002801D1082010BD38480078A4
:10ACE000844201DB0720F8E72046FFF7D2FE01206F
:10ACF000A04032490968814330480160006800285B
:10AD000003D10120C007304988600020E5E710B575
:10AD1000024629480068002801D1082010BD2848B3
:10AD20000078824201DB0720F8E714205043224CD0
:10AD3000246803191E4800691C6820400860002030
:10AD4000ECE710B5002819DA224A03071B0F083B6D
:10AD50009B089B00D2588307DC0EFF23A3409A4335
:10AD60008B071B0E8407E40EA3401A43194B0407FC
:10AD7000240F083CA408A4001A5118E0144A032325
:10AD80001B02D21883089B00D2588307DC0EFF23D6
:10AD9000A3409A438B071B0E8407E40EA3401A437B
:10ADA0000B4B032424021B198408A4001A5110BD64
:10ADB000000500504061004034210020382100206F
:10ADC0003D2100203C2100200063004080E200E0A3
:10ADD00000E100E01CED00E008B54020F9490870F2
:10ADE000E020F94908700220F64900900878F74BF6
:10ADF0000122F54902F0CAFB00BFF548007800289F
:10AE0000FBD008BD10B54820EE4908700020EE497F
:10AE10000870EC4908780122EB4902F07BFB00BF87
:10AE2000EB4800780028FBD04820E64908700878F5
:10AE30000222E64902F0FDFB00BFE5480078002849
:10AE4000FBD010BD08B54420DE4908700020DE4963
:10AE500008700120DB4900900878DC4B0122DA49B8
:10AE600002F094FB00BFDA4800780028FBD008BD50
:10AE700010B54820D34908700120D3490870D14942
:10AE800008780122D04902F045FB00BFD048007885
:10AE90000028FBD04820CB49087008780222CB4913
:10AEA00002F0C7FB00BFCA4800780028FBD048204A
:10AEB000C44908700120C4490870A0208870E120AE
:10AEC0004870C04908780322BF4902F023FB00BF45
:10AED000BF4800780028FBD010BD08B54020B94914
:10AEE0000870E520B84908700220B649009008783B
:10AEF000B64B0122B44902F049FB08BD10B5002051
:10AF0000B24908704870FFF7E8FF00BFB04800780A
:10AF10000028FBD0AF480078002815D00020AE49AB
:10AF20000880AA484078A949097809020843AA4933
:10AF3000088009887D2251430846C917090C091861
:10AF40000914891FA44A118010BD10B55F209D49C6
:10AF5000087010209C4908701B2048709949087897
:10AF60000222994902F0D6FA00BF994800780028D9
:10AF7000FBD05F20934908702020934908708420FB
:10AF800048709049087802228F4902F0C3FA00BF46
:10AF90008F4800780028FBD05F208A490870212064
:10AFA000894908700120487086490878022286493C
:10AFB00002F0B0FA00BF864800780028FBD05F207E
:10AFC00080490870222080490870002048707D491F
:10AFD000087802227C4902F09DFA00BF7C48007884
:10AFE0000028FBD010BD08B55F20764908702720E7
:10AFF000754908700120734900900878734B01224D
:10B00000714902F0C3FA00BF714800780028FBD0F4
:10B0100008BD08B55F206B490870AA206A4908700E
:10B020000220684900900878684B0122664902F0C6
:10B03000ADFA00BF664800780028FBD008BD08B50F
:10B040005F206049087035205F49087001205D4924
:10B05000009008785D4B01225B4902F097FA00BF2F
:10B060005B4800780028FBD008BD08B55F20554933
:10B070000870B220544908700220524900900878A4
:10B08000524B0122504902F081FA00BF504800782B
:10B090000028FBD008BD08B55F204A490870BC20D5
:10B0A000494908700220474900900878474B01221F
:10B0B000454902F06BFA00BF454800780028FBD0F4
:10B0C00008BD08B55F203F490870BE203E490870A2
:10B0D00002203C49009008783C4B01223A4902F09A
:10B0E00055FA00BF3A4800780028FBD008BD08B5E3
:10B0F0005F2034490870A820334908700220314984
:10B1000000900878314B01222F4902F03FFA00BF2E
:10B110002F4800780028FBD008BD08B55F202949DA
:10B120000870B0202849087002202649009008784D
:10B13000264B0122244902F029FA00BF2448007856
:10B140000028FBD008BD08B55F201E490870B62056
:10B150001D49087001201B49009008781B4B0122F3
:10B16000194902F013FA00BF194800780028FBD0F3
:10B1700008BD08B55F2013490870BA20124908704D
:10B180000220104900900878104B01220E4902F06D
:10B19000FDF900BF0E4800780028FBD008BD10B5AF
:10B1A0005F200849087000200749087005490878A1
:10B1B0000122054902F0AEF900BF054800780028D9
:10B1C000FBD010BD482100203E210020432100205B
:10B1D00094210020952100208A20002010B5FFF73F
:10B1E000B4FEFFF784FFFE48007800280BD0002053
:10B1F000FC490880FC480078FB494978090208436B
:10B2000000B2F84908800020F74908704870FFF73D
:10B2100084FFF348007800280DD0F3490878C10F67
:10B2200009184910F14A1170EF494878C10F0918FF
:10B230004910EF4A11700020EB4908704870FFF781
:10B2400082FFE748007800280BD00020E9490880F9
:10B25000E5480078E44949780902084300B2E54925
:10B2600008800020E04908704870FFF782FFDC4842
:10B27000007800280BD00020DF490880DA480078E9
:10B28000D94949780902084300B2DB490880002007
:10B29000DA490880D34B1A5ED64B1C5E121BD44B86
:10B2A0001B78D24C24781B1B5A431046D24B0022E9
:10B2B0009A5ED04B00241C5F111B02F070FFCB493B
:10B2C00009784018CD49088010BDF8B5FFF7A1FEF8
:10B2D000C348007800280BD00020C9490880C24824
:10B2E0000078C14949780902084300B2C44908807E
:10B2F0000020BD4908704870FFF7A1FEB8480078EB
:10B30000002805D00020BF490870B74800780870B1
:10B310000020B54908704870FFF7A7FEB0480078D4
:10B3200000282DD00020B8490880B8490880AE49CF
:10B330000978B44A12789207920D881803F077FAC8
:10B3400006460022B24B02F0D1FF044603F0F4F9A6
:10B3500000B2AD490880A4494A78AA4909780C236B
:10B3600019408901501803F062FA04460022A84BE4
:10B3700002F0BCFF064603F0DFF900B2A3490880E3
:10B380000020994908704870FFF785FE94480078BE
:10B3900000280BD000209F490880934800789249EC
:10B3A00049780902084300B29A49088000208E4972
:10B3B00008704870FFF785FE8948007800280BD098
:10B3C0000020954908808848007887494978090213
:10B3D000084300B290490880002090490880884BBB
:10B3E0001A5E8C4B1C5E121B884C235E864C255EBD
:10B3F0005B1B5A431046884B00229A5E854B002403
:10B400001C5F111B02F0CBFE7F490988401800B277
:10B4100082490880084600880A21484300B28049D2
:10B420000880F8BD08B544207E49087002207E4996
:10B4300008707C49009008786B4B01227A4902F031
:10B44000A5F800BF794800780028FBD008BD10B5EA
:10B45000442074490870002073490870A020487087
:10B46000704908780222704902F054F800BF6F4812
:10B4700000780028FBD010BD10B544206949087041
:10B4800000206949087048706649087802226649B8
:10B4900002F040F800BF654800780028FBD010BDDE
:10B4A00000B589B062A00068089062A000680790AB
:10B4B00061A00068069061A00068059060A0006827
:10B4C000049060A0006803905FA0006802905FA0F5
:10B4D000006801905E488078012807DB5C4880782E
:10B4E0007F2803DC5A488078694648725848C078FB
:10B4F000012807DB5648C0787F2803DC5448C07811
:10B500006946487153A000680090182045490870AA
:10B510000878022208A901F0FDFF00BF4348007827
:10B520000028FBD018203F4908700878022207A99C
:10B5300001F0F0FF00BF3D4800780028FBD0182044
:10B54000384908700878022206A901F0E3FF00BF1D
:10B55000364800780028FBD0182032490870087857
:10B56000022205A901F0D6FF00BF3048007800286C
:10B57000FBD018202B4908700878022204A901F09A
:10B58000C9FF00BF294800780028FBD018202549B2
:10B5900008700878022203A901F0BCFF00BF23480D
:10B5A00000780028FBD018201E4908700878022275
:10B5B00002A901F0AFFF00BF1C4800780028FBD0B3
:10B5C0001820184908700878022201A901F0A2FF8A
:10B5D00000BF164800780028FBD0182011493BE036
:10B5E000952100208020002043210020822000207F
:10B5F0008320002084200020862000208A20002034
:10B60000702000207220002074200020762000206E
:10B6100000002040782000207A2000207E2000209A
:10B6200088200020482100203E2100209421002075
:10B6300020470000210900002240000023000000F4
:10B6400024000000250000003207000033700000D5
:10B65000602A002030150000087008780222694630
:10B6600001F058FF00BF244800780028FBD009B043
:10B6700000BD1CB502F074F8FBF7E8FB1FA00068E2
:10B6800001901FA0006800901E488078012807DB09
:10B690001C4880787F2803DC1A4880786946487106
:10B6A0001848C078012807DB1648C0787F2803DCDB
:10B6B0001448C07869464870182013490870087803
:10B6C000022201A901F026FF00BF0B4800780028E4
:10B6D000FBD018200C49087008780222694601F056
:10B6E00019FF00BF044800780028FBD0FBF794FB4B
:10B6F00002F094F81CBD00009421002032070000E5
:10B7000033700000602A00204821002001218200BF
:10B71000FE4B9A5805231B02D2181160704770B572
:10B7200005460C46012D01DD002070BD0621694350
:10B73000F74A88180622214602F0C6FCA07801F0DC
:10B74000D7F8E07801F0D4F8207903218A000523A6
:10B750001B07072636029B1986009A5100BF6079A5
:10B7600001F0C6F8A078A900E84A51580522120253
:10B7700089188860E078A900E44A5158052212022D
:10B780008918C8602079A900E04A515805221202A0
:10B7900089180861607901F0B4F860780006A900A2
:10B7A000DA4A515805221202891848622078A90005
:10B7B000D64A515815229201891848610021A800E3
:10B7C000D24A1058FF30013081600120FFF79EFF00
:10B7D000A800CE490858A8E730B503460020CD4C54
:10B7E0002080002A01D0012B01DD002030BD98000F
:10B7F000C64C2058C84C206030E00020C54C20804A
:10B800000024C5480068FF30013084601078C24CC5
:10B81000246805252D026419E061521C04E0BD482E
:10B820000088401CBB4C2080BB480068FF300130C2
:10B830008068002805D1B74800887D246401A042B3
:10B84000EDDBB44800887D246401A04200D10AE009
:10B85000B1480068052424020019806908464C1E7E
:10B86000A1B20028C9D100BF0120BFE730B503460F
:10B870000020A84C2080002A01D0012B01DD0020EF
:10B8800030BD9800A14C2058A34C206031E000202E
:10B89000A04C20800024A0480068FF300130846064
:10B8A00000209D4C246805252D026419E06104E008
:10B8B00098480088401C974C208097480068FF30CB
:10B8C00001308068002805D1924800887D246401F9
:10B8D000A042EDDB8F4800887D246401A04200D1A6
:10B8E0000CE08D480068052424020019806910705E
:10B8F000521C08464C1EA1B20028C8D100BF01202E
:10B90000BEE700218200814B9A5805231B02D21802
:10B910001160704710B5162000F0F8FF81207F49B4
:10B92000087000207E4908707C4A01210846FFF714
:10B9300053FF7B4A01210846FFF798FF162000F0CD
:10B94000E0FF162000F0E2FF81207449087080209B
:10B9500048700A4602210120FFF73EFF162000F042
:10B96000D0FF10BD10B56D480021016041608160BD
:10B97000C160D720694908701D2000F0C7FF674AE1
:10B9800001210846FFF728FF00BFFDF7CAFF644802
:10B990000021016041608160C160024602210120F6
:10B9A000FFF764FF5E48007880210842EDD000BFB9
:10B9B00000BF1D2000F0A5FF5A480078002802D0E3
:10B9C00059A002F0D5F910BD10B5FFF7CBFFB92093
:10B9D000524908701D2000F099FF504A0121084685
:10B9E000FFF7FAFE1D2000F08CFFFFF7BBFF10BD34
:10B9F00010B54C480078002801D1FFF7E5FF10BDD5
:10BA000010B5AB20454908701D2000F07FFF434A68
:10BA100001210846FFF7E0FE1D2000F072FFFFF74E
:10BA2000A1FF10BD10B53F480078002801D1FFF7F5
:10BA3000E7FF10BD10B50024FFF7F4FF414C374875
:10BA40000021016041608160C16058203349087065
:10BA5000200C48702004000E8870CC701D2000F06F
:10BA600055FF2E4A04210120FFF7B6FE2B48002186
:10BA7000016041608160C16033490968016002462C
:10BA800004210120FFF7A8FE1D2000F03AFFFFF778
:10BA900069FFFFF7ADFF10BD10B50024294C1F480A
:10BAA0000021016041608160C1601D48016041600A
:10BAB0008160C1600B2019490870200C4870200477
:10BAC000000E8870CC70002008711D2000F01EFF51
:10BAD000124A05210120FFF77FFE114A04210120AF
