:020000040001F9
:1060000040380020CD620100E76201009176010076
:106010000000000000000000000000000000000080
:10602000000000000000000000000000EB62010022
:106030000000000000000000ED620100EF620100BE
:10604000F1620100F162010089F0010011E7010035
:10605000F1620100000000003DB00100F1620100AA
:10606000F1620100F1620100F1620100F1620100E0
:10607000F1620100F1620100F1620100F1620100D0
:10608000F162010001A80100F1620100F16201006A
:1060900023A80100F162010095AC0100F16201004A
:1060A000F1620100F1620100000000000000000048
:1060B00000000000000000000000000000000000E0
:1060C00000F002F800F056F80CA030C80838241888
:1060D0002D18A246671EAB4654465D46AC4201D120
:1060E00000F048F87E460F3E0FCCB64601263342FC
:1060F00000D0FB1AA246AB463343184798C70000AE
:10610000B8C700000023002400250026103A01D360
:1061100078C1FBD8520700D330C100D50B6070475F
:1061200010B5662902D10CF081FA10BD642902D1A4
:1061300009F0AEFA10BD782902D109F0DFFA10BDDE
:10614000632902D10AF0B1F910BD732902D10AF016
:10615000B4F910BD002010BD1FB5C046C0460AF0FE
:106160004DFE0400002000210CF0E0F8E0601FBDAF
:1061700010B510BD0BF052FA1146FFF7EDFF01F01C
:10618000C3FF0BF06AFA03B4FFF7F2FF03BC0BF096
:10619000DFFA0000401E00BF00BF00BF00BF00BF0D
:1061A00000BF00BF00BF00BF00BF00BF00BFF1D1F4
:1061B00070470000401E00BF00BF00BF00BF00BF0F
:1061C00000BF00BF00BF00BF00BF00BF00BFF1D1D4
:1061D00070470000401E00BF00BF00BF00BF00BFEF
:1061E00000BF00BF00BF00BF00BF00BF00BFF1D1B4
:1061F00070470000401E00BF00BF00BF00BF00BFCF
:1062000000BF00BF00BF00BF00BF00BF00BFF1D193
:1062100070470000401E00BF00BF00BF00BF00BFAE
:1062200000BF00BF00BF00BF00BF00BF00BFF1D173
:1062300070470000401E00BF00BF00BF00BF00BF8E
:1062400000BF00BF00BF00BF00BF00BF00BFF1D153
:1062500070470000401E00BF00BF00BF00BF00BF6E
:1062600000BF00BF00BF00BF00BF00BF00BFF1D133
:1062700070470000401E00BF00BF00BF00BF00BF4E
:1062800000BF00BF00BF00BF00BF00BF00BFF1D113
:106290007047000070B505460C46164602E00FCC6C
:1062A0000FC5103E102EFAD2082E02D303CC03C520
:1062B000083E042E07D301CC01C5361F03E0217828
:1062C0002970641C6D1C761EF9D270BD03210C4828
:1062D00002680A4302600B4802680A4302600A48E7
:1062E00080470A480047FEE7FEE7FEE7FEE7FEE7D5
:1062F000FEE7000006480749054A074B70470000C3
:106300002405004054050040B3630100C160010052
:10631000402C002040380020402C00202E482F49DF
:10632000086070472E48008CC0B2012810D12C485C
:10633000808C0007000F0BD12948806AF0210840AB
:10634000402805D12648C06A084201D10120704783
:106350000020FCE72248008CC0B2012827D1204849
:10636000808C0007000F22D11D48806AF02108426E
:1063700005D11B48C06A084201D101207047184866
:10638000806AF0210840102805D11548C06A0842EB
:1063900001D10120F2E71248806AF021084030283C
:1063A00005D10F48C06A084201D10120E6E700206C
:1063B000E4E710B5FFF7CEFF002805D009480A49E9
:1063C0004860C81309498861FFF7ACFF002802D074
:1063D00001200749886010BD0024F400002000203F
:1063E000C00F00F0DFFF07C000050040006C004058
:1063F0000006004001F01BFF04460D462A462146D8
:10640000FE48FFF7F7FF044600BFFDA26D212046BE
:10641000FFF7F0FF1FB5002000900190029003905D
:10642000FA48007869460870F9480078002804D0D6
:1064300008781021084369460870F64801786846D4
:106440004170F4480088011268468170F248017872
:106450006846C170F04800880004010E684601716A
:10646000ED4800680002010E68464171EA48006884
:10647000010E68468171E94801786846C171E748B4
:1064800000880004010E68460172E44800680002BA
:10649000010E68464172DD480078042815D1E048B5
:1064A000017868468172DE4800880004010E684663
:1064B000C172DB4800680002010E68460173D848CB
:1064C0000068010E6846417362E0D04800780728F2
:1064D00020D1D448017868468172D24800880004EF
:1064E000010E6846C172CF4800680002010E68467E
:1064F0000173CC480068010E68464173CA480068C1
:10650000C8490968441A684684732004010E684625
:10651000C1733DE0BD48007805281ED1C34801780D
:1065200068468172C14800880004010E6846C17245
:10653000BE4800680002010E68460173BB4800684F
:10654000010E68464173BA48017868468173B848BD
:10655000008801126846C1731AE0B648017868469F
:106560008172B44800880004010E6846C172B248C6
:10657000017868460173B148017868464173AF48B5
:106580000088011268468173AD4801786846C1737E
:106590006946A04806F0BBFE1FBD1FB50020009055
:1065A000019002900390694608709948007800288D
:1065B00004D008781021084369460870954801788E
:1065C000684641709348008801126846817092487D
:1065D00001786846C170904800880004010E684642
:1065E00001718D4800680002010E684641718A48B9
:1065F0000068010E68468171884801786846C1715B
:10660000864800880004010E6846017283480068CD
:106610000002010E68464172864801786846817220
:10662000844800880004010E6846C17282480178DF
:106630006846017381480178684641737F48008845
:106640000112684681737E4801786846C1736946C5
:106650007C4802F017FA1FBD10B5012005F09AFA28
:1066600005F06DFC012005F0FBFA10BD30B5A3B0BC
:10667000062100914C2168460182172181827249CE
:106680000691382115A809F0B9F9002110A88175E3
:10669000012101836946179104A82090382107A899
:1066A00009F0ACF969496846818001210181684996
:1066B00003910221017701A81390012110A8017410
:1066C00007A915A803F045FB044600BF2546002D89
:1066D00005D000BF4AA25F492846FFF78BFE00BFE6
:1066E00023B030BD10B55C480078002800D010BD44
:1066F00048480088401C47490880002043490870EA
:10670000FFF788FE43480088544988421ADB00207E
:106710004049088052480078C007C00F06D1504851
:10672000007840084000401C4D4908704C480078F3
:106730008007C00F06D14A48007802218843801C98
:10674000474908704248007840084000401C4049D2
:106750000870FFF78BFF05F0F2FB00BFC7E710B52D
:106760003D480078002800D010BD29480078002856
:1067700004D0FFF77BFFFFF76FFF3AE02548008862
:10678000401C24490880042020490870012005F09D
:1067900001FAFFF73FFE012005F062FA1D4800886C
:1067A0002E4988421ADB00201A4908802C480078BC
:1067B000C007C00F06D12A48007840084000401C9E
:1067C00027490870264800788007C00F06D1244862
:1067D000007802218843801C214908701C480078F9
:1067E00040084000401C1A490870FFF73FFFFFF7C0
:1067F00033FF00201B4908701B4837E0EFBEADDEB9
:106800002E2E5C6D61696E2E630000001B2000203F
:106810003A200020762100207C21002084210020C5
:10682000882100204C20002050200020D021002072
:10683000B22100208020002084200020862000201B
:10684000452000209427002004200020839E000083
:10685000702000204302000025200020A0FE000040
:10686000912100202720002048200020008820219E
:106870008843FE49088000BF76E710B5FC480088D1
:10688000401CFB4908800520FA490870012005F0EA
:1068900081F9FFF7BFFD012005F0E2F9F448008817
:1068A000F54988421ADB0020F1490880F348007856
:1068B000C007C00F06D1F148007840084000401CD6
:1068C000EE490870ED4800788007C00F06D1EB480C
:1068D000007802218843801CE8490870E848007865
:1068E00002218843801CE649087008460078400869
:1068F0004000401C0870FFF7B9FEFFF7ADFE10BD69
:1069000010B5E0480078002800D010BDD8480088B5
:10691000401CD7490880DC480068DC490860072033
:10692000D4490870012005F035F9FFF773FD012007
:1069300005F096F9CE480088CF4988421ADB00203E
:10694000CB490880CD480078C007C00F06D1CB489E
:10695000007840084000401CC8490870C7480078CB
:106960008007C00F06D1C548007802218843801CEB
:10697000C2490870C248007804218843001DC049FC
:106980000870FFF773FEFFF767FE0020C04908702C
:1069900000BFBAE70120BF490860BF49086000BFD7
:1069A000BE4800680028FBD00020BC490860B948F8
:1069B0008068BB4908800120B74948600020B5497C
:1069C0000860B7480088B7490870704710B50320C1
:1069D00001F036FC032001F03CFC10BD10B504466C
:1069E000A9480068401CA84908600120AE49087009
:1069F000AE480078002815D0AD48407C002811D161
:106A00000320012383401946AA4B5B68C340DA0781
:106A1000D20F002A02D1A74B996001E0A54BD960A3
:106A200000BF00BFA2482030407A002803D0A04811
:106A3000407C01280ED14B21C9009348006808F022
:106A4000DFFF002906D19C480078002802D10120F0
:106A50009949087099480078002829D0984800780A
:106A6000002825D096480078401E954908700846B1
:106A7000007800281CD1022001F0F5FB002814D179
:106A80008B482030407A00280FD1012188482030DF
:106A90004172012005F07EF805F051FA05F09DFBEA
:106AA000012005F0DDF801F0C2FB002083490870E9
:106AB00010BD84490978002908D10121814A11704B
:106AC0006A49098808221143684A1180704701F019
:106AD000AEFBF8B500BF7C487C4B09220821009032
:106AE000002003F0A2FE054600BF2E46002E06D071
:106AF00000BF774AFF21EB313046FFF77BFC00BF38
:106B000000BF744A0121744803F00BFF044600BF24
:106B10002546002D06D000BF6D4AFF21EE312846E4
:106B2000FFF768FC00BF6D4A01216D4803F0F9FED4
:106B3000044600BF2546002D06D000BF644AFF2151
:106B4000F1312846FFF756FC00BF664A012166482E
:106B500003F0E7FE044600BF2546002D06D000BF27
:106B60005B4AFF21F4312846FFF744FC00BFF8BD23
:106B70003EB500BF6846007801090901491C009133
:106B800068460078F02188431030009000BF122240
:106B90004749123168467CDF044600BF2546002D78
:106BA00005D000BF4A4A51492846FFF723FC00BFE1
:106BB0000120400278DF044600BF2546002D06D0A4
:106BC00000BF434A4949091D2846FFF713FC00BF8F
:106BD0000020019002900C21684681802021C18014
:106BE000002101812821418101A87ADF044600BFEC
:106BF0002546002D06D000BF354A8521890028464C
:106C0000FFF7F8FB00BF042077DF044600BF2546EE
:106C1000002D06D000BF2E4A344911312846FFF717
:106C2000E9FB00BF3EBD30B589B0202101A808F0C6
:106C3000E5FE14212E4808F0E1FE14212D4808F04D
:106C4000DDFE14222A4905A801F06BFF1422294910
:106C500007A801F066FF00200190049026480290EA
:106C600001A9264801F0C6FE044649E0482000205C
:106C7000762100201B200020A0FE00009121002092
:106C800070200020252000207C21002050200020A2
:106C90002F2000200075004000700040007100406F
:106CA0008C200020452000203020002020200020C3
:106CB000182B0020000500503D2000203920002026
:106CC000542000202320002075820100FC21002098
:106CD00000680100DD69010074200020B36A010032
:106CE00078200020CF6A01007C20002006020000EE
:106CF0006C270020802700200764010094270020D3
:106D000000BF2546002D05D000BFF94AF9492846A5
:106D1000FFF770FB00BF09B030BD10B5FFF783FF70
:106D200010BD1E20F44908800846807840084000C5
:106D3000401C88700846807802218843EE4988709C
:106D4000084680781C2188430C30EB49887008463F
:106D5000807820218843E84988700720C870102077
:106D60000871704770B505462878002810D13B217E
:106D7000E248008876DF044600BF2646002E06D093
:106D800000BFDB4ADB492A313046FFF733FB00BF47
:106D900070BD044600BFD64AD64935312046FFF7BC
:106DA00029FB30B587B01C21684608F027FE00207B
:106DB00000900520C00301900290032168460173F2
:106DC0000021C1810174CE480590CE4806906846E6
:106DD00008F07DFA044600BF2546002D06D000BF0E
:106DE000C34AC4494C312846FFF704FB00BF07B033
:106DF00030BD30B585B0C448407A002801D105B017
:106E000030BD1421684608F0F9FD00216846017084
:106E10000020019068460172BC48018868460182E2
:106E20000021418273DF044600BF2546002D06D0B5
:106E300000BFAF4A352109012846FFF7DBFA00BF42
:106E4000B3480078002802D10120B149087000BF82
:106E5000D5E710B5AE480078002805D1AD480078D8
:106E6000002801D1FFF7C5FF10BD70B5A848007814
:106E7000002811D074DF044600BF2546002D06D03F
:106E800000BF9B4A9B4961312846FFF7B3FA00BF18
:106E900000209F49087008E09E480078002804D030
:106EA00008F039FB00209B49087070BD70B59A4806
:106EB0000078002813D09948006803F0AAFD044622
:106EC00000BF2546002D06D000BF894AB3218900A6
:106ED0002846FFF78FFA00BF00208F49087007F09F
:106EE000A5FD04F07EFC07F0FFFD70BD70B58C4879
:106EF0000078002813D08B48006803F08AFD044610
:106F000000BF2546002D06D000BF794A794984315B
:106F10002846FFF76FFA00BF00208149087070BD56
:106F200070B57F480078002816D100220121C903DE
:106F30007C48006803F03CFD044600BF2546002D58
:106F400006D000BF6A4A6B4992312846FFF752FAD1
:106F500000BF01207249087070BD70B56E4800789E
:106F6000002816D10022FF2149316C48006803F047
:106F70001FFD044600BF2546002D06D000BF5C4A19
:106F80005F21C9002846FFF735FA00BF012062499A
:106F9000087007F04BFD04F0FFFB07F0A5FD70BD86
:106FA00010B56148007800280FD160490860604939
:106FB000086060490860604908606049088060496D
:106FC000087060490870FFF7C8FF10BD70B55E48D3
:106FD0000078002816D100224B2189045B48006804
:106FE00003F0E6FC044600BF2546002D06D000BF96
:106FF0003F4A4049BD312846FFF7FCF900BF012058
:107000005149087070BD70B54F480078002813D002
:107010004E48006803F0FDFC044600BF2546002DE5
:1070200006D000BF324A3349CA312846FFF7E2F999
:1070300000BF00204449087070BD10B532482038A8
:107040000488142C00D814244148844200D30446F8
:1070500020010A2108F0D4FC2C49088010BD10B58D
:10706000152001F000F901280AD13A4800781021D2
:10707000884310303749087001203749087008E00C
:107080003448007810218843324908700020324982
:10709000087010BD7CB50020009001906946087012
:1070A000062219494C3900A8013008F03FFC694616
:1070B000002070DF044600BF2546002D05D000BF2C
:1070C0000B4A26492846FFF795F900BF7CBD70B5ED
:1070D00003F0EFFE044600BF2546002D06D000BF9A
:1070E000034A1E4915392846FFF784F900BF70BDD1
:1070F00000680100590200008E2000205620002068
:10710000656D0100936D0100382B00208A2000205E
:107110001F200020202000201C200020782000209C
:107120001D20002074200020342000204C2100204D
:107130004821002038210020402100203C2100204F
:1071400034210020352100201E2000207C2000203A
:1071500010270000702000203A20002017050000B2
:1071600070B503F0B2FE044600BF2546002D05D0E1
:1071700000BFFE4AFE492846FFF73CF900BF70BD3C
:10718000F8B50546288814287ED006DC10280BD0D8
:10719000112825D0132878D154E017287CD019283D
:1071A00075D05228F7D15FE0A888F24908801420F2
:1071B000F14908700020F1490870FFF7D1FFFFF78F
:1071C00005FFEF480078002802D00020EC49087045
:1071D000EC480078002802D10120EA4908708EE0CE
:1071E0000020C043E3490880E6480078002802D028
:1071F0000020E4490870032001F030F80020DE4947
:107200000870DE490870DC494870FFF7FCFEFFF7A4
:107210005EFFFFF712FFFFF7ABFCFFF73BFFFFF747
:107220001EFFFFF723FAD8480078002809D0D74876
:107230000078002805D1D6480078002801D1FFF752
:10724000D8FD5CE0D34A0021CA4800887FDF0446AD
:1072500000BF2746002F05D000BFC44ACE4938469C
:10726000FFF7C8F800BF4AE000221146C148008875
:10727000A9DF044600BF2746002F0BD000BFBB4A42
:10728000C549491D384603E00CE037E004E034E02E
:10729000FFF7B0F800BF32E03222A91DBF4808F066
:1072A00045FB2CE0BD4EB61D3188E889814211D1E5
:1072B00000223146AF48008881DF044600BF2746E0
:1072C000002F06D000BFA94AB34911313846FFF755
:1072D00091F811E000221146A648008881DF04469B
:1072E00000BF2746002F06D000BFA04AED2189002D
:1072F0003846FFF77FF800BF01E000E000BF00BFA5
:10730000F8BD10B504462046FFF73AFF204608F0C6
:10731000B8F82146A24801F082FA10BD10B5044623
:10732000204601F09CFE10BDF8B500BF002350229E
:107330009C49082003F067FC054600BF2E46002E3E
:1073400006D000BF894A7D21C9003046FFF752F8B8
:1073500000BF00BF002000900090684660DF044638
:1073600000BF2546002D06D000BF804A3F210901FD
:107370002846FFF73FF800BF8B4803F079FC04462E
:1073800000BF2546002D06D000BF784AFD218900A8
:107390002846FFF72FF800BF844803F072FC04462C
:1073A00000BF2546002D06D000BF704A7F21C900CE
:1073B0002846FFF71FF800BFF8BD70B500BF7C4A34
:1073C0000A21082002F00EFD044600BF2546002DCC
:1073D00006D000BF654A012189022846FFF70AF856
:1073E00000BF00BF70BD70B504460D46012D35D1FC
:1073F000022C20D00D2C02D0152C27D103E0012027
:107400006C49087029E000206B49087001206B4925
:10741000087000206A4908706A48008820210843E3
:1074200068490880684800781021884366490870D8
:10743000FFF71CF911E065480078002805D101200C
:107440006249087002206249087006E000BF474A9E
:10745000514991312046FEF7CDFF30E0002D2ED16D
:10746000022C23D00D2C02D0152C20D103E00020BB
:107470005049087022E001204F4908704F490870B8
:107480004F4908704F480088202108434D49088023
:107490004D4800781021884310304B4908704D4802
:1074A00000684D490860FFF7E1F807E006E000BF1B
:1074B0002E4A3949B5312046FEF79CFF00BF70BD0A
:1074C00070B500BF4549012003F035FE044600BFFA
:1074D0002546002D06D000BF244A2549A03928465C
:1074E000FEF788FF00BF00BF70BD70B500BF3C4B0A
:1074F0003C4A03213C4803F09AFC044600BF254661
:10750000002D06D000BF194A19498F392846FEF7C9
:1075100071FF00BF00BF70BD70B540DF044600BF03
:107520002546002D06D000BF104A1149863928464D
:10753000FEF760FF00BF70BD10B50F2000F080FEA9
:10754000102000F07DFE042000F07AFE052000F0FF
:1075500077FE1C2000F074FE102000F07AFE234815
:10756000FEF718FE102000F079FE41E000680100EF
:107570000A050000562000209F210020D82100206D
:107580001F20002020200020342000202520002063
:10759000242000208E2000209D03000024260020AF
:1075A0009427002058260020037301001D7301005A
:1075B000A82600202E2000203A200020272000208E
:1075C0003C2000204820002070200020392000208E
:1075D000542000207C2100208821002058270020F2
:1075E0008B8201006606000058200020A086010062
:1075F0000F2000F02EFEFB48FEF7CCFD0F2000F020
:107600002DFE042000F02AFE1C2000F027FE05209D
:1076100000F024FE10BD08B5002006231F2207211C
:107620000090202007F0F3FC08BD08B5EE48006884
:107630000090684607F0FEF908BD1CB5EA49091D2F
:1076400003C9019100906946012004F0ACFA1CBD09
:107650000021C943E54AD161002009E00221052249
:10766000120707231B02D2188300D150411CC8B255
:107670002028F3DB70471820DD4948600020DD49F1
:107680000860704710B503F099FF04F0AAF810BD28
:1076900000F0CDFD704710B500240DE0032000F090
:1076A000D8FDD548FEF776FD032000F0D7FDD2487F
:1076B000FEF770FD601CC4B2032CEFDB10BD10B5EB
:1076C000CE480078002804D1CD480078002800D1A9
:1076D00010BDCC480078002845D0FFF777FC07F0B4
:1076E000A5F97D20C000FEF755FD03F03EFF002008
:1076F000C5490870487003F012FF00BFC348007806
:107700000028FBD0C2480078002815D00020C149CD
:107710000880BD484078BC49097809020843BD4942
:10772000088009887D2251430846C917090C0918A9
:107730000914891FB74A11800020B34908704870A6
:10774000B0490870B4480088FF2101318843B2492C
:1077500008800120B1490870AF48008880210843A3
:10776000AD490880A0E0AD480078002853D003F070
:10777000A1FE7D20C000FEF70DFD03F065FEA448CC
:107780000078002831D001219F48007800029E4AED
:107790005278104300B2A24A108010460022825E46
:1077A00010119F4A1080C8020023D35E184207D0F0
:1077B000104600880F221203104300B2984A10802E
:1077C000974A0020105E974A1080104600880A22CF
:1077D000504300B2934A10800020105EC217120F6F
:1077E000121812118F4B1A8000BF002086490870B2
:1077F00048708A49087088480088802188438649F3
:107800000880012088490870834800884021084387
:107810008149088048E084480078002844D08348A3
:10782000FEF7B8FC03F08CFE79480078002815D0EC
:1078300000207F4908807448407800027249097826
:1078400008437B49088009887D22D20051430846BD
:10785000C917090C09180914754A118000207249CA
:1078600008706D480088402188436B49088003F008
:1078700091FE62480078002807D0FFF78BF8FEF7EA
:107880008CFE00205D4908700CE0012004F082F9B4
:10789000FEF728FF012004F0E3F9FFF7B4FB002016
:1078A0005749087007F020F900BF11E710B507F03D
:1078B0005DFB1E205F49887010BD10B5FFF7F6FA1A
:1078C000FFF7D3FA01205C4908705C480078002873
:1078D0000CD0FFF7EBFF04F0CCF91C2000F0B9FC52
:1078E000042000F0B6FC00205449087014205449CC
:1078F00008701E204F49887052480078002805D033
:107900005148FEF747FC012007F012F910BD10B5F1
:107910004E480078002813D04D480078002803D046
:1079200000F00CFE00F083FC06F0E0F80020474970
:107930000870394800884008400037490880B9E09D
:107940004448007800280FD04348407C002801D1EB
:10795000FFF7B3FF00203F4908702F48008804213B
:1079600088432D490880A5E03C480078002814D0C1
:107970003948407C002806D1152000F074FC01280D
:1079800001D103F094FF0020344908702248008898
:1079900008218843204908808CE03148007800287D
:1079A0000FD01E20234988702E4807F01AF90020B6
:1079B0002B4908701848008802218843164908801E
:1079C00078E02948007800285AD02348407C0028D5
:1079D0004CD121482030407A012847D1FEF7BFFE24
:1079E00068E00000A08601003C260200000500506F
:1079F000007500400071004020A1070037200020E2
:107A00003B2000202B2000205D210020C4210020ED
:107A1000C5210020842000204820002029200020AB
:107A200082200020802000202A20002060AE0A0052
:107A3000862000209F2100202520002036200020C5
:107A4000CA210020C9210020204E000096210020DC
:107A50009D21002022200020182B00202320002020
:107A600026200020602B0020272000200020FE4937
:107A70000870FE48008820218843FC49088019E0EE
:107A8000FB480078002815D00120FA490870F74813
:107A90000088FF2101310843F44908800020F4499F
:107AA0000870F248008810218843F04908800120BE
:107AB000F1490870F1480078002829D1F048007891
:107AC000002825D1EF480078002821D1EE48007821
:107AD00000281DD1ED480078002803D0E648007842
:107AE000002815D0EA48407C002807D1E84820301B
:107AF000407A012802D1FFF7E2FD09E00020DD49CC
:107B00000870DA480088FF2101318843D74908808E
:107B100010BD10B5FFF7CAF9DA48007800281DD16A
:107B2000DC490870DC490870DC490870D4490870E9
:107B3000042000F093FBDA48FEF72CFB1C2000F039
:107B40008DFBD8480078002802D0D7A007F0DEF9D6
:107B500007F0ECF9FFF771FDFFF77BF910BD10B5E9
:107B6000D4480078002800D010BDBF480078002815
:107B700000D0F9E7D04800780007C00F00D1F3E744
:107B8000C348407C012800D1EEE7C1482030407A4C
:107B9000002800D1E8E7C9480078002833D0B84869
:107BA000007800282FD1B748007800282BD1C24890
:107BB0000078C006C00F3DD0AB480078002839D10E
:107BC000BF480078002835D1BC490870FFF74DF94F
:107BD0000A20BC4908700020BB490860BB49086006
:107BE0000120A74908700020A0490880FFF75EFE29
:107BF00004F03FF81C2000F02CFB042000F029FBCF
:107C0000FFF7ABF916E0152000F02DFB002811D18D
:107C10009B48007800280DD0002099490870A94998
:107C20000870A0480078002802D0A9A007F06EF9DB
:107C3000FFF76FFF00BF97E710B59E480078002858
:107C400000D010BD9248407C012800D1F9E790484F
:107C50002030407A002800D1F3E7A04800780028BF
:107C60001ED001209E4908708448007800280BD15E
:107C700001208249087090480078402188434030B4
:107C80008D490870FEF7F2FC9648007800282CD148
:107C9000954800689549086001209249087024E0E1
:107CA0008F480078012820D10D2000F0DCFA01284F
:107CB0001BD100208A49087071480078002805D13E
:107CC00070480078002801D1FEF71AFE6B48007852
:107CD00000280AD0002069490870774800784021C0
:107CE000884375490870FEF7C1FC00BFA9E770B56D
:107CF0007F480078002811D074DF044600BF254675
:107D0000002D05D000BF7B4A7B492846FEF772FB59
:107D100000BF0020764908707849087070BD10B522
:107D20007348007800281AD158480078002816D1E6
:107D3000FFF783F9FEF71CFFFFF7ACF9FFF78FF9A8
:107D4000FEF794FC6E480078002808D04C48007874
:107D5000002804D1FFF74DF801206849087010BDD4
:107D600070B500256748007800287BD06648007809
:107D7000002808D045480078002804D1FEF76CFCA4
:107D80000020614908703C215748006807F038FE20
:107D900000291ED13E482038057D3C214D4329460F
:107DA0005148006807F02CFE002912D1574800788E
:107DB00000280ED1FEF7EEFD01202E4908702B4859
:107DC0000088FF21013108432849088001204F49DC
:107DD00008704F48007800280CD02C480078002804
:107DE00008D1FFF7BDF903F095FCFFF770F900200B
:107DF0004749087047480078002814D0FFF735F845
:107E0000FFF754FD1C2000F024FA042000F021FAB2
:107E100003F02FFF14204049087000203D490870EE
:107E20000120194908703D480078002811D03B49CD
:107E30000878C10F091849104900411A02D100F011
:107E400011FB01E000F019FB34480078401E334973
:107E500008701C48007800286CD01A480078401E32
:107E600000065DE014E165E02720002048200020A6
:107E7000282000202B200020372000203120002047
:107E80002420002025200020352000202020002054
:107E9000182B00202120002022200020C9210020B2
:107EA000204E0000D621002053544D206F66660AF4
:107EB000000000009D210020702000203C200020B8
:107EC00096210020462000204C210020482100203F
:107ED000446F6F7220436C6F73650A002E20002080
:107EE000442000202F2000207C2100204C20002056
:107EF0001F200020006801004608000038200020F4
:107F000034200020302000203D2000203B20002095
:107F10009A210020C8210020CA2100209E21002093
:107F2000000EF849087005D1F7480078002801D103
:107F3000FFF7EFFDF5480078002835D0F3480078CA
:107F4000401E0006000EF14908702DD1F04800785F
:107F5000002802D0EFA006F0D9FF042000F07EF93F
:107F6000F148FEF717F906F0E1FFFEF772FFE64869
:107F70000078002804D00020E3490870FFF75DFB7B
:107F8000EA480078002804D00020E8490870FFF78C
:107F900054FB0020E64908701C2000F05FF907F050
:107FA000EDF80020E3490870E3480078002811D07C
:107FB000E1480078401E0006000EDF49087009D134
:107FC000DE480078002805D0DD480078002801D17F
:107FD00007F0D4F8DB48407A012805D1DA48007868
:107FE000002801D1FFF79BFED648407A002805D132
:107FF000D5480078002801D0FFF779FE002442E040
:10800000002C04D0012C19D0022C39D129E0CF4802
:108010000078002811D0CD480078401E0006000EE0
:10802000CA49087009D1CA480078002805D1C94852
:108030000078002801D007F06EFA21E0C3484078AC
:1080400000280DD0C1484078401E0006000EBF49F0
:10805000487005D1BF480078002801D007F05BFACE
:108060000EE0BA488078002809D0B8488078401ED1
:108070000006000EB549887001D106F057FF00BF19
:1080800000BF601CC4B2032CBADB0020B2490870E8
:1080900070BD10B5B1480078002830D003F0B6FCB0
:1080A0000020AE490870AE48008808218843AC49DA
:1080B0000880AC480078002825D0FEF7F7FE0020A5
:1080C000A6490870A648008808218843A44908806A
:1080D00001219C4820380174A348006899496039FF
:1080E0008864A2480068C864012003F053FD04F0CE
:1080F00074F8012003F0B4FDFEF77BFE03E001F00D
:1081000032FFFFF709FA10BDFFF7A2FAFEF75EFC97
:10811000FFF7C0FAFFF710FAFFF7ADFAFEF7D9FC48
:10812000FFF7CEF9FFF7E1F9FFF7FEF8FFF745F9A2
:10813000FFF771FAFFF779FAFFF77FFA04F0A5FB72
:108140008B48FEF727F8FFF79DFA03F0B3F906F026
:10815000CBFC012003F084FD06F0E8FEFEF708FDED
:10816000FEF7DBFDFEF796FFFEF779FFFEF77EFADE
:10817000FEF717FEFEF7D5FDFEF7A9FFFEF75DFF40
:108180007048407A012807D16F480078002809D14B
:1081900001206D49087005E06A48407A002801D145
:1081A000FFF779FA67482038007C012803D16D4930
:1081B0000870FEF71EFEFEF7B3FEFEF7F1FE032089
:1081C00000F04CF800BF67480078002802D1FFF7A4
:1081D00060FFF8E7634800780028F4D0654800782D
:1081E00000280AD0FEF741FE00205E490870FEF725
:1081F000D7FE00205F490870E5E7FFF7B1FDFFF704
:108200001BFDFFF7ACFC01F0AEFE554800880028CE
:1082100004D001F0A8FEFFF77AFBD4E750480088AD
:108220000028D0D101F09FFEFFF776F9CBE7BFF32E
:108230004F8F51485149C860BFF34F8F00BFFEE7D1
:1082400003210522120707231B02D2188300D150F5
:108250007047012181404A4A916070470121814065
:10826000474AD1607047014645480069C840C00789
:10827000C00F70477CB504460D4600940195414AF5
:108280000821684601F0CEFD7CBD7CB504460D4654
:10829000164600946846057146713B4A082101F074
:1082A000C1FD7CBDF8B504460D46264600BF082D2D
:1082B00001D1012000E000200746002F05D100BFBA
:1082C00032A2FF211B31FEF795F800BF31687068BC
:1082D0008847F8BDF8B505460E462C4600BF082E67
:1082E00001D1012000E000200746002F04D100BF8B
:1082F00032A2A821FEF77EF800BF617920792268BA
:108300009047F8BD4620002025200020CA210020EB
:10831000D6210020556172742073746174652072D7
:10832000657365740A000000204E000035200020AF
:10833000C9210020CB210020D5210020D4210020FC
:1083400026200020382B0020382000209F210020EC
:10835000D8210020202000203020002023200020D1
:108360004820002034200020382100204021002017
:1083700010270000992100200400FA0500ED00E01C
:1083800000050050A5820100D58201002E2E5C2E32
:108390002E5C2E2E5C2E2E5C2E2E5C496E636C7530
:1083A00064655C6170705F636F6D6D6F6E5C617052
:1083B000705F74696D65722E680000002E2E5C2E51
:1083C0002E5C2E2E5C2E2E5C2E2E5C496E636C7500
:1083D00064655C6170705F636F6D6D6F6E5C617022
:1083E000705F627574746F6E2E68000000204649DD
:1083F000486088600720086101204449C8600F2058
:10840000414940310860012041490860704770B51A
:10841000404A3F49C039022047DF044600BF254695
:10842000002D06D000BF3CA253212846FDF7E2FFF5
:1084300000BF00BF042045DF044600BF2546002DD5
:1084400006D000BF34A257212846FDF7D3FF00BF56
:1084500000BF70BD10B5002303221621022000F0DA
:108460001DF810BD10B5FFF7D2FFFFF7BFFFFFF7F4
:10847000F1FF01202549086010BD00202549083979
:108480005122120189188860012020494860162075
:1084900001218140234AD16000BF704770B5002B95
:1084A0000CD101248C401F4DEC601F4C194D083D30
:1084B00051263601AD198600AC510BE001248C40E9
:1084C000184DAC60194C134D083D51263601AD19BD
:1084D0008600AC5100BF00BF00BF012485000D4ED7
:1084E000083EAD192C600C0203252C4315042C43C7
:1084F0001D052C43354651263601AD198600AC5179
:1085000000BF00BF00BF70BD00A5004000A000403C
:1085100000A20040086000402E2E5C62757A7A65E9
:10852000722E630000050050031F0200031F0100AC
:108530008A8802827047FE490870704710B5002093
:10854000FFF7F9FF0020FB490870FB48007800287E
:1085500006D003F0F4FC04F004FD0020F649087096
:10856000012003F07DFB10BD70B504460D46F148B7
:10857000007800280CD0FFF7E1FF00BFBFF34F8F5A
:10858000EE48EF49C860BFF34F8F00BF00BFFEE762
:108590000020C043208270BD33B58BB004463C2020
:1085A000E8494870142102A807F028FA02A90CA88B
:1085B00004F07CFD1421019100200790089009909F
:1085C0000A90E14801886846818301218177002172
:1085D000018401A8099002A80A90208A07A9A6DFB1
:1085E0000546002D08D1D2480078012804D1D7488B
:1085F0000088401CD549088028460DB030BD70B5B4
:1086000005463FE0D2480088002802D1FFF796FFD8
:108610003CE0D04801882846FFF7BEFF0446002C06
:1086200001D0204670BD002C05D0082C1BD0CA48B4
:1086300020181CD116E0BE480078012811D1C54889
:108640000088401CC349088008460088C349884206
:1086500002DD0120BF490880BD480088401EBC499A
:1086600008800EE00DE0FFF769FF2046DAE7A86812
:10867000002802D02046A9688847FFF75FFF204600
:10868000D0E700BFAA4800780128BBD000BF002077
:10869000C8E770B505462BE0AC480088B0490988AA
:1086A000884202DDFFF74AFF22E0A84801882846F9
:1086B000FFF772FF0446002C01D0204670BD002C4D
:1086C00005D0082C05D0A448201806D100E00EE003
:1086D0000DE0FFF733FF2046F0E7A868002802D03E
:1086E0002046A9688847FFF729FF2046E6E700BF34
:1086F0008F4800780128CFD00020DFE733B58BB05A
:108700000446142102A807F079F93C208D494870ED
:1087100002A90CA804F0D1FD1421019100200790BA
:10872000089009900A908848018868468183012151
:1087300081770021018401A8099002A80A90208A6B
:1087400007A9A6DF0546002D08D179480078012841
:1087500004D17E480088401C7C49088028460DB022
:1087600030BD70B5054636E0784800887D490988F7
:1087700088420DDD55217C48007802017B488150FC
:1087800001206D49087004F0B2FFFFF7D7FE26E024
:108790006E4801882846FFF7B1FF0446002C01D03F
:1087A000204670BD002C05D0082C05D06A48201842
:1087B00006D100E00EE00DE0FFF7C0FE2046F0E736
:1087C000A868002802D02046A9688847FFF7B6FEAF
:1087D0002046E6E700BF564800780128C4D000BF15
:1087E0000020DEE770B504460D4652480078802828
:1087F0000AD08C2804D092280AD095280DD108E000
:108800002046FFF7AEFF08E02046FFF742FF04E0F6
:1088100000BF2046FFF7F3FE00BF00BF70BD70B57C
:1088200005460C462088012811D0102804D01128B4
:1088300007D0502810D109E021462846FFF778FEDE
:108840000BE021462846FFF78FFE06E005E02146B3
:108850002846FFF7C7FF00E000BF00BF70BDF0B5BE
:108860008FB006460C4617461D4600BF002F01D0AC
:10887000012000E0002000900098002805D100BFF2
:108880003BA29721FDF7B6FD00BF00BF00BF002D42
:1088900001DD012000E0002000900098002805D1B3
:1088A00000BF33A29821FDF7A5FD00BF00BF1C212A
:1088B00007A807F0A3F83248844207D16946087F29
:1088C0000821884308306946087710E02C48801E4C
:1088D00084420CD16846007F02218843811C68468F
:1088E0000177007F10218843103069460877002007
:1088F00008900A900B900C900D90317808A8817622
:10890000684604870020019000BF6846007901098D
:108910000901491C684601710079F0218843103033
:108920006946087100BF00BF68464079010929E027
:10893000A62000209D210020942000200400FA059C
:1089400000ED00E09F21002096200020A8200020BC
:10895000AA210020A4210020FCCFFFFFA0FE0000E0
:10896000A2210020B0210020B4210020602A002094
:108970002E2E5C626C655F7376732E6300000000C0
:1089800003C200000901491C684641714079F02189
:10899000884310306946487100BF684680790621D7
:1089A0008843811C6846817180790821884301468B
:1089B000684681718079102188430146684681713B
:1089C00080794108490068468171142102A807F0A6
:1089D00015F80EA8029001A80390684605820021B0
:1089E000418285820697F08902AA07A9149BA2DF1B
:1089F0000FB0F0BD70B586B005460C46304B0FCBBE
:108A000001AE0FC6206868600020C0432882294656
:108A100001A863DF0646002E02D0304606B070BDC6
:108A2000297868468175274981822A460E3205A930
:108A30000120A0DF0646002E01D03046EEE7208A56
:108A400000280CDD20480090238A204928466269CE
:108A5000FFF705FF0646002E01D03046DEE7208BEB
:108A600000280DDD1A480090238B1849891E2846DE
:108A7000E269FFF7F4FE0646002E01D03046CDE74E
:108A80000020CBE770B586B004460D461421019155
:108A9000002002900390049005900D4801886846DC
:108AA0000181012181720021818101A80490059535
:108AB000208A02A9A6DF0646304606B070BD000037
:108AC00048260200839E00009E20002003C2000072
:108AD00096200020F8B505460E460024327821463F
:108AE000641C6A5472782146641C6A5400BF022CCC
:108AF00001D1012000E000200746002F05D100BF72
:108B000009A22021FDF776FC00BF00BF2046F8BD7A
:108B100070B504460D46284606F0E6FE20806560E6
:108B200070BD0280416070472E2E5C626C655F7381
:108B300072765F636F6D6D6F6E2E6300002314217C
:108B40004143F94A53541421414389184B8002236D
:108B50001421414389188B60002314214143891853
:108B6000CB601421414389180B61142141438918BA
:108B70008B80704710B50020EC490880EC490870E4
:108B8000E949091F087048708870002403E02046F6
:108B9000FFF7D4FF641C1E2CF9D310BDFFB583B0C2
:108BA00004460F4615460326E148007800280BD1FD
:108BB000002D06D10698002803D10220DC49087058
:108BC00002E00120DA490870D9480078030008F073
:108BD00009FE07FC05304D82B7D4FC00D54840693A
:108BE000401C08D001221207126991B2D14A506983
:108BF00006F006FF02E0012000074069401E012147
:108C00000907096989B248430290012000070069F9
:108C10000004820C01200007006980B278430146FD
:108C2000029821DF0646002E02D10220C0490870BA
:108C3000CCE0384620DF0646002E16D1002D11D19B
:108C4000069800280AD12078042803D10720B849C3
:108C500008700AE00520B649087006E00420B4490F
:108C6000087002E00320B2490870AFE0B1484069E3
:108C7000401C08D001221207126991B2AD4A506916
:108C800006F0BEFE02E0012000074069401E0121FF
:108C90000907096989B24843012109070290096956
:108CA00089B2794308462A46029921DF0646002EFA
:108CB00010D1069800280AD12078042803D1062074
:108CC0009B49087006E005209949087002E00420DD
:108CD000974908707AE097484069401C08D0012203
:108CE0001207126991B2934A506906F089FE02E0B8
:108CF000012000074069401E01210907096989B266
:108D00004843A900401861884018012109070290D2
:108D1000096989B27943AA00891862888818069A75
:108D2000029921DF0646002E09D12078042803D1BC
:108D300006207F49087002E005207D49087045E063
:108D400001200007006980B27843AB00C018029090
:108D5000608882082169029821DF0646002E0BD127
:108D6000002D06D10698002803D10720704908700D
:108D700002E006206E49087028E06E484069401CF9
:108D800008D001221207126991B26A4A506906F0AE
:108D900037FE02E0012000074069401E012109075B
:108DA000096989B24843019001200007006981B236
:108DB000019806F025FE029020DF0646002E02D123
:108DC00007205B49087001E0FFE700BF00BF3046A5
:108DD00007B0F0BDF0B585B00F275348001F0078ED
:108DE0001421484350494418E5682078022804D0EB
:108DF000042823D005286FD16FE0206903904B48E9
:108E0000008886026088801B049003988019039074
:108E1000A08880194519012189020498884206D248
:108E2000049882082846039921DF074605E0FF22BF
:108E300001322846039921DF074680E0A06800013F
:108E40003D49401800890490A068000140184089FD
:108E50000390A06800014018406802900298A84260
:108E600005D10399049848436188884202D0A068DC
:108E700003280DD101200007006981B2284606F0C1
:108E8000BFFD2A4909884618304620DF074622E000
:108E900001200007006981B2284606F0B1FD0646B0
:108EA00001200007006980B27043281A80080190F1
:108EB00001200007006980B2711C4843618849198C
:108EC000401A8008009031462046009B019AFFF727
:108ED00065FE074600BF32E030E001200007006970
:108EE00081B2284606F08CFD0646A0884119012073
:108EF0000007006980B27043081A80080490A088B7
:108F000040196188421801200007006980B2711C75
:108F10004843801A8008039031462046039B049AF8
:108F2000FFF73CFE07460AE0AC270020B4200020F3
:108F3000B620002000100010042A002000BF00BF4F
:108F4000002F02D10120F7498870384605B0F0BDE6
:108F5000FFB581B0064617460024F24840781E2827
:108F600037D0F0480078EF4949784018C4B21E2C39
:108F700002DB20461E38C4B214206043E949091DB3
:108F80000E541420604340180761142060434118B8
:108F9000029805C8CA60886014206043E14A121D27
:108FA0008018049941801420604380180A998180B8
:108FB0000025101F8078002805D1FFF70BFF05461C
:108FC000112D00D10025D7484078401CD549487064
:108FD00000E00425284605B0F0BD10B50024D148B6
:108FE0004078002807DDFFF7F5FE0446002C02D08C
:108FF000112C00D10024204610BDF8B50446C94804
:10900000007814214843C749091D0E5C081F0078E9
:1090100014214843C349091D401880680001C24912
:109020000D58C048007814214843BE49091D401816
:109030004088091F0090097814225143B94A121D33
:1090400089180B69111F097814225143B54A121D62
:1090500089180846083022463146A847F8BDFEB5B3
:1090600005460026AF48807801287DD10020AD4913
:109070008870AE480078082811D1022D03D1002055
:10908000AA49087002E00020A9490870FFF7A5FF6F
:109090000646002E02D03046FFF7AFFFFEBD022D80
:1090A00002D0032D79D174E09E4800781421484302
:1090B0009C49091D44189F480088401C9D49088010
:1090C0002078022807D108460088800261888842FB
:1090D00001DB012000E0002007462078052805D1AB
:1090E00092480078072801D1012000E0002002907A
:1090F0002078042805D18D480078072801D1012067
:1091000000E000200190207804280BD189480088D5
:1091100080026188884205DB84480078002801D1FC
:10912000012000E0002000900298002807D101985B
:10913000002804D10098002801D1002F1FD0002062
:109140007A4908703046FFF758FF76490878FFF7EC
:10915000F5FC00207749088072484078401E71492C
:1091600048700846007800E01AE0401C0870084685
:1091700000781E2803DB084600781E380870FFF7C9
:109180002CFF0646002E02D03046FFF736FF05E0E2
:1091900003E00D20FFF731FF00E000BF00BF00BF7C
:1091A00000BF7BE770B5FFF7E5FC0020624908804F
:1091B00062484069401C08D001221207126991B22E
:1091C0005E4A506906F01CFC02E00120000740697D
:1091D000C01E01210907096989B24843584908603E
:1091E00000205449088000BF0DE0002102014E4BD1
:1091F00099500201D21811810201D2189181020105
:10920000D2185181401C0228EFD30820474908702A
:109210004A484069401C08D001221207126991B2E5
:10922000464A506906F0ECFB02E001200007406965
:10923000401E01210907096989B2484306460120F9
:109240000007006981B2304606F0DAFB054620DFF0
:109250000446002C04D1012032498870344908703A
:10926000204670BDF8B504460D4600BF3048007872
:10927000002801D10820F8BD00BF002C01D10E202C
:10928000F9E7002D01D10E20F5E72068002801D173
:109290000E20F0E7A08801210907096989B28842F8
:1092A00002DCA088102801DA0720E4E7E088002823
:1092B0002FD022484069401C08D0012212071269B1
:1092C00091B21E4A506906F09BFB02E001200007A4
:1092D0004069401E01210907096989B24843E188B4
:1092E000A2885143164A12688918884211D3E0882F
:1092F000A188484301210907096989B288420ADD2A
:10930000A18801221207126990B206F083FB00299E
:1093100001D00720AFE720798007800F12D0072007
:10932000A9E70000A8270020042A0020B62000207A
:10933000AC200020B4200020AE200020001000103F
:10934000B0200020FE480088022801D1042092E7C6
:10935000FB4800882860FB4800686860F849098875
:109360000901F94A891868684860F54909880901BE
:1093700020685050A088F24909880901891808819D
:10938000E088EF4909880901891848810027A688E3
:10939000E1884E4300BF781C87B2012000070069B6
:1093A00080B2B04205D201200007006980B2361AAF
:1093B00000E0002601200007006980B2E149096849
:1093C0004018E049086001200007006980B2B042FF
:1093D000E1D9DB4800880001DB4940188781D84883
:1093E0000088401CD6490880002044E73CB503466D
:1093F00000BFD6480078002801D108203CBD00BF3E
:10940000002B01D10E20F9E7002A01D10E20F5E74B
:109410001868022805D218680001CB4C2058002893
:1094200001D10720EAE75C68186801940090019C6C
:1094300018680001C44D4019008948432018019064
:10944000009800012C4600194089009C24016419F1
:1094500024896043009C2401641964680019019CFC
:10946000A04201D80720C9E7019C00985460106011
:109470000020C3E7F8B504460E4615461F4600BF58
:10948000B2480078002801D10820F8BD00BF002EA6
:1094900001D10E20F9E7002C01D10E20F5E720685C
:1094A000022805D220680001A7490858002801D1E8
:1094B0000720EAE720680001A34940184089216895
:1094C0000901A14A891809894843216809018918B5
:1094D000496840186168884201D80720D5E7002D07
:1094E00006D020680001984940180089A84201DA96
:1094F0000720CAE7E81921680901934A89180989F0
:10950000884201DD0720C0E7304600F05CF9002802
:1095100004D0384600F057F9002801D11020B4E7F4
:10952000606800F050F9002801D11020ADE72B460B
:109530003246214602200097FFF70AFDA5E7F8B55D
:1095400004460E4615461F4600BF80480078002896
:1095500001D10820F8BD00BF002E01D10E20F9E78F
:10956000002C01D10E20F5E72068022805D22068E2
:10957000000175490858002801D10720EAE7206852
:109580000001714940184089216809016E4A891813
:1095900009894843216809018918496840186168A8
:1095A000884201D80720D5E7002D06D020680001A9
:1095B000654940180089A84201DA0720CAE7E8197E
:1095C00021680901604A89180989884201DD07205C
:1095D000C0E7304600F0F7F8002804D0384600F025
:1095E000F2F8002801D11020B4E7606800F0EBF831
:1095F000002801D11020ADE72B4632462146052038
:109600000097FFF7A5FCA5E7FFB581B00C4615460E
:109610001E4600BF4D480078002802D1082005B042
:10962000F0BD00BF002C01D10E20F8E70198002802
:1096300001D10E20F3E72068022805D2206800013E
:1096400041490858002801D10720E8E720680001B7
:109650003D4940184089216809013B4A8918098918
:10966000484321680901891849684018616888429F
:1096700001D80720D3E7002D06D020680001324929
:1096800040180089A84201DA0720C8E7A819216814
:1096900009012D4A89180989884201DD0720BEE7A2
:1096A000019800F090F8002804D0304600F08BF8C4
:1096B000002801D11020B2E7606800F084F800288B
:1096C00001D11020ABE7606881192A46019806F0A5
:1096D0002DF90095206800011B490F580022032135
:1096E0002046019BB847002099E7F8B504460D468F
:1096F00000BF16480078002801D10820F8BD00BF3F
:10970000002C01D10E20F9E72068022805D220683C
:1097100000010D490858002801D10720EEE7206814
:10972000000109494018408921680901064A891841
:10973000098948432168090189184968401807E0E8
:10974000AE200020B0200020042A0020AC20002001
:109750006168884201D80720D0E7606800F033F8DC
:10976000002801D11020C9E723681B011A4FDB191B
:1097700062685B68D01A226812013B46D2181189D0
:1097800006F03EF9002901D00720B7E700202B465C
:109790000246214600900420FFF7DAFB06463046D9
:1097A000ACE7014600BF0D480078002801D1082031
:1097B000704700BF002901D10E20F9E70848407822
:1097C00008600020F4E701468807800F01D10120DE
:1097D00070470020FCE70000042A0020AC20002095
:1097E000A8270020F7B584B004460F4606980678EF
:1097F000B01C1F2803DC6078801C1F2802DD0C20B1
:1098000007B0F0BD1F20801B801E85B20295B11CE1
:10981000781802A97DDF03900398002801D00398EF
:10982000EEE72078022808D168460089A84204DCC7
:1098300009200190684605890BE0082001906078B6
:10984000002804D06078A84201DC657801E0684611
:109850000589681CC2B23046711CCEB23A543046FB
:10986000721CD6B20199395406980178A81C0818C0
:10987000C1B2069801700020C2E7F8B505460C4653
:109880002078001D1F2801DD0C20F8BD684679DF17
:109890000646002E01D03046F7E703212278501CFF
:1098A0002070A95419212278501C2070A9542078C6
:1098B00041196846008800F089FA21784018207024
:1098C0000020E2E7F8B505460F4616461C466868D4
:1098D000002801D10720F8BD2078801C2988401875
:1098E0001F2801DD0C20F6E72878401CC1B2227841
:1098F000501C2070B1542178481C207077542A885D
:1099000023789819696806F011F8207829784018AA
:1099100020700020DFE730B503461078C01C1F28F8
:1099200001DD0C2030BD02241578681C10704C55E8
:109930000A241578681C10704C551578681C107036
:109940004B550020EEE7FFB587B006461D46109C3C
:109950000020069020780590002747E0B900706845
:1099600041180A886846028149884181002203A97A
:1099700002A865DF04900498002802D004980BB078
:10998000F0BD6846017B099881422ED106980028D7
:1099900001D0002000E00220019020786946097B78
:1099A0004118019808181F2801DD0C20E7E70698E8
:1099B000002809D12078401C20702278511C08987A
:1099C0002170A854012006902078421903A902A80A
:1099D00065DF04900498002801D00498CFE7207830
:1099E0006946097B4018207000BF7F1C3088B84250
:1099F000B4DC0698002806D021780598401C081A87
:109A0000C1B2059829540020B9E7FFB581B00746D7
:109A100015460A9E009602223846049B0299FFF7DB
:109A200092FF0446002C02D0204605B0F0BD0096FF
:109A3000102229463846049BFFF785FF0446002C78
:109A400001D02046F1E70020EFE70146088806280C
:109A500008DB08881922D201904205DD0888E04A17
:109A6000904201D0072070474888062808DB4888C4
:109A70001922D201904205DD4888D94A904201D08E
:109A80000720F0E70888D64A904208D048889042DC
:109A900005D008884A88904201DD0720E3E70020CE
:109AA000E1E7F8B506460D4614462078801D1F28CC
:109AB00001D90C20F8BD3046FFF7C7FF0746002F3D
:109AC00001D03846F6E705212278501C2070A954B1
:109AD00012212278501C2070A95422785119308804
:109AE00000F074F92178401820702278511970889C
:109AF00000F06CF92178401820700020DAE7F8B502
:109B000005460E4614462879801CC7B22078801C72
:109B1000C0191F2801DD0C20F8BD781CC1B22278C5
:109B2000501C2070B154FF212278501C2070B15479
:109B300022789119288800F049F92178401820707E
:109B4000A88800280EDDA868002801D10720E3E7D7
:109B5000AA8823789819A96805F0E8FE2078297961
:109B6000401820700020D7E7FEB507460E46144681
:109B7000386B002801D10720FEBD0020019032E0A3
:109B8000396B0C22019850430D182879801CC0B203
:109B900000900098401CC1B22278501C2070B15433
:109BA00016212278501C2070B154227891192888EF
:109BB00000F00CF9217840182070A88800280EDDEC
:109BC000A868002801D10720D6E7AA882378981929
:109BD000A96805F0ABFE207829794018207001981B
:109BE000401CC0B201903420C15D01988142C7DCA5
:109BF0000020C1E7F8B504460F46164600250020B0
:109C000030702078002809D0324639462046FFF7C8
:109C1000E9FD0546002D01D02846F8BDA0780028B2
:109C200008D031463846FFF728FE0546002D01D002
:109C30002846F2E7A08800280ADD33463A4601218B
:109C4000201DFFF73FFE0546002D01D02846E4E722
:109C5000E06800280BD00020E168085632463946FB
:109C6000FFF759FE0546002D01D02846D5E7208A8A
:109C700000280CDD3B4606220221204610300096CB
:109C8000FFF7C3FE0546002D01D02846C5E7208B0F
:109C900000280CDD3B4607220321204618300096A1
:109CA000FFF7B3FE0546002D01D02846B5E7208C0E
:109CB00000280CDD3B46152214212046203000965A
:109CC000FFF7A3FE0546002D01D02846A5E7A06AB0
:109CD000002809D032463946A06AFFF7E2FE054661
:109CE000002D01D0284698E7E06A002809D03246C6
:109CF0003946E06AFFF703FF0546002D01D02846EC
:109D00008BE73420005D002809DD324639462046C5
:109D1000FFF72AFF0546002D01D028467DE728469B
:109D20007BE701468888002807D08868002804D08F
:109D3000886800780422104201D107207047002073
:109D4000FCE701468888002801DD072070470020D5
:109D5000FCE7F3B593B00D460021129111911398D1
:109D6000002814D01398FFF7DCFF0446002C02D023
:109D7000204615B0F0BD12AA09A91398FFF73AFFC3
:109D80000446002C01D02046F3E709AE00E000268F
:109D9000002D13D02846FFF7D4FF0446002C01D035
:109DA0002046E6E711AA01A92846FFF723FF04464B
:109DB000002C01D02046DCE701AF00E0002710A80E
:109DC00003793A46017A304672DFD2E702460A70DA
:109DD000FF2000021040001248700220704700006F
:109DE000FFFF000030B50346481CC004040C1046B9
:109DF0008507AD0F01D1012500E00025002D01D11F
:109E0000072030BD794802601019794D2860002084
:109E1000784D2870784D2870784803807848018004
:109E20000020EEE7F7B584B00C4674480088844201
:109E30006BDC744D0020039000F0A4F802900298AF
:109E4000012814D003A82EDF0746022F01D172B6D5
:109E50000CE000BF0197019F002F06D000BF6AA24F
:109E600059210198FCF7C6FA00BF00BF00BF614846
:109E7000007800F0B1F860490978884206D05D4862
:109E80000578007800F0A8F85A490870029801286F
:109E900014D062B66846007B2FDF0746022F0CD035
:109EA00000BF0197019F002F06D000BF56A261217D
:109EB0000198FCF79FFA00BF00BF00BF51488542E0
:109EC00021D0E900494A06981268505004980028A9
:109ED00011D0002C0FDD494909886943444A1268B2
:109EE00088182246049905F021FDE8003F490968D9
:109EF0004018848005E00020E9003C4A1268891877
:109F00008880002600E0042600E00926304607B0DD
:109F1000F0BDF8B505460E461746052000903548B9
:109F200000783549097888421BD033480478007896
:109F300000F052F8304908703048008860432C49DE
:109F4000096840182860E00028490968401880889E
:109F50003080E000254909680858386000200090EA
:109F600000BF0098F8BD0EB504E068468188009AED
:109F7000029890476A4601A902A8FFF7CAFF002885
:109F8000F3D00EBD10B52D484068C105C90D00299C
:109F900020D00A46103A50B200280DDA274B1C3365
:109FA0000407240F083CA408A4001B598407E40EEE
:109FB000E3401B069B0F0BE0214B032424021B19DB
:109FC0008408A4001B598407E40EE3401B069B0F82
:109FD000D8B210BD0420FCE7014609480088814240
:109FE00001DA481C00E00020C0B27047B820002011
:109FF000BC200020C1200020C0200020C220002062
:10A00000C4200020FFFF00002E2E5C2E2E5C2E2E82
:10A010005C2E2E5C2E2E5C536F757263655C6170D6
:10A02000705F636F6D6D6F6E5C6170705F7363689E
:10A030006564756C65722E630000000000ED00E041
:10A0400000E100E010B5002819DAF74A03071B0FFA
:10A05000083B9B089B00D2588307DC0EFF23A340DC
:10A060009A438B071B0E8407E40EA3401A43EE4B62
:10A070000407240F083CA408A4001A5118E0EB4A76
:10A0800003231B02D21883089B00D2588307DC0EDF
:10A09000FF23A3409A438B071B0E8407E40EA340C3
:10A0A0001A43E24B032424021B198408A4001A510A
:10A0B00010BD10B50446DE48846003211120FFF76F
:10A0C000C1FF10BD10B501200004DA494860D9492C
:10A0D00040394860112000F0E7FC112000F0D6FC68
:10A0E0000120D54908602F20FCF764F80120D349EE
:10A0F000087010BD10B5112001218140CB4A80327B
:10A10000116000BF01200004CA498860C949403974
:10A1100088600120C84948602F20FCF74BF80120D7
:10A12000C54988600020C64908602F20FCF742F826
:10A130000020C249087010BDF0B5024624205043EB
:10A14000C04B1B68C118C0480068401C02D1BE4803
:10A15000026057E0BC484B68006824246043B94C57
:10A16000246800194068834217D8B7480068242340
:10A170005843B44B1B68C01840684B68C31AB248B8
:10A18000006824246043AF4C246800194360AE4843
:10A1900000680862AC48026034E04B68AA4D2C6845
:10A1A00028680DE024254543A64E3668AD196D6834
:10A1B0005B1B044624254543A24E3668AD19286A28
:10A1C000451C07D0242545439E4E3668AD196D6861
:10A1D0009D42E7D3451C0CD024254543994E366853
:10A1E000AD196D68EE1A24254543964F3F68ED1969
:10A1F0006E604B60086224256543924E3668AD1947
:10A200002A6200BFF0BDF8B506468F4805682C46A7
:10A2100009E0B44200D108E0254624206043894982
:10A2200009684018046A601CF3D100BF601C00D1AB
:10A23000F8BDA5420FD184480068242148438149D4
:10A2400009684018006A8049086008460068401C98
:10A2500001D1FFF74FFF242060437A490968401875
:10A26000476824206043774909684018016A242020
:10A270006843744A12688018016224206843714957
:10A2800009684018046A601C0CD0242060436D49A2
:10A29000096840184068C11924206043694A12685F
:10A2A0008018416000BFC3E710B5112000F0F5FB36
:10A2B00010BD10B5142000F0F0FB10BD70B50446C1
:10A2C00062480068002813D0604AE169A0691268FA
:10A2D0009047054600BF2E46002E07D000BF5CA267
:10A2E000FF2164313046FCF785F800BF00BF02E073
:10A2F000A169E069884770BDF8B553480068401C03
:10A3000039D0002700F002FC04464D480168204681
:10A3100000F0FFFB06464C48056811E02420684326
:10A320004849096844186068B04200D90AE060688A
:10A33000361A6068C719256A2046FFF7BFFF00BFBD
:10A34000681CEBD100BF4E4800784E49097888421E
:10A3500009D14C480078401CC0B24A490870022814
:10A3600001D10020087047480078800046490F500E
:10A37000FFF79FFF00BFF8BD014641480078414A02
:10A38000127890421DD03E480078401C3C4A107024
:10A3900010460078022801D100201070384800785B
:10A3A0008000394A10580860254A086812688018E9
:10A3B000234A1060104600680002000A1060012065
:10A3C00070470020086000BFFAE7FEB51E4800682D
:10A3D00001902E480078009076E00098C0002C494B
:10A3E0000968441825786BE01820684361680F18E5
:10A3F000681CC5B2A078A84200D100253878022890
:10A4000002D0032859D145E02421786848430D49FA
:10A4100009684618307D002804D07868FFF7F3FEFD
:10A42000002030754AE000001CED00E000E100E093
:10A43000001501404013014000100140EC200020B5
:10A44000D8200020C8200020D4200020E8200020B0
:10A450002E2E5C2E2E5C2E2E5C2E2E5C2E2E5C5311
:10A460006F757263655C6170705F636F6D6D6F6E49
:10A470005C6170705F74696D65722E63000000002E
:10A48000E4200020E5200020DC200020CD2000205A
:10A49000D02000200CE0FE49096824225143FD4AE7
:10A4A0001268881800210175F94A016A116000BF1D
:10A4B000F7480068401CEED100E000BF00BF00BFBD
:10A4C0006078A84290D100BF0098411EC9B20091A7
:10A4D000002882D1EE4801680198814201D0012014
:10A4E000FEBD0020FCE7F0B50346002426E0E84E60
:10A4F000366824277E43E74F3F68F01946689E423E
:10A5000003D94668F61A46601CE046689B1B4668FD
:10A510003419002646600675DD4E3568DC4F066A44
:10A520003E600669002E08D00E193602360A866093
:10A530000669C66016680662156000BFD4480068E8
:10A54000401CD4D100BFF0BDFEB50746D04800681E
:10A550000290D1480078019069E00198C000CF498D
:10A56000096845185CE0781C07D03E4624207043FB
:10A57000C84909684418276A23E0297818235943F1
:10A580006A6850182978491C29702978AA7891425C
:10A5900001D100212970466824217143BD4A126807
:10A5A0008C180178012902D1217D002900D037E0E3
:10A5B0008168A160C168E160016921614169E1616F
:10A5C00000BFB749A0680968401A0002000AB549EF
:10A5D000884208D2B249A068096800F09AFAE16896
:10A5E0004018606011E0AE48A168006800F091FA80
:10A5F0000090E1680098814204D9E1680098081A47
:10A60000606001E00020606000BF0020A060E060AA
:10A6100001202075801E20623046FFF78DFD00BFAF
:10A62000781CA0D12878697888429CD100BF019815
:10A63000411EC9B2019100288FD195480168029846
:10A64000814201D00120FEBD0020FCE7FEB590480C
:10A650000068401C34D08E480068242148438D494E
:10A6600009684018456800F051FA01908C48046868
:10A670002146019800F04DFAC61C8B48007800284E
:10A6800001D1FFF71FFDAE4201D2284600E030465F
:10A6900004192402240A20468449086000BF00F0FF
:10A6A00035FA00900199009800F033FAC71C204653
:10A6B000019900F02EFA874201D9FFF7F5FD01E07C
:10A6C000FFF718FDFEBDFEB50020C04301907448A1
:10A6D00004686F4807686846FFF74EFE0546FFF7B7
:10A6E00074FE0646002D05D001AA21460098FFF70A
:10A6F000FAFE01260198FFF727FF002800D0012667
:10A70000002E02D03846FFF7A1FFFEBD4170704712
:10A7100070B502460B465078411C9078884200D1B3
:10A7200000211078884201D1002070BD1960507856
:10A730001826704355682C182046F6E7FFB581B0FF
:10A7400005460E461746E900544A126888186946BD
:10A75000FFF7DEFF0446002C02D1042005B0F0BD57
:10A7600001202070666000F0D1F9A060E7600498D5
:10A7700020610A986061E900484A126888180099C7
:10A78000FFF7C4FFFFF795FD0020E7E7F8B50446A3
:10A790000E46E100414A126888186946FFF7B8FF83
:10A7A0000546002D01D10420F8BD022028706E60FE
:10A7B000E1003A4A126888180099FFF7A7FFFFF7EF
:10A7C00078FD0020F0E738B50446E100334A12680E
:10A7D00088186946FFF79CFF0546002D01D104202B
:10A7E00038BD03202870001F6860E1002B4A126802
:10A7F00088180099FFF78AFFFFF75BFD0020EFE75D
:10A8000010B500202A490860002129484160816074
:10A81000C16000202649403908604860FFF76CFDA0
:10A8200010BD10B5FFF74FFF10BDFFB581B00E464C
:10A8300017461C4620468107890F01D1012100E0FF
:10A840000021002902D1072005B0F0BD002C01D164
:10A850000720F9E7FFF74EFC16490A9808601648EA
:10A8600006700C48046000250CE000212420684399
:10A87000084A1268115424206843064A1268801856
:10A8800001756D1CB542F0DB24207043041915E0FE
:10A89000D4200020C8200020CD200020D02000207F
:10A8A000D8200020FFFF7F00EC2000204015014051
:10A8B00040110140E8200020CC20002003209749CF
:10A8C000087097480460183400250CE0E900944AA9
:10A8D0001268881800210170417087704460182147
:10A8E00079430C196D1C032DF0DB0020C0438D490A
:10A8F000086000208C4908708C490870142000F012
:10A90000D3F803211420FFF79DFB142000F0BEF8BC
:10A910000198FFF7CEFB00F0F9F8854908600020A8
:10A9200092E770B503460C4682480068002801D1C2
:10A93000082070BD002A01D10720FAE7002B01D1C1
:10A940000720F6E700211CE024204843794D2D68BC
:10A95000285C002814D1012524204843754E366810
:10A96000355424204843734D2D68401944702420E9
:10A970004843704D2D684019826119600020D8E766
:10A98000491C6D4800788142DEDB0420D1E710B518
:10A9900000F092F8012802D0032804D101E000243D
:10A9A00003E0012401E0022400BF00BF204610BDE7
:10A9B000FEB504460D4616465E480068002801D1E3
:10A9C0000820FEBD5C480078844201D2052D01D2EA
:10A9D0000720F6E72420604356490968085C0128EF
:10A9E00001D00820EDE7242060435249096840184F
:10A9F0004078012801D1284600E000200746FFF7F3
:10AA0000C6FF3B462A46214600960190FFF796FE78
:10AA1000D7E770B5044647480068002801D10820F0
:10AA200070BD45480078844201D30720F8E7242010
:10AA3000604340490968085C012801D00820EFE71D
:10AA4000FFF7A5FF05462146FFF7A0FEE8E710B592
:10AA500038480068002801D1082010BDFFF797FF93
:10AA60000446FFF7B0FEF8E710B5044600F04EF8D4
:10AA70002060002010BD70B505460E4614463146D4
:10AA8000284600F046F82060002070BDC206D20EB5
:10AA900001219140294A11607047C206D20E01215E
:10AAA0009140274A11607047C206D20E01219140A1
:10AAB000234A80321160704710B522484068C105B2
:10AAC000C90D002920D00A46103A50B200280DDAEC
:10AAD0001C4B1C330407240F083CA408A4001B597A
:10AAE0008407E40EE3401B069B0F0BE0134B03248B
:10AAF00024021B198408A4001B598407E40EE340B8
:10AB00001B069B0FD8B210BD0420FCE70E4840681E
:10AB100070470246501A0002000A7047CD200020FC
:10AB2000D0200020D4200020E4200020E5200020B8
:10AB3000D8200020C8200020CC20002000E100E028
:10AB400000E200E000ED00E00015014070B50646AF
:10AB50000C46154629462046FBF74EFC70BDF8B55D
:10AB600059480078002800D1F8BD584800680028EE
:10AB700001D1012000E0002005465548006800286A
:10AB800001D1012000E00020064600BF002D14D1B5
:10AB9000684651DF0446052C01D101250CE0002C4C
:10ABA00006D000BF4BA269212046FBF723FC03E03F
:10ABB000464900980968884700BF002E1AD15348BB
:10ABC0000088009069465248006861DF0446052C01
:10ABD00001D101260DE0002C06D000BF3DA280214E
:10ABE0002046FBF707FC04E049480068384909683B
:10ABF000884700BF002D02D0002E00D000E0C5E73E
:10AC000000BF00BFB0E7FFB581B00C4616461F4637
:10AC1000002C02D1072005B0F0BD20468107890F26
:10AC200001D1012100E00021002901D10720F2E734
:10AC30003748046035480680364807603649019831
:10AC400010DF0546002D01D02846E4E701201E490B
:10AC50000870162026DFDEE710B511DF0446002C51
:10AC600001D0012000E0002017490870204610BDE7
:10AC70000146002901D10E207047154801600020CF
:10AC8000FAE70146002901D10E2070470F48016004
:10AC90000020FAE770B51F480068002811D01D4851
:10ACA00000688047044600BF2546002D07D000BF3E
:10ACB00008A2FF2133312846FBF79CFB00BF00BFF1
:10ACC00001E0FFF74CFF70BDF020002004210020C0
:10ACD000002100202E2E5C2E2E5C2E2E5C2E2E5C53
:10ACE0002E2E5C536F757263655C73645F636F6D6A
:10ACF0006D6F6E5C736F66746465766963655F68BB
:10AD0000616E646C65722E6300000000FC20002000
:10AD1000F8200020F42000204DAB0100F8B50446D7
:10AD20000D4692480068002813D0EAB221788F4B74
:10AD300060681B689847064600BF3746002F06D05C
:10AD400000BF8BA228213846FBF754FB00BF00BF91
:10AD50000CE0012D04D1207801216268904705E0C4
:10AD6000002D03D12078002162689047F8BDF8B526
:10AD7000074669468A48007800F0EBFA0646002E3E
:10AD800000D0F8BD002532E0E80086490968441883
:10AD90008548006822780121914008420FD0606800
:10ADA00000280CD06078012804D100212046FFF74C
:10ADB000B5FF1AE001212046FFF7B0FF15E07A4801
:10ADC000406822780121914008420ED06068002836
:10ADD0000BD06078012804D101212046FFF79EFFA7
:10ADE00003E000212046FFF799FF681CC5B26F48B9
:10ADF00000788542C8DB00BFC3E770B504460D4646
:10AE00006B480068FFF705FE0646002E00D070BDB7
:10AE1000654844600560204628430246654801684D
:10AE200063480068FFF7C4FD064600BFEFE7FFB5C3
:10AE300083B006460C461746052F02D2072007B0FE
:10AE4000F0BD58480660594804705A4807604749A1
:10AE500006980860002515E0E10088190278009244
:10AE600081780191019989000522120707231B02AD
:10AE7000D318009A9200995000BF027801219140A6
:10AE80000D4300BF2046611ECCB20028E4D14A4BDE
:10AE90002A462946424800F087F902900298002885
:10AEA00001D00298CBE7454A00214148FFF739FD20
:10AEB000C5E710B53B480068002801D1082010BD47
:10AEC0003748007800F0B5F9F9E710B53548006863
:10AED000002801D1082010BD3148007800F018FA90
:10AEE0000446002C01D02046F5E731480068FFF702
:10AEF00090FDF0E7F8B506460C462C4800788642EF
:10AF000001DD0720F8BDF0002649096845182548ED
:10AF10000068002801D10820F4E76946204800783D
:10AF200000F017FA0746002F01D03846EAE76878A4
:10AF300000280BD129780098C840C007C00F02D064
:10AF40000020207010E0012020700DE068780128BA
:10AF50000AD129780098C840C007C00F02D001204C
:10AF6000207001E0002020700020CBE71421002099
:10AF70002E2E5C2E2E5C2E2E5C2E2E5C2E2E5C53E6
:10AF80006F757263655C6170705F636F6D6D6F6E1E
:10AF90005C6170705F627574746F6E2E6300000088
:10AFA0001821002008210020202100200C21002051
:10AFB0001C21002010210020FBAD01006FAD01001D
:10AFC000F0B502460C46002035E0012383401946C7
:10AFD00023460B422ED0D5680D4205D101235B04D8
:10AFE000D5680D43D56004E003231B04D5688D4369
:10AFF000D56005252D0707263602AD198600AD5907
:10B0000003263604B5430526360707273F02F619FF
:10B010008700F55105252D0707263602AD19860054
:10B02000AD591D430526360707273F02F61987004D
:10B03000F55100BF401C2028C7D3F0BDF0B585B046
:10B04000EC4805690020EC49C86300263DE0142067
:10B050007043EA49096844180120B040E84909688A
:10B06000084230D0E068C043684021680840074685
:10B0700039462046FFF7A4FFDE4800696840039088
:10B08000039800280ED003980543E068C043684049
:10B0900021680840009020460099FFF791FF009832
:10B0A000074300BFA068A84338400190606828406B
:10B0B0003840029001990298084303D0226901990F
:10B0C0000298904700BF701CC6B2CE4800788642F6
:10B0D000BDDB05B0F0BD10B50146002028E014220C
:10B0E0004A43C64B1B689A58012383401A421ED01C
:10B0F0000522120707231B02D2188300D25803230C
:10B100001B049A4305231B07072424021B198400F0
:10B110001A510522120707231B02D2188300D258A6
:10B1200005231B07072424021B1984001A51401C05
:10B130002028D4D310BD70B505460C46002C01D193
:10B14000072070BD20468107890F01D1012100E051
:10B150000021002901D10720F3E7A8480460AA488C
:10B1600005700020A7490870A5490860A648007826
:10B17000142250430146A148006804F03FFC00201F
:10B18000C043A2498860062001218140A04A116085
:10B1900000BF012100F0F7F80620012181409D4AFF
:10B1A000116000BF0020CCE7F8B504460D461646F6
:10B1B0001F4692480068002801D10820F8BD002FE2
:10B1C00001D10720FAE78F4800788F490978884233
:10B1D00001DB0420F2E7284630438A49097814222B
:10B1E0005143864A126850508648007814214843DB
:10B1F0008249096840184560824800781421484314
:10B200007E490968401886607E48007814214843CA
:10B210007A490968401807617A48007820707948AF
:10B220000078401C774908702078FFF754FF002011
:10B23000C4E7F0B5024671480068002801D1082033
:10B24000F0BD70480078824201DB0720F8E700205B
:10B25000694BD8636748046969480068002802D1CF
:10B2600058066A4B586001209040654B1B68184394
:10B27000634B1860002314205043604D2D68401923
:10B28000C360002140E001238B4018461423534340
:10B290005A4D2D68EB58034235D02546054202D061
:10B2A00003231B040EE001235B0414255543534E76
:10B2B0003668AD19ED680543142656434F4F3F6875
:10B2C000F619F56005252D0707263602AD198E0003
:10B2D000AD5903263604B5430526360707273F0236
:10B2E000F6198F00F55105252D0707263602AD19F1
:10B2F0008E00AD591D430526360707273F02F61974
:10B300008F00F55100BF491C2029BCD3002097E7CE
:10B3100010B5044639480068002801D1082010BD46
:10B3200038480078844201DB0720F8E72046FFF721
:10B33000D2FE0120A04032490968814330480160B3
:10B340000068002803D10120C00730498860002030
:10B35000E5E710B5024629480068002801D1082019
:10B3600010BD28480078824201DB0720F8E714204E
:10B370005043224C246803191E4800691C68204071
:10B3800008600020ECE710B5002819DA224A03070C
:10B390001B0F083B9B089B00D2588307DC0EFF2342
:10B3A000A3409A438B071B0E8407E40EA3401A4365
:10B3B000194B0407240F083CA408A4001A5118E0F4
:10B3C000144A03231B02D21883089B00D258830718
:10B3D000DC0EFF23A3409A438B071B0E8407E40E69
:10B3E000A3401A430B4B032424021B198408A40016
:10B3F0001A5110BD00050050406100402821002076
:10B400002C21002031210020302100200063004049
:10B4100080E200E000E100E01CED00E008B5402023
:10B42000F9490870E020F94908700220F6490090B7
:10B430000878F74B0122F54903F00EFA00BFF548F2
:10B4400000780028FBD008BD10B54820EE490870F0
:10B450000020EE490870EC4908780122EB4903F01E
:10B46000BFF900BFEB4800780028FBD04820E64930
:10B47000087008780222E64903F041FA00BFE54867
:10B4800000780028FBD010BD08B54420DE490870C4
:10B490000020DE4908700120DB4900900878DC4B71
:10B4A0000122DA4903F0D8F900BFDA480078002811
:10B4B000FBD008BD10B54820D34908700120D349FE
:10B4C0000870D14908780122D04903F089F900BFFA
:10B4D000D04800780028FBD04820CB490870087875
:10B4E0000222CB4903F00BFA00BFCA4800780028BB
:10B4F000FBD04820C44908700120C4490870A0202E
:10B500008870E1204870C04908780322BF4903F0E1
:10B5100067F900BFBF4800780028FBD010BD08B510
:10B520004020B9490870E520B84908700220B649A2
:10B5300000900878B64B0122B44903F08DF908BD9C
:10B5400008B54420B04908700220B0490870AE49DF
:10B5500000900878AE4B0122AC4903F07DF900BFA2
:10B56000AC4800780028FBD008BD10B54420A6499F
:10B5700008700020A5490870A0204870A2490878EA
:10B580000222A24903F02CF900BFA248007800284B
:10B59000FBD010BD10B544209B49087000209B498A
:10B5A00008704870984908780222984903F018F901
:10B5B00000BF984800780028FBD010BD00B589B0C6
:10B5C00095A00068089095A00068079094A0006876
:10B5D000069094A00068059093A00068049093A042
:10B5E0000068039092A00068029092A00068019009
:10B5F00091488078012807DB8F4880787F2803DC1A
:10B600008D488078694648728B48C078012807DBEE
:10B610008948C0787F2803DC8748C078694648712C
:10B6200086A00068009018207749087008780222E8
:10B6300008A903F0D5F800BF764800780028FBD0B1
:10B640001820714908700878022207A903F0C8F889
:10B6500000BF704800780028FBD018206A490870A5
:10B660000878022206A903F0BBF800BF69480078F9
:10B670000028FBD01820644908700878022205A928
:10B6800003F0AEF800BF634800780028FBD0182014
:10B690005D4908700878022204A903F0A1F800BFF0
:10B6A0005C4800780028FBD01820574908700878BB
:10B6B000022203A903F094F800BF5648007800283E
:10B6C000FBD01820504908700878022202A903F024
:10B6D00087F800BF4F4800780028FBD018204A495F
:10B6E00008700878022201A903F07AF800BF4948DF
:10B6F00000780028FBD018204349087008780222FF
:10B70000694603F06DF800BF424800780028FBD07E
:10B7100009B000BD1CB503F089F9FBF757FC44A044
:10B720000068019043A00068009043488078012899
:10B7300007DB414880787F2803DC3F4880786946F2
:10B7400048713D48C078012807DB3B48C0787F2816
:10B7500003DC3948C0786946487018202A490870C7
:10B760000878022201A903F03BF800BF29480078BD
:10B770000028FBD018202449087008780222694666
:10B7800003F02EF800BF234800780028FBD0FBF719
:10B790003AFC03F0A9F91CBD1CB529A00068019072
:10B7A00028A0006800906A201749087008780222D3
:10B7B000694603F015F800BF164800780028FBD052
:10B7C0006A20114908700878022201A903F008F8DC
:10B7D00000BF104800780028FBD01B48FAF7FAFC9D
:10B7E0001CBD08B519A0006800906A2006490870C1
:10B7F00008780222694602F0F3FF00BF054800788E
:10B800000028FBD008BD0000622100205821002044
:10B810005D210020C4210020204F000021090000EC
:10B82000224000002300000024000000250000004A
:10B830003207000033700000182B00203015000084
:10B84000200F0000238000001027000020000000CF
:10B850001CB503F0EBF80020AD490880AA20019048
:10B86000002000906A20AB4908700878012201A9E5
:10B8700002F0B6FF00BFA84800780028FBD06A207D
:10B88000A449087008780222694603F038F800BF1E
:10B89000A14800780028FBD0694648780002097862
:10B8A000084300B29A49088003F01EF91CBDF8B5A0
:10B8B000FFF7CEFF9948806C95490988081A00B2B5
:10B8C000934908800020085E04F06CFB009004F0AF
:10B8D00001FB0646924A934B04F0D0F9044604F06B
:10B8E0003FF9914908600846006804F0F3FA0646FB
:10B8F0008E4A8F4B04F0C2F9044604F031F98A49AC
:10B9000008608649C86C04F0E5FA04460D4686488E
:10B91000006804F0DFFA49004908064622462B4633
:10B9200006F01AFD02D200207F4908607E480168B7
:10B930008048006806F076FD7E4908600846006889
:10B940007D4908600846006804F0C4FA49004908C7
:10B95000044604F005F9784908600846006804F0D8
:10B96000E5FA764908807648007800284DD1754878
:10B970000078002824D169494031487904F01AFB45
:10B9800004466D480168204606F092FD18D26348CF
:10B9900040308079002809D10120694908706A483F
:10B9A0000088042108436849088002E001206549B5
:10B9B000087066480078002802D065A003F0A6FA57
:10B9C00060480078002820D0544940314A7989796C
:10B9D000501A04F0E7FA044657480168204606F07A
:10B9E00091FD12D200205749087001205449087077
:10B9F000554800880421084353490880534800787B
:10BA0000002802D057A003F081FAF8BDF8B5FFF77F
:10BA10001FFF59480078002822D1584800683C4947
:10BA200000228A5E801855490860554801880088C0
:10BA3000401C534A1080FF20F530814210DB014644
:10BA40004E48006803F0E6FF4C49086001204A496F
:10BA5000087000204B4908604B490860484908803D
:10BA600045480078002851D04848007800284DD13A
:10BA7000274A115E414A1268881A04F093FA424933
:10BA800008600846006804F025FA490049080446A1
:10BA900004F066F83C4908603A4801683A48006892
:10BAA00006F030FD03D8384800683649086034484D
:10BAB00001880088401C324A1080FF20F530814206
:10BAC00024DB3048006804F005FA0646144A154B9A
:10BAD00004F0D4F8044604F043F82A490860084604
